{
  "abi": [
    {
      "inputs": [
        {
          "internalType": "contract IWorld",
          "name": "_world",
          "type": "address"
        },
        {
          "internalType": "address",
          "name": "_components",
          "type": "address"
        }
      ],
      "stateMutability": "nonpayable",
      "type": "constructor"
    },
    {
      "inputs": [],
      "name": "Ownable__NotOwner",
      "type": "error"
    },
    {
      "inputs": [],
      "name": "Ownable__NotTransitiveOwner",
      "type": "error"
    },
    {
      "anonymous": false,
      "inputs": [
        {
          "indexed": true,
          "internalType": "address",
          "name": "previousOwner",
          "type": "address"
        },
        {
          "indexed": true,
          "internalType": "address",
          "name": "newOwner",
          "type": "address"
        }
      ],
      "name": "OwnershipTransferred",
      "type": "event"
    },
    {
      "inputs": [
        {
          "internalType": "bytes",
          "name": "arguments",
          "type": "bytes"
        }
      ],
      "name": "execute",
      "outputs": [
        {
          "internalType": "bytes",
          "name": "",
          "type": "bytes"
        }
      ],
      "stateMutability": "nonpayable",
      "type": "function"
    },
    {
      "inputs": [
        {
          "components": [
            {
              "internalType": "uint256",
              "name": "useEntity",
              "type": "uint256"
            },
            {
              "internalType": "enum ActionEnum[2]",
              "name": "actionTypes",
              "type": "uint8[2]"
            }
          ],
          "internalType": "struct ActionType[]",
          "name": "actions",
          "type": "tuple[]"
        }
      ],
      "name": "executeTyped",
      "outputs": [
        {
          "internalType": "bytes",
          "name": "",
          "type": "bytes"
        }
      ],
      "stateMutability": "nonpayable",
      "type": "function"
    },
    {
      "inputs": [],
      "name": "owner",
      "outputs": [
        {
          "internalType": "address",
          "name": "",
          "type": "address"
        }
      ],
      "stateMutability": "view",
      "type": "function"
    },
    {
      "inputs": [
        {
          "internalType": "address",
          "name": "account",
          "type": "address"
        }
      ],
      "name": "transferOwnership",
      "outputs": [],
      "stateMutability": "nonpayable",
      "type": "function"
    }
  ],
  "bytecode": {
    "object": "0x60806040523480156200001157600080fd5b50604051620010b0380380620010b08339810160408190526200003491620001a8565b81816200004133620000f7565b6001600160a01b03811615620000585780620000bd565b816001600160a01b031663ba62fbe46040518163ffffffff1660e01b8152600401602060405180830381865afa15801562000097573d6000803e3d6000fd5b505050506040513d601f19601f82011682018060405250810190620000bd9190620001e7565b600080546001600160a01b039283166001600160a01b0319918216179091556001805494909216931692909217909155506200020e915050565b60006200010e6200016b60201b6200049a1760201c565b80546040519192506001600160a01b03808516929116907f8be0079c531659141344cd1fd0a4f28419497f9722a3daafe3b4186f6b6457e090600090a380546001600160a01b0319166001600160a01b0392909216919091179055565b7f8a22373512790c48b83a1fe2efdd2888d4a917bcdc24d0adf63e60f67168046090565b6001600160a01b0381168114620001a557600080fd5b50565b60008060408385031215620001bc57600080fd5b8251620001c9816200018f565b6020840151909250620001dc816200018f565b809150509250929050565b600060208284031215620001fa57600080fd5b815162000207816200018f565b9392505050565b610e92806200021e6000396000f3fe608060405234801561001057600080fd5b506004361061004c5760003560e01c806309c5eabe146100515780631a9219b21461007a5780638da5cb5b1461008d578063f2fde38b146100ba575b600080fd5b61006461005f3660046109e3565b6100cf565b6040516100719190610a96565b60405180910390f35b610064610088366004610b02565b6103a4565b6100956103d9565b60405173ffffffffffffffffffffffffffffffffffffffff9091168152602001610071565b6100cd6100c8366004610b77565b61041e565b005b60008054606091906101179073ffffffffffffffffffffffffffffffffffffffff167f49a4584d9706380e35459e1f31e673445371b5bac20aa516f8ba8650b18431066104be565b90506000805461013c9073ffffffffffffffffffffffffffffffffffffffff1661060a565b600181111561014d5761014d610bb4565b146101b9576040517f08c379a000000000000000000000000000000000000000000000000000000000815260206004820152601d60248201527f416374696f6e53797374656d3a20696e636f727265637420706861736500000060448201526064015b60405180910390fd5b600080546101dc9073ffffffffffffffffffffffffffffffffffffffff16610616565b6040517f0ff4c91600000000000000000000000000000000000000000000000000000000815233600482015290915063ffffffff82169073ffffffffffffffffffffffffffffffffffffffff841690630ff4c91690602401602060405180830381865afa158015610251573d6000803e3d6000fd5b505050506040513d601f19601f820116820180604052508101906102759190610be3565b10610302576040517f08c379a000000000000000000000000000000000000000000000000000000000815260206004820152602660248201527f416374696f6e53797374656d3a20616c7265616479206163746564207468697360448201527f20726f756e64000000000000000000000000000000000000000000000000000060648201526084016101b0565b6000546040517f8f37422400000000000000000000000000000000000000000000000000000000815273__$5070b677914a1c7873d62e9c7869a10915$__91638f3742249161036d9173ffffffffffffffffffffffffffffffffffffffff1690600190600401610c37565b60006040518083038186803b15801561038557600080fd5b505af4158015610399573d6000803e3d6000fd5b505050505050919050565b60606103d083836040516020016103bc929190610c61565b6040516020818303038152906040526100cf565b90505b92915050565b60006104197f8a22373512790c48b83a1fe2efdd2888d4a917bcdc24d0adf63e60f6716804605473ffffffffffffffffffffffffffffffffffffffff1690565b905090565b7f8a22373512790c48b83a1fe2efdd2888d4a917bcdc24d0adf63e60f6716804605473ffffffffffffffffffffffffffffffffffffffff16331461048e576040517f2f7a8ee100000000000000000000000000000000000000000000000000000000815260040160405180910390fd5b61049781610622565b50565b7f8a22373512790c48b83a1fe2efdd2888d4a917bcdc24d0adf63e60f67168046090565b6040517ffbdfa1ea00000000000000000000000000000000000000000000000000000000815260048101829052600090819073ffffffffffffffffffffffffffffffffffffffff85169063fbdfa1ea90602401600060405180830381865afa15801561052e573d6000803e3d6000fd5b505050506040513d6000823e601f3d9081017fffffffffffffffffffffffffffffffffffffffffffffffffffffffffffffffe01682016040526105749190810190610ce5565b905080516000036105e1576040517f08c379a000000000000000000000000000000000000000000000000000000000815260206004820152601160248201527f6964206e6f74207265676973746572656400000000000000000000000000000060448201526064016101b0565b610602816000815181106105f7576105f7610d8b565b602002602001015190565b949350505050565b60006103d3824261062b565b60006103d38242610774565b610497816108b9565b600080610658847f0f9dd24bbd2f19675b3fca355a567814eafa262312f033a2e289b40d70c055886104be565b6040517f0ff4c91600000000000000000000000000000000000000000000000000000000815261060d600482015273ffffffffffffffffffffffffffffffffffffffff9190911690630ff4c91690602401606060405180830381865afa1580156106c6573d6000803e3d6000fd5b505050506040513d601f19601f820116820180604052508101906106ea9190610dba565b8051909150831015610758576040517f08c379a000000000000000000000000000000000000000000000000000000000815260206004820152600e60248201527f696e76616c696420617454696d6500000000000000000000000000000000000060448201526064016101b0565b80516000906107679085610e22565b50600092506103d3915050565b6000806107a1847f0f9dd24bbd2f19675b3fca355a567814eafa262312f033a2e289b40d70c055886104be565b6040517f0ff4c91600000000000000000000000000000000000000000000000000000000815261060d600482015273ffffffffffffffffffffffffffffffffffffffff9190911690630ff4c91690602401606060405180830381865afa15801561080f573d6000803e3d6000fd5b505050506040513d601f19601f820116820180604052508101906108339190610dba565b80519091508310156108a1576040517f08c379a000000000000000000000000000000000000000000000000000000000815260206004820152601260248201527f696e76616c696420626c6f636b2074696d65000000000000000000000000000060448201526064016101b0565b80516000906108b09085610e22565b95945050505050565b7f8a22373512790c48b83a1fe2efdd2888d4a917bcdc24d0adf63e60f671680460805460405173ffffffffffffffffffffffffffffffffffffffff8481169216907f8be0079c531659141344cd1fd0a4f28419497f9722a3daafe3b4186f6b6457e090600090a380547fffffffffffffffffffffffff00000000000000000000000000000000000000001673ffffffffffffffffffffffffffffffffffffffff92909216919091179055565b7f4e487b7100000000000000000000000000000000000000000000000000000000600052604160045260246000fd5b604051601f82017fffffffffffffffffffffffffffffffffffffffffffffffffffffffffffffffe016810167ffffffffffffffff811182821017156109db576109db610965565b604052919050565b600060208083850312156109f657600080fd5b823567ffffffffffffffff80821115610a0e57600080fd5b818501915085601f830112610a2257600080fd5b813581811115610a3457610a34610965565b610a64847fffffffffffffffffffffffffffffffffffffffffffffffffffffffffffffffe0601f84011601610994565b91508082528684828501011115610a7a57600080fd5b8084840185840137600090820190930192909252509392505050565b600060208083528351808285015260005b81811015610ac357858101830151858201604001528201610aa7565b5060006040828601015260407fffffffffffffffffffffffffffffffffffffffffffffffffffffffffffffffe0601f8301168501019250505092915050565b60008060208385031215610b1557600080fd5b823567ffffffffffffffff80821115610b2d57600080fd5b818501915085601f830112610b4157600080fd5b813581811115610b5057600080fd5b866020606083028501011115610b6557600080fd5b60209290920196919550909350505050565b600060208284031215610b8957600080fd5b813573ffffffffffffffffffffffffffffffffffffffff81168114610bad57600080fd5b9392505050565b7f4e487b7100000000000000000000000000000000000000000000000000000000600052602160045260246000fd5b600060208284031215610bf557600080fd5b5051919050565b60028110610c33577f4e487b7100000000000000000000000000000000000000000000000000000000600052602160045260246000fd5b9052565b73ffffffffffffffffffffffffffffffffffffffff8316815260408101610bad6020830184610bfc565b60208082528181018390526000908460408401835b86811015610cda578235825283820184840160005b6002808210610c9a5750610cc4565b8235818110610ca857600080fd5b610cb28582610bfc565b50509186019190860190600101610c8b565b5050506060928301929190910190600101610c76565b509695505050505050565b60006020808385031215610cf857600080fd5b825167ffffffffffffffff80821115610d1057600080fd5b818501915085601f830112610d2457600080fd5b815181811115610d3657610d36610965565b8060051b9150610d47848301610994565b8181529183018401918481019088841115610d6157600080fd5b938501935b83851015610d7f57845182529385019390850190610d66565b98975050505050505050565b7f4e487b7100000000000000000000000000000000000000000000000000000000600052603260045260246000fd5b600060608284031215610dcc57600080fd5b6040516060810181811067ffffffffffffffff82111715610def57610def610965565b80604052508251815260208301516020820152604083015160ff81168114610e1657600080fd5b60408201529392505050565b818103818111156103d3577f4e487b7100000000000000000000000000000000000000000000000000000000600052601160045260246000fdfea2646970667358221220a2ab84192565ebcd1935583a2969ae6b3d2957d3f81f6a33f0db9db642efc3a364736f6c63430008110033",
    "linkReferences": {
      "src/libraries/LibAction.sol": {
        "LibAction": [
          {
            "start": 1355,
            "length": 20
          }
        ]
      }
    }
  },
  "methodIdentifiers": {
    "execute(bytes)": "09c5eabe",
    "executeTyped((uint256,uint8[2])[])": "1a9219b2",
    "owner()": "8da5cb5b",
    "transferOwnership(address)": "f2fde38b"
  },
  "id": 75
}