{
  "abi": [
    {
      "inputs": [
        {
          "internalType": "contract IWorld",
          "name": "_world",
          "type": "address"
        },
        {
          "internalType": "address",
          "name": "_components",
          "type": "address"
        }
      ],
      "stateMutability": "nonpayable",
      "type": "constructor"
    },
    {
      "inputs": [],
      "name": "Ownable__NotOwner",
      "type": "error"
    },
    {
      "inputs": [],
      "name": "Ownable__NotTransitiveOwner",
      "type": "error"
    },
    {
      "anonymous": false,
      "inputs": [
        {
          "indexed": true,
          "internalType": "address",
          "name": "previousOwner",
          "type": "address"
        },
        {
          "indexed": true,
          "internalType": "address",
          "name": "newOwner",
          "type": "address"
        }
      ],
      "name": "OwnershipTransferred",
      "type": "event"
    },
    {
      "inputs": [
        {
          "internalType": "bytes",
          "name": "arguments",
          "type": "bytes"
        }
      ],
      "name": "execute",
      "outputs": [
        {
          "internalType": "bytes",
          "name": "",
          "type": "bytes"
        }
      ],
      "stateMutability": "nonpayable",
      "type": "function"
    },
    {
      "inputs": [
        {
          "internalType": "uint256",
          "name": "gameId",
          "type": "uint256"
        },
        {
          "internalType": "uint256",
          "name": "teamId",
          "type": "uint256"
        }
      ],
      "name": "executeTyped",
      "outputs": [
        {
          "internalType": "bytes",
          "name": "",
          "type": "bytes"
        }
      ],
      "stateMutability": "nonpayable",
      "type": "function"
    },
    {
      "inputs": [],
      "name": "owner",
      "outputs": [
        {
          "internalType": "address",
          "name": "",
          "type": "address"
        }
      ],
      "stateMutability": "view",
      "type": "function"
    },
    {
      "inputs": [
        {
          "internalType": "address",
          "name": "account",
          "type": "address"
        }
      ],
      "name": "transferOwnership",
      "outputs": [],
      "stateMutability": "nonpayable",
      "type": "function"
    }
  ],
  "bytecode": {
    "object": "0x60806040523480156200001157600080fd5b50604051620032fa380380620032fa8339810160408190526200003491620001a8565b81816200004133620000f7565b6001600160a01b03811615620000585780620000bd565b816001600160a01b031663ba62fbe46040518163ffffffff1660e01b8152600401602060405180830381865afa15801562000097573d6000803e3d6000fd5b505050506040513d601f19601f82011682018060405250810190620000bd9190620001e7565b600080546001600160a01b039283166001600160a01b0319918216179091556001805494909216931692909217909155506200020e915050565b60006200010e6200016b60201b620002121760201c565b80546040519192506001600160a01b03808516929116907f8be0079c531659141344cd1fd0a4f28419497f9722a3daafe3b4186f6b6457e090600090a380546001600160a01b0319166001600160a01b0392909216919091179055565b7f8a22373512790c48b83a1fe2efdd2888d4a917bcdc24d0adf63e60f67168046090565b6001600160a01b0381168114620001a557600080fd5b50565b60008060408385031215620001bc57600080fd5b8251620001c9816200018f565b6020840151909250620001dc816200018f565b809150509250929050565b600060208284031215620001fa57600080fd5b815162000207816200018f565b9392505050565b6130dc806200021e6000396000f3fe608060405234801561001057600080fd5b506004361061004c5760003560e01c806309c5eabe146100515780638da5cb5b1461007a578063915657fb146100a7578063f2fde38b146100ba575b600080fd5b61006461005f3660046121c7565b6100cf565b60405161007191906122de565b60405180910390f35b610082610115565b60405173ffffffffffffffffffffffffffffffffffffffff9091168152602001610071565b6100646100b53660046122f1565b61015a565b6100cd6100c8366004612313565b610196565b005b6060600080838060200190518101906100e89190612349565b915091506100f582610236565b600061010083610336565b905061010d818484610535565b505050919050565b60006101557f8a22373512790c48b83a1fe2efdd2888d4a917bcdc24d0adf63e60f6716804605473ffffffffffffffffffffffffffffffffffffffff1690565b905090565b606061018f838360405160200161017b929190918252602082015260400190565b6040516020818303038152906040526100cf565b9392505050565b7f8a22373512790c48b83a1fe2efdd2888d4a917bcdc24d0adf63e60f6716804605473ffffffffffffffffffffffffffffffffffffffff163314610206576040517f2f7a8ee100000000000000000000000000000000000000000000000000000000815260040160405180910390fd5b61020f81610582565b50565b7f8a22373512790c48b83a1fe2efdd2888d4a917bcdc24d0adf63e60f67168046090565b6000805461027a9073ffffffffffffffffffffffffffffffffffffffff167f0f9dd24bbd2f19675b3fca355a567814eafa262312f033a2e289b40d70c0558861058b565b6040805160608101825260008152600160208201908152600582840190815292517f66c52bed0000000000000000000000000000000000000000000000000000000081526004810187905291516024830152516044820152905160ff16606482015290915073ffffffffffffffffffffffffffffffffffffffff8216906366c52bed90608401600060405180830381600087803b15801561031a57600080fd5b505af115801561032e573d6000803e3d6000fd5b505050505050565b6040805160808101825260088183019081527f506c617965722031000000000000000000000000000000000000000000000000606083015281528151808301909252601b82527f546865206f6e652077686f20637265617465207468652067616d65000000000060208084019190915281019190915260008054909133916103f49073ffffffffffffffffffffffffffffffffffffffff167f13f32cb89a86a373dc637b3b3ac445f7b735a976d40d242d8fb95792881bcb2361058b565b73ffffffffffffffffffffffffffffffffffffffff1663a235404483836040518363ffffffff1660e01b815260040161042e92919061236d565b600060405180830381600087803b15801561044857600080fd5b505af115801561045c573d6000803e3d6000fd5b50506000546104a4925073ffffffffffffffffffffffffffffffffffffffff1690507faf90be6cd7aa92d6569a9ae629178b74e1b0fbdd1097c27ec1dfffd2dc4c754061058b565b6040517f1ab06ee5000000000000000000000000000000000000000000000000000000008152600481018490526024810186905273ffffffffffffffffffffffffffffffffffffffff9190911690631ab06ee590604401600060405180830381600087803b15801561051557600080fd5b505af1158015610529573d6000803e3d6000fd5b50939695505050505050565b8060010361054c5761054783836106db565b505050565b8060020361055e576105478383610c37565b8060030361057057610547838361118f565b806004036105475761054783836116e7565b61020f81611c3f565b6040517ffbdfa1ea00000000000000000000000000000000000000000000000000000000815260048101829052600090819073ffffffffffffffffffffffffffffffffffffffff85169063fbdfa1ea90602401600060405180830381865afa1580156105fb573d6000803e3d6000fd5b505050506040513d6000823e601f3d9081017fffffffffffffffffffffffffffffffffffffffffffffffffffffffffffffffe016820160405261064191908101906123d3565b905080516000036106b2576040517f08c379a000000000000000000000000000000000000000000000000000000000815260206004820152601160248201527f6964206e6f742072656769737465726564000000000000000000000000000000604482015260640160405180910390fd5b6106d3816000815181106106c8576106c8612479565b602002602001015190565b949350505050565b61074d826040518060400160405280600c81526020017f74686520696e66696e61757400000000000000000000000000000000000000008152506040518060600160405280603581526020016128a5603591396040518060600160405280602e8152602001612a68602e913985611ceb565b6107bf826040518060400160405280600e81526020017f616d65726963612063686176657a0000000000000000000000000000000000008152506040518060800160405280604e8152602001613059604e91396040518060600160405280602e8152602001612e31602e913985611ceb565b610831826040518060400160405280600581526020017f6e616d6f72000000000000000000000000000000000000000000000000000000815250604051806080016040528060428152602001612807604291396040518060600160405280602e8152602001612fcf602e913985611ceb565b6108a3826040518060400160405280600781526020017f6379636c6f707300000000000000000000000000000000000000000000000000815250604051806080016040528060428152602001612807604291396040518060600160405280602e81526020016128da602e913985611ceb565b610915826040518060400160405280600b81526020017f626c7565206d617276656c000000000000000000000000000000000000000000815250604051806080016040528060428152602001612807604291396040518060600160405280602e81526020016129b0602e913985611ceb565b610987826040518060400160405280600581526020017f6265617374000000000000000000000000000000000000000000000000000000815250604051806080016040528060428152602001612807604291396040518060600160405280602e8152602001612a96602e913985611ceb565b6109f9826040518060400160405280601081526020017f6d69737465722066616e74617374696300000000000000000000000000000000815250604051806080016040528060428152602001612807604291396040518060600160405280602e8152602001612e03602e913985611ceb565b610a6b826040518060400160405280600581526020017f7368757269000000000000000000000000000000000000000000000000000000815250604051806080016040528060428152602001612807604291396040518060600160405280602e815260200161302b602e913985611ceb565b610add826040518060400160405280600681526020017f6963656d616e0000000000000000000000000000000000000000000000000000815250604051806080016040528060428152602001612807604291396040518060600160405280602e81526020016126e0602e913985611ceb565b610b4f826040518060400160405280600c81526020017f6e69676874637261776c65720000000000000000000000000000000000000000815250604051806080016040528060428152602001612807604291396040518060600160405280602e8152602001612982602e913985611ceb565b610bc1826040518060400160405280600581526020017f726f677565000000000000000000000000000000000000000000000000000000815250604051806080016040528060428152602001612807604291396040518060600160405280602e8152602001612c48602e913985611ceb565b610c33826040518060400160405280600881526020017f6d79737469717565000000000000000000000000000000000000000000000000815250604051806080016040528060428152602001612807604291396040518060600160405280602e8152602001612fcf602e913985611ceb565b5050565b610ca9826040518060400160405280600481526020017f68756c6b00000000000000000000000000000000000000000000000000000000815250604051806080016040528060478152602001612cd2604791396040518060600160405280602e8152602001612d77602e913985611ceb565b610d1b826040518060400160405280600981526020017f6e69636b20667572790000000000000000000000000000000000000000000000815250604051806080016040528060478152602001612cd2604791396040518060600160405280602e8152602001612da5602e913985611ceb565b610d8d826040518060400160405280600981526020017f746865207468696e670000000000000000000000000000000000000000000000815250604051806080016040528060478152602001612cd2604791396040518060600160405280602e81526020016125cd602e913985611ceb565b610dff826040518060400160405280600681526020017f756c74726f6e0000000000000000000000000000000000000000000000000000815250604051806080016040528060478152602001612cd2604791396040518060600160405280602e8152602001612ac4602e913985611ceb565b610e71826040518060400160405280600d81526020017f6a657373696361206a6f6e657300000000000000000000000000000000000000815250604051806080016040528060478152602001612cd2604791396040518060600160405280602e8152602001612684602e913985611ceb565b610ee3826040518060400160405280600981526020017f776f6c766572696e650000000000000000000000000000000000000000000000815250604051806080016040528060478152602001612cd2604791396040518060600160405280602e815260200161273c602e913985611ceb565b610f55826040518060400160405280600d81526020017f626c61636b2070616e7468657200000000000000000000000000000000000000815250604051806080016040528060478152602001612cd2604791396040518060600160405280602e8152602001612fa1602e913985611ceb565b610fc7826040518060400160405280600b81526020017f70726f666573736f722078000000000000000000000000000000000000000000815250604051806080016040528060478152602001612cd2604791396040518060600160405280602e815260200161276a602e913985611ceb565b611039826040518060400160405280600f81526020017f6361707461696e20616d65726963610000000000000000000000000000000000815250604051806080016040528060478152602001612cd2604791396040518060600160405280602e8152602001612e5f602e913985611ceb565b6110ab826040518060400160405280600581526020017f6f6b6f7965000000000000000000000000000000000000000000000000000000815250604051806080016040528060478152602001612cd2604791396040518060600160405280602e8152602001612798602e913985611ceb565b61111d826040518060400160405280600881526020017f64656164706f6f6c000000000000000000000000000000000000000000000000815250604051806080016040528060478152602001612cd2604791396040518060600160405280602e8152602001612877602e913985611ceb565b610c33826040518060400160405280600681526020017f616e746d616e0000000000000000000000000000000000000000000000000000815250604051806080016040528060478152602001612cd2604791396040518060600160405280602e815260200161259f602e913985611ceb565b611201826040518060400160405280600f81526020017f616761746861206861726b6e6573730000000000000000000000000000000000815250604051806080016040528060478152602001612cd2604791396040518060600160405280602e8152602001612571602e913985611ceb565b611273826040518060400160405280600481526020017f68656c6100000000000000000000000000000000000000000000000000000000815250604051806080016040528060478152602001612cd2604791396040518060600160405280602e8152602001612656602e913985611ceb565b6112e5826040518060400160405280600681526020017f67616d6f72610000000000000000000000000000000000000000000000000000815250604051806080016040528060478152602001612cd2604791396040518060600160405280602e8152602001612e8d602e913985611ceb565b611357826040518060400160405280600b81526020017f646f63746f7220646f6f6d000000000000000000000000000000000000000000815250604051806080016040528060478152602001612cd2604791396040518060600160405280602e81526020016126b2602e913985611ceb565b6113c9826040518060400160405280600b81526020017f656e6368616e7472657373000000000000000000000000000000000000000000815250604051806080016040528060478152602001612cd2604791396040518060600160405280602e8152602001612bec602e913985611ceb565b61143b826040518060400160405280600b81526020017f6d6f6f6e206b6e69676874000000000000000000000000000000000000000000815250604051806080016040528060478152602001612cd2604791396040518060600160405280602e8152602001612b4e602e913985611ceb565b6114ad826040518060400160405280600c81526020017f677265656e20676f626c696e0000000000000000000000000000000000000000815250604051806080016040528060478152602001612cd2604791396040518060600160405280602e8152602001612af2602e913985611ceb565b61151f826040518060400160405280600581526020017f626c616465000000000000000000000000000000000000000000000000000000815250604051806080016040528060478152602001612cd2604791396040518060600160405280602e81526020016129de602e913985611ceb565b611591826040518060400160405280600981526020017f64617265646576696c0000000000000000000000000000000000000000000000815250604051806080016040528060478152602001612cd2604791396040518060600160405280602e8152602001612bbe602e913985611ceb565b611603826040518060400160405280600881526020017f70756e6973686572000000000000000000000000000000000000000000000000815250604051806080016040528060478152602001612cd2604791396040518060600160405280602e8152602001612c1a602e913985611ceb565b611675826040518060400160405280600b81526020017f68756d616e20746f726368000000000000000000000000000000000000000000815250604051806080016040528060478152602001612cd2604791396040518060600160405280602e8152602001612908602e913985611ceb565b610c33826040518060400160405280600b81526020017f626c61636b207769646f77000000000000000000000000000000000000000000815250604051806080016040528060478152602001612cd2604791396040518060600160405280602e8152602001612f45602e913985611ceb565b611759826040518060400160405280600781526020017f6d61676e65746f000000000000000000000000000000000000000000000000008152506040518060800160405280605b81526020016125fb605b91396040518060600160405280602e8152602001612a3a602e913985611ceb565b6117cb826040518060400160405280600681526020017f7468616e6f7300000000000000000000000000000000000000000000000000008152506040518060800160405280605e8152602001612d19605e91396040518060600160405280602e8152602001612f73602e913985611ceb565b61183d826040518060400160405280600681526020017f766973696f6e00000000000000000000000000000000000000000000000000008152506040518060800160405280604181526020016127c6604191396040518060600160405280602e8152602001612ffd602e913985611ceb565b6118af826040518060400160405280600d81526020017f6d696c6573206d6f72616c6573000000000000000000000000000000000000008152506040518060800160405280604c8152602001612936604c91396040518060600160405280602e8152602001612ee9602e913985611ceb565b611921826040518060400160405280600481526020017f74686f7200000000000000000000000000000000000000000000000000000000815250604051806060016040528060308152602001612dd3603091396040518060600160405280602e8152602001612f17602e913985611ceb565b611993826040518060400160405280600e81526020017f646f63746f7220737472616e67650000000000000000000000000000000000008152506040518060800160405280604b8152602001612526604b91396040518060600160405280602e8152602001612a0c602e913985611ceb565b611a05826040518060400160405280600e81526020017f736361726c657474207769746368000000000000000000000000000000000000815250604051806080016040528060428152602001612b7c604291396040518060600160405280602e8152602001612c76602e913985611ceb565b611a77826040518060400160405280600881526020017f67616c6163747573000000000000000000000000000000000000000000000000815250604051806080016040528060428152602001612b7c604291396040518060600160405280602e8152602001612ca4602e913985611ceb565b611ae9826040518060400160405280600581526020017f73746f726d000000000000000000000000000000000000000000000000000000815250604051806080016040528060428152602001612b7c604291396040518060600160405280602e8152602001612b20602e913985611ceb565b611b5b826040518060400160405280600881526020017f737461726c6f7264000000000000000000000000000000000000000000000000815250604051806080016040528060428152602001612b7c604291396040518060600160405280602e8152602001612ebb602e913985611ceb565b611bcd826040518060400160405280601081526020017f7661747520746865207761746368657200000000000000000000000000000000815250604051806080016040528060428152602001612b7c604291396040518060600160405280602e8152602001612849602e913985611ceb565b610c33826040518060400160405280600481526020017f7761737000000000000000000000000000000000000000000000000000000000815250604051806080016040528060428152602001612b7c604291396040518060600160405280602e815260200161270e602e913985611ceb565b7f8a22373512790c48b83a1fe2efdd2888d4a917bcdc24d0adf63e60f671680460805460405173ffffffffffffffffffffffffffffffffffffffff8481169216907f8be0079c531659141344cd1fd0a4f28419497f9722a3daafe3b4186f6b6457e090600090a380547fffffffffffffffffffffffff00000000000000000000000000000000000000001673ffffffffffffffffffffffffffffffffffffffff92909216919091179055565b604080518082018252858152602080820186905260015483517f614bfa6e00000000000000000000000000000000000000000000000000000000815293519293600093849373ffffffffffffffffffffffffffffffffffffffff9093169263614bfa6e92600480820193918290030181865afa158015611d6f573d6000803e3d6000fd5b505050506040513d601f19601f82011682018060405250810190611d9391906124a8565b600054909150611dd99073ffffffffffffffffffffffffffffffffffffffff167f49a4584d9706380e35459e1f31e673445371b5bac20aa516f8ba8650b184310661058b565b73ffffffffffffffffffffffffffffffffffffffff1663f419df7282846040518363ffffffff1660e01b8152600401611e139291906124c1565b600060405180830381600087803b158015611e2d57600080fd5b505af1158015611e41573d6000803e3d6000fd5b5050600054611e89925073ffffffffffffffffffffffffffffffffffffffff1690507faf90be6cd7aa92d6569a9ae629178b74e1b0fbdd1097c27ec1dfffd2dc4c754061058b565b6040517f1ab06ee500000000000000000000000000000000000000000000000000000000815260048101839052602481018a905273ffffffffffffffffffffffffffffffffffffffff9190911690631ab06ee590604401600060405180830381600087803b158015611efa57600080fd5b505af1158015611f0e573d6000803e3d6000fd5b5050600054611f56925073ffffffffffffffffffffffffffffffffffffffff1690507f451428f4c68843403783cb59130cc0d615222b44098924139ac9012ac78cfbcd61058b565b73ffffffffffffffffffffffffffffffffffffffff16636437197782876040518363ffffffff1660e01b8152600401611f9092919061250c565b600060405180830381600087803b158015611faa57600080fd5b505af1158015611fbe573d6000803e3d6000fd5b5050600054612006925073ffffffffffffffffffffffffffffffffffffffff1690507f13f32cb89a86a373dc637b3b3ac445f7b735a976d40d242d8fb95792881bcb2361058b565b73ffffffffffffffffffffffffffffffffffffffff1663a235404482856040518363ffffffff1660e01b815260040161204092919061236d565b600060405180830381600087803b15801561205a57600080fd5b505af115801561206e573d6000803e3d6000fd5b50506000546120b6925073ffffffffffffffffffffffffffffffffffffffff1690507fe072768ea94af234cff732de41ecf093d211b11aaa861f67f6545a1a1a35a4ea61058b565b6040517f1ab06ee5000000000000000000000000000000000000000000000000000000008152600481018390526024810186905273ffffffffffffffffffffffffffffffffffffffff9190911690631ab06ee590604401600060405180830381600087803b15801561212757600080fd5b505af115801561213b573d6000803e3d6000fd5b505050505050505050505050565b7f4e487b7100000000000000000000000000000000000000000000000000000000600052604160045260246000fd5b604051601f82017fffffffffffffffffffffffffffffffffffffffffffffffffffffffffffffffe016810167ffffffffffffffff811182821017156121bf576121bf612149565b604052919050565b600060208083850312156121da57600080fd5b823567ffffffffffffffff808211156121f257600080fd5b818501915085601f83011261220657600080fd5b81358181111561221857612218612149565b612248847fffffffffffffffffffffffffffffffffffffffffffffffffffffffffffffffe0601f84011601612178565b9150808252868482850101111561225e57600080fd5b8084840185840137600090820190930192909252509392505050565b6000815180845260005b818110156122a057602081850181015186830182015201612284565b5060006020828601015260207fffffffffffffffffffffffffffffffffffffffffffffffffffffffffffffffe0601f83011685010191505092915050565b60208152600061018f602083018461227a565b6000806040838503121561230457600080fd5b50508035926020909101359150565b60006020828403121561232557600080fd5b813573ffffffffffffffffffffffffffffffffffffffff8116811461018f57600080fd5b6000806040838503121561235c57600080fd5b505080516020909101519092909150565b828152604060208201526000825160408084015261238e608084018261227a565b905060208401517fffffffffffffffffffffffffffffffffffffffffffffffffffffffffffffffc08483030160608501526123c9828261227a565b9695505050505050565b600060208083850312156123e657600080fd5b825167ffffffffffffffff808211156123fe57600080fd5b818501915085601f83011261241257600080fd5b81518181111561242457612424612149565b8060051b9150612435848301612178565b818152918301840191848101908884111561244f57600080fd5b938501935b8385101561246d57845182529385019390850190612454565b98975050505050505050565b7f4e487b7100000000000000000000000000000000000000000000000000000000600052603260045260246000fd5b6000602082840312156124ba57600080fd5b5051919050565b82815260408101600583106124ff577f4e487b7100000000000000000000000000000000000000000000000000000000600052602160045260246000fd5b8260208301529392505050565b8281526040602082015260006106d3604083018461227a56fe446f63746f7220537472616e67652069732061206d6173746572206f6620746865206d797374696320617274732c20616e642069732074686520536f7263657265722053757072656d652e516d5137595174763961563878686b315441556d68447963776b5678344b7a6d396a5a6e38784e76544373786b4e516d54413862716b594670324c6e6541786b537333364d4b47436f43597357515057435351706d456e475532635a516d5759316f66545054667841647648614d4c7743676e346836724c637a66455674645a55357a4e436a506955454d61676e65746f20746865206576657220706c6f7474696e672076696c6c616e2c2077686f2062656c696576657320746861742068756d616e7320616e64206d7574616e74732073686f756c64206265207365706572617465642e516d56684e6766634d37656a55487a744b487141674a70657a6d4d36614a5133363452386d6d4841626278657a59516d61744b314a5668596b6f464734707935614a784868777546595650574a70434335677777516d5652684e4773516d6643556f37776b544676686371376e5157657a316857477773686a72446d654d6d6341334d4d384250683354516d5650316f7779323350774a36376d677668365579344a486e684252775945754338466a7555584a6e4c37646a516d5562645141356467395a7741623156476f536d5651337a334173436f713646536d637144466963336539665a516d5044734e656848506462355350575233765267756b6b574c356d4a4a6477534d615841344c7a42366a52554a516d656569504e62473839486b33334279344c39684d6d3534617166556e35467241316b713351377a666a364462516d5746746f7a6a4841754537444173353848724b64387277766b7751766b72776b4b567439337536456b377334566973696f6e206973206120616e64726f6964206d6164652066726f6d20556c74726f6e2c204a61727669732c20616e6420746865204d696e642053746f6e652e4e616d6f722069732061204d617276656c20636861726163746572206d6f737420726563656e746c79207365656e20696e2057616b616e646120466f72657665722e516d5a774e54634a557167686374766e6756334e536334697a67615577667a4b347168774b716b39777044473548516d5548354e324e736b76715538546d64343836506276767056465933464e7461674336596d61686f6648705a6154686520496e66696e6175742069732061204d617276656c20636861726163746572206e6f74206b6e6f776e206279206d616e792e516d564573556e77314b48744e6b3831794e366171574d5377746f747a3872535a72774175357a3536724764644b516d644d514771723662556d6672564e6e505074486a774e62385342785a6134785771477a6b6677654e784d4b474d696c6573204d6f72616c6573206973206120796f756e67207370696465726d616e2077686f20697320747279696e6720746f206d616b652061206e616d6520666f722068696d73656c662e516d4e556763786a5677636d5643587a44333958754b6b386a3152644a7a65486735657a316a4c4e545237644679516d614453645154545177787a596b41547631697a68394645337632444568566d344d71764a4a4c4e4a42693775516d5577664b6b4d7353486b6a47527937337534554a4a67764b465463385a63703952506d4644754d667a417544516d4e79444d7372757039435a71463348555171666369424a71784258654d4b4c6152644d644279533555704373516d50656674586952687753426d6d5371773477756a6d344b5844376f37427377735774384c5167585472666f75516d5635465a3635705371386633774c7556787936647959654a5852374c33484a78756a73563161643574755562516d6477555a53566d5278364b65456f536b54375253566b577466525a41656b48764e656142564a4a786b625739516d58784867674635655477414631775031716b4a577644704869565245556a4c46396977644564326674756b61516d575a555832586b595474334763516d72593370635235557a784c46574b55416f795450776f7943436d316551516d556865764d67463138654678356366316572515659436a6e785a33774a3233775438367174576e4d79446453516d5061484e394864655733457452434d5177374e5a5951596f4343764c446f6337735a4d5146515a5432624552536361726c6574742057697463682069732061206d7574616e74207769746820746865206162696c69747920746f206d616e6970756c617465207265616c6974792e516d634169706f4d47517855726b6a76677978423373563759326574627332337578664e57446b51466a6b514871516d5a546d5a35373345504e344e736667693234574e355973456e446f6a7a363355484e6d6447386a7670623863516d52627165717454694e56687237316556363337723753574541756755716d61354d3645487157465450614764516d5037386469434431714c41654e65365753634d47664553557159514d446a4e32434747624435637372515047516d61536b4a7042574c745a664e4359797842763441566e6145796277515372653378625169374c697550745631516d50565461745259766359344a4a79696f4a4e596472575a5153343852556b6f626855644e566d79716d7962585468652048756c6b2069732061204d617276656c20636861726163746572206d6f7374206b6e6f776e20666f72206869732074696d6520696e20746865204176656e676572732e5468616e6f73206f62737365737365642077697468207468652069646561206f662062616c616e63652c2068652077696c6c2073746f70206174206e6f7468696e6720746f206765742074686520696e66696e6974792073746f6e65732e516d50623237316436757577424641336a347475544c74394b56746d563637765156567545795a66324244427555516d5372657939507756444241584c3633564d3364473944715838795634757878516568317364437745356e726454686f722069732074686520476f64206f66205468756e6465722c20616e642074686520736f6e206f66204f64696e2e516d534b744b7051737371556a47385a644651355a6f796241467255696f6632626f74693671355844324d524631516d6458543751514272637674656562643777457a324639524a526251424536507a4244726b4e71346450664a43516d5962525662586a6455463141636544564348434359354845376d44564d35675338644c376a506a7878324152516d504b715152534b5553737737435344566b396d5672746b7364654b356d7a7976674d4c666d7a4b4e68365a51516d5971476469326f6b456638424357656a46316e38726f65485474377748574136694b4b334559776f74764748516d616543545866723231545173454634776373556b506e68574642783946554b6d31795161647871754a476345516d5a6d53456550384671754852377463547231633437367663476a466965436f535a52706734597a4d394a4167516d583441427971516b746372766334527a4d3463705141396e7038635038524d467562634c747936643959424c516d62634b4a765a62676e555775453238775a3839666950486164374668585475474d33394c324844426b787045516d51446458564d55667363743365447a7738356d4d63547135724a3554573354525a7a5a396268654533485471516d65344d374369576e3579627855787a765943413835317873684145347535727734506a37657473444266374a516d51537375564b557075776564784b33667846427351564d3344675143544a776b384c35376b4136503959566a516d5939785562454474594c486358526a315551577731686653373562465a317164436e74596a43477869693367416d65726963612043686176657a2069732061204d617276656c20636861726163746572206d6f7374206b6e6f776e20666f72206865722074696d6520696e2074686520556c74696d617465732ea2646970667358221220f7273a23d28e5da7d49b16d8e254c2250343eb5619ae0feeb3fab02623b4458a64736f6c63430008110033",
    "linkReferences": {}
  },
  "methodIdentifiers": {
    "execute(bytes)": "09c5eabe",
    "executeTyped(uint256,uint256)": "915657fb",
    "owner()": "8da5cb5b",
    "transferOwnership(address)": "f2fde38b"
  },
  "id": 121
}