{
  "abi": [
    {
      "inputs": [
        {
          "internalType": "contract IWorld",
          "name": "_world",
          "type": "address"
        },
        {
          "internalType": "address",
          "name": "_components",
          "type": "address"
        }
      ],
      "stateMutability": "nonpayable",
      "type": "constructor"
    },
    {
      "inputs": [],
      "name": "Ownable__NotOwner",
      "type": "error"
    },
    {
      "inputs": [],
      "name": "Ownable__NotTransitiveOwner",
      "type": "error"
    },
    {
      "anonymous": false,
      "inputs": [
        {
          "indexed": true,
          "internalType": "address",
          "name": "previousOwner",
          "type": "address"
        },
        {
          "indexed": true,
          "internalType": "address",
          "name": "newOwner",
          "type": "address"
        }
      ],
      "name": "OwnershipTransferred",
      "type": "event"
    },
    {
      "inputs": [
        {
          "internalType": "bytes",
          "name": "arguments",
          "type": "bytes"
        }
      ],
      "name": "execute",
      "outputs": [
        {
          "internalType": "bytes",
          "name": "",
          "type": "bytes"
        }
      ],
      "stateMutability": "nonpayable",
      "type": "function"
    },
    {
      "inputs": [
        {
          "internalType": "uint256",
          "name": "gameId",
          "type": "uint256"
        },
        {
          "internalType": "uint256",
          "name": "teamId",
          "type": "uint256"
        },
        {
          "internalType": "uint256",
          "name": "playerNum",
          "type": "uint256"
        }
      ],
      "name": "executeTyped",
      "outputs": [
        {
          "internalType": "bytes",
          "name": "",
          "type": "bytes"
        }
      ],
      "stateMutability": "nonpayable",
      "type": "function"
    },
    {
      "inputs": [],
      "name": "owner",
      "outputs": [
        {
          "internalType": "address",
          "name": "",
          "type": "address"
        }
      ],
      "stateMutability": "view",
      "type": "function"
    },
    {
      "inputs": [
        {
          "internalType": "address",
          "name": "account",
          "type": "address"
        }
      ],
      "name": "transferOwnership",
      "outputs": [],
      "stateMutability": "nonpayable",
      "type": "function"
    }
  ],
  "bytecode": {
    "object": "0x60806040523480156200001157600080fd5b50604051620036b9380380620036b98339810160408190526200003491620001a8565b81816200004133620000f7565b6001600160a01b03811615620000585780620000bd565b816001600160a01b031663ba62fbe46040518163ffffffff1660e01b8152600401602060405180830381865afa15801562000097573d6000803e3d6000fd5b505050506040513d601f19601f82011682018060405250810190620000bd9190620001e7565b600080546001600160a01b039283166001600160a01b0319918216179091556001805494909216931692909217909155506200020e915050565b60006200010e6200016b60201b6200021a1760201c565b80546040519192506001600160a01b03808516929116907f8be0079c531659141344cd1fd0a4f28419497f9722a3daafe3b4186f6b6457e090600090a380546001600160a01b0319166001600160a01b0392909216919091179055565b7f8a22373512790c48b83a1fe2efdd2888d4a917bcdc24d0adf63e60f67168046090565b6001600160a01b0381168114620001a557600080fd5b50565b60008060408385031215620001bc57600080fd5b8251620001c9816200018f565b6020840151909250620001dc816200018f565b809150509250929050565b600060208284031215620001fa57600080fd5b815162000207816200018f565b9392505050565b61349b806200021e6000396000f3fe608060405234801561001057600080fd5b506004361061004c5760003560e01c806309c5eabe146100515780638da5cb5b1461007a578063f2fde38b146100a7578063fbc070dd146100bc575b600080fd5b61006461005f36600461242e565b6100cf565b604051610071919061254f565b60405180910390f35b61008261011c565b60405173ffffffffffffffffffffffffffffffffffffffff9091168152602001610071565b6100ba6100b5366004612569565b610161565b005b6100646100ca36600461259f565b6101dd565b60606000806000848060200190518101906100ea91906125cb565b9250925092506100fa838261023e565b6000610106848361034c565b905061011381858561056f565b50505050919050565b600061015c7f8a22373512790c48b83a1fe2efdd2888d4a917bcdc24d0adf63e60f6716804605473ffffffffffffffffffffffffffffffffffffffff1690565b905090565b7f8a22373512790c48b83a1fe2efdd2888d4a917bcdc24d0adf63e60f6716804605473ffffffffffffffffffffffffffffffffffffffff1633146101d1576040517f2f7a8ee100000000000000000000000000000000000000000000000000000000815260040160405180910390fd5b6101da816105bc565b50565b6040805160208101859052908101839052606081810183905290610212906080016040516020818303038152906040526100cf565b949350505050565b7f8a22373512790c48b83a1fe2efdd2888d4a917bcdc24d0adf63e60f67168046090565b600080546102829073ffffffffffffffffffffffffffffffffffffffff167f0f9dd24bbd2f19675b3fca355a567814eafa262312f033a2e289b40d70c055886105c5565b9050600082600203610292575060015b60408051606081018252828152600060208201908152600582840190815292517f66c52bed0000000000000000000000000000000000000000000000000000000081526004810188905291516024830152516044820152905160ff16606482015273ffffffffffffffffffffffffffffffffffffffff8316906366c52bed90608401600060405180830381600087803b15801561032e57600080fd5b505af1158015610342573d6000803e3d6000fd5b5050505050505050565b6000806103583361070d565b905060006103658461072b565b60405160200161037591906125f9565b604080517fffffffffffffffffffffffffffffffffffffffffffffffffffffffffffffffe081840301815282820182528083528151808301909252601482527f4120706c6179657220696e207468652067616d6500000000000000000000000060208381019190915283019190915260005490925061042a9073ffffffffffffffffffffffffffffffffffffffff167f13f32cb89a86a373dc637b3b3ac445f7b735a976d40d242d8fb95792881bcb236105c5565b73ffffffffffffffffffffffffffffffffffffffff1663a235404484836040518363ffffffff1660e01b815260040161046492919061263e565b600060405180830381600087803b15801561047e57600080fd5b505af1158015610492573d6000803e3d6000fd5b50506000546104da925073ffffffffffffffffffffffffffffffffffffffff1690507faf90be6cd7aa92d6569a9ae629178b74e1b0fbdd1097c27ec1dfffd2dc4c75406105c5565b6040517f1ab06ee5000000000000000000000000000000000000000000000000000000008152600481018590526024810188905273ffffffffffffffffffffffffffffffffffffffff9190911690631ab06ee590604401600060405180830381600087803b15801561054b57600080fd5b505af115801561055f573d6000803e3d6000fd5b5094955050505050505b92915050565b8060010361058657610581838361088b565b505050565b80600203610598576105818383610de7565b806003036105aa57610581838361133f565b80600403610581576105818383611897565b6101da81611def565b6040517ffbdfa1ea00000000000000000000000000000000000000000000000000000000815260048101829052600090819073ffffffffffffffffffffffffffffffffffffffff85169063fbdfa1ea90602401600060405180830381865afa158015610635573d6000803e3d6000fd5b505050506040513d6000823e601f3d9081017fffffffffffffffffffffffffffffffffffffffffffffffffffffffffffffffe016820160405261067b91908101906126a4565b905080516000036106ec576040517f08c379a000000000000000000000000000000000000000000000000000000000815260206004820152601160248201527f6964206e6f742072656769737465726564000000000000000000000000000000604482015260640160405180910390fd5b610212816000815181106107025761070261274a565b602002602001015190565b600073ffffffffffffffffffffffffffffffffffffffff8216610569565b60608160000361076e57505060408051808201909152600181527f3000000000000000000000000000000000000000000000000000000000000000602082015290565b8160005b81156107985780610782816127a8565b91506107919050600a836127e0565b9150610772565b60008167ffffffffffffffff8111156107b3576107b36123b0565b6040519080825280601f01601f1916602001820160405280156107dd576020820181803683370190505b509050815b8515610882576107f360018261281b565b90506000610802600a886127e0565b61080d90600a61282e565b610817908861281b565b610822906030612845565b905060008160f81b90508084848151811061083f5761083f61274a565b60200101907effffffffffffffffffffffffffffffffffffffffffffffffffffffffffffff1916908160001a905350610879600a896127e0565b975050506107e2565b50949350505050565b6108fd826040518060400160405280600c81526020017f74686520696e66696e6175740000000000000000000000000000000000000000815250604051806060016040528060358152602001612c64603591396040518060600160405280602e8152602001612e27602e913985611e9b565b61096f826040518060400160405280600e81526020017f616d65726963612063686176657a0000000000000000000000000000000000008152506040518060800160405280604e8152602001613418604e91396040518060600160405280602e81526020016131f0602e913985611e9b565b6109e1826040518060400160405280600581526020017f6e616d6f72000000000000000000000000000000000000000000000000000000815250604051806080016040528060428152602001612bc6604291396040518060600160405280602e815260200161338e602e913985611e9b565b610a53826040518060400160405280600781526020017f6379636c6f707300000000000000000000000000000000000000000000000000815250604051806080016040528060428152602001612bc6604291396040518060600160405280602e8152602001612c99602e913985611e9b565b610ac5826040518060400160405280600b81526020017f626c7565206d617276656c000000000000000000000000000000000000000000815250604051806080016040528060428152602001612bc6604291396040518060600160405280602e8152602001612d6f602e913985611e9b565b610b37826040518060400160405280600581526020017f6265617374000000000000000000000000000000000000000000000000000000815250604051806080016040528060428152602001612bc6604291396040518060600160405280602e8152602001612e55602e913985611e9b565b610ba9826040518060400160405280601081526020017f6d69737465722066616e74617374696300000000000000000000000000000000815250604051806080016040528060428152602001612bc6604291396040518060600160405280602e81526020016131c2602e913985611e9b565b610c1b826040518060400160405280600581526020017f7368757269000000000000000000000000000000000000000000000000000000815250604051806080016040528060428152602001612bc6604291396040518060600160405280602e81526020016133ea602e913985611e9b565b610c8d826040518060400160405280600681526020017f6963656d616e0000000000000000000000000000000000000000000000000000815250604051806080016040528060428152602001612bc6604291396040518060600160405280602e8152602001612a9f602e913985611e9b565b610cff826040518060400160405280600c81526020017f6e69676874637261776c65720000000000000000000000000000000000000000815250604051806080016040528060428152602001612bc6604291396040518060600160405280602e8152602001612d41602e913985611e9b565b610d71826040518060400160405280600581526020017f726f677565000000000000000000000000000000000000000000000000000000815250604051806080016040528060428152602001612bc6604291396040518060600160405280602e8152602001613007602e913985611e9b565b610de3826040518060400160405280600881526020017f6d79737469717565000000000000000000000000000000000000000000000000815250604051806080016040528060428152602001612bc6604291396040518060600160405280602e815260200161338e602e913985611e9b565b5050565b610e59826040518060400160405280600481526020017f68756c6b00000000000000000000000000000000000000000000000000000000815250604051806080016040528060478152602001613091604791396040518060600160405280602e8152602001613136602e913985611e9b565b610ecb826040518060400160405280600981526020017f6e69636b20667572790000000000000000000000000000000000000000000000815250604051806080016040528060478152602001613091604791396040518060600160405280602e8152602001613164602e913985611e9b565b610f3d826040518060400160405280600981526020017f746865207468696e670000000000000000000000000000000000000000000000815250604051806080016040528060478152602001613091604791396040518060600160405280602e815260200161298c602e913985611e9b565b610faf826040518060400160405280600681526020017f756c74726f6e0000000000000000000000000000000000000000000000000000815250604051806080016040528060478152602001613091604791396040518060600160405280602e8152602001612e83602e913985611e9b565b611021826040518060400160405280600d81526020017f6a657373696361206a6f6e657300000000000000000000000000000000000000815250604051806080016040528060478152602001613091604791396040518060600160405280602e8152602001612a43602e913985611e9b565b611093826040518060400160405280600981526020017f776f6c766572696e650000000000000000000000000000000000000000000000815250604051806080016040528060478152602001613091604791396040518060600160405280602e8152602001612afb602e913985611e9b565b611105826040518060400160405280600d81526020017f626c61636b2070616e7468657200000000000000000000000000000000000000815250604051806080016040528060478152602001613091604791396040518060600160405280602e8152602001613360602e913985611e9b565b611177826040518060400160405280600b81526020017f70726f666573736f722078000000000000000000000000000000000000000000815250604051806080016040528060478152602001613091604791396040518060600160405280602e8152602001612b29602e913985611e9b565b6111e9826040518060400160405280600f81526020017f6361707461696e20616d65726963610000000000000000000000000000000000815250604051806080016040528060478152602001613091604791396040518060600160405280602e815260200161321e602e913985611e9b565b61125b826040518060400160405280600581526020017f6f6b6f7965000000000000000000000000000000000000000000000000000000815250604051806080016040528060478152602001613091604791396040518060600160405280602e8152602001612b57602e913985611e9b565b6112cd826040518060400160405280600881526020017f64656164706f6f6c000000000000000000000000000000000000000000000000815250604051806080016040528060478152602001613091604791396040518060600160405280602e8152602001612c36602e913985611e9b565b610de3826040518060400160405280600681526020017f616e746d616e0000000000000000000000000000000000000000000000000000815250604051806080016040528060478152602001613091604791396040518060600160405280602e815260200161295e602e913985611e9b565b6113b1826040518060400160405280600f81526020017f616761746861206861726b6e6573730000000000000000000000000000000000815250604051806080016040528060478152602001613091604791396040518060600160405280602e8152602001612930602e913985611e9b565b611423826040518060400160405280600481526020017f68656c6100000000000000000000000000000000000000000000000000000000815250604051806080016040528060478152602001613091604791396040518060600160405280602e8152602001612a15602e913985611e9b565b611495826040518060400160405280600681526020017f67616d6f72610000000000000000000000000000000000000000000000000000815250604051806080016040528060478152602001613091604791396040518060600160405280602e815260200161324c602e913985611e9b565b611507826040518060400160405280600b81526020017f646f63746f7220646f6f6d000000000000000000000000000000000000000000815250604051806080016040528060478152602001613091604791396040518060600160405280602e8152602001612a71602e913985611e9b565b611579826040518060400160405280600b81526020017f656e6368616e7472657373000000000000000000000000000000000000000000815250604051806080016040528060478152602001613091604791396040518060600160405280602e8152602001612fab602e913985611e9b565b6115eb826040518060400160405280600b81526020017f6d6f6f6e206b6e69676874000000000000000000000000000000000000000000815250604051806080016040528060478152602001613091604791396040518060600160405280602e8152602001612f0d602e913985611e9b565b61165d826040518060400160405280600c81526020017f677265656e20676f626c696e0000000000000000000000000000000000000000815250604051806080016040528060478152602001613091604791396040518060600160405280602e8152602001612eb1602e913985611e9b565b6116cf826040518060400160405280600581526020017f626c616465000000000000000000000000000000000000000000000000000000815250604051806080016040528060478152602001613091604791396040518060600160405280602e8152602001612d9d602e913985611e9b565b611741826040518060400160405280600981526020017f64617265646576696c0000000000000000000000000000000000000000000000815250604051806080016040528060478152602001613091604791396040518060600160405280602e8152602001612f7d602e913985611e9b565b6117b3826040518060400160405280600881526020017f70756e6973686572000000000000000000000000000000000000000000000000815250604051806080016040528060478152602001613091604791396040518060600160405280602e8152602001612fd9602e913985611e9b565b611825826040518060400160405280600b81526020017f68756d616e20746f726368000000000000000000000000000000000000000000815250604051806080016040528060478152602001613091604791396040518060600160405280602e8152602001612cc7602e913985611e9b565b610de3826040518060400160405280600b81526020017f626c61636b207769646f77000000000000000000000000000000000000000000815250604051806080016040528060478152602001613091604791396040518060600160405280602e8152602001613304602e913985611e9b565b611909826040518060400160405280600781526020017f6d61676e65746f000000000000000000000000000000000000000000000000008152506040518060800160405280605b81526020016129ba605b91396040518060600160405280602e8152602001612df9602e913985611e9b565b61197b826040518060400160405280600681526020017f7468616e6f7300000000000000000000000000000000000000000000000000008152506040518060800160405280605e81526020016130d8605e91396040518060600160405280602e8152602001613332602e913985611e9b565b6119ed826040518060400160405280600681526020017f766973696f6e0000000000000000000000000000000000000000000000000000815250604051806080016040528060418152602001612b85604191396040518060600160405280602e81526020016133bc602e913985611e9b565b611a5f826040518060400160405280600d81526020017f6d696c6573206d6f72616c6573000000000000000000000000000000000000008152506040518060800160405280604c8152602001612cf5604c91396040518060600160405280602e81526020016132a8602e913985611e9b565b611ad1826040518060400160405280600481526020017f74686f7200000000000000000000000000000000000000000000000000000000815250604051806060016040528060308152602001613192603091396040518060600160405280602e81526020016132d6602e913985611e9b565b611b43826040518060400160405280600e81526020017f646f63746f7220737472616e67650000000000000000000000000000000000008152506040518060800160405280604b81526020016128e5604b91396040518060600160405280602e8152602001612dcb602e913985611e9b565b611bb5826040518060400160405280600e81526020017f736361726c657474207769746368000000000000000000000000000000000000815250604051806080016040528060428152602001612f3b604291396040518060600160405280602e8152602001613035602e913985611e9b565b611c27826040518060400160405280600881526020017f67616c6163747573000000000000000000000000000000000000000000000000815250604051806080016040528060428152602001612f3b604291396040518060600160405280602e8152602001613063602e913985611e9b565b611c99826040518060400160405280600581526020017f73746f726d000000000000000000000000000000000000000000000000000000815250604051806080016040528060428152602001612f3b604291396040518060600160405280602e8152602001612edf602e913985611e9b565b611d0b826040518060400160405280600881526020017f737461726c6f7264000000000000000000000000000000000000000000000000815250604051806080016040528060428152602001612f3b604291396040518060600160405280602e815260200161327a602e913985611e9b565b611d7d826040518060400160405280601081526020017f7661747520746865207761746368657200000000000000000000000000000000815250604051806080016040528060428152602001612f3b604291396040518060600160405280602e8152602001612c08602e913985611e9b565b610de3826040518060400160405280600481526020017f7761737000000000000000000000000000000000000000000000000000000000815250604051806080016040528060428152602001612f3b604291396040518060600160405280602e8152602001612acd602e913985611e9b565b7f8a22373512790c48b83a1fe2efdd2888d4a917bcdc24d0adf63e60f671680460805460405173ffffffffffffffffffffffffffffffffffffffff8481169216907f8be0079c531659141344cd1fd0a4f28419497f9722a3daafe3b4186f6b6457e090600090a380547fffffffffffffffffffffffff00000000000000000000000000000000000000001673ffffffffffffffffffffffffffffffffffffffff92909216919091179055565b600154604080517f614bfa6e000000000000000000000000000000000000000000000000000000008152905160009273ffffffffffffffffffffffffffffffffffffffff169163614bfa6e9160048083019260209291908290030181865afa158015611f0b573d6000803e3d6000fd5b505050506040513d601f19601f82011682018060405250810190611f2f919061285e565b600054909150600190611f789073ffffffffffffffffffffffffffffffffffffffff167f49a4584d9706380e35459e1f31e673445371b5bac20aa516f8ba8650b18431066105c5565b73ffffffffffffffffffffffffffffffffffffffff1663f419df7283836040518363ffffffff1660e01b8152600401611fb29291906128ae565b600060405180830381600087803b158015611fcc57600080fd5b505af1158015611fe0573d6000803e3d6000fd5b50506000546004925061202a915073ffffffffffffffffffffffffffffffffffffffff167fca217116a6cc2410f52fb18ff993e1c9720a7a02c4c68f73d5d06d1298921bb36105c5565b73ffffffffffffffffffffffffffffffffffffffff1663f419df7284836040518363ffffffff1660e01b81526004016120649291906128ae565b600060405180830381600087803b15801561207e57600080fd5b505af1158015612092573d6000803e3d6000fd5b505060408051808201909152898152602081018990526000549092506120ef915073ffffffffffffffffffffffffffffffffffffffff167f13f32cb89a86a373dc637b3b3ac445f7b735a976d40d242d8fb95792881bcb236105c5565b73ffffffffffffffffffffffffffffffffffffffff1663a235404485836040518363ffffffff1660e01b815260040161212992919061263e565b600060405180830381600087803b15801561214357600080fd5b505af1158015612157573d6000803e3d6000fd5b505060005461219f925073ffffffffffffffffffffffffffffffffffffffff1690507f451428f4c68843403783cb59130cc0d615222b44098924139ac9012ac78cfbcd6105c5565b73ffffffffffffffffffffffffffffffffffffffff16636437197785886040518363ffffffff1660e01b81526004016121d99291906128cb565b600060405180830381600087803b1580156121f357600080fd5b505af1158015612207573d6000803e3d6000fd5b505060005461224f925073ffffffffffffffffffffffffffffffffffffffff1690507faf90be6cd7aa92d6569a9ae629178b74e1b0fbdd1097c27ec1dfffd2dc4c75406105c5565b6040517f1ab06ee500000000000000000000000000000000000000000000000000000000815260048101869052602481018b905273ffffffffffffffffffffffffffffffffffffffff9190911690631ab06ee590604401600060405180830381600087803b1580156122c057600080fd5b505af11580156122d4573d6000803e3d6000fd5b505060005461231c925073ffffffffffffffffffffffffffffffffffffffff1690507fe072768ea94af234cff732de41ecf093d211b11aaa861f67f6545a1a1a35a4ea6105c5565b6040517f1ab06ee5000000000000000000000000000000000000000000000000000000008152600481018690526024810187905273ffffffffffffffffffffffffffffffffffffffff9190911690631ab06ee590604401600060405180830381600087803b15801561238d57600080fd5b505af11580156123a1573d6000803e3d6000fd5b50505050505050505050505050565b7f4e487b7100000000000000000000000000000000000000000000000000000000600052604160045260246000fd5b604051601f82017fffffffffffffffffffffffffffffffffffffffffffffffffffffffffffffffe016810167ffffffffffffffff81118282101715612426576124266123b0565b604052919050565b6000602080838503121561244157600080fd5b823567ffffffffffffffff8082111561245957600080fd5b818501915085601f83011261246d57600080fd5b81358181111561247f5761247f6123b0565b6124af847fffffffffffffffffffffffffffffffffffffffffffffffffffffffffffffffe0601f840116016123df565b915080825286848285010111156124c557600080fd5b8084840185840137600090820190930192909252509392505050565b60005b838110156124fc5781810151838201526020016124e4565b50506000910152565b6000815180845261251d8160208601602086016124e1565b601f017fffffffffffffffffffffffffffffffffffffffffffffffffffffffffffffffe0169290920160200192915050565b6020815260006125626020830184612505565b9392505050565b60006020828403121561257b57600080fd5b813573ffffffffffffffffffffffffffffffffffffffff8116811461256257600080fd5b6000806000606084860312156125b457600080fd5b505081359360208301359350604090920135919050565b6000806000606084860312156125e057600080fd5b8351925060208401519150604084015190509250925092565b7f506c6179657220000000000000000000000000000000000000000000000000008152600082516126318160078501602087016124e1565b9190910160070192915050565b828152604060208201526000825160408084015261265f6080840182612505565b905060208401517fffffffffffffffffffffffffffffffffffffffffffffffffffffffffffffffc084830301606085015261269a8282612505565b9695505050505050565b600060208083850312156126b757600080fd5b825167ffffffffffffffff808211156126cf57600080fd5b818501915085601f8301126126e357600080fd5b8151818111156126f5576126f56123b0565b8060051b91506127068483016123df565b818152918301840191848101908884111561272057600080fd5b938501935b8385101561273e57845182529385019390850190612725565b98975050505050505050565b7f4e487b7100000000000000000000000000000000000000000000000000000000600052603260045260246000fd5b7f4e487b7100000000000000000000000000000000000000000000000000000000600052601160045260246000fd5b60007fffffffffffffffffffffffffffffffffffffffffffffffffffffffffffffffff82036127d9576127d9612779565b5060010190565b600082612816577f4e487b7100000000000000000000000000000000000000000000000000000000600052601260045260246000fd5b500490565b8181038181111561056957610569612779565b808202811582820484141761056957610569612779565b60ff818116838216019081111561056957610569612779565b60006020828403121561287057600080fd5b5051919050565b600581106101da577f4e487b7100000000000000000000000000000000000000000000000000000000600052602160045260246000fd5b828152604081016128be83612877565b8260208301529392505050565b828152604060208201526000610212604083018461250556fe446f63746f7220537472616e67652069732061206d6173746572206f6620746865206d797374696320617274732c20616e642069732074686520536f7263657265722053757072656d652e516d5137595174763961563878686b315441556d68447963776b5678344b7a6d396a5a6e38784e76544373786b4e516d54413862716b594670324c6e6541786b537333364d4b47436f43597357515057435351706d456e475532635a516d5759316f66545054667841647648614d4c7743676e346836724c637a66455674645a55357a4e436a506955454d61676e65746f20746865206576657220706c6f7474696e672076696c6c616e2c2077686f2062656c696576657320746861742068756d616e7320616e64206d7574616e74732073686f756c64206265207365706572617465642e516d56684e6766634d37656a55487a744b487141674a70657a6d4d36614a5133363452386d6d4841626278657a59516d61744b314a5668596b6f464734707935614a784868777546595650574a70434335677777516d5652684e4773516d6643556f37776b544676686371376e5157657a316857477773686a72446d654d6d6341334d4d384250683354516d5650316f7779323350774a36376d677668365579344a486e684252775945754338466a7555584a6e4c37646a516d5562645141356467395a7741623156476f536d5651337a334173436f713646536d637144466963336539665a516d5044734e656848506462355350575233765267756b6b574c356d4a4a6477534d615841344c7a42366a52554a516d656569504e62473839486b33334279344c39684d6d3534617166556e35467241316b713351377a666a364462516d5746746f7a6a4841754537444173353848724b64387277766b7751766b72776b4b567439337536456b377334566973696f6e206973206120616e64726f6964206d6164652066726f6d20556c74726f6e2c204a61727669732c20616e6420746865204d696e642053746f6e652e4e616d6f722069732061204d617276656c20636861726163746572206d6f737420726563656e746c79207365656e20696e2057616b616e646120466f72657665722e516d5a774e54634a557167686374766e6756334e536334697a67615577667a4b347168774b716b39777044473548516d5548354e324e736b76715538546d64343836506276767056465933464e7461674336596d61686f6648705a6154686520496e66696e6175742069732061204d617276656c20636861726163746572206e6f74206b6e6f776e206279206d616e792e516d564573556e77314b48744e6b3831794e366171574d5377746f747a3872535a72774175357a3536724764644b516d644d514771723662556d6672564e6e505074486a774e62385342785a6134785771477a6b6677654e784d4b474d696c6573204d6f72616c6573206973206120796f756e67207370696465726d616e2077686f20697320747279696e6720746f206d616b652061206e616d6520666f722068696d73656c662e516d4e556763786a5677636d5643587a44333958754b6b386a3152644a7a65486735657a316a4c4e545237644679516d614453645154545177787a596b41547631697a68394645337632444568566d344d71764a4a4c4e4a42693775516d5577664b6b4d7353486b6a47527937337534554a4a67764b465463385a63703952506d4644754d667a417544516d4e79444d7372757039435a71463348555171666369424a71784258654d4b4c6152644d644279533555704373516d50656674586952687753426d6d5371773477756a6d344b5844376f37427377735774384c5167585472666f75516d5635465a3635705371386633774c7556787936647959654a5852374c33484a78756a73563161643574755562516d6477555a53566d5278364b65456f536b54375253566b577466525a41656b48764e656142564a4a786b625739516d58784867674635655477414631775031716b4a577644704869565245556a4c46396977644564326674756b61516d575a555832586b595474334763516d72593370635235557a784c46574b55416f795450776f7943436d316551516d556865764d67463138654678356366316572515659436a6e785a33774a3233775438367174576e4d79446453516d5061484e394864655733457452434d5177374e5a5951596f4343764c446f6337735a4d5146515a5432624552536361726c6574742057697463682069732061206d7574616e74207769746820746865206162696c69747920746f206d616e6970756c617465207265616c6974792e516d634169706f4d47517855726b6a76677978423373563759326574627332337578664e57446b51466a6b514871516d5a546d5a35373345504e344e736667693234574e355973456e446f6a7a363355484e6d6447386a7670623863516d52627165717454694e56687237316556363337723753574541756755716d61354d3645487157465450614764516d5037386469434431714c41654e65365753634d47664553557159514d446a4e32434747624435637372515047516d61536b4a7042574c745a664e4359797842763441566e6145796277515372653378625169374c697550745631516d50565461745259766359344a4a79696f4a4e596472575a5153343852556b6f626855644e566d79716d7962585468652048756c6b2069732061204d617276656c20636861726163746572206d6f7374206b6e6f776e20666f72206869732074696d6520696e20746865204176656e676572732e5468616e6f73206f62737365737365642077697468207468652069646561206f662062616c616e63652c2068652077696c6c2073746f70206174206e6f7468696e6720746f206765742074686520696e66696e6974792073746f6e65732e516d50623237316436757577424641336a347475544c74394b56746d563637765156567545795a66324244427555516d5372657939507756444241584c3633564d3364473944715838795634757878516568317364437745356e726454686f722069732074686520476f64206f66205468756e6465722c20616e642074686520736f6e206f66204f64696e2e516d534b744b7051737371556a47385a644651355a6f796241467255696f6632626f74693671355844324d524631516d6458543751514272637674656562643777457a324639524a526251424536507a4244726b4e71346450664a43516d5962525662586a6455463141636544564348434359354845376d44564d35675338644c376a506a7878324152516d504b715152534b5553737737435344566b396d5672746b7364654b356d7a7976674d4c666d7a4b4e68365a51516d5971476469326f6b456638424357656a46316e38726f65485474377748574136694b4b334559776f74764748516d616543545866723231545173454634776373556b506e68574642783946554b6d31795161647871754a476345516d5a6d53456550384671754852377463547231633437367663476a466965436f535a52706734597a4d394a4167516d583441427971516b746372766334527a4d3463705141396e7038635038524d467562634c747936643959424c516d62634b4a765a62676e555775453238775a3839666950486164374668585475474d33394c324844426b787045516d51446458564d55667363743365447a7738356d4d63547135724a3554573354525a7a5a396268654533485471516d65344d374369576e3579627855787a765943413835317873684145347535727734506a37657473444266374a516d51537375564b557075776564784b33667846427351564d3344675143544a776b384c35376b4136503959566a516d5939785562454474594c486358526a315551577731686653373562465a317164436e74596a43477869693367416d65726963612043686176657a2069732061204d617276656c20636861726163746572206d6f7374206b6e6f776e20666f72206865722074696d6520696e2074686520556c74696d617465732ea26469706673582212209a01106ab85645d3bbd3118d2d0fdb19e9c423c0b25f00f903ab17539ec98b8664736f6c63430008110033",
    "linkReferences": {}
  },
  "methodIdentifiers": {
    "execute(bytes)": "09c5eabe",
    "executeTyped(uint256,uint256,uint256)": "fbc070dd",
    "owner()": "8da5cb5b",
    "transferOwnership(address)": "f2fde38b"
  },
  "id": 123
}