{
  "abi": [
    {
      "inputs": [
        {
          "internalType": "contract IWorld",
          "name": "_world",
          "type": "address"
        },
        {
          "internalType": "address",
          "name": "_components",
          "type": "address"
        }
      ],
      "stateMutability": "nonpayable",
      "type": "constructor"
    },
    {
      "inputs": [],
      "name": "Ownable__NotOwner",
      "type": "error"
    },
    {
      "inputs": [],
      "name": "Ownable__NotTransitiveOwner",
      "type": "error"
    },
    {
      "anonymous": false,
      "inputs": [
        {
          "indexed": true,
          "internalType": "address",
          "name": "previousOwner",
          "type": "address"
        },
        {
          "indexed": true,
          "internalType": "address",
          "name": "newOwner",
          "type": "address"
        }
      ],
      "name": "OwnershipTransferred",
      "type": "event"
    },
    {
      "inputs": [
        {
          "internalType": "bytes",
          "name": "",
          "type": "bytes"
        }
      ],
      "name": "execute",
      "outputs": [
        {
          "internalType": "bytes",
          "name": "",
          "type": "bytes"
        }
      ],
      "stateMutability": "nonpayable",
      "type": "function"
    },
    {
      "inputs": [],
      "name": "owner",
      "outputs": [
        {
          "internalType": "address",
          "name": "",
          "type": "address"
        }
      ],
      "stateMutability": "view",
      "type": "function"
    },
    {
      "inputs": [
        {
          "internalType": "address",
          "name": "account",
          "type": "address"
        }
      ],
      "name": "transferOwnership",
      "outputs": [],
      "stateMutability": "nonpayable",
      "type": "function"
    }
  ],
  "bytecode": {
    "object": "0x608060405234801561001057600080fd5b506040516106df3803806106df83398101604081905261002f91610197565b818161003a336100ea565b6001600160a01b0381161561004f57806100b1565b816001600160a01b031663ba62fbe46040518163ffffffff1660e01b8152600401602060405180830381865afa15801561008d573d6000803e3d6000fd5b505050506040513d601f19601f820116820180604052508101906100b191906101d1565b600080546001600160a01b039283166001600160a01b0319918216179091556001805494909216931692909217909155506101f5915050565b60006100fe61015b60201b6102261760201c565b80546040519192506001600160a01b03808516929116907f8be0079c531659141344cd1fd0a4f28419497f9722a3daafe3b4186f6b6457e090600090a380546001600160a01b0319166001600160a01b0392909216919091179055565b7f8a22373512790c48b83a1fe2efdd2888d4a917bcdc24d0adf63e60f67168046090565b6001600160a01b038116811461019457600080fd5b50565b600080604083850312156101aa57600080fd5b82516101b58161017f565b60208401519092506101c68161017f565b809150509250929050565b6000602082840312156101e357600080fd5b81516101ee8161017f565b9392505050565b6104db806102046000396000f3fe608060405234801561001057600080fd5b50600436106100415760003560e01c806309c5eabe146100465780638da5cb5b1461006f578063f2fde38b1461009c575b600080fd5b61005961005436600461032d565b6100b1565b60405161006691906103fc565b60405180910390f35b610077610165565b60405173ffffffffffffffffffffffffffffffffffffffff9091168152602001610066565b6100af6100aa366004610468565b6101aa565b005b60606000336001546000546040517fe02c115a00000000000000000000000000000000000000000000000000000000815273ffffffffffffffffffffffffffffffffffffffff9283166004820152911660248201526044810182905290915073__$833cfd85a7e3ccfebf354c9d68d38a5ed4$__9063e02c115a9060640160006040518083038186803b15801561014757600080fd5b505af415801561015b573d6000803e3d6000fd5b5050505050919050565b60006101a57f8a22373512790c48b83a1fe2efdd2888d4a917bcdc24d0adf63e60f6716804605473ffffffffffffffffffffffffffffffffffffffff1690565b905090565b7f8a22373512790c48b83a1fe2efdd2888d4a917bcdc24d0adf63e60f6716804605473ffffffffffffffffffffffffffffffffffffffff16331461021a576040517f2f7a8ee100000000000000000000000000000000000000000000000000000000815260040160405180910390fd5b6102238161024a565b50565b7f8a22373512790c48b83a1fe2efdd2888d4a917bcdc24d0adf63e60f67168046090565b7f8a22373512790c48b83a1fe2efdd2888d4a917bcdc24d0adf63e60f6716804608054604051610223928492909173ffffffffffffffffffffffffffffffffffffffff8085169216907f8be0079c531659141344cd1fd0a4f28419497f9722a3daafe3b4186f6b6457e090600090a380547fffffffffffffffffffffffff00000000000000000000000000000000000000001673ffffffffffffffffffffffffffffffffffffffff92909216919091179055565b7f4e487b7100000000000000000000000000000000000000000000000000000000600052604160045260246000fd5b60006020828403121561033f57600080fd5b813567ffffffffffffffff8082111561035757600080fd5b818401915084601f83011261036b57600080fd5b81358181111561037d5761037d6102fe565b604051601f82017fffffffffffffffffffffffffffffffffffffffffffffffffffffffffffffffe0908116603f011681019083821181831017156103c3576103c36102fe565b816040528281528760208487010111156103dc57600080fd5b826020860160208301376000928101602001929092525095945050505050565b600060208083528351808285015260005b818110156104295785810183015185820160400152820161040d565b5060006040828601015260407fffffffffffffffffffffffffffffffffffffffffffffffffffffffffffffffe0601f8301168501019250505092915050565b60006020828403121561047a57600080fd5b813573ffffffffffffffffffffffffffffffffffffffff8116811461049e57600080fd5b939250505056fea264697066735822122048af130abf43a59aa56eabcfe5e2f888382a387670751b680097b8c49e9e177d64736f6c63430008110033",
    "linkReferences": {
      "src/libraries/LibInit.sol": {
        "LibInit": [
          {
            "start": 790,
            "length": 20
          }
        ]
      }
    }
  },
  "methodIdentifiers": {
    "execute(bytes)": "09c5eabe",
    "owner()": "8da5cb5b",
    "transferOwnership(address)": "f2fde38b"
  },
  "id": 94
}