{
  "abi": [
    {
      "inputs": [
        {
          "internalType": "string",
          "name": "_name",
          "type": "string"
        },
        {
          "internalType": "string",
          "name": "_description",
          "type": "string"
        },
        {
          "internalType": "uint256",
          "name": "_maxSquadsAllowed",
          "type": "uint256"
        }
      ],
      "stateMutability": "nonpayable",
      "type": "constructor"
    },
    {
      "anonymous": false,
      "inputs": [
        {
          "indexed": false,
          "internalType": "address",
          "name": "member",
          "type": "address"
        },
        {
          "indexed": false,
          "internalType": "uint256",
          "name": "collectibleTokenId",
          "type": "uint256"
        }
      ],
      "name": "CollectibleRedeemed",
      "type": "event"
    },
    {
      "anonymous": false,
      "inputs": [
        {
          "indexed": false,
          "internalType": "address",
          "name": "member",
          "type": "address"
        }
      ],
      "name": "LeagueJoined",
      "type": "event"
    },
    {
      "anonymous": false,
      "inputs": [
        {
          "indexed": true,
          "internalType": "bytes32",
          "name": "role",
          "type": "bytes32"
        },
        {
          "indexed": true,
          "internalType": "bytes32",
          "name": "previousAdminRole",
          "type": "bytes32"
        },
        {
          "indexed": true,
          "internalType": "bytes32",
          "name": "newAdminRole",
          "type": "bytes32"
        }
      ],
      "name": "RoleAdminChanged",
      "type": "event"
    },
    {
      "anonymous": false,
      "inputs": [
        {
          "indexed": true,
          "internalType": "bytes32",
          "name": "role",
          "type": "bytes32"
        },
        {
          "indexed": true,
          "internalType": "address",
          "name": "account",
          "type": "address"
        },
        {
          "indexed": true,
          "internalType": "address",
          "name": "sender",
          "type": "address"
        }
      ],
      "name": "RoleGranted",
      "type": "event"
    },
    {
      "anonymous": false,
      "inputs": [
        {
          "indexed": true,
          "internalType": "bytes32",
          "name": "role",
          "type": "bytes32"
        },
        {
          "indexed": true,
          "internalType": "address",
          "name": "account",
          "type": "address"
        },
        {
          "indexed": true,
          "internalType": "address",
          "name": "sender",
          "type": "address"
        }
      ],
      "name": "RoleRevoked",
      "type": "event"
    },
    {
      "anonymous": false,
      "inputs": [
        {
          "indexed": false,
          "internalType": "address",
          "name": "newAddress",
          "type": "address"
        },
        {
          "indexed": false,
          "internalType": "uint256",
          "name": "squadId",
          "type": "uint256"
        }
      ],
      "name": "SquadCreated",
      "type": "event"
    },
    {
      "anonymous": false,
      "inputs": [
        {
          "indexed": false,
          "internalType": "address",
          "name": "member",
          "type": "address"
        }
      ],
      "name": "SquadJoined",
      "type": "event"
    },
    {
      "inputs": [],
      "name": "DEFAULT_ADMIN_ROLE",
      "outputs": [
        {
          "internalType": "bytes32",
          "name": "",
          "type": "bytes32"
        }
      ],
      "stateMutability": "view",
      "type": "function"
    },
    {
      "inputs": [],
      "name": "LEAGUE_MEMBER",
      "outputs": [
        {
          "internalType": "bytes32",
          "name": "",
          "type": "bytes32"
        }
      ],
      "stateMutability": "view",
      "type": "function"
    },
    {
      "inputs": [
        {
          "internalType": "address",
          "name": "_worldAddress",
          "type": "address"
        },
        {
          "internalType": "uint256",
          "name": "_chainId",
          "type": "uint256"
        }
      ],
      "name": "addGame",
      "outputs": [],
      "stateMutability": "nonpayable",
      "type": "function"
    },
    {
      "inputs": [
        {
          "internalType": "address",
          "name": "_squadAddress",
          "type": "address"
        },
        {
          "internalType": "address",
          "name": "_member",
          "type": "address"
        },
        {
          "internalType": "uint256",
          "name": "_wins",
          "type": "uint256"
        }
      ],
      "name": "addMemberToSquad",
      "outputs": [],
      "stateMutability": "nonpayable",
      "type": "function"
    },
    {
      "inputs": [],
      "name": "closeLeague",
      "outputs": [],
      "stateMutability": "nonpayable",
      "type": "function"
    },
    {
      "inputs": [
        {
          "internalType": "uint256",
          "name": "_collectibleExpiresIn",
          "type": "uint256"
        },
        {
          "internalType": "address",
          "name": "_gameId",
          "type": "address"
        },
        {
          "internalType": "address[]",
          "name": "_players",
          "type": "address[]"
        },
        {
          "internalType": "address[]",
          "name": "_squads",
          "type": "address[]"
        }
      ],
      "name": "createMatch",
      "outputs": [],
      "stateMutability": "nonpayable",
      "type": "function"
    },
    {
      "inputs": [
        {
          "internalType": "string",
          "name": "_squadName",
          "type": "string"
        },
        {
          "internalType": "string",
          "name": "_squadDescription",
          "type": "string"
        },
        {
          "internalType": "string",
          "name": "_baseURI",
          "type": "string"
        },
        {
          "internalType": "string",
          "name": "_contractURI",
          "type": "string"
        }
      ],
      "name": "createSquad",
      "outputs": [
        {
          "internalType": "address",
          "name": "",
          "type": "address"
        }
      ],
      "stateMutability": "nonpayable",
      "type": "function"
    },
    {
      "inputs": [
        {
          "internalType": "address",
          "name": "_squadAddress",
          "type": "address"
        }
      ],
      "name": "enterLeague",
      "outputs": [],
      "stateMutability": "nonpayable",
      "type": "function"
    },
    {
      "inputs": [
        {
          "internalType": "uint256",
          "name": "_matchId",
          "type": "uint256"
        },
        {
          "internalType": "address",
          "name": "_winner",
          "type": "address"
        }
      ],
      "name": "finishMatch",
      "outputs": [],
      "stateMutability": "nonpayable",
      "type": "function"
    },
    {
      "inputs": [
        {
          "internalType": "address",
          "name": "",
          "type": "address"
        }
      ],
      "name": "gameExists",
      "outputs": [
        {
          "internalType": "bool",
          "name": "",
          "type": "bool"
        }
      ],
      "stateMutability": "view",
      "type": "function"
    },
    {
      "inputs": [
        {
          "internalType": "uint256",
          "name": "",
          "type": "uint256"
        }
      ],
      "name": "games",
      "outputs": [
        {
          "internalType": "address",
          "name": "worldAddress",
          "type": "address"
        },
        {
          "internalType": "uint256",
          "name": "chainId",
          "type": "uint256"
        }
      ],
      "stateMutability": "view",
      "type": "function"
    },
    {
      "inputs": [
        {
          "internalType": "uint256",
          "name": "_matchId",
          "type": "uint256"
        }
      ],
      "name": "getMatch",
      "outputs": [
        {
          "components": [
            {
              "internalType": "uint256",
              "name": "id",
              "type": "uint256"
            },
            {
              "internalType": "uint256",
              "name": "startedAt",
              "type": "uint256"
            },
            {
              "internalType": "uint256",
              "name": "finishedAt",
              "type": "uint256"
            },
            {
              "internalType": "uint256",
              "name": "collectibleExpiresAt",
              "type": "uint256"
            },
            {
              "internalType": "bool",
              "name": "collectibleRedeemed",
              "type": "bool"
            },
            {
              "internalType": "address",
              "name": "gameId",
              "type": "address"
            },
            {
              "internalType": "address",
              "name": "winner",
              "type": "address"
            },
            {
              "internalType": "address[]",
              "name": "players",
              "type": "address[]"
            },
            {
              "internalType": "address[]",
              "name": "squads",
              "type": "address[]"
            }
          ],
          "internalType": "struct League.Match",
          "name": "",
          "type": "tuple"
        }
      ],
      "stateMutability": "view",
      "type": "function"
    },
    {
      "inputs": [
        {
          "internalType": "bytes32",
          "name": "role",
          "type": "bytes32"
        }
      ],
      "name": "getRoleAdmin",
      "outputs": [
        {
          "internalType": "bytes32",
          "name": "",
          "type": "bytes32"
        }
      ],
      "stateMutability": "view",
      "type": "function"
    },
    {
      "inputs": [],
      "name": "getSquads",
      "outputs": [
        {
          "internalType": "contract Squad[]",
          "name": "",
          "type": "address[]"
        }
      ],
      "stateMutability": "view",
      "type": "function"
    },
    {
      "inputs": [
        {
          "internalType": "bytes32",
          "name": "role",
          "type": "bytes32"
        },
        {
          "internalType": "address",
          "name": "account",
          "type": "address"
        }
      ],
      "name": "grantRole",
      "outputs": [],
      "stateMutability": "nonpayable",
      "type": "function"
    },
    {
      "inputs": [
        {
          "internalType": "bytes32",
          "name": "role",
          "type": "bytes32"
        },
        {
          "internalType": "address",
          "name": "account",
          "type": "address"
        }
      ],
      "name": "hasRole",
      "outputs": [
        {
          "internalType": "bool",
          "name": "",
          "type": "bool"
        }
      ],
      "stateMutability": "view",
      "type": "function"
    },
    {
      "inputs": [
        {
          "internalType": "address",
          "name": "member",
          "type": "address"
        }
      ],
      "name": "isSquadMember",
      "outputs": [
        {
          "internalType": "address",
          "name": "",
          "type": "address"
        }
      ],
      "stateMutability": "view",
      "type": "function"
    },
    {
      "inputs": [
        {
          "internalType": "address",
          "name": "_squadAddress",
          "type": "address"
        }
      ],
      "name": "joinSquad",
      "outputs": [],
      "stateMutability": "nonpayable",
      "type": "function"
    },
    {
      "inputs": [],
      "name": "matchMerkleRoot",
      "outputs": [
        {
          "internalType": "bytes",
          "name": "",
          "type": "bytes"
        }
      ],
      "stateMutability": "view",
      "type": "function"
    },
    {
      "inputs": [
        {
          "internalType": "uint256",
          "name": "",
          "type": "uint256"
        }
      ],
      "name": "matches",
      "outputs": [
        {
          "internalType": "uint256",
          "name": "id",
          "type": "uint256"
        },
        {
          "internalType": "uint256",
          "name": "startedAt",
          "type": "uint256"
        },
        {
          "internalType": "uint256",
          "name": "finishedAt",
          "type": "uint256"
        },
        {
          "internalType": "uint256",
          "name": "collectibleExpiresAt",
          "type": "uint256"
        },
        {
          "internalType": "bool",
          "name": "collectibleRedeemed",
          "type": "bool"
        },
        {
          "internalType": "address",
          "name": "gameId",
          "type": "address"
        },
        {
          "internalType": "address",
          "name": "winner",
          "type": "address"
        }
      ],
      "stateMutability": "view",
      "type": "function"
    },
    {
      "inputs": [
        {
          "internalType": "address",
          "name": "",
          "type": "address"
        }
      ],
      "name": "memberToSquad",
      "outputs": [
        {
          "internalType": "address",
          "name": "",
          "type": "address"
        }
      ],
      "stateMutability": "view",
      "type": "function"
    },
    {
      "inputs": [
        {
          "internalType": "uint256",
          "name": "_leagueOpensAt",
          "type": "uint256"
        },
        {
          "internalType": "uint256",
          "name": "_leagueClosesAt",
          "type": "uint256"
        }
      ],
      "name": "openLeague",
      "outputs": [],
      "stateMutability": "nonpayable",
      "type": "function"
    },
    {
      "inputs": [],
      "name": "playerMerkleRoot",
      "outputs": [
        {
          "internalType": "bytes",
          "name": "",
          "type": "bytes"
        }
      ],
      "stateMutability": "view",
      "type": "function"
    },
    {
      "inputs": [
        {
          "internalType": "uint256",
          "name": "_matchId",
          "type": "uint256"
        }
      ],
      "name": "redeemMatchCollectible",
      "outputs": [],
      "stateMutability": "nonpayable",
      "type": "function"
    },
    {
      "inputs": [
        {
          "internalType": "address",
          "name": "_worldAddress",
          "type": "address"
        }
      ],
      "name": "removeGame",
      "outputs": [],
      "stateMutability": "nonpayable",
      "type": "function"
    },
    {
      "inputs": [
        {
          "internalType": "bytes32",
          "name": "role",
          "type": "bytes32"
        },
        {
          "internalType": "address",
          "name": "account",
          "type": "address"
        }
      ],
      "name": "renounceRole",
      "outputs": [],
      "stateMutability": "nonpayable",
      "type": "function"
    },
    {
      "inputs": [
        {
          "internalType": "bytes32",
          "name": "role",
          "type": "bytes32"
        },
        {
          "internalType": "address",
          "name": "account",
          "type": "address"
        }
      ],
      "name": "revokeRole",
      "outputs": [],
      "stateMutability": "nonpayable",
      "type": "function"
    },
    {
      "inputs": [
        {
          "internalType": "bytes",
          "name": "_matchMerkleRoot",
          "type": "bytes"
        }
      ],
      "name": "setMatchMerkleRoot",
      "outputs": [],
      "stateMutability": "nonpayable",
      "type": "function"
    },
    {
      "inputs": [
        {
          "internalType": "bytes",
          "name": "_playerMerkleRoot",
          "type": "bytes"
        }
      ],
      "name": "setPlayerMerkleRoot",
      "outputs": [],
      "stateMutability": "nonpayable",
      "type": "function"
    },
    {
      "inputs": [
        {
          "internalType": "bytes",
          "name": "_winnerMerkleRoot",
          "type": "bytes"
        }
      ],
      "name": "setWinnerMerkleRoot",
      "outputs": [],
      "stateMutability": "nonpayable",
      "type": "function"
    },
    {
      "inputs": [
        {
          "internalType": "uint256",
          "name": "",
          "type": "uint256"
        }
      ],
      "name": "squadAddresses",
      "outputs": [
        {
          "internalType": "address",
          "name": "",
          "type": "address"
        }
      ],
      "stateMutability": "view",
      "type": "function"
    },
    {
      "inputs": [
        {
          "internalType": "address",
          "name": "",
          "type": "address"
        }
      ],
      "name": "squadExists",
      "outputs": [
        {
          "internalType": "bool",
          "name": "",
          "type": "bool"
        }
      ],
      "stateMutability": "view",
      "type": "function"
    },
    {
      "inputs": [
        {
          "internalType": "uint256",
          "name": "_squadId",
          "type": "uint256"
        }
      ],
      "name": "squadMembers",
      "outputs": [
        {
          "internalType": "address[]",
          "name": "",
          "type": "address[]"
        }
      ],
      "stateMutability": "view",
      "type": "function"
    },
    {
      "inputs": [
        {
          "internalType": "uint256",
          "name": "",
          "type": "uint256"
        }
      ],
      "name": "squads",
      "outputs": [
        {
          "internalType": "contract Squad",
          "name": "",
          "type": "address"
        }
      ],
      "stateMutability": "view",
      "type": "function"
    },
    {
      "inputs": [
        {
          "internalType": "bytes4",
          "name": "interfaceId",
          "type": "bytes4"
        }
      ],
      "name": "supportsInterface",
      "outputs": [
        {
          "internalType": "bool",
          "name": "",
          "type": "bool"
        }
      ],
      "stateMutability": "view",
      "type": "function"
    },
    {
      "inputs": [],
      "name": "winnerMerkleRoot",
      "outputs": [
        {
          "internalType": "bytes",
          "name": "",
          "type": "bytes"
        }
      ],
      "stateMutability": "view",
      "type": "function"
    }
  ],
  "bytecode": {
    "object": "0x60806040523480156200001157600080fd5b506040516200628d3803806200628d8339810160408190526200003491620001d3565b60058190556009620000478482620002d5565b50600a620000568382620002d5565b50620000646000336200006d565b505050620003a1565b6000828152602081815260408083206001600160a01b038516845290915290205460ff166200010a576000828152602081815260408083206001600160a01b03851684529091529020805460ff19166001179055620000c93390565b6001600160a01b0316816001600160a01b0316837f2f8788117e7eff1d82e926ec794901d17c78024a50270940304540a733656f0d60405160405180910390a45b5050565b634e487b7160e01b600052604160045260246000fd5b600082601f8301126200013657600080fd5b81516001600160401b03808211156200015357620001536200010e565b604051601f8301601f19908116603f011681019082821181831017156200017e576200017e6200010e565b816040528381526020925086838588010111156200019b57600080fd5b600091505b83821015620001bf5785820183015181830184015290820190620001a0565b600093810190920192909252949350505050565b600080600060608486031215620001e957600080fd5b83516001600160401b03808211156200020157600080fd5b6200020f8783880162000124565b945060208601519150808211156200022657600080fd5b50620002358682870162000124565b925050604084015190509250925092565b600181811c908216806200025b57607f821691505b6020821081036200027c57634e487b7160e01b600052602260045260246000fd5b50919050565b601f821115620002d057600081815260208120601f850160051c81016020861015620002ab5750805b601f850160051c820191505b81811015620002cc57828155600101620002b7565b5050505b505050565b81516001600160401b03811115620002f157620002f16200010e565b620003098162000302845462000246565b8462000282565b602080601f831160018114620003415760008415620003285750858301515b600019600386901b1c1916600185901b178555620002cc565b600085815260208120601f198616915b82811015620003725788860151825594840194600190910190840162000351565b5085821015620003915787850151600019600388901b60f8161c191681555b5050505050600190811b01905550565b615edc80620003b16000396000f3fe60806040523480156200001157600080fd5b5060043610620002495760003560e01c806387349b58116200013d578063c0d944d411620000bb578063de1eecc91162000086578063de1eecc914620005fc578063e48c15db1462000613578063f7c397e4146200061d578063fb6c4d271462000634578063fcfa5267146200065a57600080fd5b8063c0d944d41462000598578063c1f0bd6614620005c4578063d470fe9614620005db578063d547741f14620005e557600080fd5b8063a2e1b4d01162000108578063a2e1b4d01462000523578063a3cb7afa146200053c578063b41a5abd1462000553578063b724e2c9146200056a578063bce24669146200058157600080fd5b806387349b5814620004c6578063888f00c714620004dd57806391d148541462000503578063a217fddf146200051a57600080fd5b80633818140f11620001cb5780635e78d07811620001965780635e78d0781462000451578063625e7c961462000477578063751947ce146200048e5780637e478abe14620004a55780637ffb361b14620004bc57600080fd5b80633818140f14620003a25780633d092b3d14620003b95780634768d4ef14620003df5780635dce431b146200043a57600080fd5b8063230d540e1162000218578063230d540e146200030f578063248a9ca314620003285780632d90aab3146200035d5780632f2ff15d146200037457806336568abe146200038b57600080fd5b806301ffc9a7146200024e578063117a5b90146200027a57806314dfec7f14620002b15780631769dcb714620002f6575b600080fd5b620002656200025f36600462002001565b62000671565b60405190151581526020015b60405180910390f35b620002916200028b3660046200202d565b620006a9565b604080516001600160a01b03909316835260208301919091520162000271565b620002dd620002c23660046200205d565b600d602052600090815260409020546001600160a01b031681565b6040516001600160a01b03909116815260200162000271565b62000300620006e2565b604051620002719190620020d1565b62000326620003203660046200218e565b62000778565b005b6200034e620003393660046200202d565b60009081526020819052604090206001015490565b60405190815260200162000271565b620003266200036e3660046200218e565b62000798565b6200032662000385366004620021e4565b620007b3565b620003266200039c366004620021e4565b620007dc565b6200034e60008051602062005e8783398151915281565b620003d0620003ca3660046200202d565b62000862565b6040516200027191906200225d565b620003f6620003f03660046200202d565b62000a18565b604080519788526020880196909652948601939093526060850191909152151560808401526001600160a01b0390811660a08401521660c082015260e00162000271565b620003266200044b3660046200230f565b62000a76565b62000468620004623660046200202d565b62000b93565b6040516200027191906200233e565b62000326620004883660046200205d565b62000c2e565b620003266200049f366004620021e4565b62000d79565b62000326620004b63660046200205d565b62000dde565b620003006200100f565b620002dd620004d73660046200205d565b6200101e565b62000265620004ee3660046200205d565b600b6020526000908152604090205460ff1681565b6200026562000514366004620021e4565b620010ee565b6200034e600081565b6200052d62001117565b60405162000271919062002353565b620003266200054d3660046200218e565b6200117b565b6200032662000564366004620023a2565b62001196565b620003266200057b3660046200202d565b620012fc565b62000326620005923660046200205d565b62001586565b620002dd620005a93660046200202d565b6001602052600090815260409020546001600160a01b031681565b62000326620005d5366004620023e8565b62001742565b620003006200175b565b62000326620005f6366004620021e4565b6200176a565b620002dd6200060d3660046200202d565b62001793565b62000326620017be565b620003266200062e366004620024b0565b620017d2565b62000265620006453660046200205d565b600c6020526000908152604090205460ff1681565b620002dd6200066b3660046200255c565b62001b42565b60006001600160e01b03198216637965db0b60e01b1480620006a357506301ffc9a760e01b6001600160e01b03198316145b92915050565b600e8181548110620006ba57600080fd5b6000918252602090912060029091020180546001909101546001600160a01b03909116915082565b60078054620006f1906200260a565b80601f01602080910402602001604051908101604052809291908181526020018280546200071f906200260a565b8015620007705780601f10620007445761010080835404028352916020019162000770565b820191906000526020600020905b8154815290600101906020018083116200075257829003601f168201915b505050505081565b6000620007858162001c42565b600862000793838262002698565b505050565b6000620007a58162001c42565b600662000793838262002698565b600082815260208190526040902060010154620007d08162001c42565b62000793838362001c51565b6001600160a01b0381163314620008525760405162461bcd60e51b815260206004820152602f60248201527f416363657373436f6e74726f6c3a2063616e206f6e6c792072656e6f756e636560448201526e103937b632b9903337b91039b2b63360891b60648201526084015b60405180910390fd5b6200085e828262001cd9565b5050565b620008c66040518061012001604052806000815260200160008152602001600081526020016000815260200160001515815260200160006001600160a01b0316815260200160006001600160a01b0316815260200160608152602001606081525090565b600f8281548110620008dc57620008dc62002765565b6000918252602091829020604080516101208101825260089093029091018054835260018101548385015260028101548383015260038101546060840152600481015460ff8116151560808501526001600160a01b03610100909104811660a085015260058201541660c08401526006810180548351818702810187019094528084529394919360e086019392830182828015620009a457602002820191906000526020600020905b81546001600160a01b0316815260019091019060200180831162000985575b505050505081526020016007820180548060200260200160405190810160405280929190818152602001828054801562000a0857602002820191906000526020600020905b81546001600160a01b03168152600190910190602001808311620009e9575b5050505050815250509050919050565b600f818154811062000a2957600080fd5b60009182526020909120600890910201805460018201546002830154600384015460048501546005909501549395509193909260ff8216916001600160a01b036101009091048116911687565b600062000a838162001c42565b6001600160a01b0383166000908152600b602052604090205460ff161562000ae45760405162461bcd60e51b815260206004820152601360248201527247616d6520616c72656164792065786973747360681b604482015260640162000849565b506040805180820182526001600160a01b039384168082526020808301948552600e805460018082018355600092835294517fbb7b4a454dc3493923482f07822329ed19e8244eff582cc204f8554c3620c3fd600290920291820180546001600160a01b031916919099161790975594517fbb7b4a454dc3493923482f07822329ed19e8244eff582cc204f8554c3620c3fe909601959095558352600b9093529020805460ff19169091179055565b606060006002838154811062000bad5762000bad62002765565b600091825260208220015460408051639eab525360e01b815290516001600160a01b0390921693508392639eab5253926004808401938290030181865afa15801562000bfd573d6000803e3d6000fd5b505050506040513d6000823e601f3d908101601f1916820160405262000c2791908101906200277b565b9392505050565b600554600254111562000c795760405162461bcd60e51b815260206004820152601260248201527113585e081cdc5d58591cc81c995858da195960721b604482015260640162000849565b6001600160a01b0381166000908152600c602052604090205460ff161562000cdb5760405162461bcd60e51b8152602060048201526014602482015273537175616420616c72656164792065786973747360601b604482015260640162000849565b6002805460018082019092557f405787fa12a823e0f2b7631cc41b3ba8828b3321ca811111fa75cd3aa3bb5ace0180546001600160a01b0319166001600160a01b0384169081179091556000908152600c6020908152604091829020805460ff19169093179092555133815282917f1933b674aef4cfb17892c49f3648877e1212cb9ab7620dfd352df0ce049d109091015b60405180910390a15050565b600062000d868162001c42565b6000600f848154811062000d9e5762000d9e62002765565b6000918252602090912042600890920201600281019190915560050180546001600160a01b0319166001600160a01b039490941693909317909255505050565b60005b60025481101562000ed95760006002828154811062000e045762000e0462002765565b60009182526020909120015460405163288c314960e21b81523360048201526001600160a01b039091169150819063a230c52490602401602060405180830381865afa15801562000e59573d6000803e3d6000fd5b505050506040513d601f19601f8201168201806040525081019062000e7f919062002820565b1562000ec35760405162461bcd60e51b8152602060048201526012602482015271105b1c9958591e481a5b8818481cdc5d585960721b604482015260640162000849565b508062000ed0816200285a565b91505062000de1565b506001600160a01b0381166000908152600c602052604090205460ff16151560011462000f405760405162461bcd60e51b815260206004820152601460248201527314dc5d585908191bd95cc81b9bdd08195e1a5cdd60621b604482015260640162000849565b6000819050806001600160a01b031663b688a3636040518163ffffffff1660e01b8152600401600060405180830381600087803b15801562000f8157600080fd5b505af115801562000f96573d6000803e3d6000fd5b5050336000818152600d6020526040902080546001600160a01b0319166001600160a01b03861617905562000fde925060008051602062005e87833981519152915062001c51565b6040513381527f1933b674aef4cfb17892c49f3648877e1212cb9ab7620dfd352df0ce049d10909060200162000d6d565b60088054620006f1906200260a565b6000805b600254811015620010e55760006002828154811062001045576200104562002765565b60009182526020909120015460405163288c314960e21b81526001600160a01b0386811660048301529091169150819063a230c52490602401602060405180830381865afa1580156200109c573d6000803e3d6000fd5b505050506040513d601f19601f82011682018060405250810190620010c2919062002820565b15620010cf579392505050565b5080620010dc816200285a565b91505062001022565b50600092915050565b6000918252602082815260408084206001600160a01b0393909316845291905290205460ff1690565b606060028054806020026020016040519081016040528092919081815260200182805480156200117157602002820191906000526020600020905b81546001600160a01b0316815260019091019060200180831162001152575b5050505050905090565b6000620011888162001c42565b600762000793838262002698565b6000620011a38162001c42565b6001600160a01b0384166000908152600c602052604090205460ff161515600114620012095760405162461bcd60e51b815260206004820152601460248201527314dc5d585908191bd95cc81b9bdd08195e1a5cdd60621b604482015260640162000849565b6040516398041ea360e01b81526001600160a01b038481166004830152602482018490528591908216906398041ea390604401600060405180830381600087803b1580156200125757600080fd5b505af11580156200126c573d6000803e3d6000fd5b505050506001600160a01b038481166000908152600d6020526040902080546001600160a01b031916918316919091179055620012b960008051602062005e878339815191528562001c51565b6040516001600160a01b03851681527f1933b674aef4cfb17892c49f3648877e1212cb9ab7620dfd352df0ce049d10909060200160405180910390a15050505050565b6200131760008051602062005e8783398151915233620010ee565b6200135b5760405162461bcd60e51b81526020600482015260136024820152722737ba1030903632b0b3bab29036b2b6b132b960691b604482015260640162000849565b600454421015620013af5760405162461bcd60e51b815260206004820152601860248201527f4c6561677565206973206e6f7420636c6f736564207965740000000000000000604482015260640162000849565b6000600f8281548110620013c757620013c762002765565b60009182526020909120600890910201600481015490915060ff1615620014315760405162461bcd60e51b815260206004820152601c60248201527f436f6c6c65637469626c6520616c72656164792072656465656d656400000000604482015260640162000849565b428160030154116200147c5760405162461bcd60e51b815260206004820152601360248201527210dbdb1b1958dd1a589b1948195e1c1a5c9959606a1b604482015260640162000849565b60058101546001600160a01b03163314620014d05760405162461bcd60e51b815260206004820152601360248201527209cdee840eed2dcdccae440decc40dac2e8c6d606b1b604482015260640162000849565b336000908152600d6020526040808220548151632fdb6df560e11b815291516001600160a01b03909116928392635fb6dbea926004808301939282900301818387803b1580156200152057600080fd5b505af115801562001535573d6000803e3d6000fd5b5050505060048201805460ff1916600117905560408051338152602081018590527f7669e39a312f5da295908ed4452427a0b7a73abbf69d5639f87d19a123f8bf38910160405180910390a1505050565b6000620015938162001c42565b6001600160a01b0382166000908152600b602052604090205460ff161515600114620015f85760405162461bcd60e51b815260206004820152601360248201527211d85b5948191bd95cc81b9bdd08195e1a5cdd606a1b604482015260640162000849565b60005b600e548110156200171f57826001600160a01b0316600e828154811062001626576200162662002765565b60009182526020909120600290910201546001600160a01b0316036200170a57600e8054620016589060019062002876565b815481106200166b576200166b62002765565b9060005260206000209060020201600e82815481106200168f576200168f62002765565b60009182526020909120825460029092020180546001600160a01b0319166001600160a01b03909216919091178155600191820154910155600e805480620016db57620016db6200288c565b60008281526020812060026000199093019283020180546001600160a01b03191681556001015590556200171f565b8062001716816200285a565b915050620015fb565b50506001600160a01b03166000908152600b60205260409020805460ff19169055565b60006200174f8162001c42565b50600391909155600455565b60068054620006f1906200260a565b600082815260208190526040902060010154620017878162001c42565b62000793838362001cd9565b60028181548110620017a457600080fd5b6000918252602090912001546001600160a01b0316905081565b6000620017cb8162001c42565b5042600455565b6000620017df8162001c42565b6001600160a01b0384166000908152600b6020526040902054849060ff161515600114620018495760405162461bcd60e51b815260206004820152601660248201527511d85b59481a5cc81b9bdd081c9959da5cdd195c995960521b604482015260640162000849565b6000845111806200185b575060008351115b620018a05760405162461bcd60e51b81526020600482015260146024820152734e6f20706c6179657273206f722073717561647360601b604482015260640162000849565b60008611620019085760405162461bcd60e51b815260206004820152602d60248201527f436f6c6c65637469626c65206578706972657320696e206d757374206265206760448201526c0726561746572207468616e203609c1b606482015260840162000849565b6000604051806101200160405280600f8054905060016200192a9190620028a2565b81526020014281526020016000815260200188426200194a9190620028a2565b6200195890610258620028a2565b8152600060208083018290526001600160a01b038a8116604080860191909152606080860185905260808087018d905260a09687018c9052600f8054600181018255965287517f8d1108e10bcb7c27dddfc02ed9d693a074039d026cf4ea4240b40f7d581ac8026008909702968701908155888601517f8d1108e10bcb7c27dddfc02ed9d693a074039d026cf4ea4240b40f7d581ac803880155928801517f8d1108e10bcb7c27dddfc02ed9d693a074039d026cf4ea4240b40f7d581ac804870155908701517f8d1108e10bcb7c27dddfc02ed9d693a074039d026cf4ea4240b40f7d581ac8058601558601517f8d1108e10bcb7c27dddfc02ed9d693a074039d026cf4ea4240b40f7d581ac80685018054968801516001600160a81b0319909716911515610100600160a81b03191691909117610100968416969096029590951790945560c08501517f8d1108e10bcb7c27dddfc02ed9d693a074039d026cf4ea4240b40f7d581ac807840180546001600160a01b0319169190921617905560e08401518051949550859462001b17937f8d1108e10bcb7c27dddfc02ed9d693a074039d026cf4ea4240b40f7d581ac8080192919091019062001f72565b50610100820151805162001b3691600784019160209091019062001f72565b50505050505050505050565b6000808585858560405162001b579062001fdc565b62001b669493929190620028b8565b604051809103906000f08015801562001b83573d6000803e3d6000fd5b5060025490915060009062001b9a906001620028a2565b6002805460018082019092557f405787fa12a823e0f2b7631cc41b3ba8828b3321ca811111fa75cd3aa3bb5ace0180546001600160a01b0386166001600160a01b03199182168117909255600084815260209384526040908190208054909216831790915580519182529181018390529192507f67f794a23800c26d9e9ce3c51a9e95dd2c5a724c30030822f589294afc81231b910160405180910390a15095945050505050565b62001c4e813362001d41565b50565b62001c5d8282620010ee565b6200085e576000828152602081815260408083206001600160a01b03851684529091529020805460ff1916600117905562001c953390565b6001600160a01b0316816001600160a01b0316837f2f8788117e7eff1d82e926ec794901d17c78024a50270940304540a733656f0d60405160405180910390a45050565b62001ce58282620010ee565b156200085e576000828152602081815260408083206001600160a01b0385168085529252808320805460ff1916905551339285917ff6391f5c32d9c69d2a47ea670b442974b53935d1edc7fd64eb21e047a839171b9190a45050565b62001d4d8282620010ee565b6200085e5762001d5d8162001da5565b62001d6a83602062001db8565b60405160200162001d7d9291906200290d565b60408051601f198184030181529082905262461bcd60e51b82526200084991600401620020d1565b6060620006a36001600160a01b03831660145b6060600062001dc983600262002986565b62001dd6906002620028a2565b67ffffffffffffffff81111562001df15762001df1620020e6565b6040519080825280601f01601f19166020018201604052801562001e1c576020820181803683370190505b509050600360fc1b8160008151811062001e3a5762001e3a62002765565b60200101906001600160f81b031916908160001a905350600f60fb1b8160018151811062001e6c5762001e6c62002765565b60200101906001600160f81b031916908160001a905350600062001e9284600262002986565b62001e9f906001620028a2565b90505b600181111562001f21576f181899199a1a9b1b9c1cb0b131b232b360811b85600f166010811062001ed75762001ed762002765565b1a60f81b82828151811062001ef05762001ef062002765565b60200101906001600160f81b031916908160001a90535060049490941c9362001f1981620029a0565b905062001ea2565b50831562000c275760405162461bcd60e51b815260206004820181905260248201527f537472696e67733a20686578206c656e67746820696e73756666696369656e74604482015260640162000849565b82805482825590600052602060002090810192821562001fca579160200282015b8281111562001fca57825182546001600160a01b0319166001600160a01b0390911617825560209092019160019091019062001f93565b5062001fd892915062001fea565b5090565b6134cc80620029bb83390190565b5b8082111562001fd8576000815560010162001feb565b6000602082840312156200201457600080fd5b81356001600160e01b03198116811462000c2757600080fd5b6000602082840312156200204057600080fd5b5035919050565b6001600160a01b038116811462001c4e57600080fd5b6000602082840312156200207057600080fd5b813562000c278162002047565b60005b838110156200209a57818101518382015260200162002080565b50506000910152565b60008151808452620020bd8160208601602086016200207d565b601f01601f19169290920160200192915050565b60208152600062000c276020830184620020a3565b634e487b7160e01b600052604160045260246000fd5b604051601f8201601f1916810167ffffffffffffffff81118282101715620021285762002128620020e6565b604052919050565b600067ffffffffffffffff8311156200214d576200214d620020e6565b62002162601f8401601f1916602001620020fc565b90508281528383830111156200217757600080fd5b828260208301376000602084830101529392505050565b600060208284031215620021a157600080fd5b813567ffffffffffffffff811115620021b957600080fd5b8201601f81018413620021cb57600080fd5b620021dc8482356020840162002130565b949350505050565b60008060408385031215620021f857600080fd5b8235915060208301356200220c8162002047565b809150509250929050565b600081518084526020808501945080840160005b83811015620022525781516001600160a01b0316875295820195908201906001016200222b565b509495945050505050565b6020815281516020820152602082015160408201526040820151606082015260608201516080820152600060808301516200229c60a084018215159052565b5060a08301516001600160a01b03811660c08401525060c08301516001600160a01b03811660e08401525060e08301516101206101008181860152620022e761014086018462002217565b90860151858203601f19018387015290925062002305838262002217565b9695505050505050565b600080604083850312156200232357600080fd5b8235620023308162002047565b946020939093013593505050565b60208152600062000c27602083018462002217565b6020808252825182820181905260009190848201906040850190845b81811015620023965783516001600160a01b0316835292840192918401916001016200236f565b50909695505050505050565b600080600060608486031215620023b857600080fd5b8335620023c58162002047565b92506020840135620023d78162002047565b929592945050506040919091013590565b60008060408385031215620023fc57600080fd5b50508035926020909101359150565b600067ffffffffffffffff821115620024285762002428620020e6565b5060051b60200190565b600082601f8301126200244457600080fd5b813560206200245d62002457836200240b565b620020fc565b82815260059290921b840181019181810190868411156200247d57600080fd5b8286015b84811015620024a5578035620024978162002047565b835291830191830162002481565b509695505050505050565b60008060008060808587031215620024c757600080fd5b843593506020850135620024db8162002047565b9250604085013567ffffffffffffffff80821115620024f957600080fd5b620025078883890162002432565b935060608701359150808211156200251e57600080fd5b506200252d8782880162002432565b91505092959194509250565b600082601f8301126200254b57600080fd5b62000c278383356020850162002130565b600080600080608085870312156200257357600080fd5b843567ffffffffffffffff808211156200258c57600080fd5b6200259a8883890162002539565b95506020870135915080821115620025b157600080fd5b620025bf8883890162002539565b94506040870135915080821115620025d657600080fd5b620025e48883890162002539565b93506060870135915080821115620025fb57600080fd5b506200252d8782880162002539565b600181811c908216806200261f57607f821691505b6020821081036200264057634e487b7160e01b600052602260045260246000fd5b50919050565b601f8211156200079357600081815260208120601f850160051c810160208610156200266f5750805b601f850160051c820191505b8181101562002690578281556001016200267b565b505050505050565b815167ffffffffffffffff811115620026b557620026b5620020e6565b620026cd81620026c684546200260a565b8462002646565b602080601f831160018114620027055760008415620026ec5750858301515b600019600386901b1c1916600185901b17855562002690565b600085815260208120601f198616915b82811015620027365788860151825594840194600190910190840162002715565b5085821015620027555787850151600019600388901b60f8161c191681555b5050505050600190811b01905550565b634e487b7160e01b600052603260045260246000fd5b600060208083850312156200278f57600080fd5b825167ffffffffffffffff811115620027a757600080fd5b8301601f81018513620027b957600080fd5b8051620027ca62002457826200240b565b81815260059190911b82018301908381019087831115620027ea57600080fd5b928401925b8284101562002815578351620028058162002047565b82529284019290840190620027ef565b979650505050505050565b6000602082840312156200283357600080fd5b8151801515811462000c2757600080fd5b634e487b7160e01b600052601160045260246000fd5b6000600182016200286f576200286f62002844565b5060010190565b81810381811115620006a357620006a362002844565b634e487b7160e01b600052603160045260246000fd5b80820180821115620006a357620006a362002844565b608081526000620028cd6080830187620020a3565b8281036020840152620028e18187620020a3565b90508281036040840152620028f78186620020a3565b90508281036060840152620028158185620020a3565b7f416363657373436f6e74726f6c3a206163636f756e7420000000000000000000815260008351620029478160178501602088016200207d565b7001034b99036b4b9b9b4b733903937b6329607d1b60179184019182015283516200297a8160288401602088016200207d565b01602801949350505050565b8082028115828204841417620006a357620006a362002844565b600081620029b257620029b262002844565b50600019019056fe60806040523480156200001157600080fd5b50604051620034cc380380620034cc8339810160408190526200003491620001f5565b81816200004133620000de565b60056200004f83826200033d565b5060066200005e82826200033d565b5050600080525060076020527f6d5257204ebe7d88fd91ae87941cb2dd9d8062b64ae5a2bd2d28ec40b9fbf6e0805430610100026001600160a81b0319909116176001179055600980546001600160a01b03191633179055600e620000c485826200033d565b50600f620000d384826200033d565b505050505062000409565b600280546001600160a01b038381166001600160a01b0319831681179093556040519116919082907f8be0079c531659141344cd1fd0a4f28419497f9722a3daafe3b4186f6b6457e090600090a35050565b634e487b7160e01b600052604160045260246000fd5b600082601f8301126200015857600080fd5b81516001600160401b038082111562000175576200017562000130565b604051601f8301601f19908116603f01168101908282118183101715620001a057620001a062000130565b81604052838152602092508683858801011115620001bd57600080fd5b600091505b83821015620001e15785820183015181830184015290820190620001c2565b600093810190920192909252949350505050565b600080600080608085870312156200020c57600080fd5b84516001600160401b03808211156200022457600080fd5b620002328883890162000146565b955060208701519150808211156200024957600080fd5b620002578883890162000146565b945060408701519150808211156200026e57600080fd5b6200027c8883890162000146565b935060608701519150808211156200029357600080fd5b50620002a28782880162000146565b91505092959194509250565b600181811c90821680620002c357607f821691505b602082108103620002e457634e487b7160e01b600052602260045260246000fd5b50919050565b601f8211156200033857600081815260208120601f850160051c81016020861015620003135750805b601f850160051c820191505b8181101562000334578281556001016200031f565b5050505b505050565b81516001600160401b0381111562000359576200035962000130565b62000371816200036a8454620002ae565b84620002ea565b602080601f831160018114620003a95760008415620003905750858301515b600019600386901b1c1916600185901b17855562000334565b600085815260208120601f198616915b82811015620003da57888601518255948401946001909101908401620003b9565b5085821015620003f95787850151600019600388901b60f8161c191681555b5050505050600190811b01905550565b6130b380620004196000396000f3fe608060405234801561001057600080fd5b506004361061025d5760003560e01c8063715018a611610146578063a230c524116100c3578063d30ed96011610087578063d30ed960146105c0578063e4fd69f2146105d3578063e8a3d485146105e6578063e985e9c5146105ee578063f242432a1461061c578063f2fde38b1461062f57600080fd5b8063a230c52414610537578063b688a36314610563578063b899928a1461056b578063bcd101051461057e578063cf35bdd01461059e57600080fd5b806395d89b411161010a57806395d89b41146104a657806398041ea3146104ae5780639eab5253146104c1578063a08ad97d146104d6578063a22cb4651461052457600080fd5b8063715018a6146104695780637e79407b146104715780637ec756471461047a5780638da5cb5b14610482578063938e3d7b1461049357600080fd5b8063381e9ff3116101df5780635e78d078116101a35780635e78d078146103fc5780635fb6dbea1461042757806362564c481461042f57806367e4ac2c1461044457806369ecdd8b146104595780636c0360eb1461046157600080fd5b8063381e9ff31461037a5780634e1273f4146103a357806351cff8d9146103c357806354a2e233146103d657806355f804b3146103e957600080fd5b80630a09859d116102265780630a09859d146103205780630e89341c14610342578063188f937c1461035557806320a6bf841461035d5780632eb2c2d61461036557600080fd5b8062fdd58e14610262578063013cf08b1461029d57806301ffc9a7146102c557806306fdde03146102e857806308ae4b0c146102fd575b600080fd5b61028a61027036600461234b565b600060208181529281526040808220909352908152205481565b6040519081526020015b60405180910390f35b6102b06102ab366004612377565b610642565b604051610294999897969594939291906123e0565b6102d86102d3366004612465565b6107c7565b6040519015158152602001610294565b6102f0610819565b6040516102949190612489565b6102d861030b36600461249c565b600b6020526000908152604090205460ff1681565b61033361032e366004612377565b6108a7565b604051610294939291906124b9565b6102f0610350366004612377565b61095f565b6102f0610a22565b6102f0610a2f565b610378610373366004612578565b610ac1565b005b61028a61038836600461249c565b6001600160a01b03166000908152600c602052604090205490565b6103b66103b1366004612636565b610d69565b60405161029491906126a1565b6103786103d136600461249c565b610e9d565b6103786103e43660046126fa565b610f3f565b6103786103f736600461272f565b611222565b61040f61040a366004612377565b61122f565b6040516001600160a01b039091168152602001610294565b610378611259565b610437611292565b6040516102949190612770565b61044c61147a565b604051610294919061289a565b6102f061159f565b6102f06115ac565b6103786115b9565b61028a60085481565b6102f06115cd565b6002546001600160a01b031661040f565b6103786104a136600461272f565b6115dc565b6102f06115e9565b6103786104bc36600461234b565b6115f6565b6104c961169b565b6040516102949190612917565b61050d6104e436600461234b565b601260209081526000928352604080842090915290825290205460ff8082169161010090041682565b604080519215158352901515602083015201610294565b610378610532366004612958565b6116fc565b6102d861054536600461249c565b6001600160a01b03166000908152600b602052604090205460ff1690565b610378611768565b610378610579366004612a2f565b6117f7565b61028a61058c36600461249c565b600c6020526000908152604090205481565b6105b16105ac366004612377565b6118b6565b60405161029493929190612a8b565b61028a6105ce366004612abb565b61197c565b6103786105e1366004612b1d565b611bb5565b6102f0611c65565b6102d86105fc366004612b68565b600160209081526000928352604080842090915290825290205460ff1681565b61037861062a366004612ba1565b611c72565b61037861063d36600461249c565b611e6c565b6010818154811061065257600080fd5b906000526020600020906008020160009150905080600001549080600101549080600201805461068190612c1c565b80601f01602080910402602001604051908101604052809291908181526020018280546106ad90612c1c565b80156106fa5780601f106106cf576101008083540402835291602001916106fa565b820191906000526020600020905b8154815290600101906020018083116106dd57829003601f168201915b505050600384015460048501805494956001600160a01b0390921694919350915061072490612c1c565b80601f016020809104026020016040519081016040528092919081815260200182805461075090612c1c565b801561079d5780601f106107725761010080835404028352916020019161079d565b820191906000526020600020905b81548152906001019060200180831161078057829003601f168201915b50505050600583015460068401546007909401549293909290915060ff8082169161010090041689565b60006301ffc9a760e01b6001600160e01b0319831614806107f85750636cdb3d1360e11b6001600160e01b03198316145b8061081357506303a24d0760e21b6001600160e01b03198316145b92915050565b6003805461082690612c1c565b80601f016020809104026020016040519081016040528092919081815260200182805461085290612c1c565b801561089f5780601f106108745761010080835404028352916020019161089f565b820191906000526020600020905b81548152906001019060200180831161088257829003601f168201915b505050505081565b6007602052600090815260409020805481906108c290612c1c565b80601f01602080910402602001604051908101604052809291908181526020018280546108ee90612c1c565b801561093b5780601f106109105761010080835404028352916020019161093b565b820191906000526020600020905b81548152906001019060200180831161091e57829003601f168201915b5050506001909301549192505060ff8116906001600160a01b036101009091041683565b606060006005805461097090612c1c565b80601f016020809104026020016040519081016040528092919081815260200182805461099c90612c1c565b80156109e95780601f106109be576101008083540402835291602001916109e9565b820191906000526020600020905b8154815290600101906020018083116109cc57829003601f168201915b50505050509050806109fa84611ee5565b604051602001610a0b929190612c56565b604051602081830303815290604052915050919050565b600e805461082690612c1c565b6060600e8054610a3e90612c1c565b80601f0160208091040260200160405190810160405280929190818152602001828054610a6a90612c1c565b8015610ab75780601f10610a8c57610100808354040283529160200191610ab7565b820191906000526020600020905b815481529060010190602001808311610a9a57829003601f168201915b5050505050905090565b848314610b075760405162461bcd60e51b815260206004820152600f60248201526e0988a9c8ea890be9a92a69a82a8869608b1b60448201526064015b60405180910390fd5b336001600160a01b0389161480610b4157506001600160a01b038816600090815260016020908152604080832033845290915290205460ff165b610b7e5760405162461bcd60e51b815260206004820152600e60248201526d1393d517d055551213d49256915160921b6044820152606401610afe565b60008060005b87811015610c3957888882818110610b9e57610b9e612c85565b905060200201359250868682818110610bb957610bb9612c85565b6001600160a01b038e1660009081526020818152604080832089845282528220805493909102949094013595508593925090610bf6908490612cb1565b90915550506001600160a01b038a1660009081526020818152604080832086845290915281208054849290610c2c908490612cc4565b9091555050600101610b84565b50886001600160a01b03168a6001600160a01b0316336001600160a01b03167f4a39dc06d4c0dbc64b70af90fd698a233a518aa5d07e595d983b8c0526c8f7fb8b8b8b8b604051610c8d9493929190612d09565b60405180910390a46001600160a01b0389163b15610d345760405163bc197c8160e01b808252906001600160a01b038b169063bc197c8190610ce19033908f908e908e908e908e908e908e90600401612d64565b6020604051808303816000875af1158015610d00573d6000803e3d6000fd5b505050506040513d601f19601f82011682018060405250810190610d249190612dc8565b6001600160e01b03191614610d41565b6001600160a01b03891615155b610d5d5760405162461bcd60e51b8152600401610afe90612de5565b50505050505050505050565b6060838214610dac5760405162461bcd60e51b815260206004820152600f60248201526e0988a9c8ea890be9a92a69a82a8869608b1b6044820152606401610afe565b836001600160401b03811115610dc457610dc461298d565b604051908082528060200260200182016040528015610ded578160200160208202803683370190505b50905060005b84811015610e9457600080878784818110610e1057610e10612c85565b9050602002016020810190610e25919061249c565b6001600160a01b03166001600160a01b031681526020019081526020016000206000858584818110610e5957610e59612c85565b90506020020135815260200190815260200160002054828281518110610e8157610e81612c85565b6020908102919091010152600101610df3565b50949350505050565b610ea5611f77565b60405147906000906001600160a01b0384169083908381818185875af1925050503d8060008114610ef2576040519150601f19603f3d011682016040523d82523d6000602084013e610ef7565b606091505b5050905080610f3a5760405162461bcd60e51b815260206004820152600f60248201526e151c985b9cd9995c8819985a5b1959608a1b6044820152606401610afe565b505050565b336000908152600b602052604090205460ff16610f8d5760405162461bcd60e51b815260206004820152600c60248201526b13595b58995c8811d85d195960a21b6044820152606401610afe565b60108281548110610fa057610fa0612c85565b600091825260209091206007600890920201015460ff1615610ff95760405162461bcd60e51b8152602060048201526012602482015271141c9bdc1bdcd85b0810d85b98d95b1b195960721b6044820152606401610afe565b6010828154811061100c5761100c612c85565b6000918252602090912060089091020160070154610100900460ff16156110695760405162461bcd60e51b8152602060048201526011602482015270141c9bdc1bdcd85b08115e1958dd5d1959607a1b6044820152606401610afe565b33600090815260126020908152604080832085845290915290205460ff16156110c45760405162461bcd60e51b815260206004820152600d60248201526c105b1c9958591e48159bdd1959609a1b6044820152606401610afe565b336001600160a01b0316601083815481106110e1576110e1612c85565b60009182526020909120600360089092020101546001600160a01b03160361114b5760405162461bcd60e51b815260206004820152601b60248201527f43616e6e6f7420766f7465206f6e206f776e2070726f706f73616c00000000006044820152606401610afe565b60006010838154811061116057611160612c85565b6000918252602080832033845260128252604080852088865290925292206008909102909101915082156111a857600582015461119e906001612cc4565b60058301556111be565b60068201546111b8906001612cc4565b60068301555b80548315156101000261ffff1990911617600117815560405133907fd30ac21a886171cfc6e0046ee7856df867d5007f0e95d20c98914472ec2b94029061121390879087909182521515602082015260400190565b60405180910390a25050505050565b6005610f3a828483612e55565b600a818154811061123f57600080fd5b6000918252602090912001546001600160a01b0316905081565b61126533600d54611fd1565b336000908152600c6020526040902054611280906001612cc4565b336000908152600c6020526040902055565b60606010805480602002602001604051908101604052809291908181526020016000905b8282101561147157838290600052602060002090600802016040518061012001604052908160008201548152602001600182015481526020016002820180546112fe90612c1c565b80601f016020809104026020016040519081016040528092919081815260200182805461132a90612c1c565b80156113775780601f1061134c57610100808354040283529160200191611377565b820191906000526020600020905b81548152906001019060200180831161135a57829003601f168201915b505050918352505060038201546001600160a01b031660208201526004820180546040909201916113a790612c1c565b80601f01602080910402602001604051908101604052809291908181526020018280546113d390612c1c565b80156114205780601f106113f557610100808354040283529160200191611420565b820191906000526020600020905b81548152906001019060200180831161140357829003601f168201915b505050918352505060058201546020808301919091526006830154604083015260079092015460ff8082161515606084015261010090910416151560809091015290825260019290920191016112b6565b50505050905090565b60606011805480602002602001604051908101604052809291908181526020016000905b8282101561147157838290600052602060002090600302016040518060600160405290816000820180546114d190612c1c565b80601f01602080910402602001604051908101604052809291908181526020018280546114fd90612c1c565b801561154a5780601f1061151f5761010080835404028352916020019161154a565b820191906000526020600020905b81548152906001019060200180831161152d57829003601f168201915b505050918352505060018201546020820152600282015460409091019060ff16600481111561157b5761157b612862565b600481111561158c5761158c612862565b815250508152602001906001019061149e565b600f805461082690612c1c565b6005805461082690612c1c565b6115c1611f77565b6115cb600061209f565b565b6060600f8054610a3e90612c1c565b6006610f3a828483612e55565b6004805461082690612c1c565b6009546001600160a01b031633146116205760405162461bcd60e51b8152600401610afe90612f15565b611629826120f1565b600a805460018181019092557fc65a7bb8d6351c1cf70c95a316cc6a92839c986682d98bc35f958f4883f9d2a80180546001600160a01b039094166001600160a01b0319909416841790556000928352600b60209081526040808520805460ff1916909317909255600c905290912055565b6060600a805480602002602001604051908101604052809291908181526020018280548015610ab757602002820191906000526020600020905b81546001600160a01b031681526001909101906020018083116116d5575050505050905090565b3360008181526001602090815260408083206001600160a01b03871680855290835292819020805460ff191686151590811790915590519081529192917f17307eab39ab6107e8899845ad3d59bd9653f200f220920489ca2b5937696c31910160405180910390a35050565b6009546001600160a01b031633146117925760405162461bcd60e51b8152600401610afe90612f15565b61179b336120f1565b600a805460018181019092557fc65a7bb8d6351c1cf70c95a316cc6a92839c986682d98bc35f958f4883f9d2a80180546001600160a01b031916339081179091556000908152600b60205260409020805460ff19169091179055565b6009546001600160a01b031633146118215760405162461bcd60e51b8152600401610afe90612f15565b6011604051806060016040528083815260200185815260200184600481111561184c5761184c612862565b905281546001810183556000928352602090922081519192600302019081906118759082612f3d565b506020820151816001015560408201518160020160006101000a81548160ff021916908360048111156118aa576118aa612862565b02179055505050505050565b601181815481106118c657600080fd5b90600052602060002090600302016000915090508060000180546118e990612c1c565b80601f016020809104026020016040519081016040528092919081815260200182805461191590612c1c565b80156119625780601f1061193757610100808354040283529160200191611962565b820191906000526020600020905b81548152906001019060200180831161194557829003601f168201915b50505050600183015460029093015491929160ff16905083565b336000908152600b602052604081205460ff166119ca5760405162461bcd60e51b815260206004820152600c60248201526b13595b58995c8811d85d195960a21b6044820152606401610afe565b611a2660405180610120016040528060008152602001600081526020016060815260200160006001600160a01b031681526020016060815260200160008152602001600081526020016000151581526020016000151581525090565b601054611a34906001612cc4565b815233606082015260808101849052602081018581526040820184815260108054600181018255600091909152835160089091027f1b6847dc741a1b0cd08d278845f9d819d87b734759afb55fe2de5cb82a9ae672810191825592517f1b6847dc741a1b0cd08d278845f9d819d87b734759afb55fe2de5cb82a9ae673840155905183927f1b6847dc741a1b0cd08d278845f9d819d87b734759afb55fe2de5cb82a9ae6740190611ae59082612f3d565b5060608201516003820180546001600160a01b0319166001600160a01b0390921691909117905560808201516004820190611b209082612f3d565b5060a0820151600582015560c0820151600682015560e0820151600790910180546101009384015161ffff1990911692151561ff001916929092179115159092021790558051602080830151604080519384523392840192909252908201527f3417b456fad6209c73445d5efd446d686e75e4560f0f50c13b5a5cde976447b49060600160405180910390a151949350505050565b611bbd611f77565b60008381526007602052604090206001015460ff1615611c295760405162461bcd60e51b815260206004820152602160248201527f436f6c6c65637469626c6520746f6b656e20616c7265616479206372656174656044820152601960fa1b6064820152608401610afe565b6000838152600760205260409020611c42828483612e55565b50505060009081526007602052604090206001908101805460ff19169091179055565b6006805461082690612c1c565b336001600160a01b0387161480611cac57506001600160a01b038616600090815260016020908152604080832033845290915290205460ff165b611ce95760405162461bcd60e51b815260206004820152600e60248201526d1393d517d055551213d49256915160921b6044820152606401610afe565b6001600160a01b03861660009081526020818152604080832087845290915281208054859290611d1a908490612cb1565b90915550506001600160a01b03851660009081526020818152604080832087845290915281208054859290611d50908490612cc4565b909155505060408051858152602081018590526001600160a01b03808816929089169133917fc3d58168c5ae7397731d063d5bbf3d657854427343f4c083240f7aacaa2d0f62910160405180910390a46001600160a01b0385163b15611e3b5760405163f23a6e6160e01b808252906001600160a01b0387169063f23a6e6190611de89033908b908a908a908a908a90600401612ffc565b6020604051808303816000875af1158015611e07573d6000803e3d6000fd5b505050506040513d601f19601f82011682018060405250810190611e2b9190612dc8565b6001600160e01b03191614611e48565b6001600160a01b03851615155b611e645760405162461bcd60e51b8152600401610afe90612de5565b505050505050565b611e74611f77565b6001600160a01b038116611ed95760405162461bcd60e51b815260206004820152602660248201527f4f776e61626c653a206e6577206f776e657220697320746865207a65726f206160448201526564647265737360d01b6064820152608401610afe565b611ee28161209f565b50565b60606000611ef283612116565b60010190506000816001600160401b03811115611f1157611f1161298d565b6040519080825280601f01601f191660200182016040528015611f3b576020820181803683370190505b5090508181016020015b600019016f181899199a1a9b1b9c1cb0b131b232b360811b600a86061a8153600a8504945084611f4557509392505050565b6002546001600160a01b031633146115cb5760405162461bcd60e51b815260206004820181905260248201527f4f776e61626c653a2063616c6c6572206973206e6f7420746865206f776e65726044820152606401610afe565b80600081116120225760405162461bcd60e51b815260206004820181905260248201527f436f6c6c65637469626c652063616e6e6f7420626520612073717561642069646044820152606401610afe565b60008281526007602052604090206001015460ff166120835760405162461bcd60e51b815260206004820152601d60248201527f436f6c6c65637469626c6520746f6b656e206e6f7420637265617465640000006044820152606401610afe565b610f3a83836001604051806020016040528060008152506121ee565b600280546001600160a01b038381166001600160a01b0319831681179093556040519116919082907f8be0079c531659141344cd1fd0a4f28419497f9722a3daafe3b4186f6b6457e090600090a35050565b611ee281336001600160a01b03166001604051806020016040528060008152506121ee565b60008072184f03e93ff9f4daa797ed6e38ed64bf6a1f0160401b83106121555772184f03e93ff9f4daa797ed6e38ed64bf6a1f0160401b830492506040015b6d04ee2d6d415b85acef81000000008310612181576d04ee2d6d415b85acef8100000000830492506020015b662386f26fc10000831061219f57662386f26fc10000830492506010015b6305f5e10083106121b7576305f5e100830492506008015b61271083106121cb57612710830492506004015b606483106121dd576064830492506002015b600a83106108135760010192915050565b6001600160a01b0384166000908152602081815260408083208684529091528120805484929061221f908490612cc4565b909155505060408051848152602081018490526001600160a01b0386169160009133917fc3d58168c5ae7397731d063d5bbf3d657854427343f4c083240f7aacaa2d0f62910160405180910390a46001600160a01b0384163b156123075760405163f23a6e6160e01b808252906001600160a01b0386169063f23a6e61906122b4903390600090899089908990600401613043565b6020604051808303816000875af11580156122d3573d6000803e3d6000fd5b505050506040513d601f19601f820116820180604052508101906122f79190612dc8565b6001600160e01b03191614612314565b6001600160a01b03841615155b6123305760405162461bcd60e51b8152600401610afe90612de5565b50505050565b6001600160a01b0381168114611ee257600080fd5b6000806040838503121561235e57600080fd5b823561236981612336565b946020939093013593505050565b60006020828403121561238957600080fd5b5035919050565b60005b838110156123ab578181015183820152602001612393565b50506000910152565b600081518084526123cc816020860160208601612390565b601f01601f19169290920160200192915050565b60006101208b83528a60208401528060408401526124008184018b6123b4565b6001600160a01b038a1660608501528381036080850152905061242381896123b4565b60a0840197909752505060c081019390935290151560e083015215156101009091015295945050505050565b6001600160e01b031981168114611ee257600080fd5b60006020828403121561247757600080fd5b81356124828161244f565b9392505050565b60208152600061248260208301846123b4565b6000602082840312156124ae57600080fd5b813561248281612336565b6060815260006124cc60608301866123b4565b9315156020830152506001600160a01b0391909116604090910152919050565b60008083601f8401126124fe57600080fd5b5081356001600160401b0381111561251557600080fd5b6020830191508360208260051b850101111561253057600080fd5b9250929050565b60008083601f84011261254957600080fd5b5081356001600160401b0381111561256057600080fd5b60208301915083602082850101111561253057600080fd5b60008060008060008060008060a0898b03121561259457600080fd5b883561259f81612336565b975060208901356125af81612336565b965060408901356001600160401b03808211156125cb57600080fd5b6125d78c838d016124ec565b909850965060608b01359150808211156125f057600080fd5b6125fc8c838d016124ec565b909650945060808b013591508082111561261557600080fd5b506126228b828c01612537565b999c989b5096995094979396929594505050565b6000806000806040858703121561264c57600080fd5b84356001600160401b038082111561266357600080fd5b61266f888389016124ec565b9096509450602087013591508082111561268857600080fd5b50612695878288016124ec565b95989497509550505050565b6020808252825182820181905260009190848201906040850190845b818110156126d9578351835292840192918401916001016126bd565b50909695505050505050565b803580151581146126f557600080fd5b919050565b60008060006060848603121561270f57600080fd5b8335925060208401359150612726604085016126e5565b90509250925092565b6000806020838503121561274257600080fd5b82356001600160401b0381111561275857600080fd5b61276485828601612537565b90969095509350505050565b60006020808301818452808551808352604092508286019150828160051b87010184880160005b8381101561285457603f1989840301855281516101208151855288820151898601528782015181898701526127ce828701826123b4565b9150506060808301516127eb828801826001600160a01b03169052565b50506080808301518683038288015261280483826123b4565b9250505060a080830151818701525060c080830151818701525060e0808301516128318288018215159052565b505061010091820151151594909101939093529386019390860190600101612797565b509098975050505050505050565b634e487b7160e01b600052602160045260246000fd5b6005811061289657634e487b7160e01b600052602160045260246000fd5b9052565b60006020808301818452808551808352604092508286019150828160051b87010184880160005b8381101561285457603f198984030185528151606081518186526128e7828701826123b4565b915050888201518986015287820151915061290488860183612878565b95880195935050908601906001016128c1565b6020808252825182820181905260009190848201906040850190845b818110156126d95783516001600160a01b031683529284019291840191600101612933565b6000806040838503121561296b57600080fd5b823561297681612336565b9150612984602084016126e5565b90509250929050565b634e487b7160e01b600052604160045260246000fd5b600082601f8301126129b457600080fd5b81356001600160401b03808211156129ce576129ce61298d565b604051601f8301601f19908116603f011681019082821181831017156129f6576129f661298d565b81604052838152866020858801011115612a0f57600080fd5b836020870160208301376000602085830101528094505050505092915050565b600080600060608486031215612a4457600080fd5b83359250602084013560058110612a5a57600080fd5b915060408401356001600160401b03811115612a7557600080fd5b612a81868287016129a3565b9150509250925092565b606081526000612a9e60608301866123b4565b9050836020830152612ab36040830184612878565b949350505050565b600080600060608486031215612ad057600080fd5b8335925060208401356001600160401b0380821115612aee57600080fd5b612afa878388016129a3565b93506040860135915080821115612b1057600080fd5b50612a81868287016129a3565b600080600060408486031215612b3257600080fd5b8335925060208401356001600160401b03811115612b4f57600080fd5b612b5b86828701612537565b9497909650939450505050565b60008060408385031215612b7b57600080fd5b8235612b8681612336565b91506020830135612b9681612336565b809150509250929050565b60008060008060008060a08789031215612bba57600080fd5b8635612bc581612336565b95506020870135612bd581612336565b9450604087013593506060870135925060808701356001600160401b03811115612bfe57600080fd5b612c0a89828a01612537565b979a9699509497509295939492505050565b600181811c90821680612c3057607f821691505b602082108103612c5057634e487b7160e01b600052602260045260246000fd5b50919050565b60008351612c68818460208801612390565b835190830190612c7c818360208801612390565b01949350505050565b634e487b7160e01b600052603260045260246000fd5b634e487b7160e01b600052601160045260246000fd5b8181038181111561081357610813612c9b565b8082018082111561081357610813612c9b565b81835260006001600160fb1b03831115612cf057600080fd5b8260051b80836020870137939093016020019392505050565b604081526000612d1d604083018688612cd7565b8281036020840152612d30818587612cd7565b979650505050505050565b81835281816020850137506000828201602090810191909152601f909101601f19169091010190565b6001600160a01b0389811682528816602082015260a060408201819052600090612d91908301888a612cd7565b8281036060840152612da4818789612cd7565b90508281036080840152612db9818587612d3b565b9b9a5050505050505050505050565b600060208284031215612dda57600080fd5b81516124828161244f565b60208082526010908201526f155394d0519157d49150d2541251539560821b604082015260600190565b601f821115610f3a57600081815260208120601f850160051c81016020861015612e365750805b601f850160051c820191505b81811015611e6457828155600101612e42565b6001600160401b03831115612e6c57612e6c61298d565b612e8083612e7a8354612c1c565b83612e0f565b6000601f841160018114612eb45760008515612e9c5750838201355b600019600387901b1c1916600186901b178355612f0e565b600083815260209020601f19861690835b82811015612ee55786850135825560209485019460019092019101612ec5565b5086821015612f025760001960f88860031b161c19848701351681555b505060018560011b0183555b5050505050565b6020808252600e908201526d139bdb8810591b5a5b8810d85b1b60921b604082015260600190565b81516001600160401b03811115612f5657612f5661298d565b612f6a81612f648454612c1c565b84612e0f565b602080601f831160018114612f9f5760008415612f875750858301515b600019600386901b1c1916600185901b178555611e64565b600085815260208120601f198616915b82811015612fce57888601518255948401946001909101908401612faf565b5085821015612fec5787850151600019600388901b60f8161c191681555b5050505050600190811b01905550565b6001600160a01b03878116825286166020820152604081018590526060810184905260a0608082018190526000906130379083018486612d3b565b98975050505050505050565b6001600160a01b03868116825285166020820152604081018490526060810183905260a060808201819052600090612d30908301846123b456fea2646970667358221220ac8c76efdfbaecffa9ce264a9cffbe14c7c6d52a191fc6f535ea379ab7a5352964736f6c6343000811003325bef1c97dfcc92480799a90d2b121fcb67fcd9b099390197d47a6e0a1639096a26469706673582212205bd40259ebbb3cccc4290b0112c05ced2f88771d09a45d1535b1e03679bfccd464736f6c63430008110033",
    "linkReferences": {}
  },
  "methodIdentifiers": {
    "DEFAULT_ADMIN_ROLE()": "a217fddf",
    "LEAGUE_MEMBER()": "3818140f",
    "addGame(address,uint256)": "5dce431b",
    "addMemberToSquad(address,address,uint256)": "b41a5abd",
    "closeLeague()": "e48c15db",
    "createMatch(uint256,address,address[],address[])": "f7c397e4",
    "createSquad(string,string,string,string)": "fcfa5267",
    "enterLeague(address)": "625e7c96",
    "finishMatch(uint256,address)": "751947ce",
    "gameExists(address)": "888f00c7",
    "games(uint256)": "117a5b90",
    "getMatch(uint256)": "3d092b3d",
    "getRoleAdmin(bytes32)": "248a9ca3",
    "getSquads()": "a2e1b4d0",
    "grantRole(bytes32,address)": "2f2ff15d",
    "hasRole(bytes32,address)": "91d14854",
    "isSquadMember(address)": "87349b58",
    "joinSquad(address)": "7e478abe",
    "matchMerkleRoot()": "d470fe96",
    "matches(uint256)": "4768d4ef",
    "memberToSquad(address)": "14dfec7f",
    "openLeague(uint256,uint256)": "c1f0bd66",
    "playerMerkleRoot()": "1769dcb7",
    "redeemMatchCollectible(uint256)": "b724e2c9",
    "removeGame(address)": "bce24669",
    "renounceRole(bytes32,address)": "36568abe",
    "revokeRole(bytes32,address)": "d547741f",
    "setMatchMerkleRoot(bytes)": "2d90aab3",
    "setPlayerMerkleRoot(bytes)": "a3cb7afa",
    "setWinnerMerkleRoot(bytes)": "230d540e",
    "squadAddresses(uint256)": "c0d944d4",
    "squadExists(address)": "fb6c4d27",
    "squadMembers(uint256)": "5e78d078",
    "squads(uint256)": "de1eecc9",
    "supportsInterface(bytes4)": "01ffc9a7",
    "winnerMerkleRoot()": "7ffb361b"
  },
  "id": 28
}