{
  "abi": [
    {
      "inputs": [
        {
          "internalType": "string",
          "name": "_name",
          "type": "string"
        },
        {
          "internalType": "string",
          "name": "_description",
          "type": "string"
        },
        {
          "internalType": "uint256",
          "name": "_squadCount",
          "type": "uint256"
        }
      ],
      "name": "createLeague",
      "outputs": [
        {
          "internalType": "address",
          "name": "",
          "type": "address"
        }
      ],
      "stateMutability": "nonpayable",
      "type": "function"
    },
    {
      "inputs": [],
      "name": "getLeagues",
      "outputs": [
        {
          "internalType": "contract League[]",
          "name": "",
          "type": "address[]"
        }
      ],
      "stateMutability": "view",
      "type": "function"
    },
    {
      "inputs": [
        {
          "internalType": "uint256",
          "name": "",
          "type": "uint256"
        }
      ],
      "name": "leagueAddresses",
      "outputs": [
        {
          "internalType": "address",
          "name": "",
          "type": "address"
        }
      ],
      "stateMutability": "view",
      "type": "function"
    },
    {
      "inputs": [
        {
          "internalType": "uint256",
          "name": "",
          "type": "uint256"
        }
      ],
      "name": "leagues",
      "outputs": [
        {
          "internalType": "contract League",
          "name": "",
          "type": "address"
        }
      ],
      "stateMutability": "view",
      "type": "function"
    }
  ],
  "bytecode": {
    "object": "0x608060405234801561001057600080fd5b506165df806100206000396000f3fe608060405234801561001057600080fd5b506004361061004c5760003560e01c806329ffe5e9146100515780635b1aa00114610097578063c648fefe146100aa578063dec7db5f146100bd575b600080fd5b61007a61005f366004610219565b6000602081905290815260409020546001600160a01b031681565b6040516001600160a01b0390911681526020015b60405180910390f35b61007a6100a53660046102d5565b6100d2565b61007a6100b8366004610219565b61017f565b6100c56101a9565b60405161008e9190610342565b6000808484846040516100e49061020b565b6100f0939291906103d5565b604051809103906000f08015801561010c573d6000803e3d6000fd5b5060018054600090815260208190526040812080546001600160a01b0385166001600160a01b0319918216811790925583548085018555939092527fb10e2d527612073b26eecdfd717e6a320cf44b4afac2b0732d9fcbe2b7fa0cf6909201805490911690911790559150509392505050565b6001818154811061018f57600080fd5b6000918252602090912001546001600160a01b0316905081565b6060600180548060200260200160405190810160405280929190818152602001828054801561020157602002820191906000526020600020905b81546001600160a01b031681526001909101906020018083116101e3575b5050505050905090565b61619e806200040c83390190565b60006020828403121561022b57600080fd5b5035919050565b634e487b7160e01b600052604160045260246000fd5b600082601f83011261025957600080fd5b813567ffffffffffffffff8082111561027457610274610232565b604051601f8301601f19908116603f0116810190828211818310171561029c5761029c610232565b816040528381528660208588010111156102b557600080fd5b836020870160208301376000602085830101528094505050505092915050565b6000806000606084860312156102ea57600080fd5b833567ffffffffffffffff8082111561030257600080fd5b61030e87838801610248565b9450602086013591508082111561032457600080fd5b5061033186828701610248565b925050604084013590509250925092565b6020808252825182820181905260009190848201906040850190845b818110156103835783516001600160a01b03168352928401929184019160010161035e565b50909695505050505050565b6000815180845260005b818110156103b557602081850181015186830182015201610399565b506000602082860101526020601f19601f83011685010191505092915050565b6060815260006103e8606083018661038f565b82810360208401526103fa818661038f565b91505082604083015294935050505056fe60806040523480156200001157600080fd5b506040516200619e3803806200619e8339810160408190526200003491620001d3565b60058190556009620000478482620002d5565b50600a620000568382620002d5565b50620000646000336200006d565b505050620003a1565b6000828152602081815260408083206001600160a01b038516845290915290205460ff166200010a576000828152602081815260408083206001600160a01b03851684529091529020805460ff19166001179055620000c93390565b6001600160a01b0316816001600160a01b0316837f2f8788117e7eff1d82e926ec794901d17c78024a50270940304540a733656f0d60405160405180910390a45b5050565b634e487b7160e01b600052604160045260246000fd5b600082601f8301126200013657600080fd5b81516001600160401b03808211156200015357620001536200010e565b604051601f8301601f19908116603f011681019082821181831017156200017e576200017e6200010e565b816040528381526020925086838588010111156200019b57600080fd5b600091505b83821015620001bf5785820183015181830184015290820190620001a0565b600093810190920192909252949350505050565b600080600060608486031215620001e957600080fd5b83516001600160401b03808211156200020157600080fd5b6200020f8783880162000124565b945060208601519150808211156200022657600080fd5b50620002358682870162000124565b925050604084015190509250925092565b600181811c908216806200025b57607f821691505b6020821081036200027c57634e487b7160e01b600052602260045260246000fd5b50919050565b601f821115620002d057600081815260208120601f850160051c81016020861015620002ab5750805b601f850160051c820191505b81811015620002cc57828155600101620002b7565b5050505b505050565b81516001600160401b03811115620002f157620002f16200010e565b620003098162000302845462000246565b8462000282565b602080601f831160018114620003415760008415620003285750858301515b600019600386901b1c1916600185901b178555620002cc565b600085815260208120601f198616915b82811015620003725788860151825594840194600190910190840162000351565b5085821015620003915787850151600019600388901b60f8161c191681555b5050505050600190811b01905550565b615ded80620003b16000396000f3fe60806040523480156200001157600080fd5b5060043610620002495760003560e01c80637ffb361b116200013d578063c0d944d411620000bb578063de1eecc91162000086578063de1eecc91462000626578063e48c15db146200063d578063f7c397e41462000647578063fb6c4d27146200065e578063fcfa5267146200068457600080fd5b8063c0d944d414620005c2578063c1f0bd6614620005ee578063d470fe961462000605578063d547741f146200060f57600080fd5b8063a217fddf1162000108578063a217fddf146200055b578063a2e1b4d01462000564578063a3cb7afa146200057d578063b724e2c91462000594578063bce2466914620005ab57600080fd5b80637ffb361b14620004e457806387349b5814620004ee578063888f00c7146200051e57806391d14854146200054457600080fd5b80633818140f11620001cb5780635dce431b11620001965780635dce431b14620004625780635e62df9f14620004795780635e78d0781462000490578063625e7c9614620004b6578063751947ce14620004cd57600080fd5b80633818140f14620003a25780633d092b3d14620003ca5780634768d4ef14620003f05780635daf08ca146200044b57600080fd5b8063230d540e1162000218578063230d540e146200030f578063248a9ca314620003285780632d90aab3146200035d5780632f2ff15d146200037457806336568abe146200038b57600080fd5b806301ffc9a7146200024e578063117a5b90146200027a57806314dfec7f14620002b15780631769dcb714620002f6575b600080fd5b620002656200025f36600462002049565b6200069b565b60405190151581526020015b60405180910390f35b620002916200028b36600462002075565b620006d3565b604080516001600160a01b03909316835260208301919091520162000271565b620002dd620002c2366004620020a5565b600d602052600090815260409020546001600160a01b031681565b6040516001600160a01b03909116815260200162000271565b620003006200070c565b60405162000271919062002119565b6200032662000320366004620021d6565b620007a2565b005b6200034e6200033936600462002075565b60009081526020819052604090206001015490565b60405190815260200162000271565b620003266200036e366004620021d6565b620007c2565b62000326620003853660046200222c565b620007dd565b620003266200039c3660046200222c565b62000806565b6200034e7f25bef1c97dfcc92480799a90d2b121fcb67fcd9b099390197d47a6e0a163909681565b620003e1620003db36600462002075565b6200088c565b604051620002719190620022a5565b620004076200040136600462002075565b62000a42565b604080519788526020880196909652948601939093526060850191909152151560808401526001600160a01b0390811660a08401521660c082015260e00162000271565b620002dd6200045c36600462002075565b62000aa0565b620003266200047336600462002357565b62000acb565b620003266200048a36600462002075565b62000be8565b620004a7620004a136600462002075565b62000e3f565b60405162000271919062002386565b62000326620004c7366004620020a5565b62000eda565b62000326620004de3660046200222c565b62001087565b62000300620010ec565b62000505620004ff366004620020a5565b620010fb565b60405190516001600160a01b0316815260200162000271565b620002656200052f366004620020a5565b600b6020526000908152604090205460ff1681565b62000265620005553660046200222c565b620011fe565b6200034e600081565b6200056e62001227565b6040516200027191906200239b565b620003266200058e366004620021d6565b6200128b565b62000326620005a536600462002075565b620012a6565b62000326620005bc366004620020a5565b62001541565b620002dd620005d336600462002075565b6001602052600090815260409020546001600160a01b031681565b62000326620005ff366004620023ea565b620016fd565b6200030062001716565b62000326620006203660046200222c565b62001725565b620002dd6200063736600462002075565b6200174e565b620003266200175f565b6200032662000658366004620024b2565b620017bd565b620002656200066f366004620020a5565b600c6020526000908152604090205460ff1681565b6200034e620006953660046200255e565b62001b77565b60006001600160e01b03198216637965db0b60e01b1480620006cd57506301ffc9a760e01b6001600160e01b03198316145b92915050565b600e8181548110620006e457600080fd5b6000918252602090912060029091020180546001909101546001600160a01b03909116915082565b600780546200071b906200260c565b80601f016020809104026020016040519081016040528092919081815260200182805462000749906200260c565b80156200079a5780601f106200076e576101008083540402835291602001916200079a565b820191906000526020600020905b8154815290600101906020018083116200077c57829003601f168201915b505050505081565b6000620007af8162001c8a565b6008620007bd83826200269a565b505050565b6000620007cf8162001c8a565b6006620007bd83826200269a565b600082815260208190526040902060010154620007fa8162001c8a565b620007bd838362001c99565b6001600160a01b03811633146200087c5760405162461bcd60e51b815260206004820152602f60248201527f416363657373436f6e74726f6c3a2063616e206f6e6c792072656e6f756e636560448201526e103937b632b9903337b91039b2b63360891b60648201526084015b60405180910390fd5b62000888828262001d21565b5050565b620008f06040518061012001604052806000815260200160008152602001600081526020016000815260200160001515815260200160006001600160a01b0316815260200160006001600160a01b0316815260200160608152602001606081525090565b600f828154811062000906576200090662002767565b6000918252602091829020604080516101208101825260089093029091018054835260018101548385015260028101548383015260038101546060840152600481015460ff8116151560808501526001600160a01b03610100909104811660a085015260058201541660c08401526006810180548351818702810187019094528084529394919360e086019392830182828015620009ce57602002820191906000526020600020905b81546001600160a01b03168152600190910190602001808311620009af575b505050505081526020016007820180548060200260200160405190810160405280929190818152602001828054801562000a3257602002820191906000526020600020905b81546001600160a01b0316815260019091019060200180831162000a13575b5050505050815250509050919050565b600f818154811062000a5357600080fd5b60009182526020909120600890910201805460018201546002830154600384015460048501546005909501549395509193909260ff8216916001600160a01b036101009091048116911687565b6010818154811062000ab157600080fd5b6000918252602090912001546001600160a01b0316905081565b600062000ad88162001c8a565b6001600160a01b0383166000908152600b602052604090205460ff161562000b395760405162461bcd60e51b815260206004820152601360248201527247616d6520616c72656164792065786973747360681b604482015260640162000873565b506040805180820182526001600160a01b039384168082526020808301948552600e805460018082018355600092835294517fbb7b4a454dc3493923482f07822329ed19e8244eff582cc204f8554c3620c3fd600290920291820180546001600160a01b031916919099161790975594517fbb7b4a454dc3493923482f07822329ed19e8244eff582cc204f8554c3620c3fe909601959095558352600b9093529020805460ff19169091179055565b60005b60025481101562000ce35760006002828154811062000c0e5762000c0e62002767565b60009182526020909120015460405163288c314960e21b81523360048201526001600160a01b039091169150819063a230c52490602401602060405180830381865afa15801562000c63573d6000803e3d6000fd5b505050506040513d601f19601f8201168201806040525081019062000c8991906200277d565b1562000ccd5760405162461bcd60e51b8152602060048201526012602482015271105b1c9958591e481a5b8818481cdc5d585960721b604482015260640162000873565b508062000cda81620027b7565b91505062000beb565b5060025481111562000d2f5760405162461bcd60e51b815260206004820152601460248201527314dc5d585908191bd95cc81b9bdd08195e1a5cdd60621b604482015260640162000873565b60006002828154811062000d475762000d4762002767565b60009182526020822001546040805163b688a36360e01b815290516001600160a01b039092169350839263b688a3639260048084019382900301818387803b15801562000d9357600080fd5b505af115801562000da8573d6000803e3d6000fd5b5050336000818152600d6020526040902080546001600160a01b0319166001600160a01b03861617905562000e0192507f25bef1c97dfcc92480799a90d2b121fcb67fcd9b099390197d47a6e0a1639096915062001c99565b60408051338152602081018490527f97a28f38e66ea720af035eaff6a57dda13d1a64f802dc864688232a80bbe4f6591015b60405180910390a15050565b606060006002838154811062000e595762000e5962002767565b600091825260208220015460408051639eab525360e01b815290516001600160a01b0390921693508392639eab5253926004808401938290030181865afa15801562000ea9573d6000803e3d6000fd5b505050506040513d6000823e601f3d908101601f1916820160405262000ed39190810190620027d3565b9392505050565b60035442101562000eff5760405162461bcd60e51b8152600401620008739062002878565b60045442111562000f245760405162461bcd60e51b81526004016200087390620028a8565b600554600254111562000f6f5760405162461bcd60e51b815260206004820152601260248201527113585e081cdc5d58591cc81c995858da195960721b604482015260640162000873565b6001600160a01b0381166000908152600c602052604090205460ff161562000fd15760405162461bcd60e51b8152602060048201526014602482015273537175616420616c72656164792065786973747360601b604482015260640162000873565b60028054600180820183557f405787fa12a823e0f2b7631cc41b3ba8828b3321ca811111fa75cd3aa3bb5ace90910180546001600160a01b0319166001600160a01b0385169081179091556000908152600c60205260409020805460ff191682179055905482917f97a28f38e66ea720af035eaff6a57dda13d1a64f802dc864688232a80bbe4f659133916200106791620028d2565b604080516001600160a01b03909316835260208301919091520162000e33565b6000620010948162001c8a565b6000600f8481548110620010ac57620010ac62002767565b6000918252602090912042600890920201600281019190915560050180546001600160a01b0319166001600160a01b039490941693909317909255505050565b600880546200071b906200260c565b60408051602081019091526000815260005b600254811015620011e85760006002828154811062001130576200113062002767565b60009182526020909120015460405163288c314960e21b81526001600160a01b0386811660048301529091169150819063a230c52490602401602060405180830381865afa15801562001187573d6000803e3d6000fd5b505050506040513d601f19601f82011682018060405250810190620011ad91906200277d565b15620011d25760408051602081019091526001600160a01b0390911681529392505050565b5080620011df81620027b7565b9150506200110d565b5050604080516020810190915260008152919050565b6000918252602082815260408084206001600160a01b0393909316845291905290205460ff1690565b606060028054806020026020016040519081016040528092919081815260200182805480156200128157602002820191906000526020600020905b81546001600160a01b0316815260019091019060200180831162001262575b5050505050905090565b6000620012988162001c8a565b6007620007bd83826200269a565b620012d27f25bef1c97dfcc92480799a90d2b121fcb67fcd9b099390197d47a6e0a163909633620011fe565b620013165760405162461bcd60e51b81526020600482015260136024820152722737ba1030903632b0b3bab29036b2b6b132b960691b604482015260640162000873565b6004544210156200136a5760405162461bcd60e51b815260206004820152601860248201527f4c6561677565206973206e6f7420636c6f736564207965740000000000000000604482015260640162000873565b6000600f828154811062001382576200138262002767565b60009182526020909120600890910201600481015490915060ff1615620013ec5760405162461bcd60e51b815260206004820152601c60248201527f436f6c6c65637469626c6520616c72656164792072656465656d656400000000604482015260640162000873565b42816003015411620014375760405162461bcd60e51b815260206004820152601360248201527210dbdb1b1958dd1a589b1948195e1c1a5c9959606a1b604482015260640162000873565b60058101546001600160a01b031633146200148b5760405162461bcd60e51b815260206004820152601360248201527209cdee840eed2dcdccae440decc40dac2e8c6d606b1b604482015260640162000873565b336000908152600d6020526040808220548151632fdb6df560e11b815291516001600160a01b03909116928392635fb6dbea926004808301939282900301818387803b158015620014db57600080fd5b505af1158015620014f0573d6000803e3d6000fd5b5050505060048201805460ff1916600117905560408051338152602081018590527f7669e39a312f5da295908ed4452427a0b7a73abbf69d5639f87d19a123f8bf38910160405180910390a1505050565b60006200154e8162001c8a565b6001600160a01b0382166000908152600b602052604090205460ff161515600114620015b35760405162461bcd60e51b815260206004820152601360248201527211d85b5948191bd95cc81b9bdd08195e1a5cdd606a1b604482015260640162000873565b60005b600e54811015620016da57826001600160a01b0316600e8281548110620015e157620015e162002767565b60009182526020909120600290910201546001600160a01b031603620016c557600e80546200161390600190620028d2565b8154811062001626576200162662002767565b9060005260206000209060020201600e82815481106200164a576200164a62002767565b60009182526020909120825460029092020180546001600160a01b0319166001600160a01b03909216919091178155600191820154910155600e805480620016965762001696620028e8565b60008281526020812060026000199093019283020180546001600160a01b0319168155600101559055620016da565b80620016d181620027b7565b915050620015b6565b50506001600160a01b03166000908152600b60205260409020805460ff19169055565b60006200170a8162001c8a565b50600391909155600455565b600680546200071b906200260c565b600082815260208190526040902060010154620017428162001c8a565b620007bd838362001d21565b6002818154811062000ab157600080fd5b60006200176c8162001c8a565b600354421015620017915760405162461bcd60e51b8152600401620008739062002878565b600454421115620017b65760405162461bcd60e51b81526004016200087390620028a8565b5042600455565b6000620017ca8162001c8a565b600354421015620017ef5760405162461bcd60e51b8152600401620008739062002878565b600454421115620018145760405162461bcd60e51b81526004016200087390620028a8565b6001600160a01b0384166000908152600b6020526040902054849060ff1615156001146200187e5760405162461bcd60e51b815260206004820152601660248201527511d85b59481a5cc81b9bdd081c9959da5cdd195c995960521b604482015260640162000873565b60008451118062001890575060008351115b620018d55760405162461bcd60e51b81526020600482015260146024820152734e6f20706c6179657273206f722073717561647360601b604482015260640162000873565b600086116200193d5760405162461bcd60e51b815260206004820152602d60248201527f436f6c6c65637469626c65206578706972657320696e206d757374206265206760448201526c0726561746572207468616e203609c1b606482015260840162000873565b6000604051806101200160405280600f8054905060016200195f9190620028fe565b81526020014281526020016000815260200188426200197f9190620028fe565b6200198d90610258620028fe565b8152600060208083018290526001600160a01b038a8116604080860191909152606080860185905260808087018d905260a09687018c9052600f8054600181018255965287517f8d1108e10bcb7c27dddfc02ed9d693a074039d026cf4ea4240b40f7d581ac8026008909702968701908155888601517f8d1108e10bcb7c27dddfc02ed9d693a074039d026cf4ea4240b40f7d581ac803880155928801517f8d1108e10bcb7c27dddfc02ed9d693a074039d026cf4ea4240b40f7d581ac804870155908701517f8d1108e10bcb7c27dddfc02ed9d693a074039d026cf4ea4240b40f7d581ac8058601558601517f8d1108e10bcb7c27dddfc02ed9d693a074039d026cf4ea4240b40f7d581ac80685018054968801516001600160a81b0319909716911515610100600160a81b03191691909117610100968416969096029590951790945560c08501517f8d1108e10bcb7c27dddfc02ed9d693a074039d026cf4ea4240b40f7d581ac807840180546001600160a01b0319169190921617905560e08401518051949550859462001b4c937f8d1108e10bcb7c27dddfc02ed9d693a074039d026cf4ea4240b40f7d581ac8080192919091019062001fba565b50610100820151805162001b6b91600784019160209091019062001fba565b50505050505050505050565b600254600090819062001b8c906001620028fe565b8585888660405162001b9e9062002024565b62001bae95949392919062002914565b604051809103906000f08015801562001bcb573d6000803e3d6000fd5b5060025490915060009062001be2906001620028fe565b6002805460018082019092557f405787fa12a823e0f2b7631cc41b3ba8828b3321ca811111fa75cd3aa3bb5ace0180546001600160a01b0386166001600160a01b03199182168117909255600084815260209384526040908190208054909216831790915580519182529181018390529192507f67f794a23800c26d9e9ce3c51a9e95dd2c5a724c30030822f589294afc81231b910160405180910390a19695505050505050565b62001c96813362001d89565b50565b62001ca58282620011fe565b62000888576000828152602081815260408083206001600160a01b03851684529091529020805460ff1916600117905562001cdd3390565b6001600160a01b0316816001600160a01b0316837f2f8788117e7eff1d82e926ec794901d17c78024a50270940304540a733656f0d60405160405180910390a45050565b62001d2d8282620011fe565b1562000888576000828152602081815260408083206001600160a01b0385168085529252808320805460ff1916905551339285917ff6391f5c32d9c69d2a47ea670b442974b53935d1edc7fd64eb21e047a839171b9190a45050565b62001d958282620011fe565b620008885762001da58162001ded565b62001db283602062001e00565b60405160200162001dc59291906200297b565b60408051601f198184030181529082905262461bcd60e51b8252620008739160040162002119565b6060620006cd6001600160a01b03831660145b6060600062001e11836002620029f4565b62001e1e906002620028fe565b67ffffffffffffffff81111562001e395762001e396200212e565b6040519080825280601f01601f19166020018201604052801562001e64576020820181803683370190505b509050600360fc1b8160008151811062001e825762001e8262002767565b60200101906001600160f81b031916908160001a905350600f60fb1b8160018151811062001eb45762001eb462002767565b60200101906001600160f81b031916908160001a905350600062001eda846002620029f4565b62001ee7906001620028fe565b90505b600181111562001f69576f181899199a1a9b1b9c1cb0b131b232b360811b85600f166010811062001f1f5762001f1f62002767565b1a60f81b82828151811062001f385762001f3862002767565b60200101906001600160f81b031916908160001a90535060049490941c9362001f618162002a0e565b905062001eea565b50831562000ed35760405162461bcd60e51b815260206004820181905260248201527f537472696e67733a20686578206c656e67746820696e73756666696369656e74604482015260640162000873565b82805482825590600052602060002090810192821562002012579160200282015b828111156200201257825182546001600160a01b0319166001600160a01b0390911617825560209092019160019091019062001fdb565b506200202092915062002032565b5090565b61338f8062002a2983390190565b5b8082111562002020576000815560010162002033565b6000602082840312156200205c57600080fd5b81356001600160e01b03198116811462000ed357600080fd5b6000602082840312156200208857600080fd5b5035919050565b6001600160a01b038116811462001c9657600080fd5b600060208284031215620020b857600080fd5b813562000ed3816200208f565b60005b83811015620020e2578181015183820152602001620020c8565b50506000910152565b6000815180845262002105816020860160208601620020c5565b601f01601f19169290920160200192915050565b60208152600062000ed36020830184620020eb565b634e487b7160e01b600052604160045260246000fd5b604051601f8201601f1916810167ffffffffffffffff811182821017156200217057620021706200212e565b604052919050565b600067ffffffffffffffff8311156200219557620021956200212e565b620021aa601f8401601f191660200162002144565b9050828152838383011115620021bf57600080fd5b828260208301376000602084830101529392505050565b600060208284031215620021e957600080fd5b813567ffffffffffffffff8111156200220157600080fd5b8201601f810184136200221357600080fd5b620022248482356020840162002178565b949350505050565b600080604083850312156200224057600080fd5b82359150602083013562002254816200208f565b809150509250929050565b600081518084526020808501945080840160005b838110156200229a5781516001600160a01b03168752958201959082019060010162002273565b509495945050505050565b602081528151602082015260208201516040820152604082015160608201526060820151608082015260006080830151620022e460a084018215159052565b5060a08301516001600160a01b03811660c08401525060c08301516001600160a01b03811660e08401525060e083015161012061010081818601526200232f6101408601846200225f565b90860151858203601f1901838701529092506200234d83826200225f565b9695505050505050565b600080604083850312156200236b57600080fd5b823562002378816200208f565b946020939093013593505050565b60208152600062000ed360208301846200225f565b6020808252825182820181905260009190848201906040850190845b81811015620023de5783516001600160a01b031683529284019291840191600101620023b7565b50909695505050505050565b60008060408385031215620023fe57600080fd5b50508035926020909101359150565b600067ffffffffffffffff8211156200242a576200242a6200212e565b5060051b60200190565b600082601f8301126200244657600080fd5b813560206200245f62002459836200240d565b62002144565b82815260059290921b840181019181810190868411156200247f57600080fd5b8286015b84811015620024a757803562002499816200208f565b835291830191830162002483565b509695505050505050565b60008060008060808587031215620024c957600080fd5b843593506020850135620024dd816200208f565b9250604085013567ffffffffffffffff80821115620024fb57600080fd5b620025098883890162002434565b935060608701359150808211156200252057600080fd5b506200252f8782880162002434565b91505092959194509250565b600082601f8301126200254d57600080fd5b62000ed38383356020850162002178565b600080600080608085870312156200257557600080fd5b843567ffffffffffffffff808211156200258e57600080fd5b6200259c888389016200253b565b95506020870135915080821115620025b357600080fd5b620025c1888389016200253b565b94506040870135915080821115620025d857600080fd5b620025e6888389016200253b565b93506060870135915080821115620025fd57600080fd5b506200252f878288016200253b565b600181811c908216806200262157607f821691505b6020821081036200264257634e487b7160e01b600052602260045260246000fd5b50919050565b601f821115620007bd57600081815260208120601f850160051c81016020861015620026715750805b601f850160051c820191505b8181101562002692578281556001016200267d565b505050505050565b815167ffffffffffffffff811115620026b757620026b76200212e565b620026cf81620026c884546200260c565b8462002648565b602080601f831160018114620027075760008415620026ee5750858301515b600019600386901b1c1916600185901b17855562002692565b600085815260208120601f198616915b82811015620027385788860151825594840194600190910190840162002717565b5085821015620027575787850151600019600388901b60f8161c191681555b5050505050600190811b01905550565b634e487b7160e01b600052603260045260246000fd5b6000602082840312156200279057600080fd5b8151801515811462000ed357600080fd5b634e487b7160e01b600052601160045260246000fd5b600060018201620027cc57620027cc620027a1565b5060010190565b60006020808385031215620027e757600080fd5b825167ffffffffffffffff811115620027ff57600080fd5b8301601f810185136200281157600080fd5b80516200282262002459826200240d565b81815260059190911b820183019083810190878311156200284257600080fd5b928401925b828410156200286d5783516200285d816200208f565b8252928401929084019062002847565b979650505050505050565b60208082526016908201527513195859dd59481a5cc81b9bdd081bdc195b881e595d60521b604082015260600190565b60208082526010908201526f13195859dd59481a5cc818db1bdcd95960821b604082015260600190565b81810381811115620006cd57620006cd620027a1565b634e487b7160e01b600052603160045260246000fd5b80820180821115620006cd57620006cd620027a1565b85815260a0602082015260006200292f60a0830187620020eb565b8281036040840152620029438187620020eb565b90508281036060840152620029598186620020eb565b905082810360808401526200296f8185620020eb565b98975050505050505050565b7f416363657373436f6e74726f6c3a206163636f756e7420000000000000000000815260008351620029b5816017850160208801620020c5565b7001034b99036b4b9b9b4b733903937b6329607d1b6017918401918201528351620029e8816028840160208801620020c5565b01602801949350505050565b8082028115828204841417620006cd57620006cd620027a1565b60008162002a205762002a20620027a1565b50600019019056fe60806040523480156200001157600080fd5b506040516200338f3803806200338f8339810160408190526200003491620001fb565b81816200004133620000e4565b60056200004f83826200034e565b5060066200005e82826200034e565b5050600080525060076020527f6d5257204ebe7d88fd91ae87941cb2dd9d8062b64ae5a2bd2d28ec40b9fbf6e0805430610100026001600160a81b0319909116176001179055600980546001600160a01b03191633179055600e859055600f620000c985826200034e565b506010620000d884826200034e565b5050505050506200041a565b600280546001600160a01b038381166001600160a01b0319831681179093556040519116919082907f8be0079c531659141344cd1fd0a4f28419497f9722a3daafe3b4186f6b6457e090600090a35050565b634e487b7160e01b600052604160045260246000fd5b600082601f8301126200015e57600080fd5b81516001600160401b03808211156200017b576200017b62000136565b604051601f8301601f19908116603f01168101908282118183101715620001a657620001a662000136565b81604052838152602092508683858801011115620001c357600080fd5b600091505b83821015620001e75785820183015181830184015290820190620001c8565b600093810190920192909252949350505050565b600080600080600060a086880312156200021457600080fd5b855160208701519095506001600160401b03808211156200023457600080fd5b6200024289838a016200014c565b955060408801519150808211156200025957600080fd5b6200026789838a016200014c565b945060608801519150808211156200027e57600080fd5b6200028c89838a016200014c565b93506080880151915080821115620002a357600080fd5b50620002b2888289016200014c565b9150509295509295909350565b600181811c90821680620002d457607f821691505b602082108103620002f557634e487b7160e01b600052602260045260246000fd5b50919050565b601f8211156200034957600081815260208120601f850160051c81016020861015620003245750805b601f850160051c820191505b81811015620003455782815560010162000330565b5050505b505050565b81516001600160401b038111156200036a576200036a62000136565b62000382816200037b8454620002bf565b84620002fb565b602080601f831160018114620003ba5760008415620003a15750858301515b600019600386901b1c1916600185901b17855562000345565b600085815260208120601f198616915b82811015620003eb57888601518255948401946001909101908401620003ca565b50858210156200040a5787850151600019600388901b60f8161c191681555b5050505050600190811b01905550565b612f65806200042a6000396000f3fe608060405234801561001057600080fd5b506004361061025d5760003560e01c80636c0360eb11610146578063a230c524116100c3578063d963abb911610087578063d963abb9146105bb578063e4fd69f2146105c3578063e8a3d485146105d6578063e985e9c5146105de578063f242432a1461060c578063f2fde38b1461061f57600080fd5b8063a230c52414610533578063b688a3631461055f578063bcd1010514610567578063cf35bdd014610587578063d30ed960146105a857600080fd5b80638da5cb5b1161010a5780638da5cb5b146104df578063938e3d7b146104f057806395d89b41146105035780639eab52531461050b578063a22cb4651461052057600080fd5b80636c0360eb1461049c578063715018a6146104a45780637e79407b146104ac57806386141e1b146104b55780638a9d1efa146104ca57600080fd5b80632eb2c2d6116101df57806355f804b3116101a357806355f804b3146104245780635e78d078146104375780635fb6dbea1461046257806362564c481461046a57806367e4ac2c1461047f57806369ecdd8b1461049457600080fd5b80632eb2c2d61461038557806347dcb597146103985780634de4797b146103a15780634e1273f4146103f157806351cff8d91461041157600080fd5b806308ae4b0c1161022657806308ae4b0c146103125780630a09859d146103355780630e89341c146103575780631614665c1461036a578063188f937c1461037d57600080fd5b8062fdd58e14610262578063013cf08b1461029d57806301ffc9a7146102c5578063021399ab146102e857806306fdde03146102fd575b600080fd5b61028a6102703660046120ad565b600060208181529281526040808220909352908152205481565b6040519081526020015b60405180910390f35b6102b06102ab3660046120d9565b610632565b60405161029499989796959493929190612142565b6102d86102d33660046121c7565b6107b7565b6040519015158152602001610294565b6102fb6102f63660046121eb565b610809565b005b61030561089f565b6040516102949190612225565b6102d8610320366004612238565b600b6020526000908152604090205460ff1681565b6103486103433660046120d9565b61092d565b60405161029493929190612255565b6103056103653660046120d9565b6109e5565b6102fb61037836600461229d565b610aa8565b610305610b74565b6102fb610393366004612355565b610b81565b61028a600e5481565b6103d46103af366004612238565b6013602052600090815260409020805460019091015460ff8082169161010090041683565b604080519384529115156020840152151590820152606001610294565b6104046103ff366004612413565b610e24565b604051610294919061247e565b6102fb61041f366004612238565b610f58565b6102fb6104323660046124c2565b610ff5565b61044a6104453660046120d9565b611002565b6040516001600160a01b039091168152602001610294565b6102fb61102c565b610472611065565b6040516102949190612503565b61048761124d565b60405161029491906125f5565b61030561133f565b61030561134c565b6102fb611359565b61028a60085481565b6104bd61136d565b604051610294919061265d565b336000908152600c602052604090205461028a565b6002546001600160a01b031661044a565b6102fb6104fe3660046124c2565b6114a2565b6103056114af565b6105136114bc565b60405161029491906126b5565b6102fb61052e3660046126f6565b61151e565b6102d8610541366004612238565b6001600160a01b03166000908152600b602052604090205460ff1690565b6102fb61158a565b61028a610575366004612238565b600c6020526000908152604090205481565b61059a6105953660046120d9565b61163d565b604051610294929190612722565b61028a6105b63660046127e6565b6116f9565b61028a6118e6565b6102fb6105d1366004612852565b61191c565b6103056119cc565b6102d86105ec36600461289d565b600160209081526000928352604080842090915290825290205460ff1681565b6102fb61061a3660046128d6565b6119d9565b6102fb61062d366004612238565b611bd3565b6011818154811061064257600080fd5b906000526020600020906008020160009150905080600001549080600101549080600201805461067190612951565b80601f016020809104026020016040519081016040528092919081815260200182805461069d90612951565b80156106ea5780601f106106bf576101008083540402835291602001916106ea565b820191906000526020600020905b8154815290600101906020018083116106cd57829003601f168201915b505050600384015460048501805494956001600160a01b0390921694919350915061071490612951565b80601f016020809104026020016040519081016040528092919081815260200182805461074090612951565b801561078d5780601f106107625761010080835404028352916020019161078d565b820191906000526020600020905b81548152906001019060200180831161077057829003601f168201915b50505050600583015460068401546007909401549293909290915060ff8082169161010090041689565b60006301ffc9a760e01b6001600160e01b0319831614806107e85750636cdb3d1360e11b6001600160e01b03198316145b8061080357506303a24d0760e21b6001600160e01b03198316145b92915050565b6009546001600160a01b031633146108595760405162461bcd60e51b815260206004820152600e60248201526d139bdb8810591b5a5b8810d85b1b60921b60448201526064015b60405180910390fd5b6012805460018101825560009190915281906002027fbb8a6a4669ba250d26cd7a459eca9d215f8307e33aebe50379bc5a3617ec34440161089a8282612a9a565b505050565b600380546108ac90612951565b80601f01602080910402602001604051908101604052809291908181526020018280546108d890612951565b80156109255780601f106108fa57610100808354040283529160200191610925565b820191906000526020600020905b81548152906001019060200180831161090857829003601f168201915b505050505081565b60076020526000908152604090208054819061094890612951565b80601f016020809104026020016040519081016040528092919081815260200182805461097490612951565b80156109c15780601f10610996576101008083540402835291602001916109c1565b820191906000526020600020905b8154815290600101906020018083116109a457829003601f168201915b5050506001909301549192505060ff8116906001600160a01b036101009091041683565b60606000600580546109f690612951565b80601f0160208091040260200160405190810160405280929190818152602001828054610a2290612951565b8015610a6f5780601f10610a4457610100808354040283529160200191610a6f565b820191906000526020600020905b815481529060010190602001808311610a5257829003601f168201915b5050505050905080610a8084611c4c565b604051602001610a91929190612b8c565b604051602081830303815290604052915050919050565b600060118381548110610abd57610abd612bbb565b6000918252602080832033845260139091526040909220600890910290910191508215610afe576005820154610af4906001612be7565b6005830155610b14565b6006820154610b0e906001612be7565b60068301555b6001818101805461ffff191661010086151590810291909117909217905560408051868152602081019290925233917fd30ac21a886171cfc6e0046ee7856df867d5007f0e95d20c98914472ec2b9402910160405180910390a250505050565b600f80546108ac90612951565b848314610bc25760405162461bcd60e51b815260206004820152600f60248201526e0988a9c8ea890be9a92a69a82a8869608b1b6044820152606401610850565b336001600160a01b0389161480610bfc57506001600160a01b038816600090815260016020908152604080832033845290915290205460ff165b610c395760405162461bcd60e51b815260206004820152600e60248201526d1393d517d055551213d49256915160921b6044820152606401610850565b60008060005b87811015610cf457888882818110610c5957610c59612bbb565b905060200201359250868682818110610c7457610c74612bbb565b6001600160a01b038e1660009081526020818152604080832089845282528220805493909102949094013595508593925090610cb1908490612bfa565b90915550506001600160a01b038a1660009081526020818152604080832086845290915281208054849290610ce7908490612be7565b9091555050600101610c3f565b50886001600160a01b03168a6001600160a01b0316336001600160a01b03167f4a39dc06d4c0dbc64b70af90fd698a233a518aa5d07e595d983b8c0526c8f7fb8b8b8b8b604051610d489493929190612c3f565b60405180910390a46001600160a01b0389163b15610def5760405163bc197c8160e01b808252906001600160a01b038b169063bc197c8190610d9c9033908f908e908e908e908e908e908e90600401612c9a565b6020604051808303816000875af1158015610dbb573d6000803e3d6000fd5b505050506040513d601f19601f82011682018060405250810190610ddf9190612cfe565b6001600160e01b03191614610dfc565b6001600160a01b03891615155b610e185760405162461bcd60e51b815260040161085090612d1b565b50505050505050505050565b6060838214610e675760405162461bcd60e51b815260206004820152600f60248201526e0988a9c8ea890be9a92a69a82a8869608b1b6044820152606401610850565b836001600160401b03811115610e7f57610e7f612744565b604051908082528060200260200182016040528015610ea8578160200160208202803683370190505b50905060005b84811015610f4f57600080878784818110610ecb57610ecb612bbb565b9050602002016020810190610ee09190612238565b6001600160a01b03166001600160a01b031681526020019081526020016000206000858584818110610f1457610f14612bbb565b90506020020135815260200190815260200160002054828281518110610f3c57610f3c612bbb565b6020908102919091010152600101610eae565b50949350505050565b610f60611cde565b60405147906000906001600160a01b0384169083908381818185875af1925050503d8060008114610fad576040519150601f19603f3d011682016040523d82523d6000602084013e610fb2565b606091505b505090508061089a5760405162461bcd60e51b815260206004820152600f60248201526e151c985b9cd9995c8819985a5b1959608a1b6044820152606401610850565b600561089a8284836129e0565b600a818154811061101257600080fd5b6000918252602090912001546001600160a01b0316905081565b61103833600d54611d38565b336000908152600c6020526040902054611053906001612be7565b336000908152600c6020526040902055565b60606011805480602002602001604051908101604052809291908181526020016000905b8282101561124457838290600052602060002090600802016040518061012001604052908160008201548152602001600182015481526020016002820180546110d190612951565b80601f01602080910402602001604051908101604052809291908181526020018280546110fd90612951565b801561114a5780601f1061111f5761010080835404028352916020019161114a565b820191906000526020600020905b81548152906001019060200180831161112d57829003601f168201915b505050918352505060038201546001600160a01b0316602082015260048201805460409092019161117a90612951565b80601f01602080910402602001604051908101604052809291908181526020018280546111a690612951565b80156111f35780601f106111c8576101008083540402835291602001916111f3565b820191906000526020600020905b8154815290600101906020018083116111d657829003601f168201915b505050918352505060058201546020808301919091526006830154604083015260079092015460ff808216151560608401526101009091041615156080909101529082526001929092019101611089565b50505050905090565b60606012805480602002602001604051908101604052809291908181526020016000905b8282101561124457838290600052602060002090600202016040518060400160405290816000820180546112a490612951565b80601f01602080910402602001604051908101604052809291908181526020018280546112d090612951565b801561131d5780601f106112f25761010080835404028352916020019161131d565b820191906000526020600020905b81548152906001019060200180831161130057829003601f168201915b5050505050815260200160018201548152505081526020019060010190611271565b601080546108ac90612951565b600580546108ac90612951565b611361611cde565b61136b6000611e06565b565b600a546060906000906001600160401b0381111561138d5761138d612744565b6040519080825280602002602001820160405280156113d257816020015b60408051808201909152600080825260208201528152602001906001900390816113ab5790505b50905060005b600a5481101561149c576040518060400160405280600a838154811061140057611400612bbb565b9060005260206000200160009054906101000a90046001600160a01b03166001600160a01b03168152602001600c6000600a858154811061144357611443612bbb565b60009182526020808320909101546001600160a01b031683528201929092526040019020549052825183908390811061147e5761147e612bbb565b6020026020010181905250808061149490612d45565b9150506113d8565b50919050565b600661089a8284836129e0565b600480546108ac90612951565b6060600a80548060200260200160405190810160405280929190818152602001828054801561151457602002820191906000526020600020905b81546001600160a01b031681526001909101906020018083116114f6575b5050505050905090565b3360008181526001602090815260408083206001600160a01b03871680855290835292819020805460ff191686151590811790915590519081529192917f17307eab39ab6107e8899845ad3d59bd9653f200f220920489ca2b5937696c31910160405180910390a35050565b6009546001600160a01b031633146115d55760405162461bcd60e51b815260206004820152600e60248201526d139bdb8810591b5a5b8810d85b1b60921b6044820152606401610850565b6115e133600e54611e58565b600a805460018181019092557fc65a7bb8d6351c1cf70c95a316cc6a92839c986682d98bc35f958f4883f9d2a80180546001600160a01b031916339081179091556000908152600b60205260409020805460ff19169091179055565b6012818154811061164d57600080fd5b906000526020600020906002020160009150905080600001805461167090612951565b80601f016020809104026020016040519081016040528092919081815260200182805461169c90612951565b80156116e95780601f106116be576101008083540402835291602001916116e9565b820191906000526020600020905b8154815290600101906020018083116116cc57829003601f168201915b5050505050908060010154905082565b600061175760405180610120016040528060008152602001600081526020016060815260200160006001600160a01b031681526020016060815260200160008152602001600081526020016000151581526020016000151581525090565b601154611765906001612be7565b815233606082015260808101849052602081018581526040820184815260118054600181018255600091909152835160089091027f31ecc21a745e3968a04e9570e4425bc18fa8019c68028196b546d1669c200c68810191825592517f31ecc21a745e3968a04e9570e4425bc18fa8019c68028196b546d1669c200c69840155905183927f31ecc21a745e3968a04e9570e4425bc18fa8019c68028196b546d1669c200c6a01906118169082612d5e565b5060608201516003820180546001600160a01b0319166001600160a01b03909216919091179055608082015160048201906118519082612d5e565b5060a0820151600582015560c0820151600682015560e0820151600790910180546101009384015161ffff1990911692151561ff001916929092179115159092021790558051602080830151604080519384523392840192909252908201527f3417b456fad6209c73445d5efd446d686e75e4560f0f50c13b5a5cde976447b49060600160405180910390a151949350505050565b6000600e54600f601060405160200161190193929190612e8a565b60405160208183030381529060405280519060200120905090565b611924611cde565b60008381526007602052604090206001015460ff16156119905760405162461bcd60e51b815260206004820152602160248201527f436f6c6c65637469626c6520746f6b656e20616c7265616479206372656174656044820152601960fa1b6064820152608401610850565b60008381526007602052604090206119a98284836129e0565b50505060009081526007602052604090206001908101805460ff19169091179055565b600680546108ac90612951565b336001600160a01b0387161480611a1357506001600160a01b038616600090815260016020908152604080832033845290915290205460ff165b611a505760405162461bcd60e51b815260206004820152600e60248201526d1393d517d055551213d49256915160921b6044820152606401610850565b6001600160a01b03861660009081526020818152604080832087845290915281208054859290611a81908490612bfa565b90915550506001600160a01b03851660009081526020818152604080832087845290915281208054859290611ab7908490612be7565b909155505060408051858152602081018590526001600160a01b03808816929089169133917fc3d58168c5ae7397731d063d5bbf3d657854427343f4c083240f7aacaa2d0f62910160405180910390a46001600160a01b0385163b15611ba25760405163f23a6e6160e01b808252906001600160a01b0387169063f23a6e6190611b4f9033908b908a908a908a908a90600401612eae565b6020604051808303816000875af1158015611b6e573d6000803e3d6000fd5b505050506040513d601f19601f82011682018060405250810190611b929190612cfe565b6001600160e01b03191614611baf565b6001600160a01b03851615155b611bcb5760405162461bcd60e51b815260040161085090612d1b565b505050505050565b611bdb611cde565b6001600160a01b038116611c405760405162461bcd60e51b815260206004820152602660248201527f4f776e61626c653a206e6577206f776e657220697320746865207a65726f206160448201526564647265737360d01b6064820152608401610850565b611c4981611e06565b50565b60606000611c5983611e78565b60010190506000816001600160401b03811115611c7857611c78612744565b6040519080825280601f01601f191660200182016040528015611ca2576020820181803683370190505b5090508181016020015b600019016f181899199a1a9b1b9c1cb0b131b232b360811b600a86061a8153600a8504945084611cac57509392505050565b6002546001600160a01b0316331461136b5760405162461bcd60e51b815260206004820181905260248201527f4f776e61626c653a2063616c6c6572206973206e6f7420746865206f776e65726044820152606401610850565b8060008111611d895760405162461bcd60e51b815260206004820181905260248201527f436f6c6c65637469626c652063616e6e6f7420626520612073717561642069646044820152606401610850565b60008281526007602052604090206001015460ff16611dea5760405162461bcd60e51b815260206004820152601d60248201527f436f6c6c65637469626c6520746f6b656e206e6f7420637265617465640000006044820152606401610850565b61089a8383600160405180602001604052806000815250611f50565b600280546001600160a01b038381166001600160a01b0319831681179093556040519116919082907f8be0079c531659141344cd1fd0a4f28419497f9722a3daafe3b4186f6b6457e090600090a35050565b611e748282600160405180602001604052806000815250611f50565b5050565b60008072184f03e93ff9f4daa797ed6e38ed64bf6a1f0160401b8310611eb75772184f03e93ff9f4daa797ed6e38ed64bf6a1f0160401b830492506040015b6d04ee2d6d415b85acef81000000008310611ee3576d04ee2d6d415b85acef8100000000830492506020015b662386f26fc100008310611f0157662386f26fc10000830492506010015b6305f5e1008310611f19576305f5e100830492506008015b6127108310611f2d57612710830492506004015b60648310611f3f576064830492506002015b600a83106108035760010192915050565b6001600160a01b03841660009081526020818152604080832086845290915281208054849290611f81908490612be7565b909155505060408051848152602081018490526001600160a01b0386169160009133917fc3d58168c5ae7397731d063d5bbf3d657854427343f4c083240f7aacaa2d0f62910160405180910390a46001600160a01b0384163b156120695760405163f23a6e6160e01b808252906001600160a01b0386169063f23a6e6190612016903390600090899089908990600401612ef5565b6020604051808303816000875af1158015612035573d6000803e3d6000fd5b505050506040513d601f19601f820116820180604052508101906120599190612cfe565b6001600160e01b03191614612076565b6001600160a01b03841615155b6120925760405162461bcd60e51b815260040161085090612d1b565b50505050565b6001600160a01b0381168114611c4957600080fd5b600080604083850312156120c057600080fd5b82356120cb81612098565b946020939093013593505050565b6000602082840312156120eb57600080fd5b5035919050565b60005b8381101561210d5781810151838201526020016120f5565b50506000910152565b6000815180845261212e8160208601602086016120f2565b601f01601f19169290920160200192915050565b60006101208b83528a60208401528060408401526121628184018b612116565b6001600160a01b038a166060850152838103608085015290506121858189612116565b60a0840197909752505060c081019390935290151560e083015215156101009091015295945050505050565b6001600160e01b031981168114611c4957600080fd5b6000602082840312156121d957600080fd5b81356121e4816121b1565b9392505050565b6000602082840312156121fd57600080fd5b81356001600160401b0381111561221357600080fd5b8201604081850312156121e457600080fd5b6020815260006121e46020830184612116565b60006020828403121561224a57600080fd5b81356121e481612098565b6060815260006122686060830186612116565b9315156020830152506001600160a01b0391909116604090910152919050565b8035801515811461229857600080fd5b919050565b600080604083850312156122b057600080fd5b823591506122c060208401612288565b90509250929050565b60008083601f8401126122db57600080fd5b5081356001600160401b038111156122f257600080fd5b6020830191508360208260051b850101111561230d57600080fd5b9250929050565b60008083601f84011261232657600080fd5b5081356001600160401b0381111561233d57600080fd5b60208301915083602082850101111561230d57600080fd5b60008060008060008060008060a0898b03121561237157600080fd5b883561237c81612098565b9750602089013561238c81612098565b965060408901356001600160401b03808211156123a857600080fd5b6123b48c838d016122c9565b909850965060608b01359150808211156123cd57600080fd5b6123d98c838d016122c9565b909650945060808b01359150808211156123f257600080fd5b506123ff8b828c01612314565b999c989b5096995094979396929594505050565b6000806000806040858703121561242957600080fd5b84356001600160401b038082111561244057600080fd5b61244c888389016122c9565b9096509450602087013591508082111561246557600080fd5b50612472878288016122c9565b95989497509550505050565b6020808252825182820181905260009190848201906040850190845b818110156124b65783518352928401929184019160010161249a565b50909695505050505050565b600080602083850312156124d557600080fd5b82356001600160401b038111156124eb57600080fd5b6124f785828601612314565b90969095509350505050565b60006020808301818452808551808352604092508286019150828160051b87010184880160005b838110156125e757603f19898403018552815161012081518552888201518986015287820151818987015261256182870182612116565b91505060608083015161257e828801826001600160a01b03169052565b5050608080830151868303828801526125978382612116565b9250505060a080830151818701525060c080830151818701525060e0808301516125c48288018215159052565b50506101009182015115159490910193909352938601939086019060010161252a565b509098975050505050505050565b60006020808301818452808551808352604092508286019150828160051b87010184880160005b838110156125e757888303603f190185528151805187855261264088860182612116565b91890151948901949094529487019492509086019060010161261c565b602080825282518282018190526000919060409081850190868401855b828110156126a857815180516001600160a01b0316855286015186850152928401929085019060010161267a565b5091979650505050505050565b6020808252825182820181905260009190848201906040850190845b818110156124b65783516001600160a01b0316835292840192918401916001016126d1565b6000806040838503121561270957600080fd5b823561271481612098565b91506122c060208401612288565b6040815260006127356040830185612116565b90508260208301529392505050565b634e487b7160e01b600052604160045260246000fd5b600082601f83011261276b57600080fd5b81356001600160401b038082111561278557612785612744565b604051601f8301601f19908116603f011681019082821181831017156127ad576127ad612744565b816040528381528660208588010111156127c657600080fd5b836020870160208301376000602085830101528094505050505092915050565b6000806000606084860312156127fb57600080fd5b8335925060208401356001600160401b038082111561281957600080fd5b6128258783880161275a565b9350604086013591508082111561283b57600080fd5b506128488682870161275a565b9150509250925092565b60008060006040848603121561286757600080fd5b8335925060208401356001600160401b0381111561288457600080fd5b61289086828701612314565b9497909650939450505050565b600080604083850312156128b057600080fd5b82356128bb81612098565b915060208301356128cb81612098565b809150509250929050565b60008060008060008060a087890312156128ef57600080fd5b86356128fa81612098565b9550602087013561290a81612098565b9450604087013593506060870135925060808701356001600160401b0381111561293357600080fd5b61293f89828a01612314565b979a9699509497509295939492505050565b600181811c9082168061296557607f821691505b60208210810361149c57634e487b7160e01b600052602260045260246000fd5b601f82111561089a57600081815260208120601f850160051c810160208610156129ac5750805b601f850160051c820191505b81811015611bcb578281556001016129b8565b600019600383901b1c191660019190911b1790565b6001600160401b038311156129f7576129f7612744565b612a0b83612a058354612951565b83612985565b6000601f841160018114612a395760008515612a275750838201355b612a3186826129cb565b845550612a93565b600083815260209020601f19861690835b82811015612a6a5786850135825560209485019460019092019101612a4a565b5086821015612a875760001960f88860031b161c19848701351681555b505060018560011b0183555b5050505050565b8135601e19833603018112612aae57600080fd5b820180356001600160401b03811115612ac657600080fd5b60208136038184011315612ad957600080fd5b612aed82612ae78654612951565b86612985565b6000601f831160018114612b1d5760008415612b0b57508482018301355b612b1585826129cb565b875550612b7a565b600086815260209020601f19851690835b82811015612b4f578785018601358255938501936001909101908501612b2e565b5085821015612b6e5760001960f88760031b161c198585890101351681555b505060018460011b0186555b50508085013560018501555050505050565b60008351612b9e8184602088016120f2565b835190830190612bb28183602088016120f2565b01949350505050565b634e487b7160e01b600052603260045260246000fd5b634e487b7160e01b600052601160045260246000fd5b8082018082111561080357610803612bd1565b8181038181111561080357610803612bd1565b81835260006001600160fb1b03831115612c2657600080fd5b8260051b80836020870137939093016020019392505050565b604081526000612c53604083018688612c0d565b8281036020840152612c66818587612c0d565b979650505050505050565b81835281816020850137506000828201602090810191909152601f909101601f19169091010190565b6001600160a01b0389811682528816602082015260a060408201819052600090612cc7908301888a612c0d565b8281036060840152612cda818789612c0d565b90508281036080840152612cef818587612c71565b9b9a5050505050505050505050565b600060208284031215612d1057600080fd5b81516121e4816121b1565b60208082526010908201526f155394d0519157d49150d2541251539560821b604082015260600190565b600060018201612d5757612d57612bd1565b5060010190565b81516001600160401b03811115612d7757612d77612744565b612d8b81612d858454612951565b84612985565b602080601f831160018114612dba5760008415612da85750858301515b612db285826129cb565b865550611bcb565b600085815260208120601f198616915b82811015612de957888601518255948401946001909101908401612dca565b5085821015612e075787850151600019600388901b60f8161c191681555b5050505050600190811b01905550565b60008154612e2481612951565b60018281168015612e3c5760018114612e5157612e80565b60ff1984168752821515830287019450612e80565b8560005260208060002060005b85811015612e775781548a820152908401908201612e5e565b50505082870194505b5050505092915050565b8381526000612ea5612e9f6020840186612e17565b84612e17565b95945050505050565b6001600160a01b03878116825286166020820152604081018590526060810184905260a060808201819052600090612ee99083018486612c71565b98975050505050505050565b6001600160a01b03868116825285166020820152604081018490526060810183905260a060808201819052600090612c669083018461211656fea26469706673582212205036b0a36d453ded04979cbe330869bc8f358690688392c9d3e2cf1416af8db464736f6c63430008110033a26469706673582212206b2ea4ac93f4ce63a4b891e0d179c905e36d96aa907c979164dc549f81c78c8364736f6c63430008110033a2646970667358221220d4038644fab52172dc94f67c45b42468d2220fe85722473d641349d62f561a8164736f6c63430008110033",
    "linkReferences": {}
  },
  "methodIdentifiers": {
    "createLeague(string,string,uint256)": "5b1aa001",
    "getLeagues()": "dec7db5f",
    "leagueAddresses(uint256)": "29ffe5e9",
    "leagues(uint256)": "c648fefe"
  },
  "id": 28
}