{
  "abi": [
    {
      "inputs": [
        {
          "internalType": "string",
          "name": "_name",
          "type": "string"
        },
        {
          "internalType": "string",
          "name": "_description",
          "type": "string"
        },
        {
          "internalType": "uint256",
          "name": "_squadCount",
          "type": "uint256"
        }
      ],
      "name": "createLeague",
      "outputs": [
        {
          "internalType": "address",
          "name": "",
          "type": "address"
        }
      ],
      "stateMutability": "nonpayable",
      "type": "function"
    },
    {
      "inputs": [],
      "name": "getLeagues",
      "outputs": [
        {
          "internalType": "contract League[]",
          "name": "",
          "type": "address[]"
        }
      ],
      "stateMutability": "view",
      "type": "function"
    },
    {
      "inputs": [
        {
          "internalType": "uint256",
          "name": "",
          "type": "uint256"
        }
      ],
      "name": "leagueAddresses",
      "outputs": [
        {
          "internalType": "address",
          "name": "",
          "type": "address"
        }
      ],
      "stateMutability": "view",
      "type": "function"
    },
    {
      "inputs": [
        {
          "internalType": "uint256",
          "name": "",
          "type": "uint256"
        }
      ],
      "name": "leagues",
      "outputs": [
        {
          "internalType": "contract League",
          "name": "",
          "type": "address"
        }
      ],
      "stateMutability": "view",
      "type": "function"
    }
  ],
  "bytecode": {
    "object": "0x608060405234801561001057600080fd5b50617049806100206000396000f3fe608060405234801561001057600080fd5b506004361061004c5760003560e01c806329ffe5e9146100515780635b1aa00114610097578063c648fefe146100aa578063dec7db5f146100bd575b600080fd5b61007a61005f366004610219565b6000602081905290815260409020546001600160a01b031681565b6040516001600160a01b0390911681526020015b60405180910390f35b61007a6100a53660046102d5565b6100d2565b61007a6100b8366004610219565b61017f565b6100c56101a9565b60405161008e9190610342565b6000808484846040516100e49061020b565b6100f0939291906103d5565b604051809103906000f08015801561010c573d6000803e3d6000fd5b5060018054600090815260208190526040812080546001600160a01b0385166001600160a01b0319918216811790925583548085018555939092527fb10e2d527612073b26eecdfd717e6a320cf44b4afac2b0732d9fcbe2b7fa0cf6909201805490911690911790559150509392505050565b6001818154811061018f57600080fd5b6000918252602090912001546001600160a01b0316905081565b6060600180548060200260200160405190810160405280929190818152602001828054801561020157602002820191906000526020600020905b81546001600160a01b031681526001909101906020018083116101e3575b5050505050905090565b616c08806200040c83390190565b60006020828403121561022b57600080fd5b5035919050565b634e487b7160e01b600052604160045260246000fd5b600082601f83011261025957600080fd5b813567ffffffffffffffff8082111561027457610274610232565b604051601f8301601f19908116603f0116810190828211818310171561029c5761029c610232565b816040528381528660208588010111156102b557600080fd5b836020870160208301376000602085830101528094505050505092915050565b6000806000606084860312156102ea57600080fd5b833567ffffffffffffffff8082111561030257600080fd5b61030e87838801610248565b9450602086013591508082111561032457600080fd5b5061033186828701610248565b925050604084013590509250925092565b6020808252825182820181905260009190848201906040850190845b818110156103835783516001600160a01b03168352928401929184019160010161035e565b50909695505050505050565b6000815180845260005b818110156103b557602081850181015186830182015201610399565b506000602082860101526020601f19601f83011685010191505092915050565b6060815260006103e8606083018661038f565b82810360208401526103fa818661038f565b91505082604083015294935050505056fe60806040523480156200001157600080fd5b5060405162006c0838038062006c088339810160408190526200003491620001d3565b60058190556009620000478482620002d5565b50600a620000568382620002d5565b50620000646000336200006d565b505050620003a1565b6000828152602081815260408083206001600160a01b038516845290915290205460ff166200010a576000828152602081815260408083206001600160a01b03851684529091529020805460ff19166001179055620000c93390565b6001600160a01b0316816001600160a01b0316837f2f8788117e7eff1d82e926ec794901d17c78024a50270940304540a733656f0d60405160405180910390a45b5050565b634e487b7160e01b600052604160045260246000fd5b600082601f8301126200013657600080fd5b81516001600160401b03808211156200015357620001536200010e565b604051601f8301601f19908116603f011681019082821181831017156200017e576200017e6200010e565b816040528381526020925086838588010111156200019b57600080fd5b600091505b83821015620001bf5785820183015181830184015290820190620001a0565b600093810190920192909252949350505050565b600080600060608486031215620001e957600080fd5b83516001600160401b03808211156200020157600080fd5b6200020f8783880162000124565b945060208601519150808211156200022657600080fd5b50620002358682870162000124565b925050604084015190509250925092565b600181811c908216806200025b57607f821691505b6020821081036200027c57634e487b7160e01b600052602260045260246000fd5b50919050565b601f821115620002d057600081815260208120601f850160051c81016020861015620002ab5750805b601f850160051c820191505b81811015620002cc57828155600101620002b7565b5050505b505050565b81516001600160401b03811115620002f157620002f16200010e565b620003098162000302845462000246565b8462000282565b602080601f831160018114620003415760008415620003285750858301515b600019600386901b1c1916600185901b178555620002cc565b600085815260208120601f198616915b82811015620003725788860151825594840194600190910190840162000351565b5085821015620003915787850151600019600388901b60f8161c191681555b5050505050600190811b01905550565b61685780620003b16000396000f3fe60806040523480156200001157600080fd5b5060043610620002555760003560e01c80637ffb361b1162000149578063bce2466911620000c7578063de1eecc91162000086578063de1eecc91462000638578063e48c15db146200064f578063f7c397e41462000659578063fb6c4d271462000670578063fcfa5267146200069657600080fd5b8063bce2466914620005bd578063c0d944d414620005d4578063c1f0bd661462000600578063d470fe961462000617578063d547741f146200062157600080fd5b8063a217fddf1162000114578063a217fddf1462000556578063a2e1b4d0146200055f578063a3cb7afa1462000578578063b41a5abd146200058f578063b724e2c914620005a657600080fd5b80637ffb361b14620004df57806387349b5814620004e9578063888f00c7146200051957806391d14854146200053f57600080fd5b80633818140f11620001d75780635dce431b11620001a25780635dce431b146200045d5780635e78d0781462000474578063625e7c96146200049a578063751947ce14620004b15780637e478abe14620004c857600080fd5b80633818140f14620003ae5780633d092b3d14620003c55780634768d4ef14620003eb5780635daf08ca146200044657600080fd5b8063230d540e1162000224578063230d540e146200031b578063248a9ca314620003345780632d90aab314620003695780632f2ff15d146200038057806336568abe146200039757600080fd5b806301ffc9a7146200025a578063117a5b90146200028657806314dfec7f14620002bd5780631769dcb71462000302575b600080fd5b620002716200026b3660046200215f565b620006ad565b60405190151581526020015b60405180910390f35b6200029d620002973660046200218b565b620006e5565b604080516001600160a01b0390931683526020830191909152016200027d565b620002e9620002ce366004620021bb565b600d602052600090815260409020546001600160a01b031681565b6040516001600160a01b0390911681526020016200027d565b6200030c6200071e565b6040516200027d91906200222f565b620003326200032c366004620022ec565b620007b4565b005b6200035a620003453660046200218b565b60009081526020819052604090206001015490565b6040519081526020016200027d565b620003326200037a366004620022ec565b620007d4565b620003326200039136600462002342565b620007ef565b62000332620003a836600462002342565b62000818565b6200035a6000805160206200680283398151915281565b620003dc620003d63660046200218b565b6200089e565b6040516200027d9190620023bb565b62000402620003fc3660046200218b565b62000a54565b604080519788526020880196909652948601939093526060850191909152151560808401526001600160a01b0390811660a08401521660c082015260e0016200027d565b620002e9620004573660046200218b565b62000ab2565b620003326200046e3660046200246d565b62000add565b6200048b620004853660046200218b565b62000bfa565b6040516200027d91906200249c565b62000332620004ab366004620021bb565b62000c95565b62000332620004c236600462002342565b62000e2a565b62000332620004d9366004620021bb565b62000e8f565b6200030c620010c0565b62000500620004fa366004620021bb565b620010cf565b60405190516001600160a01b031681526020016200027d565b620002716200052a366004620021bb565b600b6020526000908152604090205460ff1681565b620002716200055036600462002342565b620011d2565b6200035a600081565b62000569620011fb565b6040516200027d9190620024b1565b6200033262000589366004620022ec565b6200125f565b62000332620005a036600462002500565b6200127a565b62000332620005b73660046200218b565b620013e0565b62000332620005ce366004620021bb565b6200166a565b620002e9620005e53660046200218b565b6001602052600090815260409020546001600160a01b031681565b620003326200061136600462002546565b62001826565b6200030c6200183f565b620003326200063236600462002342565b6200184e565b620002e9620006493660046200218b565b62001877565b6200033262001888565b620003326200066a3660046200260e565b620018e6565b6200027162000681366004620021bb565b600c6020526000908152604090205460ff1681565b620002e9620006a7366004620026ba565b62001ca0565b60006001600160e01b03198216637965db0b60e01b1480620006df57506301ffc9a760e01b6001600160e01b03198316145b92915050565b600e8181548110620006f657600080fd5b6000918252602090912060029091020180546001909101546001600160a01b03909116915082565b600780546200072d9062002768565b80601f01602080910402602001604051908101604052809291908181526020018280546200075b9062002768565b8015620007ac5780601f106200078057610100808354040283529160200191620007ac565b820191906000526020600020905b8154815290600101906020018083116200078e57829003601f168201915b505050505081565b6000620007c18162001da0565b6008620007cf8382620027f6565b505050565b6000620007e18162001da0565b6006620007cf8382620027f6565b6000828152602081905260409020600101546200080c8162001da0565b620007cf838362001daf565b6001600160a01b03811633146200088e5760405162461bcd60e51b815260206004820152602f60248201527f416363657373436f6e74726f6c3a2063616e206f6e6c792072656e6f756e636560448201526e103937b632b9903337b91039b2b63360891b60648201526084015b60405180910390fd5b6200089a828262001e37565b5050565b620009026040518061012001604052806000815260200160008152602001600081526020016000815260200160001515815260200160006001600160a01b0316815260200160006001600160a01b0316815260200160608152602001606081525090565b600f8281548110620009185762000918620028c3565b6000918252602091829020604080516101208101825260089093029091018054835260018101548385015260028101548383015260038101546060840152600481015460ff8116151560808501526001600160a01b03610100909104811660a085015260058201541660c08401526006810180548351818702810187019094528084529394919360e086019392830182828015620009e057602002820191906000526020600020905b81546001600160a01b03168152600190910190602001808311620009c1575b505050505081526020016007820180548060200260200160405190810160405280929190818152602001828054801562000a4457602002820191906000526020600020905b81546001600160a01b0316815260019091019060200180831162000a25575b5050505050815250509050919050565b600f818154811062000a6557600080fd5b60009182526020909120600890910201805460018201546002830154600384015460048501546005909501549395509193909260ff8216916001600160a01b036101009091048116911687565b6010818154811062000ac357600080fd5b6000918252602090912001546001600160a01b0316905081565b600062000aea8162001da0565b6001600160a01b0383166000908152600b602052604090205460ff161562000b4b5760405162461bcd60e51b815260206004820152601360248201527247616d6520616c72656164792065786973747360681b604482015260640162000885565b506040805180820182526001600160a01b039384168082526020808301948552600e805460018082018355600092835294517fbb7b4a454dc3493923482f07822329ed19e8244eff582cc204f8554c3620c3fd600290920291820180546001600160a01b031916919099161790975594517fbb7b4a454dc3493923482f07822329ed19e8244eff582cc204f8554c3620c3fe909601959095558352600b9093529020805460ff19169091179055565b606060006002838154811062000c145762000c14620028c3565b600091825260208220015460408051639eab525360e01b815290516001600160a01b0390921693508392639eab5253926004808401938290030181865afa15801562000c64573d6000803e3d6000fd5b505050506040513d6000823e601f3d908101601f1916820160405262000c8e9190810190620028d9565b9392505050565b60035442101562000cba5760405162461bcd60e51b815260040162000885906200297e565b60045442111562000cdf5760405162461bcd60e51b81526004016200088590620029ae565b600554600254111562000d2a5760405162461bcd60e51b815260206004820152601260248201527113585e081cdc5d58591cc81c995858da195960721b604482015260640162000885565b6001600160a01b0381166000908152600c602052604090205460ff161562000d8c5760405162461bcd60e51b8152602060048201526014602482015273537175616420616c72656164792065786973747360601b604482015260640162000885565b6002805460018082019092557f405787fa12a823e0f2b7631cc41b3ba8828b3321ca811111fa75cd3aa3bb5ace0180546001600160a01b0319166001600160a01b0384169081179091556000908152600c6020908152604091829020805460ff19169093179092555133815282917f1933b674aef4cfb17892c49f3648877e1212cb9ab7620dfd352df0ce049d109091015b60405180910390a15050565b600062000e378162001da0565b6000600f848154811062000e4f5762000e4f620028c3565b6000918252602090912042600890920201600281019190915560050180546001600160a01b0319166001600160a01b039490941693909317909255505050565b60005b60025481101562000f8a5760006002828154811062000eb55762000eb5620028c3565b60009182526020909120015460405163288c314960e21b81523360048201526001600160a01b039091169150819063a230c52490602401602060405180830381865afa15801562000f0a573d6000803e3d6000fd5b505050506040513d601f19601f8201168201806040525081019062000f309190620029d8565b1562000f745760405162461bcd60e51b8152602060048201526012602482015271105b1c9958591e481a5b8818481cdc5d585960721b604482015260640162000885565b508062000f818162002a12565b91505062000e92565b506001600160a01b0381166000908152600c602052604090205460ff16151560011462000ff15760405162461bcd60e51b815260206004820152601460248201527314dc5d585908191bd95cc81b9bdd08195e1a5cdd60621b604482015260640162000885565b6000819050806001600160a01b031663b688a3636040518163ffffffff1660e01b8152600401600060405180830381600087803b1580156200103257600080fd5b505af115801562001047573d6000803e3d6000fd5b5050336000818152600d6020526040902080546001600160a01b0319166001600160a01b0386161790556200108f925060008051602062006802833981519152915062001daf565b6040513381527f1933b674aef4cfb17892c49f3648877e1212cb9ab7620dfd352df0ce049d10909060200162000e1e565b600880546200072d9062002768565b60408051602081019091526000815260005b600254811015620011bc57600060028281548110620011045762001104620028c3565b60009182526020909120015460405163288c314960e21b81526001600160a01b0386811660048301529091169150819063a230c52490602401602060405180830381865afa1580156200115b573d6000803e3d6000fd5b505050506040513d601f19601f82011682018060405250810190620011819190620029d8565b15620011a65760408051602081019091526001600160a01b0390911681529392505050565b5080620011b38162002a12565b915050620010e1565b5050604080516020810190915260008152919050565b6000918252602082815260408084206001600160a01b0393909316845291905290205460ff1690565b606060028054806020026020016040519081016040528092919081815260200182805480156200125557602002820191906000526020600020905b81546001600160a01b0316815260019091019060200180831162001236575b5050505050905090565b60006200126c8162001da0565b6007620007cf8382620027f6565b6000620012878162001da0565b6001600160a01b0384166000908152600c602052604090205460ff161515600114620012ed5760405162461bcd60e51b815260206004820152601460248201527314dc5d585908191bd95cc81b9bdd08195e1a5cdd60621b604482015260640162000885565b6040516398041ea360e01b81526001600160a01b038481166004830152602482018490528591908216906398041ea390604401600060405180830381600087803b1580156200133b57600080fd5b505af115801562001350573d6000803e3d6000fd5b505050506001600160a01b038481166000908152600d6020526040902080546001600160a01b0319169183169190911790556200139d600080516020620068028339815191528562001daf565b6040516001600160a01b03851681527f1933b674aef4cfb17892c49f3648877e1212cb9ab7620dfd352df0ce049d10909060200160405180910390a15050505050565b620013fb6000805160206200680283398151915233620011d2565b6200143f5760405162461bcd60e51b81526020600482015260136024820152722737ba1030903632b0b3bab29036b2b6b132b960691b604482015260640162000885565b600454421015620014935760405162461bcd60e51b815260206004820152601860248201527f4c6561677565206973206e6f7420636c6f736564207965740000000000000000604482015260640162000885565b6000600f8281548110620014ab57620014ab620028c3565b60009182526020909120600890910201600481015490915060ff1615620015155760405162461bcd60e51b815260206004820152601c60248201527f436f6c6c65637469626c6520616c72656164792072656465656d656400000000604482015260640162000885565b42816003015411620015605760405162461bcd60e51b815260206004820152601360248201527210dbdb1b1958dd1a589b1948195e1c1a5c9959606a1b604482015260640162000885565b60058101546001600160a01b03163314620015b45760405162461bcd60e51b815260206004820152601360248201527209cdee840eed2dcdccae440decc40dac2e8c6d606b1b604482015260640162000885565b336000908152600d6020526040808220548151632fdb6df560e11b815291516001600160a01b03909116928392635fb6dbea926004808301939282900301818387803b1580156200160457600080fd5b505af115801562001619573d6000803e3d6000fd5b5050505060048201805460ff1916600117905560408051338152602081018590527f7669e39a312f5da295908ed4452427a0b7a73abbf69d5639f87d19a123f8bf38910160405180910390a1505050565b6000620016778162001da0565b6001600160a01b0382166000908152600b602052604090205460ff161515600114620016dc5760405162461bcd60e51b815260206004820152601360248201527211d85b5948191bd95cc81b9bdd08195e1a5cdd606a1b604482015260640162000885565b60005b600e548110156200180357826001600160a01b0316600e82815481106200170a576200170a620028c3565b60009182526020909120600290910201546001600160a01b031603620017ee57600e80546200173c9060019062002a2e565b815481106200174f576200174f620028c3565b9060005260206000209060020201600e8281548110620017735762001773620028c3565b60009182526020909120825460029092020180546001600160a01b0319166001600160a01b03909216919091178155600191820154910155600e805480620017bf57620017bf62002a44565b60008281526020812060026000199093019283020180546001600160a01b031916815560010155905562001803565b80620017fa8162002a12565b915050620016df565b50506001600160a01b03166000908152600b60205260409020805460ff19169055565b6000620018338162001da0565b50600391909155600455565b600680546200072d9062002768565b6000828152602081905260409020600101546200186b8162001da0565b620007cf838362001e37565b6002818154811062000ac357600080fd5b6000620018958162001da0565b600354421015620018ba5760405162461bcd60e51b815260040162000885906200297e565b600454421115620018df5760405162461bcd60e51b81526004016200088590620029ae565b5042600455565b6000620018f38162001da0565b600354421015620019185760405162461bcd60e51b815260040162000885906200297e565b6004544211156200193d5760405162461bcd60e51b81526004016200088590620029ae565b6001600160a01b0384166000908152600b6020526040902054849060ff161515600114620019a75760405162461bcd60e51b815260206004820152601660248201527511d85b59481a5cc81b9bdd081c9959da5cdd195c995960521b604482015260640162000885565b600084511180620019b9575060008351115b620019fe5760405162461bcd60e51b81526020600482015260146024820152734e6f20706c6179657273206f722073717561647360601b604482015260640162000885565b6000861162001a665760405162461bcd60e51b815260206004820152602d60248201527f436f6c6c65637469626c65206578706972657320696e206d757374206265206760448201526c0726561746572207468616e203609c1b606482015260840162000885565b6000604051806101200160405280600f80549050600162001a88919062002a5a565b815260200142815260200160008152602001884262001aa8919062002a5a565b62001ab69061025862002a5a565b8152600060208083018290526001600160a01b038a8116604080860191909152606080860185905260808087018d905260a09687018c9052600f8054600181018255965287517f8d1108e10bcb7c27dddfc02ed9d693a074039d026cf4ea4240b40f7d581ac8026008909702968701908155888601517f8d1108e10bcb7c27dddfc02ed9d693a074039d026cf4ea4240b40f7d581ac803880155928801517f8d1108e10bcb7c27dddfc02ed9d693a074039d026cf4ea4240b40f7d581ac804870155908701517f8d1108e10bcb7c27dddfc02ed9d693a074039d026cf4ea4240b40f7d581ac8058601558601517f8d1108e10bcb7c27dddfc02ed9d693a074039d026cf4ea4240b40f7d581ac80685018054968801516001600160a81b0319909716911515610100600160a81b03191691909117610100968416969096029590951790945560c08501517f8d1108e10bcb7c27dddfc02ed9d693a074039d026cf4ea4240b40f7d581ac807840180546001600160a01b0319169190921617905560e08401518051949550859462001c75937f8d1108e10bcb7c27dddfc02ed9d693a074039d026cf4ea4240b40f7d581ac80801929190910190620020d0565b50610100820151805162001c94916007840191602090910190620020d0565b50505050505050505050565b6000808585858560405162001cb5906200213a565b62001cc4949392919062002a70565b604051809103906000f08015801562001ce1573d6000803e3d6000fd5b5060025490915060009062001cf890600162002a5a565b6002805460018082019092557f405787fa12a823e0f2b7631cc41b3ba8828b3321ca811111fa75cd3aa3bb5ace0180546001600160a01b0386166001600160a01b03199182168117909255600084815260209384526040908190208054909216831790915580519182529181018390529192507f67f794a23800c26d9e9ce3c51a9e95dd2c5a724c30030822f589294afc81231b910160405180910390a15095945050505050565b62001dac813362001e9f565b50565b62001dbb8282620011d2565b6200089a576000828152602081815260408083206001600160a01b03851684529091529020805460ff1916600117905562001df33390565b6001600160a01b0316816001600160a01b0316837f2f8788117e7eff1d82e926ec794901d17c78024a50270940304540a733656f0d60405160405180910390a45050565b62001e438282620011d2565b156200089a576000828152602081815260408083206001600160a01b0385168085529252808320805460ff1916905551339285917ff6391f5c32d9c69d2a47ea670b442974b53935d1edc7fd64eb21e047a839171b9190a45050565b62001eab8282620011d2565b6200089a5762001ebb8162001f03565b62001ec883602062001f16565b60405160200162001edb92919062002ac5565b60408051601f198184030181529082905262461bcd60e51b825262000885916004016200222f565b6060620006df6001600160a01b03831660145b6060600062001f2783600262002b3e565b62001f3490600262002a5a565b67ffffffffffffffff81111562001f4f5762001f4f62002244565b6040519080825280601f01601f19166020018201604052801562001f7a576020820181803683370190505b509050600360fc1b8160008151811062001f985762001f98620028c3565b60200101906001600160f81b031916908160001a905350600f60fb1b8160018151811062001fca5762001fca620028c3565b60200101906001600160f81b031916908160001a905350600062001ff084600262002b3e565b62001ffd90600162002a5a565b90505b60018111156200207f576f181899199a1a9b1b9c1cb0b131b232b360811b85600f1660108110620020355762002035620028c3565b1a60f81b8282815181106200204e576200204e620028c3565b60200101906001600160f81b031916908160001a90535060049490941c93620020778162002b58565b905062002000565b50831562000c8e5760405162461bcd60e51b815260206004820181905260248201527f537472696e67733a20686578206c656e67746820696e73756666696369656e74604482015260640162000885565b82805482825590600052602060002090810192821562002128579160200282015b828111156200212857825182546001600160a01b0319166001600160a01b03909116178255602090920191600190910190620020f1565b506200213692915062002148565b5090565b613c8f8062002b7383390190565b5b8082111562002136576000815560010162002149565b6000602082840312156200217257600080fd5b81356001600160e01b03198116811462000c8e57600080fd5b6000602082840312156200219e57600080fd5b5035919050565b6001600160a01b038116811462001dac57600080fd5b600060208284031215620021ce57600080fd5b813562000c8e81620021a5565b60005b83811015620021f8578181015183820152602001620021de565b50506000910152565b600081518084526200221b816020860160208601620021db565b601f01601f19169290920160200192915050565b60208152600062000c8e602083018462002201565b634e487b7160e01b600052604160045260246000fd5b604051601f8201601f1916810167ffffffffffffffff8111828210171562002286576200228662002244565b604052919050565b600067ffffffffffffffff831115620022ab57620022ab62002244565b620022c0601f8401601f19166020016200225a565b9050828152838383011115620022d557600080fd5b828260208301376000602084830101529392505050565b600060208284031215620022ff57600080fd5b813567ffffffffffffffff8111156200231757600080fd5b8201601f810184136200232957600080fd5b6200233a848235602084016200228e565b949350505050565b600080604083850312156200235657600080fd5b8235915060208301356200236a81620021a5565b809150509250929050565b600081518084526020808501945080840160005b83811015620023b05781516001600160a01b03168752958201959082019060010162002389565b509495945050505050565b602081528151602082015260208201516040820152604082015160608201526060820151608082015260006080830151620023fa60a084018215159052565b5060a08301516001600160a01b03811660c08401525060c08301516001600160a01b03811660e08401525060e083015161012061010081818601526200244561014086018462002375565b90860151858203601f19018387015290925062002463838262002375565b9695505050505050565b600080604083850312156200248157600080fd5b82356200248e81620021a5565b946020939093013593505050565b60208152600062000c8e602083018462002375565b6020808252825182820181905260009190848201906040850190845b81811015620024f45783516001600160a01b031683529284019291840191600101620024cd565b50909695505050505050565b6000806000606084860312156200251657600080fd5b83356200252381620021a5565b925060208401356200253581620021a5565b929592945050506040919091013590565b600080604083850312156200255a57600080fd5b50508035926020909101359150565b600067ffffffffffffffff82111562002586576200258662002244565b5060051b60200190565b600082601f830112620025a257600080fd5b81356020620025bb620025b58362002569565b6200225a565b82815260059290921b84018101918181019086841115620025db57600080fd5b8286015b8481101562002603578035620025f581620021a5565b8352918301918301620025df565b509695505050505050565b600080600080608085870312156200262557600080fd5b8435935060208501356200263981620021a5565b9250604085013567ffffffffffffffff808211156200265757600080fd5b620026658883890162002590565b935060608701359150808211156200267c57600080fd5b506200268b8782880162002590565b91505092959194509250565b600082601f830112620026a957600080fd5b62000c8e838335602085016200228e565b60008060008060808587031215620026d157600080fd5b843567ffffffffffffffff80821115620026ea57600080fd5b620026f88883890162002697565b955060208701359150808211156200270f57600080fd5b6200271d8883890162002697565b945060408701359150808211156200273457600080fd5b620027428883890162002697565b935060608701359150808211156200275957600080fd5b506200268b8782880162002697565b600181811c908216806200277d57607f821691505b6020821081036200279e57634e487b7160e01b600052602260045260246000fd5b50919050565b601f821115620007cf57600081815260208120601f850160051c81016020861015620027cd5750805b601f850160051c820191505b81811015620027ee57828155600101620027d9565b505050505050565b815167ffffffffffffffff81111562002813576200281362002244565b6200282b8162002824845462002768565b84620027a4565b602080601f8311600181146200286357600084156200284a5750858301515b600019600386901b1c1916600185901b178555620027ee565b600085815260208120601f198616915b82811015620028945788860151825594840194600190910190840162002873565b5085821015620028b35787850151600019600388901b60f8161c191681555b5050505050600190811b01905550565b634e487b7160e01b600052603260045260246000fd5b60006020808385031215620028ed57600080fd5b825167ffffffffffffffff8111156200290557600080fd5b8301601f810185136200291757600080fd5b805162002928620025b58262002569565b81815260059190911b820183019083810190878311156200294857600080fd5b928401925b82841015620029735783516200296381620021a5565b825292840192908401906200294d565b979650505050505050565b60208082526016908201527513195859dd59481a5cc81b9bdd081bdc195b881e595d60521b604082015260600190565b60208082526010908201526f13195859dd59481a5cc818db1bdcd95960821b604082015260600190565b600060208284031215620029eb57600080fd5b8151801515811462000c8e57600080fd5b634e487b7160e01b600052601160045260246000fd5b60006001820162002a275762002a27620029fc565b5060010190565b81810381811115620006df57620006df620029fc565b634e487b7160e01b600052603160045260246000fd5b80820180821115620006df57620006df620029fc565b60808152600062002a85608083018762002201565b828103602084015262002a99818762002201565b9050828103604084015262002aaf818662002201565b9050828103606084015262002973818562002201565b7f416363657373436f6e74726f6c3a206163636f756e742000000000000000000081526000835162002aff816017850160208801620021db565b7001034b99036b4b9b9b4b733903937b6329607d1b601791840191820152835162002b32816028840160208801620021db565b01602801949350505050565b8082028115828204841417620006df57620006df620029fc565b60008162002b6a5762002b6a620029fc565b50600019019056fe60806040523480156200001157600080fd5b5060405162003c8f38038062003c8f8339810160408190526200003491620001f5565b81816200004133620000de565b60056200004f83826200033d565b5060066200005e82826200033d565b5050600080525060076020527f6d5257204ebe7d88fd91ae87941cb2dd9d8062b64ae5a2bd2d28ec40b9fbf6e0805430610100026001600160a81b0319909116176001179055600980546001600160a01b03191633179055600e620000c485826200033d565b50600f620000d384826200033d565b505050505062000409565b600280546001600160a01b038381166001600160a01b0319831681179093556040519116919082907f8be0079c531659141344cd1fd0a4f28419497f9722a3daafe3b4186f6b6457e090600090a35050565b634e487b7160e01b600052604160045260246000fd5b600082601f8301126200015857600080fd5b81516001600160401b038082111562000175576200017562000130565b604051601f8301601f19908116603f01168101908282118183101715620001a057620001a062000130565b81604052838152602092508683858801011115620001bd57600080fd5b600091505b83821015620001e15785820183015181830184015290820190620001c2565b600093810190920192909252949350505050565b600080600080608085870312156200020c57600080fd5b84516001600160401b03808211156200022457600080fd5b620002328883890162000146565b955060208701519150808211156200024957600080fd5b620002578883890162000146565b945060408701519150808211156200026e57600080fd5b6200027c8883890162000146565b935060608701519150808211156200029357600080fd5b50620002a28782880162000146565b91505092959194509250565b600181811c90821680620002c357607f821691505b602082108103620002e457634e487b7160e01b600052602260045260246000fd5b50919050565b601f8211156200033857600081815260208120601f850160051c81016020861015620003135750805b601f850160051c820191505b8181101562000334578281556001016200031f565b5050505b505050565b81516001600160401b0381111562000359576200035962000130565b62000371816200036a8454620002ae565b84620002ea565b602080601f831160018114620003a95760008415620003905750858301515b600019600386901b1c1916600185901b17855562000334565b600085815260208120601f198616915b82811015620003da57888601518255948401946001909101908401620003b9565b5085821015620003f95787850151600019600388901b60f8161c191681555b5050505050600190811b01905550565b61387680620004196000396000f3fe608060405234801561001057600080fd5b506004361061025d5760003560e01c806386141e1b11610146578063b688a363116100c3578063d963abb911610087578063d963abb9146105c4578063e4fd69f2146105d9578063e8a3d485146105ec578063e985e9c5146105f4578063f242432a14610622578063f2fde38b1461063557600080fd5b8063b688a36314610554578063b899928a1461055c578063bcd101051461056f578063cf35bdd01461058f578063d30ed960146105b157600080fd5b806398041ea31161010a57806398041ea31461049f5780639eab5253146104b2578063a08ad97d146104c7578063a22cb46514610515578063a230c5241461052857600080fd5b806386141e1b146104495780638a9d1efa1461045e5780638da5cb5b14610473578063938e3d7b1461048457806395d89b411461049757600080fd5b806351cff8d9116101df57806362564c48116101a357806362564c48146103fe57806367e4ac2c1461041357806369ecdd8b146104285780636c0360eb14610430578063715018a6146104385780637e79407b1461044057600080fd5b806351cff8d91461039257806354a2e233146103a557806355f804b3146103b85780635e78d078146103cb5780635fb6dbea146103f657600080fd5b80630a09859d116102265780630a09859d146103205780630e89341c14610342578063188f937c146103555780632eb2c2d61461035d5780634e1273f41461037257600080fd5b8062fdd58e14610262578063013cf08b1461029d57806301ffc9a7146102c557806306fdde03146102e857806308ae4b0c146102fd575b600080fd5b61028a610270366004612a36565b600060208181529281526040808220909352908152205481565b6040519081526020015b60405180910390f35b6102b06102ab366004612a62565b610648565b60405161029499989796959493929190612acb565b6102d86102d3366004612b50565b6107cd565b6040519015158152602001610294565b6102f061081f565b6040516102949190612b74565b6102d861030b366004612b87565b600b6020526000908152604090205460ff1681565b61033361032e366004612a62565b6108ad565b60405161029493929190612ba4565b6102f0610350366004612a62565b610965565b6102f0610a28565b61037061036b366004612c63565b610a35565b005b610385610380366004612d21565b610cdd565b6040516102949190612d8c565b6103706103a0366004612b87565b610e11565b6103706103b3366004612de5565b610eb3565b6103706103c6366004612e1a565b61141d565b6103de6103d9366004612a62565b61142a565b6040516001600160a01b039091168152602001610294565b610370611454565b61040661148d565b6040516102949190612e5b565b61041b611675565b6040516102949190612f85565b6102f061179a565b6102f06117a7565b6103706117b4565b61028a60085481565b6104516117c8565b6040516102949190613002565b336000908152600c602052604090205461028a565b6002546001600160a01b03166103de565b610370610492366004612e1a565b6118fd565b6102f061190a565b6103706104ad366004612a36565b611917565b6104ba6119bc565b604051610294919061305a565b6104fe6104d5366004612a36565b601260209081526000928352604080842090915290825290205460ff8082169161010090041682565b604080519215158352901515602083015201610294565b61037061052336600461309b565b611a1e565b6102d8610536366004612b87565b6001600160a01b03166000908152600b602052604090205460ff1690565b610370611a8a565b61037061056a366004613172565b611b19565b61028a61057d366004612b87565b600c6020526000908152604090205481565b6105a261059d366004612a62565b611bd8565b604051610294939291906131ce565b61028a6105bf3660046131fe565b611c9e565b6105cc61215e565b6040516102949190613260565b6103706105e73660046132a2565b6122a0565b6102f0612350565b6102d86106023660046132ed565b600160209081526000928352604080842090915290825290205460ff1681565b610370610630366004613326565b61235d565b610370610643366004612b87565b612557565b6010818154811061065857600080fd5b9060005260206000209060080201600091509050806000015490806001015490806002018054610687906133a1565b80601f01602080910402602001604051908101604052809291908181526020018280546106b3906133a1565b80156107005780601f106106d557610100808354040283529160200191610700565b820191906000526020600020905b8154815290600101906020018083116106e357829003601f168201915b505050600384015460048501805494956001600160a01b0390921694919350915061072a906133a1565b80601f0160208091040260200160405190810160405280929190818152602001828054610756906133a1565b80156107a35780601f10610778576101008083540402835291602001916107a3565b820191906000526020600020905b81548152906001019060200180831161078657829003601f168201915b50505050600583015460068401546007909401549293909290915060ff8082169161010090041689565b60006301ffc9a760e01b6001600160e01b0319831614806107fe5750636cdb3d1360e11b6001600160e01b03198316145b8061081957506303a24d0760e21b6001600160e01b03198316145b92915050565b6003805461082c906133a1565b80601f0160208091040260200160405190810160405280929190818152602001828054610858906133a1565b80156108a55780601f1061087a576101008083540402835291602001916108a5565b820191906000526020600020905b81548152906001019060200180831161088857829003601f168201915b505050505081565b6007602052600090815260409020805481906108c8906133a1565b80601f01602080910402602001604051908101604052809291908181526020018280546108f4906133a1565b80156109415780601f1061091657610100808354040283529160200191610941565b820191906000526020600020905b81548152906001019060200180831161092457829003601f168201915b5050506001909301549192505060ff8116906001600160a01b036101009091041683565b6060600060058054610976906133a1565b80601f01602080910402602001604051908101604052809291908181526020018280546109a2906133a1565b80156109ef5780601f106109c4576101008083540402835291602001916109ef565b820191906000526020600020905b8154815290600101906020018083116109d257829003601f168201915b5050505050905080610a00846125d0565b604051602001610a119291906133d5565b604051602081830303815290604052915050919050565b600e805461082c906133a1565b848314610a7b5760405162461bcd60e51b815260206004820152600f60248201526e0988a9c8ea890be9a92a69a82a8869608b1b60448201526064015b60405180910390fd5b336001600160a01b0389161480610ab557506001600160a01b038816600090815260016020908152604080832033845290915290205460ff165b610af25760405162461bcd60e51b815260206004820152600e60248201526d1393d517d055551213d49256915160921b6044820152606401610a72565b60008060005b87811015610bad57888882818110610b1257610b12613404565b905060200201359250868682818110610b2d57610b2d613404565b6001600160a01b038e1660009081526020818152604080832089845282528220805493909102949094013595508593925090610b6a908490613430565b90915550506001600160a01b038a1660009081526020818152604080832086845290915281208054849290610ba0908490613443565b9091555050600101610af8565b50886001600160a01b03168a6001600160a01b0316336001600160a01b03167f4a39dc06d4c0dbc64b70af90fd698a233a518aa5d07e595d983b8c0526c8f7fb8b8b8b8b604051610c019493929190613488565b60405180910390a46001600160a01b0389163b15610ca85760405163bc197c8160e01b808252906001600160a01b038b169063bc197c8190610c559033908f908e908e908e908e908e908e906004016134e3565b6020604051808303816000875af1158015610c74573d6000803e3d6000fd5b505050506040513d601f19601f82011682018060405250810190610c989190613547565b6001600160e01b03191614610cb5565b6001600160a01b03891615155b610cd15760405162461bcd60e51b8152600401610a7290613564565b50505050505050505050565b6060838214610d205760405162461bcd60e51b815260206004820152600f60248201526e0988a9c8ea890be9a92a69a82a8869608b1b6044820152606401610a72565b836001600160401b03811115610d3857610d386130d0565b604051908082528060200260200182016040528015610d61578160200160208202803683370190505b50905060005b84811015610e0857600080878784818110610d8457610d84613404565b9050602002016020810190610d999190612b87565b6001600160a01b03166001600160a01b031681526020019081526020016000206000858584818110610dcd57610dcd613404565b90506020020135815260200190815260200160002054828281518110610df557610df5613404565b6020908102919091010152600101610d67565b50949350505050565b610e19612662565b60405147906000906001600160a01b0384169083908381818185875af1925050503d8060008114610e66576040519150601f19603f3d011682016040523d82523d6000602084013e610e6b565b606091505b5050905080610eae5760405162461bcd60e51b815260206004820152600f60248201526e151c985b9cd9995c8819985a5b1959608a1b6044820152606401610a72565b505050565b336000908152600b602052604090205460ff16610f015760405162461bcd60e51b815260206004820152600c60248201526b13595b58995c8811d85d195960a21b6044820152606401610a72565b82600060118281548110610f1757610f17613404565b9060005260206000209060030201604051806060016040529081600082018054610f40906133a1565b80601f0160208091040260200160405190810160405280929190818152602001828054610f6c906133a1565b8015610fb95780601f10610f8e57610100808354040283529160200191610fb9565b820191906000526020600020905b815481529060010190602001808311610f9c57829003601f168201915b505050918352505060018201546020820152600282015460409091019060ff166004811115610fea57610fea612f4d565b6004811115610ffb57610ffb612f4d565b905250905060008160400151600481111561101857611018612f4d565b0361105257336000908152600c60205260409020546003111561104d5760405162461bcd60e51b8152600401610a729061358e565b611186565b60018160400151600481111561106a5761106a612f4d565b0361109f57336000908152600c6020526040902054600a111561104d5760405162461bcd60e51b8152600401610a729061358e565b6002816040015160048111156110b7576110b7612f4d565b036110ec57336000908152600c60205260409020546019111561104d5760405162461bcd60e51b8152600401610a729061358e565b60038160400151600481111561110457611104612f4d565b0361113957336000908152600c60205260409020546032111561104d5760405162461bcd60e51b8152600401610a729061358e565b60048160400151600481111561115157611151612f4d565b0361118657336000908152600c6020526040902054606411156111865760405162461bcd60e51b8152600401610a729061358e565b6010848154811061119957611199613404565b600091825260209091206007600890920201015460ff16156111f25760405162461bcd60e51b8152602060048201526012602482015271141c9bdc1bdcd85b0810d85b98d95b1b195960721b6044820152606401610a72565b6010848154811061120557611205613404565b6000918252602090912060089091020160070154610100900460ff16156112625760405162461bcd60e51b8152602060048201526011602482015270141c9bdc1bdcd85b08115e1958dd5d1959607a1b6044820152606401610a72565b33600090815260126020908152604080832087845290915290205460ff16156112bd5760405162461bcd60e51b815260206004820152600d60248201526c105b1c9958591e48159bdd1959609a1b6044820152606401610a72565b336001600160a01b0316601085815481106112da576112da613404565b60009182526020909120600360089092020101546001600160a01b0316036113445760405162461bcd60e51b815260206004820152601b60248201527f43616e6e6f7420766f7465206f6e206f776e2070726f706f73616c00000000006044820152606401610a72565b60006010858154811061135957611359613404565b600091825260208083203384526012825260408085208a865290925292206008909102909101915084156113a1576005820154611397906001613443565b60058301556113b7565b60068201546113b1906001613443565b60068301555b80548515156101000261ffff1990911617600117815560405133907fd30ac21a886171cfc6e0046ee7856df867d5007f0e95d20c98914472ec2b94029061140c90899089909182521515602082015260400190565b60405180910390a250505050505050565b6005610eae8284836135ff565b600a818154811061143a57600080fd5b6000918252602090912001546001600160a01b0316905081565b61146033600d546126bc565b336000908152600c602052604090205461147b906001613443565b336000908152600c6020526040902055565b60606010805480602002602001604051908101604052809291908181526020016000905b8282101561166c57838290600052602060002090600802016040518061012001604052908160008201548152602001600182015481526020016002820180546114f9906133a1565b80601f0160208091040260200160405190810160405280929190818152602001828054611525906133a1565b80156115725780601f1061154757610100808354040283529160200191611572565b820191906000526020600020905b81548152906001019060200180831161155557829003601f168201915b505050918352505060038201546001600160a01b031660208201526004820180546040909201916115a2906133a1565b80601f01602080910402602001604051908101604052809291908181526020018280546115ce906133a1565b801561161b5780601f106115f05761010080835404028352916020019161161b565b820191906000526020600020905b8154815290600101906020018083116115fe57829003601f168201915b505050918352505060058201546020808301919091526006830154604083015260079092015460ff8082161515606084015261010090910416151560809091015290825260019290920191016114b1565b50505050905090565b60606011805480602002602001604051908101604052809291908181526020016000905b8282101561166c57838290600052602060002090600302016040518060600160405290816000820180546116cc906133a1565b80601f01602080910402602001604051908101604052809291908181526020018280546116f8906133a1565b80156117455780601f1061171a57610100808354040283529160200191611745565b820191906000526020600020905b81548152906001019060200180831161172857829003601f168201915b505050918352505060018201546020820152600282015460409091019060ff16600481111561177657611776612f4d565b600481111561178757611787612f4d565b8152505081526020019060010190611699565b600f805461082c906133a1565b6005805461082c906133a1565b6117bc612662565b6117c6600061278a565b565b600a546060906000906001600160401b038111156117e8576117e86130d0565b60405190808252806020026020018201604052801561182d57816020015b60408051808201909152600080825260208201528152602001906001900390816118065790505b50905060005b600a548110156118f7576040518060400160405280600a838154811061185b5761185b613404565b9060005260206000200160009054906101000a90046001600160a01b03166001600160a01b03168152602001600c6000600a858154811061189e5761189e613404565b60009182526020808320909101546001600160a01b03168352820192909252604001902054905282518390839081106118d9576118d9613404565b602002602001018190525080806118ef906136bf565b915050611833565b50919050565b6006610eae8284836135ff565b6004805461082c906133a1565b6009546001600160a01b031633146119415760405162461bcd60e51b8152600401610a72906136d8565b61194a826127dc565b600a805460018181019092557fc65a7bb8d6351c1cf70c95a316cc6a92839c986682d98bc35f958f4883f9d2a80180546001600160a01b039094166001600160a01b0319909416841790556000928352600b60209081526040808520805460ff1916909317909255600c905290912055565b6060600a805480602002602001604051908101604052809291908181526020018280548015611a1457602002820191906000526020600020905b81546001600160a01b031681526001909101906020018083116119f6575b5050505050905090565b3360008181526001602090815260408083206001600160a01b03871680855290835292819020805460ff191686151590811790915590519081529192917f17307eab39ab6107e8899845ad3d59bd9653f200f220920489ca2b5937696c31910160405180910390a35050565b6009546001600160a01b03163314611ab45760405162461bcd60e51b8152600401610a72906136d8565b611abd336127dc565b600a805460018181019092557fc65a7bb8d6351c1cf70c95a316cc6a92839c986682d98bc35f958f4883f9d2a80180546001600160a01b031916339081179091556000908152600b60205260409020805460ff19169091179055565b6009546001600160a01b03163314611b435760405162461bcd60e51b8152600401610a72906136d8565b60116040518060600160405280838152602001858152602001846004811115611b6e57611b6e612f4d565b90528154600181018355600092835260209092208151919260030201908190611b979082613700565b506020820151816001015560408201518160020160006101000a81548160ff02191690836004811115611bcc57611bcc612f4d565b02179055505050505050565b60118181548110611be857600080fd5b9060005260206000209060030201600091509050806000018054611c0b906133a1565b80601f0160208091040260200160405190810160405280929190818152602001828054611c37906133a1565b8015611c845780601f10611c5957610100808354040283529160200191611c84565b820191906000526020600020905b815481529060010190602001808311611c6757829003601f168201915b50505050600183015460029093015491929160ff16905083565b336000908152600b602052604081205460ff16611cec5760405162461bcd60e51b815260206004820152600c60248201526b13595b58995c8811d85d195960a21b6044820152606401610a72565b83600060118281548110611d0257611d02613404565b9060005260206000209060030201604051806060016040529081600082018054611d2b906133a1565b80601f0160208091040260200160405190810160405280929190818152602001828054611d57906133a1565b8015611da45780601f10611d7957610100808354040283529160200191611da4565b820191906000526020600020905b815481529060010190602001808311611d8757829003601f168201915b505050918352505060018201546020820152600282015460409091019060ff166004811115611dd557611dd5612f4d565b6004811115611de657611de6612f4d565b9052509050600081604001516004811115611e0357611e03612f4d565b03611e3d57336000908152600c602052604090205460031115611e385760405162461bcd60e51b8152600401610a729061358e565b611f71565b600181604001516004811115611e5557611e55612f4d565b03611e8a57336000908152600c6020526040902054600a1115611e385760405162461bcd60e51b8152600401610a729061358e565b600281604001516004811115611ea257611ea2612f4d565b03611ed757336000908152600c602052604090205460191115611e385760405162461bcd60e51b8152600401610a729061358e565b600381604001516004811115611eef57611eef612f4d565b03611f2457336000908152600c602052604090205460321115611e385760405162461bcd60e51b8152600401610a729061358e565b600481604001516004811115611f3c57611f3c612f4d565b03611f7157336000908152600c602052604090205460641115611f715760405162461bcd60e51b8152600401610a729061358e565b611fcd60405180610120016040528060008152602001600081526020016060815260200160006001600160a01b031681526020016060815260200160008152602001600081526020016000151581526020016000151581525090565b601054611fdb906001613443565b815233606082015260808101869052602081018781526040820186815260108054600181018255600091909152835160089091027f1b6847dc741a1b0cd08d278845f9d819d87b734759afb55fe2de5cb82a9ae672810191825592517f1b6847dc741a1b0cd08d278845f9d819d87b734759afb55fe2de5cb82a9ae673840155905183927f1b6847dc741a1b0cd08d278845f9d819d87b734759afb55fe2de5cb82a9ae674019061208c9082613700565b5060608201516003820180546001600160a01b0319166001600160a01b03909216919091179055608082015160048201906120c79082613700565b5060a0820151600582015560c0820151600682015560e0820151600790910180546101009384015161ffff1990911692151561ff001916929092179115159092021790558051602080830151604080519384523392840192909252908201527f3417b456fad6209c73445d5efd446d686e75e4560f0f50c13b5a5cde976447b49060600160405180910390a1519695505050505050565b60408051808201909152606080825260208201526040518060400160405280600e805461218a906133a1565b80601f01602080910402602001604051908101604052809291908181526020018280546121b6906133a1565b80156122035780601f106121d857610100808354040283529160200191612203565b820191906000526020600020905b8154815290600101906020018083116121e657829003601f168201915b50505050508152602001600f805461221a906133a1565b80601f0160208091040260200160405190810160405280929190818152602001828054612246906133a1565b80156122935780601f1061226857610100808354040283529160200191612293565b820191906000526020600020905b81548152906001019060200180831161227657829003601f168201915b5050505050815250905090565b6122a8612662565b60008381526007602052604090206001015460ff16156123145760405162461bcd60e51b815260206004820152602160248201527f436f6c6c65637469626c6520746f6b656e20616c7265616479206372656174656044820152601960fa1b6064820152608401610a72565b600083815260076020526040902061232d8284836135ff565b50505060009081526007602052604090206001908101805460ff19169091179055565b6006805461082c906133a1565b336001600160a01b038716148061239757506001600160a01b038616600090815260016020908152604080832033845290915290205460ff165b6123d45760405162461bcd60e51b815260206004820152600e60248201526d1393d517d055551213d49256915160921b6044820152606401610a72565b6001600160a01b03861660009081526020818152604080832087845290915281208054859290612405908490613430565b90915550506001600160a01b0385166000908152602081815260408083208784529091528120805485929061243b908490613443565b909155505060408051858152602081018590526001600160a01b03808816929089169133917fc3d58168c5ae7397731d063d5bbf3d657854427343f4c083240f7aacaa2d0f62910160405180910390a46001600160a01b0385163b156125265760405163f23a6e6160e01b808252906001600160a01b0387169063f23a6e61906124d39033908b908a908a908a908a906004016137bf565b6020604051808303816000875af11580156124f2573d6000803e3d6000fd5b505050506040513d601f19601f820116820180604052508101906125169190613547565b6001600160e01b03191614612533565b6001600160a01b03851615155b61254f5760405162461bcd60e51b8152600401610a7290613564565b505050505050565b61255f612662565b6001600160a01b0381166125c45760405162461bcd60e51b815260206004820152602660248201527f4f776e61626c653a206e6577206f776e657220697320746865207a65726f206160448201526564647265737360d01b6064820152608401610a72565b6125cd8161278a565b50565b606060006125dd83612801565b60010190506000816001600160401b038111156125fc576125fc6130d0565b6040519080825280601f01601f191660200182016040528015612626576020820181803683370190505b5090508181016020015b600019016f181899199a1a9b1b9c1cb0b131b232b360811b600a86061a8153600a850494508461263057509392505050565b6002546001600160a01b031633146117c65760405162461bcd60e51b815260206004820181905260248201527f4f776e61626c653a2063616c6c6572206973206e6f7420746865206f776e65726044820152606401610a72565b806000811161270d5760405162461bcd60e51b815260206004820181905260248201527f436f6c6c65637469626c652063616e6e6f7420626520612073717561642069646044820152606401610a72565b60008281526007602052604090206001015460ff1661276e5760405162461bcd60e51b815260206004820152601d60248201527f436f6c6c65637469626c6520746f6b656e206e6f7420637265617465640000006044820152606401610a72565b610eae83836001604051806020016040528060008152506128d9565b600280546001600160a01b038381166001600160a01b0319831681179093556040519116919082907f8be0079c531659141344cd1fd0a4f28419497f9722a3daafe3b4186f6b6457e090600090a35050565b6125cd81336001600160a01b03166001604051806020016040528060008152506128d9565b60008072184f03e93ff9f4daa797ed6e38ed64bf6a1f0160401b83106128405772184f03e93ff9f4daa797ed6e38ed64bf6a1f0160401b830492506040015b6d04ee2d6d415b85acef8100000000831061286c576d04ee2d6d415b85acef8100000000830492506020015b662386f26fc10000831061288a57662386f26fc10000830492506010015b6305f5e10083106128a2576305f5e100830492506008015b61271083106128b657612710830492506004015b606483106128c8576064830492506002015b600a83106108195760010192915050565b6001600160a01b0384166000908152602081815260408083208684529091528120805484929061290a908490613443565b909155505060408051848152602081018490526001600160a01b0386169160009133917fc3d58168c5ae7397731d063d5bbf3d657854427343f4c083240f7aacaa2d0f62910160405180910390a46001600160a01b0384163b156129f25760405163f23a6e6160e01b808252906001600160a01b0386169063f23a6e619061299f903390600090899089908990600401613806565b6020604051808303816000875af11580156129be573d6000803e3d6000fd5b505050506040513d601f19601f820116820180604052508101906129e29190613547565b6001600160e01b031916146129ff565b6001600160a01b03841615155b612a1b5760405162461bcd60e51b8152600401610a7290613564565b50505050565b6001600160a01b03811681146125cd57600080fd5b60008060408385031215612a4957600080fd5b8235612a5481612a21565b946020939093013593505050565b600060208284031215612a7457600080fd5b5035919050565b60005b83811015612a96578181015183820152602001612a7e565b50506000910152565b60008151808452612ab7816020860160208601612a7b565b601f01601f19169290920160200192915050565b60006101208b83528a6020840152806040840152612aeb8184018b612a9f565b6001600160a01b038a16606085015283810360808501529050612b0e8189612a9f565b60a0840197909752505060c081019390935290151560e083015215156101009091015295945050505050565b6001600160e01b0319811681146125cd57600080fd5b600060208284031215612b6257600080fd5b8135612b6d81612b3a565b9392505050565b602081526000612b6d6020830184612a9f565b600060208284031215612b9957600080fd5b8135612b6d81612a21565b606081526000612bb76060830186612a9f565b9315156020830152506001600160a01b0391909116604090910152919050565b60008083601f840112612be957600080fd5b5081356001600160401b03811115612c0057600080fd5b6020830191508360208260051b8501011115612c1b57600080fd5b9250929050565b60008083601f840112612c3457600080fd5b5081356001600160401b03811115612c4b57600080fd5b602083019150836020828501011115612c1b57600080fd5b60008060008060008060008060a0898b031215612c7f57600080fd5b8835612c8a81612a21565b97506020890135612c9a81612a21565b965060408901356001600160401b0380821115612cb657600080fd5b612cc28c838d01612bd7565b909850965060608b0135915080821115612cdb57600080fd5b612ce78c838d01612bd7565b909650945060808b0135915080821115612d0057600080fd5b50612d0d8b828c01612c22565b999c989b5096995094979396929594505050565b60008060008060408587031215612d3757600080fd5b84356001600160401b0380821115612d4e57600080fd5b612d5a88838901612bd7565b90965094506020870135915080821115612d7357600080fd5b50612d8087828801612bd7565b95989497509550505050565b6020808252825182820181905260009190848201906040850190845b81811015612dc457835183529284019291840191600101612da8565b50909695505050505050565b80358015158114612de057600080fd5b919050565b600080600060608486031215612dfa57600080fd5b8335925060208401359150612e1160408501612dd0565b90509250925092565b60008060208385031215612e2d57600080fd5b82356001600160401b03811115612e4357600080fd5b612e4f85828601612c22565b90969095509350505050565b60006020808301818452808551808352604092508286019150828160051b87010184880160005b83811015612f3f57603f198984030185528151610120815185528882015189860152878201518189870152612eb982870182612a9f565b915050606080830151612ed6828801826001600160a01b03169052565b505060808083015186830382880152612eef8382612a9f565b9250505060a080830151818701525060c080830151818701525060e080830151612f1c8288018215159052565b505061010091820151151594909101939093529386019390860190600101612e82565b509098975050505050505050565b634e487b7160e01b600052602160045260246000fd5b60058110612f8157634e487b7160e01b600052602160045260246000fd5b9052565b60006020808301818452808551808352604092508286019150828160051b87010184880160005b83811015612f3f57603f19898403018552815160608151818652612fd282870182612a9f565b9150508882015189860152878201519150612fef88860183612f63565b9588019593505090860190600101612fac565b602080825282518282018190526000919060409081850190868401855b8281101561304d57815180516001600160a01b0316855286015186850152928401929085019060010161301f565b5091979650505050505050565b6020808252825182820181905260009190848201906040850190845b81811015612dc45783516001600160a01b031683529284019291840191600101613076565b600080604083850312156130ae57600080fd5b82356130b981612a21565b91506130c760208401612dd0565b90509250929050565b634e487b7160e01b600052604160045260246000fd5b600082601f8301126130f757600080fd5b81356001600160401b0380821115613111576131116130d0565b604051601f8301601f19908116603f01168101908282118183101715613139576131396130d0565b8160405283815286602085880101111561315257600080fd5b836020870160208301376000602085830101528094505050505092915050565b60008060006060848603121561318757600080fd5b8335925060208401356005811061319d57600080fd5b915060408401356001600160401b038111156131b857600080fd5b6131c4868287016130e6565b9150509250925092565b6060815260006131e16060830186612a9f565b90508360208301526131f66040830184612f63565b949350505050565b60008060006060848603121561321357600080fd5b8335925060208401356001600160401b038082111561323157600080fd5b61323d878388016130e6565b9350604086013591508082111561325357600080fd5b506131c4868287016130e6565b60208152600082516040602084015261327c6060840182612a9f565b90506020840151601f198483030160408501526132998282612a9f565b95945050505050565b6000806000604084860312156132b757600080fd5b8335925060208401356001600160401b038111156132d457600080fd5b6132e086828701612c22565b9497909650939450505050565b6000806040838503121561330057600080fd5b823561330b81612a21565b9150602083013561331b81612a21565b809150509250929050565b60008060008060008060a0878903121561333f57600080fd5b863561334a81612a21565b9550602087013561335a81612a21565b9450604087013593506060870135925060808701356001600160401b0381111561338357600080fd5b61338f89828a01612c22565b979a9699509497509295939492505050565b600181811c908216806133b557607f821691505b6020821081036118f757634e487b7160e01b600052602260045260246000fd5b600083516133e7818460208801612a7b565b8351908301906133fb818360208801612a7b565b01949350505050565b634e487b7160e01b600052603260045260246000fd5b634e487b7160e01b600052601160045260246000fd5b818103818111156108195761081961341a565b808201808211156108195761081961341a565b81835260006001600160fb1b0383111561346f57600080fd5b8260051b80836020870137939093016020019392505050565b60408152600061349c604083018688613456565b82810360208401526134af818587613456565b979650505050505050565b81835281816020850137506000828201602090810191909152601f909101601f19169091010190565b6001600160a01b0389811682528816602082015260a060408201819052600090613510908301888a613456565b8281036060840152613523818789613456565b905082810360808401526135388185876134ba565b9b9a5050505050505050505050565b60006020828403121561355957600080fd5b8151612b6d81612b3a565b60208082526010908201526f155394d0519157d49150d2541251539560821b604082015260600190565b602080825260119082015270496e73756666696369656e742077696e7360781b604082015260600190565b601f821115610eae57600081815260208120601f850160051c810160208610156135e05750805b601f850160051c820191505b8181101561254f578281556001016135ec565b6001600160401b03831115613616576136166130d0565b61362a8361362483546133a1565b836135b9565b6000601f84116001811461365e57600085156136465750838201355b600019600387901b1c1916600186901b1783556136b8565b600083815260209020601f19861690835b8281101561368f578685013582556020948501946001909201910161366f565b50868210156136ac5760001960f88860031b161c19848701351681555b505060018560011b0183555b5050505050565b6000600182016136d1576136d161341a565b5060010190565b6020808252600e908201526d139bdb8810591b5a5b8810d85b1b60921b604082015260600190565b81516001600160401b03811115613719576137196130d0565b61372d8161372784546133a1565b846135b9565b602080601f831160018114613762576000841561374a5750858301515b600019600386901b1c1916600185901b17855561254f565b600085815260208120601f198616915b8281101561379157888601518255948401946001909101908401613772565b50858210156137af5787850151600019600388901b60f8161c191681555b5050505050600190811b01905550565b6001600160a01b03878116825286166020820152604081018590526060810184905260a0608082018190526000906137fa90830184866134ba565b98975050505050505050565b6001600160a01b03868116825285166020820152604081018490526060810183905260a0608082018190526000906134af90830184612a9f56fea264697066735822122077c9277d1da0f40bb073e3aa8534208695bf0eb99a05e679bb0c251281cf0b9d64736f6c6343000811003325bef1c97dfcc92480799a90d2b121fcb67fcd9b099390197d47a6e0a1639096a2646970667358221220a60cf1853cd0419691f4b7cbd41c5d6a1d7f248b7200d2bdb49114561bcc6b1564736f6c63430008110033a2646970667358221220e2c7ea7dcad6b7d434a7ae0116ea7288f67c57cd0180c3a4e0ec3f1b9723d9b564736f6c63430008110033",
    "linkReferences": {}
  },
  "methodIdentifiers": {
    "createLeague(string,string,uint256)": "5b1aa001",
    "getLeagues()": "dec7db5f",
    "leagueAddresses(uint256)": "29ffe5e9",
    "leagues(uint256)": "c648fefe"
  },
  "id": 28
}