{
  "abi": [
    {
      "inputs": [
        {
          "internalType": "uint256",
          "name": "_squadId",
          "type": "uint256"
        },
        {
          "internalType": "string",
          "name": "_squadName",
          "type": "string"
        },
        {
          "internalType": "string",
          "name": "_squadDescription",
          "type": "string"
        },
        {
          "internalType": "string",
          "name": "_baseURI",
          "type": "string"
        },
        {
          "internalType": "string",
          "name": "_contractURI",
          "type": "string"
        }
      ],
      "stateMutability": "nonpayable",
      "type": "constructor"
    },
    {
      "anonymous": false,
      "inputs": [
        {
          "indexed": true,
          "internalType": "address",
          "name": "owner",
          "type": "address"
        },
        {
          "indexed": true,
          "internalType": "address",
          "name": "operator",
          "type": "address"
        },
        {
          "indexed": false,
          "internalType": "bool",
          "name": "approved",
          "type": "bool"
        }
      ],
      "name": "ApprovalForAll",
      "type": "event"
    },
    {
      "anonymous": false,
      "inputs": [
        {
          "indexed": true,
          "internalType": "address",
          "name": "previousOwner",
          "type": "address"
        },
        {
          "indexed": true,
          "internalType": "address",
          "name": "newOwner",
          "type": "address"
        }
      ],
      "name": "OwnershipTransferred",
      "type": "event"
    },
    {
      "anonymous": false,
      "inputs": [
        {
          "indexed": false,
          "internalType": "uint256",
          "name": "id",
          "type": "uint256"
        }
      ],
      "name": "ProposalCancelled",
      "type": "event"
    },
    {
      "anonymous": false,
      "inputs": [
        {
          "indexed": false,
          "internalType": "uint256",
          "name": "id",
          "type": "uint256"
        },
        {
          "indexed": false,
          "internalType": "address",
          "name": "proposer",
          "type": "address"
        },
        {
          "indexed": false,
          "internalType": "uint256",
          "name": "assetId",
          "type": "uint256"
        }
      ],
      "name": "ProposalCreated",
      "type": "event"
    },
    {
      "anonymous": false,
      "inputs": [
        {
          "indexed": false,
          "internalType": "uint256",
          "name": "id",
          "type": "uint256"
        }
      ],
      "name": "ProposalExecuted",
      "type": "event"
    },
    {
      "anonymous": false,
      "inputs": [
        {
          "indexed": true,
          "internalType": "address",
          "name": "voter",
          "type": "address"
        },
        {
          "indexed": false,
          "internalType": "uint256",
          "name": "proposalId",
          "type": "uint256"
        },
        {
          "indexed": false,
          "internalType": "bool",
          "name": "support",
          "type": "bool"
        }
      ],
      "name": "ProposalVoted",
      "type": "event"
    },
    {
      "anonymous": false,
      "inputs": [
        {
          "indexed": true,
          "internalType": "address",
          "name": "operator",
          "type": "address"
        },
        {
          "indexed": true,
          "internalType": "address",
          "name": "from",
          "type": "address"
        },
        {
          "indexed": true,
          "internalType": "address",
          "name": "to",
          "type": "address"
        },
        {
          "indexed": false,
          "internalType": "uint256[]",
          "name": "ids",
          "type": "uint256[]"
        },
        {
          "indexed": false,
          "internalType": "uint256[]",
          "name": "amounts",
          "type": "uint256[]"
        }
      ],
      "name": "TransferBatch",
      "type": "event"
    },
    {
      "anonymous": false,
      "inputs": [
        {
          "indexed": true,
          "internalType": "address",
          "name": "operator",
          "type": "address"
        },
        {
          "indexed": true,
          "internalType": "address",
          "name": "from",
          "type": "address"
        },
        {
          "indexed": true,
          "internalType": "address",
          "name": "to",
          "type": "address"
        },
        {
          "indexed": false,
          "internalType": "uint256",
          "name": "id",
          "type": "uint256"
        },
        {
          "indexed": false,
          "internalType": "uint256",
          "name": "amount",
          "type": "uint256"
        }
      ],
      "name": "TransferSingle",
      "type": "event"
    },
    {
      "anonymous": false,
      "inputs": [
        {
          "indexed": false,
          "internalType": "string",
          "name": "value",
          "type": "string"
        },
        {
          "indexed": true,
          "internalType": "uint256",
          "name": "id",
          "type": "uint256"
        }
      ],
      "name": "URI",
      "type": "event"
    },
    {
      "inputs": [
        {
          "internalType": "uint256",
          "name": "",
          "type": "uint256"
        }
      ],
      "name": "assets",
      "outputs": [
        {
          "internalType": "string",
          "name": "uri",
          "type": "string"
        },
        {
          "internalType": "uint256",
          "name": "assetId",
          "type": "uint256"
        }
      ],
      "stateMutability": "view",
      "type": "function"
    },
    {
      "inputs": [
        {
          "internalType": "address",
          "name": "",
          "type": "address"
        },
        {
          "internalType": "uint256",
          "name": "",
          "type": "uint256"
        }
      ],
      "name": "balanceOf",
      "outputs": [
        {
          "internalType": "uint256",
          "name": "",
          "type": "uint256"
        }
      ],
      "stateMutability": "view",
      "type": "function"
    },
    {
      "inputs": [
        {
          "internalType": "address[]",
          "name": "owners",
          "type": "address[]"
        },
        {
          "internalType": "uint256[]",
          "name": "ids",
          "type": "uint256[]"
        }
      ],
      "name": "balanceOfBatch",
      "outputs": [
        {
          "internalType": "uint256[]",
          "name": "balances",
          "type": "uint256[]"
        }
      ],
      "stateMutability": "view",
      "type": "function"
    },
    {
      "inputs": [],
      "name": "baseURI",
      "outputs": [
        {
          "internalType": "string",
          "name": "",
          "type": "string"
        }
      ],
      "stateMutability": "view",
      "type": "function"
    },
    {
      "inputs": [],
      "name": "collectibleEditions",
      "outputs": [
        {
          "internalType": "uint256",
          "name": "",
          "type": "uint256"
        }
      ],
      "stateMutability": "view",
      "type": "function"
    },
    {
      "inputs": [
        {
          "internalType": "uint256",
          "name": "",
          "type": "uint256"
        }
      ],
      "name": "collectibles",
      "outputs": [
        {
          "internalType": "bytes",
          "name": "metadata",
          "type": "bytes"
        },
        {
          "internalType": "bool",
          "name": "created",
          "type": "bool"
        },
        {
          "internalType": "address",
          "name": "minter",
          "type": "address"
        }
      ],
      "stateMutability": "view",
      "type": "function"
    },
    {
      "inputs": [
        {
          "internalType": "address",
          "name": "",
          "type": "address"
        }
      ],
      "name": "collectiblesEarned",
      "outputs": [
        {
          "internalType": "uint256",
          "name": "",
          "type": "uint256"
        }
      ],
      "stateMutability": "view",
      "type": "function"
    },
    {
      "inputs": [],
      "name": "contractURI",
      "outputs": [
        {
          "internalType": "string",
          "name": "",
          "type": "string"
        }
      ],
      "stateMutability": "view",
      "type": "function"
    },
    {
      "inputs": [
        {
          "internalType": "uint256",
          "name": "tokenId",
          "type": "uint256"
        },
        {
          "internalType": "bytes",
          "name": "metadataLink",
          "type": "bytes"
        }
      ],
      "name": "createNewCollectible",
      "outputs": [],
      "stateMutability": "nonpayable",
      "type": "function"
    },
    {
      "inputs": [],
      "name": "getAssets",
      "outputs": [
        {
          "components": [
            {
              "internalType": "string",
              "name": "uri",
              "type": "string"
            },
            {
              "internalType": "uint256",
              "name": "assetId",
              "type": "uint256"
            }
          ],
          "internalType": "struct Squad.Asset[]",
          "name": "",
          "type": "tuple[]"
        }
      ],
      "stateMutability": "view",
      "type": "function"
    },
    {
      "inputs": [],
      "name": "getCollectiblesEarned",
      "outputs": [
        {
          "internalType": "uint256",
          "name": "",
          "type": "uint256"
        }
      ],
      "stateMutability": "view",
      "type": "function"
    },
    {
      "inputs": [],
      "name": "getMembers",
      "outputs": [
        {
          "internalType": "address[]",
          "name": "",
          "type": "address[]"
        }
      ],
      "stateMutability": "view",
      "type": "function"
    },
    {
      "inputs": [],
      "name": "getMembersData",
      "outputs": [
        {
          "components": [
            {
              "internalType": "address",
              "name": "memberAddress",
              "type": "address"
            },
            {
              "internalType": "uint256",
              "name": "wins",
              "type": "uint256"
            }
          ],
          "internalType": "struct Squad.Member[]",
          "name": "",
          "type": "tuple[]"
        }
      ],
      "stateMutability": "view",
      "type": "function"
    },
    {
      "inputs": [],
      "name": "getProposals",
      "outputs": [
        {
          "components": [
            {
              "internalType": "uint256",
              "name": "id",
              "type": "uint256"
            },
            {
              "internalType": "uint256",
              "name": "assetId",
              "type": "uint256"
            },
            {
              "internalType": "string",
              "name": "assetUri",
              "type": "string"
            },
            {
              "internalType": "address",
              "name": "proposer",
              "type": "address"
            },
            {
              "internalType": "string",
              "name": "description",
              "type": "string"
            },
            {
              "internalType": "uint256",
              "name": "forVotes",
              "type": "uint256"
            },
            {
              "internalType": "uint256",
              "name": "againstVotes",
              "type": "uint256"
            },
            {
              "internalType": "bool",
              "name": "cancelled",
              "type": "bool"
            },
            {
              "internalType": "bool",
              "name": "executed",
              "type": "bool"
            }
          ],
          "internalType": "struct Squad.Proposal[]",
          "name": "",
          "type": "tuple[]"
        }
      ],
      "stateMutability": "view",
      "type": "function"
    },
    {
      "inputs": [],
      "name": "getSquadInfo",
      "outputs": [
        {
          "internalType": "bytes32",
          "name": "",
          "type": "bytes32"
        }
      ],
      "stateMutability": "view",
      "type": "function"
    },
    {
      "inputs": [
        {
          "internalType": "address",
          "name": "",
          "type": "address"
        },
        {
          "internalType": "address",
          "name": "",
          "type": "address"
        }
      ],
      "name": "isApprovedForAll",
      "outputs": [
        {
          "internalType": "bool",
          "name": "",
          "type": "bool"
        }
      ],
      "stateMutability": "view",
      "type": "function"
    },
    {
      "inputs": [
        {
          "internalType": "address",
          "name": "_address",
          "type": "address"
        }
      ],
      "name": "isMember",
      "outputs": [
        {
          "internalType": "bool",
          "name": "",
          "type": "bool"
        }
      ],
      "stateMutability": "view",
      "type": "function"
    },
    {
      "inputs": [],
      "name": "join",
      "outputs": [],
      "stateMutability": "nonpayable",
      "type": "function"
    },
    {
      "inputs": [
        {
          "internalType": "address",
          "name": "",
          "type": "address"
        }
      ],
      "name": "members",
      "outputs": [
        {
          "internalType": "bool",
          "name": "",
          "type": "bool"
        }
      ],
      "stateMutability": "view",
      "type": "function"
    },
    {
      "inputs": [],
      "name": "name",
      "outputs": [
        {
          "internalType": "string",
          "name": "",
          "type": "string"
        }
      ],
      "stateMutability": "view",
      "type": "function"
    },
    {
      "inputs": [],
      "name": "owner",
      "outputs": [
        {
          "internalType": "address",
          "name": "",
          "type": "address"
        }
      ],
      "stateMutability": "view",
      "type": "function"
    },
    {
      "inputs": [
        {
          "internalType": "uint256",
          "name": "",
          "type": "uint256"
        }
      ],
      "name": "proposals",
      "outputs": [
        {
          "internalType": "uint256",
          "name": "id",
          "type": "uint256"
        },
        {
          "internalType": "uint256",
          "name": "assetId",
          "type": "uint256"
        },
        {
          "internalType": "string",
          "name": "assetUri",
          "type": "string"
        },
        {
          "internalType": "address",
          "name": "proposer",
          "type": "address"
        },
        {
          "internalType": "string",
          "name": "description",
          "type": "string"
        },
        {
          "internalType": "uint256",
          "name": "forVotes",
          "type": "uint256"
        },
        {
          "internalType": "uint256",
          "name": "againstVotes",
          "type": "uint256"
        },
        {
          "internalType": "bool",
          "name": "cancelled",
          "type": "bool"
        },
        {
          "internalType": "bool",
          "name": "executed",
          "type": "bool"
        }
      ],
      "stateMutability": "view",
      "type": "function"
    },
    {
      "inputs": [
        {
          "internalType": "uint256",
          "name": "_assetId",
          "type": "uint256"
        },
        {
          "internalType": "string",
          "name": "_description",
          "type": "string"
        },
        {
          "internalType": "string",
          "name": "_uri",
          "type": "string"
        }
      ],
      "name": "proposeUpdate",
      "outputs": [
        {
          "internalType": "uint256",
          "name": "",
          "type": "uint256"
        }
      ],
      "stateMutability": "nonpayable",
      "type": "function"
    },
    {
      "inputs": [
        {
          "internalType": "address",
          "name": "",
          "type": "address"
        }
      ],
      "name": "receipts",
      "outputs": [
        {
          "internalType": "uint256",
          "name": "proposalId",
          "type": "uint256"
        },
        {
          "internalType": "bool",
          "name": "voted",
          "type": "bool"
        },
        {
          "internalType": "bool",
          "name": "support",
          "type": "bool"
        }
      ],
      "stateMutability": "view",
      "type": "function"
    },
    {
      "inputs": [],
      "name": "redeemCollectible",
      "outputs": [],
      "stateMutability": "nonpayable",
      "type": "function"
    },
    {
      "inputs": [],
      "name": "renounceOwnership",
      "outputs": [],
      "stateMutability": "nonpayable",
      "type": "function"
    },
    {
      "inputs": [
        {
          "internalType": "address",
          "name": "from",
          "type": "address"
        },
        {
          "internalType": "address",
          "name": "to",
          "type": "address"
        },
        {
          "internalType": "uint256[]",
          "name": "ids",
          "type": "uint256[]"
        },
        {
          "internalType": "uint256[]",
          "name": "amounts",
          "type": "uint256[]"
        },
        {
          "internalType": "bytes",
          "name": "data",
          "type": "bytes"
        }
      ],
      "name": "safeBatchTransferFrom",
      "outputs": [],
      "stateMutability": "nonpayable",
      "type": "function"
    },
    {
      "inputs": [
        {
          "internalType": "address",
          "name": "from",
          "type": "address"
        },
        {
          "internalType": "address",
          "name": "to",
          "type": "address"
        },
        {
          "internalType": "uint256",
          "name": "id",
          "type": "uint256"
        },
        {
          "internalType": "uint256",
          "name": "amount",
          "type": "uint256"
        },
        {
          "internalType": "bytes",
          "name": "data",
          "type": "bytes"
        }
      ],
      "name": "safeTransferFrom",
      "outputs": [],
      "stateMutability": "nonpayable",
      "type": "function"
    },
    {
      "inputs": [
        {
          "internalType": "address",
          "name": "operator",
          "type": "address"
        },
        {
          "internalType": "bool",
          "name": "approved",
          "type": "bool"
        }
      ],
      "name": "setApprovalForAll",
      "outputs": [],
      "stateMutability": "nonpayable",
      "type": "function"
    },
    {
      "inputs": [
        {
          "internalType": "string",
          "name": "_baseURI",
          "type": "string"
        }
      ],
      "name": "setBaseURI",
      "outputs": [],
      "stateMutability": "nonpayable",
      "type": "function"
    },
    {
      "inputs": [
        {
          "internalType": "string",
          "name": "_contractURI",
          "type": "string"
        }
      ],
      "name": "setContractURI",
      "outputs": [],
      "stateMutability": "nonpayable",
      "type": "function"
    },
    {
      "inputs": [],
      "name": "squadDescription",
      "outputs": [
        {
          "internalType": "string",
          "name": "",
          "type": "string"
        }
      ],
      "stateMutability": "view",
      "type": "function"
    },
    {
      "inputs": [],
      "name": "squadId",
      "outputs": [
        {
          "internalType": "uint256",
          "name": "",
          "type": "uint256"
        }
      ],
      "stateMutability": "view",
      "type": "function"
    },
    {
      "inputs": [
        {
          "internalType": "uint256",
          "name": "",
          "type": "uint256"
        }
      ],
      "name": "squadMembers",
      "outputs": [
        {
          "internalType": "address",
          "name": "",
          "type": "address"
        }
      ],
      "stateMutability": "view",
      "type": "function"
    },
    {
      "inputs": [],
      "name": "squadName",
      "outputs": [
        {
          "internalType": "string",
          "name": "",
          "type": "string"
        }
      ],
      "stateMutability": "view",
      "type": "function"
    },
    {
      "inputs": [
        {
          "internalType": "bytes4",
          "name": "interfaceId",
          "type": "bytes4"
        }
      ],
      "name": "supportsInterface",
      "outputs": [
        {
          "internalType": "bool",
          "name": "",
          "type": "bool"
        }
      ],
      "stateMutability": "view",
      "type": "function"
    },
    {
      "inputs": [],
      "name": "symbol",
      "outputs": [
        {
          "internalType": "string",
          "name": "",
          "type": "string"
        }
      ],
      "stateMutability": "view",
      "type": "function"
    },
    {
      "inputs": [
        {
          "internalType": "address",
          "name": "newOwner",
          "type": "address"
        }
      ],
      "name": "transferOwnership",
      "outputs": [],
      "stateMutability": "nonpayable",
      "type": "function"
    },
    {
      "inputs": [
        {
          "components": [
            {
              "internalType": "string",
              "name": "uri",
              "type": "string"
            },
            {
              "internalType": "uint256",
              "name": "assetId",
              "type": "uint256"
            }
          ],
          "internalType": "struct Squad.Asset",
          "name": "_assets",
          "type": "tuple"
        }
      ],
      "name": "updateAssets",
      "outputs": [],
      "stateMutability": "nonpayable",
      "type": "function"
    },
    {
      "inputs": [
        {
          "internalType": "uint256",
          "name": "id",
          "type": "uint256"
        }
      ],
      "name": "uri",
      "outputs": [
        {
          "internalType": "string",
          "name": "",
          "type": "string"
        }
      ],
      "stateMutability": "view",
      "type": "function"
    },
    {
      "inputs": [
        {
          "internalType": "uint256",
          "name": "proposalId",
          "type": "uint256"
        },
        {
          "internalType": "bool",
          "name": "support",
          "type": "bool"
        }
      ],
      "name": "voteOnProposal",
      "outputs": [],
      "stateMutability": "nonpayable",
      "type": "function"
    },
    {
      "inputs": [
        {
          "internalType": "address payable",
          "name": "to",
          "type": "address"
        }
      ],
      "name": "withdraw",
      "outputs": [],
      "stateMutability": "nonpayable",
      "type": "function"
    }
  ],
  "bytecode": {
    "object": "0x60806040523480156200001157600080fd5b506040516200338f3803806200338f8339810160408190526200003491620001fb565b81816200004133620000e4565b60056200004f83826200034e565b5060066200005e82826200034e565b5050600080525060076020527f6d5257204ebe7d88fd91ae87941cb2dd9d8062b64ae5a2bd2d28ec40b9fbf6e0805430610100026001600160a81b0319909116176001179055600980546001600160a01b03191633179055600e859055600f620000c985826200034e565b506010620000d884826200034e565b5050505050506200041a565b600280546001600160a01b038381166001600160a01b0319831681179093556040519116919082907f8be0079c531659141344cd1fd0a4f28419497f9722a3daafe3b4186f6b6457e090600090a35050565b634e487b7160e01b600052604160045260246000fd5b600082601f8301126200015e57600080fd5b81516001600160401b03808211156200017b576200017b62000136565b604051601f8301601f19908116603f01168101908282118183101715620001a657620001a662000136565b81604052838152602092508683858801011115620001c357600080fd5b600091505b83821015620001e75785820183015181830184015290820190620001c8565b600093810190920192909252949350505050565b600080600080600060a086880312156200021457600080fd5b855160208701519095506001600160401b03808211156200023457600080fd5b6200024289838a016200014c565b955060408801519150808211156200025957600080fd5b6200026789838a016200014c565b945060608801519150808211156200027e57600080fd5b6200028c89838a016200014c565b93506080880151915080821115620002a357600080fd5b50620002b2888289016200014c565b9150509295509295909350565b600181811c90821680620002d457607f821691505b602082108103620002f557634e487b7160e01b600052602260045260246000fd5b50919050565b601f8211156200034957600081815260208120601f850160051c81016020861015620003245750805b601f850160051c820191505b81811015620003455782815560010162000330565b5050505b505050565b81516001600160401b038111156200036a576200036a62000136565b62000382816200037b8454620002bf565b84620002fb565b602080601f831160018114620003ba5760008415620003a15750858301515b600019600386901b1c1916600185901b17855562000345565b600085815260208120601f198616915b82811015620003eb57888601518255948401946001909101908401620003ca565b50858210156200040a5787850151600019600388901b60f8161c191681555b5050505050600190811b01905550565b612f65806200042a6000396000f3fe608060405234801561001057600080fd5b506004361061025d5760003560e01c80636c0360eb11610146578063a230c524116100c3578063d963abb911610087578063d963abb9146105bb578063e4fd69f2146105c3578063e8a3d485146105d6578063e985e9c5146105de578063f242432a1461060c578063f2fde38b1461061f57600080fd5b8063a230c52414610533578063b688a3631461055f578063bcd1010514610567578063cf35bdd014610587578063d30ed960146105a857600080fd5b80638da5cb5b1161010a5780638da5cb5b146104df578063938e3d7b146104f057806395d89b41146105035780639eab52531461050b578063a22cb4651461052057600080fd5b80636c0360eb1461049c578063715018a6146104a45780637e79407b146104ac57806386141e1b146104b55780638a9d1efa146104ca57600080fd5b80632eb2c2d6116101df57806355f804b3116101a357806355f804b3146104245780635e78d078146104375780635fb6dbea1461046257806362564c481461046a57806367e4ac2c1461047f57806369ecdd8b1461049457600080fd5b80632eb2c2d61461038557806347dcb597146103985780634de4797b146103a15780634e1273f4146103f157806351cff8d91461041157600080fd5b806308ae4b0c1161022657806308ae4b0c146103125780630a09859d146103355780630e89341c146103575780631614665c1461036a578063188f937c1461037d57600080fd5b8062fdd58e14610262578063013cf08b1461029d57806301ffc9a7146102c5578063021399ab146102e857806306fdde03146102fd575b600080fd5b61028a6102703660046120ad565b600060208181529281526040808220909352908152205481565b6040519081526020015b60405180910390f35b6102b06102ab3660046120d9565b610632565b60405161029499989796959493929190612142565b6102d86102d33660046121c7565b6107b7565b6040519015158152602001610294565b6102fb6102f63660046121eb565b610809565b005b61030561089f565b6040516102949190612225565b6102d8610320366004612238565b600b6020526000908152604090205460ff1681565b6103486103433660046120d9565b61092d565b60405161029493929190612255565b6103056103653660046120d9565b6109e5565b6102fb61037836600461229d565b610aa8565b610305610b74565b6102fb610393366004612355565b610b81565b61028a600e5481565b6103d46103af366004612238565b6013602052600090815260409020805460019091015460ff8082169161010090041683565b604080519384529115156020840152151590820152606001610294565b6104046103ff366004612413565b610e24565b604051610294919061247e565b6102fb61041f366004612238565b610f58565b6102fb6104323660046124c2565b610ff5565b61044a6104453660046120d9565b611002565b6040516001600160a01b039091168152602001610294565b6102fb61102c565b610472611065565b6040516102949190612503565b61048761124d565b60405161029491906125f5565b61030561133f565b61030561134c565b6102fb611359565b61028a60085481565b6104bd61136d565b604051610294919061265d565b336000908152600c602052604090205461028a565b6002546001600160a01b031661044a565b6102fb6104fe3660046124c2565b6114a2565b6103056114af565b6105136114bc565b60405161029491906126b5565b6102fb61052e3660046126f6565b61151e565b6102d8610541366004612238565b6001600160a01b03166000908152600b602052604090205460ff1690565b6102fb61158a565b61028a610575366004612238565b600c6020526000908152604090205481565b61059a6105953660046120d9565b61163d565b604051610294929190612722565b61028a6105b63660046127e6565b6116f9565b61028a6118e6565b6102fb6105d1366004612852565b61191c565b6103056119cc565b6102d86105ec36600461289d565b600160209081526000928352604080842090915290825290205460ff1681565b6102fb61061a3660046128d6565b6119d9565b6102fb61062d366004612238565b611bd3565b6011818154811061064257600080fd5b906000526020600020906008020160009150905080600001549080600101549080600201805461067190612951565b80601f016020809104026020016040519081016040528092919081815260200182805461069d90612951565b80156106ea5780601f106106bf576101008083540402835291602001916106ea565b820191906000526020600020905b8154815290600101906020018083116106cd57829003601f168201915b505050600384015460048501805494956001600160a01b0390921694919350915061071490612951565b80601f016020809104026020016040519081016040528092919081815260200182805461074090612951565b801561078d5780601f106107625761010080835404028352916020019161078d565b820191906000526020600020905b81548152906001019060200180831161077057829003601f168201915b50505050600583015460068401546007909401549293909290915060ff8082169161010090041689565b60006301ffc9a760e01b6001600160e01b0319831614806107e85750636cdb3d1360e11b6001600160e01b03198316145b8061080357506303a24d0760e21b6001600160e01b03198316145b92915050565b6009546001600160a01b031633146108595760405162461bcd60e51b815260206004820152600e60248201526d139bdb8810591b5a5b8810d85b1b60921b60448201526064015b60405180910390fd5b6012805460018101825560009190915281906002027fbb8a6a4669ba250d26cd7a459eca9d215f8307e33aebe50379bc5a3617ec34440161089a8282612a9a565b505050565b600380546108ac90612951565b80601f01602080910402602001604051908101604052809291908181526020018280546108d890612951565b80156109255780601f106108fa57610100808354040283529160200191610925565b820191906000526020600020905b81548152906001019060200180831161090857829003601f168201915b505050505081565b60076020526000908152604090208054819061094890612951565b80601f016020809104026020016040519081016040528092919081815260200182805461097490612951565b80156109c15780601f10610996576101008083540402835291602001916109c1565b820191906000526020600020905b8154815290600101906020018083116109a457829003601f168201915b5050506001909301549192505060ff8116906001600160a01b036101009091041683565b60606000600580546109f690612951565b80601f0160208091040260200160405190810160405280929190818152602001828054610a2290612951565b8015610a6f5780601f10610a4457610100808354040283529160200191610a6f565b820191906000526020600020905b815481529060010190602001808311610a5257829003601f168201915b5050505050905080610a8084611c4c565b604051602001610a91929190612b8c565b604051602081830303815290604052915050919050565b600060118381548110610abd57610abd612bbb565b6000918252602080832033845260139091526040909220600890910290910191508215610afe576005820154610af4906001612be7565b6005830155610b14565b6006820154610b0e906001612be7565b60068301555b6001818101805461ffff191661010086151590810291909117909217905560408051868152602081019290925233917fd30ac21a886171cfc6e0046ee7856df867d5007f0e95d20c98914472ec2b9402910160405180910390a250505050565b600f80546108ac90612951565b848314610bc25760405162461bcd60e51b815260206004820152600f60248201526e0988a9c8ea890be9a92a69a82a8869608b1b6044820152606401610850565b336001600160a01b0389161480610bfc57506001600160a01b038816600090815260016020908152604080832033845290915290205460ff165b610c395760405162461bcd60e51b815260206004820152600e60248201526d1393d517d055551213d49256915160921b6044820152606401610850565b60008060005b87811015610cf457888882818110610c5957610c59612bbb565b905060200201359250868682818110610c7457610c74612bbb565b6001600160a01b038e1660009081526020818152604080832089845282528220805493909102949094013595508593925090610cb1908490612bfa565b90915550506001600160a01b038a1660009081526020818152604080832086845290915281208054849290610ce7908490612be7565b9091555050600101610c3f565b50886001600160a01b03168a6001600160a01b0316336001600160a01b03167f4a39dc06d4c0dbc64b70af90fd698a233a518aa5d07e595d983b8c0526c8f7fb8b8b8b8b604051610d489493929190612c3f565b60405180910390a46001600160a01b0389163b15610def5760405163bc197c8160e01b808252906001600160a01b038b169063bc197c8190610d9c9033908f908e908e908e908e908e908e90600401612c9a565b6020604051808303816000875af1158015610dbb573d6000803e3d6000fd5b505050506040513d601f19601f82011682018060405250810190610ddf9190612cfe565b6001600160e01b03191614610dfc565b6001600160a01b03891615155b610e185760405162461bcd60e51b815260040161085090612d1b565b50505050505050505050565b6060838214610e675760405162461bcd60e51b815260206004820152600f60248201526e0988a9c8ea890be9a92a69a82a8869608b1b6044820152606401610850565b836001600160401b03811115610e7f57610e7f612744565b604051908082528060200260200182016040528015610ea8578160200160208202803683370190505b50905060005b84811015610f4f57600080878784818110610ecb57610ecb612bbb565b9050602002016020810190610ee09190612238565b6001600160a01b03166001600160a01b031681526020019081526020016000206000858584818110610f1457610f14612bbb565b90506020020135815260200190815260200160002054828281518110610f3c57610f3c612bbb565b6020908102919091010152600101610eae565b50949350505050565b610f60611cde565b60405147906000906001600160a01b0384169083908381818185875af1925050503d8060008114610fad576040519150601f19603f3d011682016040523d82523d6000602084013e610fb2565b606091505b505090508061089a5760405162461bcd60e51b815260206004820152600f60248201526e151c985b9cd9995c8819985a5b1959608a1b6044820152606401610850565b600561089a8284836129e0565b600a818154811061101257600080fd5b6000918252602090912001546001600160a01b0316905081565b61103833600d54611d38565b336000908152600c6020526040902054611053906001612be7565b336000908152600c6020526040902055565b60606011805480602002602001604051908101604052809291908181526020016000905b8282101561124457838290600052602060002090600802016040518061012001604052908160008201548152602001600182015481526020016002820180546110d190612951565b80601f01602080910402602001604051908101604052809291908181526020018280546110fd90612951565b801561114a5780601f1061111f5761010080835404028352916020019161114a565b820191906000526020600020905b81548152906001019060200180831161112d57829003601f168201915b505050918352505060038201546001600160a01b0316602082015260048201805460409092019161117a90612951565b80601f01602080910402602001604051908101604052809291908181526020018280546111a690612951565b80156111f35780601f106111c8576101008083540402835291602001916111f3565b820191906000526020600020905b8154815290600101906020018083116111d657829003601f168201915b505050918352505060058201546020808301919091526006830154604083015260079092015460ff808216151560608401526101009091041615156080909101529082526001929092019101611089565b50505050905090565b60606012805480602002602001604051908101604052809291908181526020016000905b8282101561124457838290600052602060002090600202016040518060400160405290816000820180546112a490612951565b80601f01602080910402602001604051908101604052809291908181526020018280546112d090612951565b801561131d5780601f106112f25761010080835404028352916020019161131d565b820191906000526020600020905b81548152906001019060200180831161130057829003601f168201915b5050505050815260200160018201548152505081526020019060010190611271565b601080546108ac90612951565b600580546108ac90612951565b611361611cde565b61136b6000611e06565b565b600a546060906000906001600160401b0381111561138d5761138d612744565b6040519080825280602002602001820160405280156113d257816020015b60408051808201909152600080825260208201528152602001906001900390816113ab5790505b50905060005b600a5481101561149c576040518060400160405280600a838154811061140057611400612bbb565b9060005260206000200160009054906101000a90046001600160a01b03166001600160a01b03168152602001600c6000600a858154811061144357611443612bbb565b60009182526020808320909101546001600160a01b031683528201929092526040019020549052825183908390811061147e5761147e612bbb565b6020026020010181905250808061149490612d45565b9150506113d8565b50919050565b600661089a8284836129e0565b600480546108ac90612951565b6060600a80548060200260200160405190810160405280929190818152602001828054801561151457602002820191906000526020600020905b81546001600160a01b031681526001909101906020018083116114f6575b5050505050905090565b3360008181526001602090815260408083206001600160a01b03871680855290835292819020805460ff191686151590811790915590519081529192917f17307eab39ab6107e8899845ad3d59bd9653f200f220920489ca2b5937696c31910160405180910390a35050565b6009546001600160a01b031633146115d55760405162461bcd60e51b815260206004820152600e60248201526d139bdb8810591b5a5b8810d85b1b60921b6044820152606401610850565b6115e133600e54611e58565b600a805460018181019092557fc65a7bb8d6351c1cf70c95a316cc6a92839c986682d98bc35f958f4883f9d2a80180546001600160a01b031916339081179091556000908152600b60205260409020805460ff19169091179055565b6012818154811061164d57600080fd5b906000526020600020906002020160009150905080600001805461167090612951565b80601f016020809104026020016040519081016040528092919081815260200182805461169c90612951565b80156116e95780601f106116be576101008083540402835291602001916116e9565b820191906000526020600020905b8154815290600101906020018083116116cc57829003601f168201915b5050505050908060010154905082565b600061175760405180610120016040528060008152602001600081526020016060815260200160006001600160a01b031681526020016060815260200160008152602001600081526020016000151581526020016000151581525090565b601154611765906001612be7565b815233606082015260808101849052602081018581526040820184815260118054600181018255600091909152835160089091027f31ecc21a745e3968a04e9570e4425bc18fa8019c68028196b546d1669c200c68810191825592517f31ecc21a745e3968a04e9570e4425bc18fa8019c68028196b546d1669c200c69840155905183927f31ecc21a745e3968a04e9570e4425bc18fa8019c68028196b546d1669c200c6a01906118169082612d5e565b5060608201516003820180546001600160a01b0319166001600160a01b03909216919091179055608082015160048201906118519082612d5e565b5060a0820151600582015560c0820151600682015560e0820151600790910180546101009384015161ffff1990911692151561ff001916929092179115159092021790558051602080830151604080519384523392840192909252908201527f3417b456fad6209c73445d5efd446d686e75e4560f0f50c13b5a5cde976447b49060600160405180910390a151949350505050565b6000600e54600f601060405160200161190193929190612e8a565b60405160208183030381529060405280519060200120905090565b611924611cde565b60008381526007602052604090206001015460ff16156119905760405162461bcd60e51b815260206004820152602160248201527f436f6c6c65637469626c6520746f6b656e20616c7265616479206372656174656044820152601960fa1b6064820152608401610850565b60008381526007602052604090206119a98284836129e0565b50505060009081526007602052604090206001908101805460ff19169091179055565b600680546108ac90612951565b336001600160a01b0387161480611a1357506001600160a01b038616600090815260016020908152604080832033845290915290205460ff165b611a505760405162461bcd60e51b815260206004820152600e60248201526d1393d517d055551213d49256915160921b6044820152606401610850565b6001600160a01b03861660009081526020818152604080832087845290915281208054859290611a81908490612bfa565b90915550506001600160a01b03851660009081526020818152604080832087845290915281208054859290611ab7908490612be7565b909155505060408051858152602081018590526001600160a01b03808816929089169133917fc3d58168c5ae7397731d063d5bbf3d657854427343f4c083240f7aacaa2d0f62910160405180910390a46001600160a01b0385163b15611ba25760405163f23a6e6160e01b808252906001600160a01b0387169063f23a6e6190611b4f9033908b908a908a908a908a90600401612eae565b6020604051808303816000875af1158015611b6e573d6000803e3d6000fd5b505050506040513d601f19601f82011682018060405250810190611b929190612cfe565b6001600160e01b03191614611baf565b6001600160a01b03851615155b611bcb5760405162461bcd60e51b815260040161085090612d1b565b505050505050565b611bdb611cde565b6001600160a01b038116611c405760405162461bcd60e51b815260206004820152602660248201527f4f776e61626c653a206e6577206f776e657220697320746865207a65726f206160448201526564647265737360d01b6064820152608401610850565b611c4981611e06565b50565b60606000611c5983611e78565b60010190506000816001600160401b03811115611c7857611c78612744565b6040519080825280601f01601f191660200182016040528015611ca2576020820181803683370190505b5090508181016020015b600019016f181899199a1a9b1b9c1cb0b131b232b360811b600a86061a8153600a8504945084611cac57509392505050565b6002546001600160a01b0316331461136b5760405162461bcd60e51b815260206004820181905260248201527f4f776e61626c653a2063616c6c6572206973206e6f7420746865206f776e65726044820152606401610850565b8060008111611d895760405162461bcd60e51b815260206004820181905260248201527f436f6c6c65637469626c652063616e6e6f7420626520612073717561642069646044820152606401610850565b60008281526007602052604090206001015460ff16611dea5760405162461bcd60e51b815260206004820152601d60248201527f436f6c6c65637469626c6520746f6b656e206e6f7420637265617465640000006044820152606401610850565b61089a8383600160405180602001604052806000815250611f50565b600280546001600160a01b038381166001600160a01b0319831681179093556040519116919082907f8be0079c531659141344cd1fd0a4f28419497f9722a3daafe3b4186f6b6457e090600090a35050565b611e748282600160405180602001604052806000815250611f50565b5050565b60008072184f03e93ff9f4daa797ed6e38ed64bf6a1f0160401b8310611eb75772184f03e93ff9f4daa797ed6e38ed64bf6a1f0160401b830492506040015b6d04ee2d6d415b85acef81000000008310611ee3576d04ee2d6d415b85acef8100000000830492506020015b662386f26fc100008310611f0157662386f26fc10000830492506010015b6305f5e1008310611f19576305f5e100830492506008015b6127108310611f2d57612710830492506004015b60648310611f3f576064830492506002015b600a83106108035760010192915050565b6001600160a01b03841660009081526020818152604080832086845290915281208054849290611f81908490612be7565b909155505060408051848152602081018490526001600160a01b0386169160009133917fc3d58168c5ae7397731d063d5bbf3d657854427343f4c083240f7aacaa2d0f62910160405180910390a46001600160a01b0384163b156120695760405163f23a6e6160e01b808252906001600160a01b0386169063f23a6e6190612016903390600090899089908990600401612ef5565b6020604051808303816000875af1158015612035573d6000803e3d6000fd5b505050506040513d601f19601f820116820180604052508101906120599190612cfe565b6001600160e01b03191614612076565b6001600160a01b03841615155b6120925760405162461bcd60e51b815260040161085090612d1b565b50505050565b6001600160a01b0381168114611c4957600080fd5b600080604083850312156120c057600080fd5b82356120cb81612098565b946020939093013593505050565b6000602082840312156120eb57600080fd5b5035919050565b60005b8381101561210d5781810151838201526020016120f5565b50506000910152565b6000815180845261212e8160208601602086016120f2565b601f01601f19169290920160200192915050565b60006101208b83528a60208401528060408401526121628184018b612116565b6001600160a01b038a166060850152838103608085015290506121858189612116565b60a0840197909752505060c081019390935290151560e083015215156101009091015295945050505050565b6001600160e01b031981168114611c4957600080fd5b6000602082840312156121d957600080fd5b81356121e4816121b1565b9392505050565b6000602082840312156121fd57600080fd5b81356001600160401b0381111561221357600080fd5b8201604081850312156121e457600080fd5b6020815260006121e46020830184612116565b60006020828403121561224a57600080fd5b81356121e481612098565b6060815260006122686060830186612116565b9315156020830152506001600160a01b0391909116604090910152919050565b8035801515811461229857600080fd5b919050565b600080604083850312156122b057600080fd5b823591506122c060208401612288565b90509250929050565b60008083601f8401126122db57600080fd5b5081356001600160401b038111156122f257600080fd5b6020830191508360208260051b850101111561230d57600080fd5b9250929050565b60008083601f84011261232657600080fd5b5081356001600160401b0381111561233d57600080fd5b60208301915083602082850101111561230d57600080fd5b60008060008060008060008060a0898b03121561237157600080fd5b883561237c81612098565b9750602089013561238c81612098565b965060408901356001600160401b03808211156123a857600080fd5b6123b48c838d016122c9565b909850965060608b01359150808211156123cd57600080fd5b6123d98c838d016122c9565b909650945060808b01359150808211156123f257600080fd5b506123ff8b828c01612314565b999c989b5096995094979396929594505050565b6000806000806040858703121561242957600080fd5b84356001600160401b038082111561244057600080fd5b61244c888389016122c9565b9096509450602087013591508082111561246557600080fd5b50612472878288016122c9565b95989497509550505050565b6020808252825182820181905260009190848201906040850190845b818110156124b65783518352928401929184019160010161249a565b50909695505050505050565b600080602083850312156124d557600080fd5b82356001600160401b038111156124eb57600080fd5b6124f785828601612314565b90969095509350505050565b60006020808301818452808551808352604092508286019150828160051b87010184880160005b838110156125e757603f19898403018552815161012081518552888201518986015287820151818987015261256182870182612116565b91505060608083015161257e828801826001600160a01b03169052565b5050608080830151868303828801526125978382612116565b9250505060a080830151818701525060c080830151818701525060e0808301516125c48288018215159052565b50506101009182015115159490910193909352938601939086019060010161252a565b509098975050505050505050565b60006020808301818452808551808352604092508286019150828160051b87010184880160005b838110156125e757888303603f190185528151805187855261264088860182612116565b91890151948901949094529487019492509086019060010161261c565b602080825282518282018190526000919060409081850190868401855b828110156126a857815180516001600160a01b0316855286015186850152928401929085019060010161267a565b5091979650505050505050565b6020808252825182820181905260009190848201906040850190845b818110156124b65783516001600160a01b0316835292840192918401916001016126d1565b6000806040838503121561270957600080fd5b823561271481612098565b91506122c060208401612288565b6040815260006127356040830185612116565b90508260208301529392505050565b634e487b7160e01b600052604160045260246000fd5b600082601f83011261276b57600080fd5b81356001600160401b038082111561278557612785612744565b604051601f8301601f19908116603f011681019082821181831017156127ad576127ad612744565b816040528381528660208588010111156127c657600080fd5b836020870160208301376000602085830101528094505050505092915050565b6000806000606084860312156127fb57600080fd5b8335925060208401356001600160401b038082111561281957600080fd5b6128258783880161275a565b9350604086013591508082111561283b57600080fd5b506128488682870161275a565b9150509250925092565b60008060006040848603121561286757600080fd5b8335925060208401356001600160401b0381111561288457600080fd5b61289086828701612314565b9497909650939450505050565b600080604083850312156128b057600080fd5b82356128bb81612098565b915060208301356128cb81612098565b809150509250929050565b60008060008060008060a087890312156128ef57600080fd5b86356128fa81612098565b9550602087013561290a81612098565b9450604087013593506060870135925060808701356001600160401b0381111561293357600080fd5b61293f89828a01612314565b979a9699509497509295939492505050565b600181811c9082168061296557607f821691505b60208210810361149c57634e487b7160e01b600052602260045260246000fd5b601f82111561089a57600081815260208120601f850160051c810160208610156129ac5750805b601f850160051c820191505b81811015611bcb578281556001016129b8565b600019600383901b1c191660019190911b1790565b6001600160401b038311156129f7576129f7612744565b612a0b83612a058354612951565b83612985565b6000601f841160018114612a395760008515612a275750838201355b612a3186826129cb565b845550612a93565b600083815260209020601f19861690835b82811015612a6a5786850135825560209485019460019092019101612a4a565b5086821015612a875760001960f88860031b161c19848701351681555b505060018560011b0183555b5050505050565b8135601e19833603018112612aae57600080fd5b820180356001600160401b03811115612ac657600080fd5b60208136038184011315612ad957600080fd5b612aed82612ae78654612951565b86612985565b6000601f831160018114612b1d5760008415612b0b57508482018301355b612b1585826129cb565b875550612b7a565b600086815260209020601f19851690835b82811015612b4f578785018601358255938501936001909101908501612b2e565b5085821015612b6e5760001960f88760031b161c198585890101351681555b505060018460011b0186555b50508085013560018501555050505050565b60008351612b9e8184602088016120f2565b835190830190612bb28183602088016120f2565b01949350505050565b634e487b7160e01b600052603260045260246000fd5b634e487b7160e01b600052601160045260246000fd5b8082018082111561080357610803612bd1565b8181038181111561080357610803612bd1565b81835260006001600160fb1b03831115612c2657600080fd5b8260051b80836020870137939093016020019392505050565b604081526000612c53604083018688612c0d565b8281036020840152612c66818587612c0d565b979650505050505050565b81835281816020850137506000828201602090810191909152601f909101601f19169091010190565b6001600160a01b0389811682528816602082015260a060408201819052600090612cc7908301888a612c0d565b8281036060840152612cda818789612c0d565b90508281036080840152612cef818587612c71565b9b9a5050505050505050505050565b600060208284031215612d1057600080fd5b81516121e4816121b1565b60208082526010908201526f155394d0519157d49150d2541251539560821b604082015260600190565b600060018201612d5757612d57612bd1565b5060010190565b81516001600160401b03811115612d7757612d77612744565b612d8b81612d858454612951565b84612985565b602080601f831160018114612dba5760008415612da85750858301515b612db285826129cb565b865550611bcb565b600085815260208120601f198616915b82811015612de957888601518255948401946001909101908401612dca565b5085821015612e075787850151600019600388901b60f8161c191681555b5050505050600190811b01905550565b60008154612e2481612951565b60018281168015612e3c5760018114612e5157612e80565b60ff1984168752821515830287019450612e80565b8560005260208060002060005b85811015612e775781548a820152908401908201612e5e565b50505082870194505b5050505092915050565b8381526000612ea5612e9f6020840186612e17565b84612e17565b95945050505050565b6001600160a01b03878116825286166020820152604081018590526060810184905260a060808201819052600090612ee99083018486612c71565b98975050505050505050565b6001600160a01b03868116825285166020820152604081018490526060810183905260a060808201819052600090612c669083018461211656fea26469706673582212205036b0a36d453ded04979cbe330869bc8f358690688392c9d3e2cf1416af8db464736f6c63430008110033",
    "linkReferences": {}
  },
  "methodIdentifiers": {
    "assets(uint256)": "cf35bdd0",
    "balanceOf(address,uint256)": "00fdd58e",
    "balanceOfBatch(address[],uint256[])": "4e1273f4",
    "baseURI()": "6c0360eb",
    "collectibleEditions()": "7e79407b",
    "collectibles(uint256)": "0a09859d",
    "collectiblesEarned(address)": "bcd10105",
    "contractURI()": "e8a3d485",
    "createNewCollectible(uint256,bytes)": "e4fd69f2",
    "getAssets()": "67e4ac2c",
    "getCollectiblesEarned()": "8a9d1efa",
    "getMembers()": "9eab5253",
    "getMembersData()": "86141e1b",
    "getProposals()": "62564c48",
    "getSquadInfo()": "d963abb9",
    "isApprovedForAll(address,address)": "e985e9c5",
    "isMember(address)": "a230c524",
    "join()": "b688a363",
    "members(address)": "08ae4b0c",
    "name()": "06fdde03",
    "owner()": "8da5cb5b",
    "proposals(uint256)": "013cf08b",
    "proposeUpdate(uint256,string,string)": "d30ed960",
    "receipts(address)": "4de4797b",
    "redeemCollectible()": "5fb6dbea",
    "renounceOwnership()": "715018a6",
    "safeBatchTransferFrom(address,address,uint256[],uint256[],bytes)": "2eb2c2d6",
    "safeTransferFrom(address,address,uint256,uint256,bytes)": "f242432a",
    "setApprovalForAll(address,bool)": "a22cb465",
    "setBaseURI(string)": "55f804b3",
    "setContractURI(string)": "938e3d7b",
    "squadDescription()": "69ecdd8b",
    "squadId()": "47dcb597",
    "squadMembers(uint256)": "5e78d078",
    "squadName()": "188f937c",
    "supportsInterface(bytes4)": "01ffc9a7",
    "symbol()": "95d89b41",
    "transferOwnership(address)": "f2fde38b",
    "updateAssets((string,uint256))": "021399ab",
    "uri(uint256)": "0e89341c",
    "voteOnProposal(uint256,bool)": "1614665c",
    "withdraw(address)": "51cff8d9"
  },
  "id": 29
}