{
  "abi": [
    {
      "inputs": [
        {
          "internalType": "uint256",
          "name": "_squadId",
          "type": "uint256"
        },
        {
          "internalType": "string",
          "name": "_squadName",
          "type": "string"
        },
        {
          "internalType": "string",
          "name": "_squadDescription",
          "type": "string"
        },
        {
          "internalType": "string",
          "name": "_baseURI",
          "type": "string"
        },
        {
          "internalType": "string",
          "name": "_contractURI",
          "type": "string"
        }
      ],
      "stateMutability": "nonpayable",
      "type": "constructor"
    },
    {
      "anonymous": false,
      "inputs": [
        {
          "indexed": true,
          "internalType": "address",
          "name": "owner",
          "type": "address"
        },
        {
          "indexed": true,
          "internalType": "address",
          "name": "operator",
          "type": "address"
        },
        {
          "indexed": false,
          "internalType": "bool",
          "name": "approved",
          "type": "bool"
        }
      ],
      "name": "ApprovalForAll",
      "type": "event"
    },
    {
      "anonymous": false,
      "inputs": [
        {
          "indexed": true,
          "internalType": "address",
          "name": "previousOwner",
          "type": "address"
        },
        {
          "indexed": true,
          "internalType": "address",
          "name": "newOwner",
          "type": "address"
        }
      ],
      "name": "OwnershipTransferred",
      "type": "event"
    },
    {
      "anonymous": false,
      "inputs": [
        {
          "indexed": false,
          "internalType": "uint256",
          "name": "id",
          "type": "uint256"
        }
      ],
      "name": "ProposalCancelled",
      "type": "event"
    },
    {
      "anonymous": false,
      "inputs": [
        {
          "indexed": false,
          "internalType": "uint256",
          "name": "id",
          "type": "uint256"
        },
        {
          "indexed": false,
          "internalType": "address",
          "name": "proposer",
          "type": "address"
        },
        {
          "indexed": false,
          "internalType": "uint256",
          "name": "assetId",
          "type": "uint256"
        }
      ],
      "name": "ProposalCreated",
      "type": "event"
    },
    {
      "anonymous": false,
      "inputs": [
        {
          "indexed": false,
          "internalType": "uint256",
          "name": "id",
          "type": "uint256"
        }
      ],
      "name": "ProposalExecuted",
      "type": "event"
    },
    {
      "anonymous": false,
      "inputs": [
        {
          "indexed": true,
          "internalType": "address",
          "name": "voter",
          "type": "address"
        },
        {
          "indexed": false,
          "internalType": "uint256",
          "name": "proposalId",
          "type": "uint256"
        },
        {
          "indexed": false,
          "internalType": "bool",
          "name": "support",
          "type": "bool"
        }
      ],
      "name": "ProposalVoted",
      "type": "event"
    },
    {
      "anonymous": false,
      "inputs": [
        {
          "indexed": true,
          "internalType": "address",
          "name": "operator",
          "type": "address"
        },
        {
          "indexed": true,
          "internalType": "address",
          "name": "from",
          "type": "address"
        },
        {
          "indexed": true,
          "internalType": "address",
          "name": "to",
          "type": "address"
        },
        {
          "indexed": false,
          "internalType": "uint256[]",
          "name": "ids",
          "type": "uint256[]"
        },
        {
          "indexed": false,
          "internalType": "uint256[]",
          "name": "amounts",
          "type": "uint256[]"
        }
      ],
      "name": "TransferBatch",
      "type": "event"
    },
    {
      "anonymous": false,
      "inputs": [
        {
          "indexed": true,
          "internalType": "address",
          "name": "operator",
          "type": "address"
        },
        {
          "indexed": true,
          "internalType": "address",
          "name": "from",
          "type": "address"
        },
        {
          "indexed": true,
          "internalType": "address",
          "name": "to",
          "type": "address"
        },
        {
          "indexed": false,
          "internalType": "uint256",
          "name": "id",
          "type": "uint256"
        },
        {
          "indexed": false,
          "internalType": "uint256",
          "name": "amount",
          "type": "uint256"
        }
      ],
      "name": "TransferSingle",
      "type": "event"
    },
    {
      "anonymous": false,
      "inputs": [
        {
          "indexed": false,
          "internalType": "string",
          "name": "value",
          "type": "string"
        },
        {
          "indexed": true,
          "internalType": "uint256",
          "name": "id",
          "type": "uint256"
        }
      ],
      "name": "URI",
      "type": "event"
    },
    {
      "inputs": [
        {
          "internalType": "uint256",
          "name": "",
          "type": "uint256"
        }
      ],
      "name": "assets",
      "outputs": [
        {
          "internalType": "string",
          "name": "uri",
          "type": "string"
        },
        {
          "internalType": "uint256",
          "name": "assetId",
          "type": "uint256"
        }
      ],
      "stateMutability": "view",
      "type": "function"
    },
    {
      "inputs": [
        {
          "internalType": "address",
          "name": "",
          "type": "address"
        },
        {
          "internalType": "uint256",
          "name": "",
          "type": "uint256"
        }
      ],
      "name": "balanceOf",
      "outputs": [
        {
          "internalType": "uint256",
          "name": "",
          "type": "uint256"
        }
      ],
      "stateMutability": "view",
      "type": "function"
    },
    {
      "inputs": [
        {
          "internalType": "address[]",
          "name": "owners",
          "type": "address[]"
        },
        {
          "internalType": "uint256[]",
          "name": "ids",
          "type": "uint256[]"
        }
      ],
      "name": "balanceOfBatch",
      "outputs": [
        {
          "internalType": "uint256[]",
          "name": "balances",
          "type": "uint256[]"
        }
      ],
      "stateMutability": "view",
      "type": "function"
    },
    {
      "inputs": [],
      "name": "baseURI",
      "outputs": [
        {
          "internalType": "string",
          "name": "",
          "type": "string"
        }
      ],
      "stateMutability": "view",
      "type": "function"
    },
    {
      "inputs": [],
      "name": "collectibleEditions",
      "outputs": [
        {
          "internalType": "uint256",
          "name": "",
          "type": "uint256"
        }
      ],
      "stateMutability": "view",
      "type": "function"
    },
    {
      "inputs": [
        {
          "internalType": "uint256",
          "name": "",
          "type": "uint256"
        }
      ],
      "name": "collectibles",
      "outputs": [
        {
          "internalType": "bytes",
          "name": "metadata",
          "type": "bytes"
        },
        {
          "internalType": "bool",
          "name": "created",
          "type": "bool"
        },
        {
          "internalType": "address",
          "name": "minter",
          "type": "address"
        }
      ],
      "stateMutability": "view",
      "type": "function"
    },
    {
      "inputs": [
        {
          "internalType": "address",
          "name": "",
          "type": "address"
        }
      ],
      "name": "collectiblesEarned",
      "outputs": [
        {
          "internalType": "uint256",
          "name": "",
          "type": "uint256"
        }
      ],
      "stateMutability": "view",
      "type": "function"
    },
    {
      "inputs": [],
      "name": "contractURI",
      "outputs": [
        {
          "internalType": "string",
          "name": "",
          "type": "string"
        }
      ],
      "stateMutability": "view",
      "type": "function"
    },
    {
      "inputs": [
        {
          "internalType": "uint256",
          "name": "tokenId",
          "type": "uint256"
        },
        {
          "internalType": "bytes",
          "name": "metadataLink",
          "type": "bytes"
        }
      ],
      "name": "createNewCollectible",
      "outputs": [],
      "stateMutability": "nonpayable",
      "type": "function"
    },
    {
      "inputs": [],
      "name": "getAssets",
      "outputs": [
        {
          "components": [
            {
              "internalType": "string",
              "name": "uri",
              "type": "string"
            },
            {
              "internalType": "uint256",
              "name": "assetId",
              "type": "uint256"
            }
          ],
          "internalType": "struct Squad.Asset[]",
          "name": "",
          "type": "tuple[]"
        }
      ],
      "stateMutability": "view",
      "type": "function"
    },
    {
      "inputs": [],
      "name": "getCollectiblesEarned",
      "outputs": [
        {
          "internalType": "uint256",
          "name": "",
          "type": "uint256"
        }
      ],
      "stateMutability": "view",
      "type": "function"
    },
    {
      "inputs": [],
      "name": "getMembers",
      "outputs": [
        {
          "internalType": "address[]",
          "name": "",
          "type": "address[]"
        }
      ],
      "stateMutability": "view",
      "type": "function"
    },
    {
      "inputs": [],
      "name": "getMembersData",
      "outputs": [
        {
          "components": [
            {
              "internalType": "address",
              "name": "memberAddress",
              "type": "address"
            },
            {
              "internalType": "uint256",
              "name": "wins",
              "type": "uint256"
            }
          ],
          "internalType": "struct Squad.Member[]",
          "name": "",
          "type": "tuple[]"
        }
      ],
      "stateMutability": "view",
      "type": "function"
    },
    {
      "inputs": [],
      "name": "getProposals",
      "outputs": [
        {
          "components": [
            {
              "internalType": "uint256",
              "name": "id",
              "type": "uint256"
            },
            {
              "internalType": "uint256",
              "name": "assetId",
              "type": "uint256"
            },
            {
              "internalType": "string",
              "name": "assetUri",
              "type": "string"
            },
            {
              "internalType": "address",
              "name": "proposer",
              "type": "address"
            },
            {
              "internalType": "string",
              "name": "description",
              "type": "string"
            },
            {
              "internalType": "uint256",
              "name": "forVotes",
              "type": "uint256"
            },
            {
              "internalType": "uint256",
              "name": "againstVotes",
              "type": "uint256"
            },
            {
              "internalType": "uint256",
              "name": "abstainVotes",
              "type": "uint256"
            },
            {
              "internalType": "bool",
              "name": "cancelled",
              "type": "bool"
            },
            {
              "internalType": "bool",
              "name": "executed",
              "type": "bool"
            }
          ],
          "internalType": "struct Squad.Proposal[]",
          "name": "",
          "type": "tuple[]"
        }
      ],
      "stateMutability": "view",
      "type": "function"
    },
    {
      "inputs": [],
      "name": "getSquadInfo",
      "outputs": [
        {
          "internalType": "bytes32",
          "name": "",
          "type": "bytes32"
        }
      ],
      "stateMutability": "view",
      "type": "function"
    },
    {
      "inputs": [
        {
          "internalType": "address",
          "name": "",
          "type": "address"
        },
        {
          "internalType": "address",
          "name": "",
          "type": "address"
        }
      ],
      "name": "isApprovedForAll",
      "outputs": [
        {
          "internalType": "bool",
          "name": "",
          "type": "bool"
        }
      ],
      "stateMutability": "view",
      "type": "function"
    },
    {
      "inputs": [
        {
          "internalType": "address",
          "name": "_address",
          "type": "address"
        }
      ],
      "name": "isMember",
      "outputs": [
        {
          "internalType": "bool",
          "name": "",
          "type": "bool"
        }
      ],
      "stateMutability": "view",
      "type": "function"
    },
    {
      "inputs": [],
      "name": "join",
      "outputs": [],
      "stateMutability": "nonpayable",
      "type": "function"
    },
    {
      "inputs": [
        {
          "internalType": "address",
          "name": "",
          "type": "address"
        }
      ],
      "name": "members",
      "outputs": [
        {
          "internalType": "bool",
          "name": "",
          "type": "bool"
        }
      ],
      "stateMutability": "view",
      "type": "function"
    },
    {
      "inputs": [],
      "name": "name",
      "outputs": [
        {
          "internalType": "string",
          "name": "",
          "type": "string"
        }
      ],
      "stateMutability": "view",
      "type": "function"
    },
    {
      "inputs": [],
      "name": "owner",
      "outputs": [
        {
          "internalType": "address",
          "name": "",
          "type": "address"
        }
      ],
      "stateMutability": "view",
      "type": "function"
    },
    {
      "inputs": [
        {
          "internalType": "uint256",
          "name": "",
          "type": "uint256"
        }
      ],
      "name": "proposals",
      "outputs": [
        {
          "internalType": "uint256",
          "name": "id",
          "type": "uint256"
        },
        {
          "internalType": "uint256",
          "name": "assetId",
          "type": "uint256"
        },
        {
          "internalType": "string",
          "name": "assetUri",
          "type": "string"
        },
        {
          "internalType": "address",
          "name": "proposer",
          "type": "address"
        },
        {
          "internalType": "string",
          "name": "description",
          "type": "string"
        },
        {
          "internalType": "uint256",
          "name": "forVotes",
          "type": "uint256"
        },
        {
          "internalType": "uint256",
          "name": "againstVotes",
          "type": "uint256"
        },
        {
          "internalType": "uint256",
          "name": "abstainVotes",
          "type": "uint256"
        },
        {
          "internalType": "bool",
          "name": "cancelled",
          "type": "bool"
        },
        {
          "internalType": "bool",
          "name": "executed",
          "type": "bool"
        }
      ],
      "stateMutability": "view",
      "type": "function"
    },
    {
      "inputs": [
        {
          "internalType": "uint256",
          "name": "_assetId",
          "type": "uint256"
        },
        {
          "internalType": "string",
          "name": "_description",
          "type": "string"
        },
        {
          "internalType": "string",
          "name": "_uri",
          "type": "string"
        }
      ],
      "name": "proposeUpdate",
      "outputs": [
        {
          "internalType": "uint256",
          "name": "",
          "type": "uint256"
        }
      ],
      "stateMutability": "nonpayable",
      "type": "function"
    },
    {
      "inputs": [
        {
          "internalType": "address",
          "name": "",
          "type": "address"
        }
      ],
      "name": "receipts",
      "outputs": [
        {
          "internalType": "bool",
          "name": "voted",
          "type": "bool"
        },
        {
          "internalType": "bool",
          "name": "support",
          "type": "bool"
        }
      ],
      "stateMutability": "view",
      "type": "function"
    },
    {
      "inputs": [],
      "name": "redeemCollectible",
      "outputs": [],
      "stateMutability": "nonpayable",
      "type": "function"
    },
    {
      "inputs": [],
      "name": "renounceOwnership",
      "outputs": [],
      "stateMutability": "nonpayable",
      "type": "function"
    },
    {
      "inputs": [
        {
          "internalType": "address",
          "name": "from",
          "type": "address"
        },
        {
          "internalType": "address",
          "name": "to",
          "type": "address"
        },
        {
          "internalType": "uint256[]",
          "name": "ids",
          "type": "uint256[]"
        },
        {
          "internalType": "uint256[]",
          "name": "amounts",
          "type": "uint256[]"
        },
        {
          "internalType": "bytes",
          "name": "data",
          "type": "bytes"
        }
      ],
      "name": "safeBatchTransferFrom",
      "outputs": [],
      "stateMutability": "nonpayable",
      "type": "function"
    },
    {
      "inputs": [
        {
          "internalType": "address",
          "name": "from",
          "type": "address"
        },
        {
          "internalType": "address",
          "name": "to",
          "type": "address"
        },
        {
          "internalType": "uint256",
          "name": "id",
          "type": "uint256"
        },
        {
          "internalType": "uint256",
          "name": "amount",
          "type": "uint256"
        },
        {
          "internalType": "bytes",
          "name": "data",
          "type": "bytes"
        }
      ],
      "name": "safeTransferFrom",
      "outputs": [],
      "stateMutability": "nonpayable",
      "type": "function"
    },
    {
      "inputs": [
        {
          "internalType": "address",
          "name": "operator",
          "type": "address"
        },
        {
          "internalType": "bool",
          "name": "approved",
          "type": "bool"
        }
      ],
      "name": "setApprovalForAll",
      "outputs": [],
      "stateMutability": "nonpayable",
      "type": "function"
    },
    {
      "inputs": [
        {
          "internalType": "string",
          "name": "_baseURI",
          "type": "string"
        }
      ],
      "name": "setBaseURI",
      "outputs": [],
      "stateMutability": "nonpayable",
      "type": "function"
    },
    {
      "inputs": [
        {
          "internalType": "string",
          "name": "_contractURI",
          "type": "string"
        }
      ],
      "name": "setContractURI",
      "outputs": [],
      "stateMutability": "nonpayable",
      "type": "function"
    },
    {
      "inputs": [],
      "name": "squadDescription",
      "outputs": [
        {
          "internalType": "string",
          "name": "",
          "type": "string"
        }
      ],
      "stateMutability": "view",
      "type": "function"
    },
    {
      "inputs": [],
      "name": "squadId",
      "outputs": [
        {
          "internalType": "uint256",
          "name": "",
          "type": "uint256"
        }
      ],
      "stateMutability": "view",
      "type": "function"
    },
    {
      "inputs": [
        {
          "internalType": "uint256",
          "name": "",
          "type": "uint256"
        }
      ],
      "name": "squadMembers",
      "outputs": [
        {
          "internalType": "address",
          "name": "",
          "type": "address"
        }
      ],
      "stateMutability": "view",
      "type": "function"
    },
    {
      "inputs": [],
      "name": "squadName",
      "outputs": [
        {
          "internalType": "string",
          "name": "",
          "type": "string"
        }
      ],
      "stateMutability": "view",
      "type": "function"
    },
    {
      "inputs": [
        {
          "internalType": "bytes4",
          "name": "interfaceId",
          "type": "bytes4"
        }
      ],
      "name": "supportsInterface",
      "outputs": [
        {
          "internalType": "bool",
          "name": "",
          "type": "bool"
        }
      ],
      "stateMutability": "view",
      "type": "function"
    },
    {
      "inputs": [],
      "name": "symbol",
      "outputs": [
        {
          "internalType": "string",
          "name": "",
          "type": "string"
        }
      ],
      "stateMutability": "view",
      "type": "function"
    },
    {
      "inputs": [
        {
          "internalType": "address",
          "name": "newOwner",
          "type": "address"
        }
      ],
      "name": "transferOwnership",
      "outputs": [],
      "stateMutability": "nonpayable",
      "type": "function"
    },
    {
      "inputs": [
        {
          "components": [
            {
              "internalType": "string",
              "name": "uri",
              "type": "string"
            },
            {
              "internalType": "uint256",
              "name": "assetId",
              "type": "uint256"
            }
          ],
          "internalType": "struct Squad.Asset",
          "name": "_assets",
          "type": "tuple"
        }
      ],
      "name": "updateAssets",
      "outputs": [],
      "stateMutability": "nonpayable",
      "type": "function"
    },
    {
      "inputs": [
        {
          "internalType": "uint256",
          "name": "id",
          "type": "uint256"
        }
      ],
      "name": "uri",
      "outputs": [
        {
          "internalType": "string",
          "name": "",
          "type": "string"
        }
      ],
      "stateMutability": "view",
      "type": "function"
    },
    {
      "inputs": [
        {
          "internalType": "uint256",
          "name": "proposalId",
          "type": "uint256"
        },
        {
          "internalType": "bool",
          "name": "support",
          "type": "bool"
        }
      ],
      "name": "voteOnProposal",
      "outputs": [],
      "stateMutability": "nonpayable",
      "type": "function"
    },
    {
      "inputs": [
        {
          "internalType": "address payable",
          "name": "to",
          "type": "address"
        }
      ],
      "name": "withdraw",
      "outputs": [],
      "stateMutability": "nonpayable",
      "type": "function"
    }
  ],
  "bytecode": {
    "object": "0x60806040523480156200001157600080fd5b50604051620033b0380380620033b08339810160408190526200003491620001fb565b81816200004133620000e4565b60056200004f83826200034e565b5060066200005e82826200034e565b5050600080525060076020527f6d5257204ebe7d88fd91ae87941cb2dd9d8062b64ae5a2bd2d28ec40b9fbf6e0805430610100026001600160a81b0319909116176001179055600980546001600160a01b03191633179055600e859055600f620000c985826200034e565b506010620000d884826200034e565b5050505050506200041a565b600280546001600160a01b038381166001600160a01b0319831681179093556040519116919082907f8be0079c531659141344cd1fd0a4f28419497f9722a3daafe3b4186f6b6457e090600090a35050565b634e487b7160e01b600052604160045260246000fd5b600082601f8301126200015e57600080fd5b81516001600160401b03808211156200017b576200017b62000136565b604051601f8301601f19908116603f01168101908282118183101715620001a657620001a662000136565b81604052838152602092508683858801011115620001c357600080fd5b600091505b83821015620001e75785820183015181830184015290820190620001c8565b600093810190920192909252949350505050565b600080600080600060a086880312156200021457600080fd5b855160208701519095506001600160401b03808211156200023457600080fd5b6200024289838a016200014c565b955060408801519150808211156200025957600080fd5b6200026789838a016200014c565b945060608801519150808211156200027e57600080fd5b6200028c89838a016200014c565b93506080880151915080821115620002a357600080fd5b50620002b2888289016200014c565b9150509295509295909350565b600181811c90821680620002d457607f821691505b602082108103620002f557634e487b7160e01b600052602260045260246000fd5b50919050565b601f8211156200034957600081815260208120601f850160051c81016020861015620003245750805b601f850160051c820191505b81811015620003455782815560010162000330565b5050505b505050565b81516001600160401b038111156200036a576200036a62000136565b62000382816200037b8454620002bf565b84620002fb565b602080601f831160018114620003ba5760008415620003a15750858301515b600019600386901b1c1916600185901b17855562000345565b600085815260208120601f198616915b82811015620003eb57888601518255948401946001909101908401620003ca565b50858210156200040a5787850151600019600388901b60f8161c191681555b5050505050600190811b01905550565b612f86806200042a6000396000f3fe608060405234801561001057600080fd5b506004361061025d5760003560e01c80636c0360eb11610146578063a230c524116100c3578063d963abb911610087578063d963abb9146105af578063e4fd69f2146105b7578063e8a3d485146105ca578063e985e9c5146105d2578063f242432a14610600578063f2fde38b1461061357600080fd5b8063a230c52414610527578063b688a36314610553578063bcd101051461055b578063cf35bdd01461057b578063d30ed9601461059c57600080fd5b80638da5cb5b1161010a5780638da5cb5b146104d3578063938e3d7b146104e457806395d89b41146104f75780639eab5253146104ff578063a22cb4651461051457600080fd5b80636c0360eb14610490578063715018a6146104985780637e79407b146104a057806386141e1b146104a95780638a9d1efa146104be57600080fd5b80632eb2c2d6116101df57806355f804b3116101a357806355f804b3146104185780635e78d0781461042b5780635fb6dbea1461045657806362564c481461045e57806367e4ac2c1461047357806369ecdd8b1461048857600080fd5b80632eb2c2d61461038657806347dcb597146103995780634de4797b146103a25780634e1273f4146103e557806351cff8d91461040557600080fd5b806308ae4b0c1161022657806308ae4b0c146103135780630a09859d146103365780630e89341c146103585780631614665c1461036b578063188f937c1461037e57600080fd5b8062fdd58e14610262578063013cf08b1461029d57806301ffc9a7146102c6578063021399ab146102e957806306fdde03146102fe575b600080fd5b61028a6102703660046120c7565b600060208181529281526040808220909352908152205481565b6040519081526020015b60405180910390f35b6102b06102ab3660046120f3565b610626565b6040516102949a9998979695949392919061215c565b6102d96102d43660046121e9565b6107b0565b6040519015158152602001610294565b6102fc6102f736600461220d565b610802565b005b610306610898565b6040516102949190612247565b6102d961032136600461225a565b600b6020526000908152604090205460ff1681565b6103496103443660046120f3565b610926565b60405161029493929190612277565b6103066103663660046120f3565b6109de565b6102fc6103793660046122bf565b610aa1565b610306610b70565b6102fc610394366004612377565b610b7d565b61028a600e5481565b6103ce6103b036600461225a565b60136020526000908152604090205460ff8082169161010090041682565b604080519215158352901515602083015201610294565b6103f86103f3366004612435565b610e20565b60405161029491906124a0565b6102fc61041336600461225a565b610f54565b6102fc6104263660046124e4565b610ff1565b61043e6104393660046120f3565b610ffe565b6040516001600160a01b039091168152602001610294565b6102fc611028565b610466611061565b6040516102949190612525565b61047b611253565b6040516102949190612616565b610306611345565b610306611352565b6102fc61135f565b61028a60085481565b6104b1611373565b604051610294919061267e565b336000908152600c602052604090205461028a565b6002546001600160a01b031661043e565b6102fc6104f23660046124e4565b6114a8565b6103066114b5565b6105076114c2565b60405161029491906126d6565b6102fc610522366004612717565b611524565b6102d961053536600461225a565b6001600160a01b03166000908152600b602052604090205460ff1690565b6102fc611590565b61028a61056936600461225a565b600c6020526000908152604090205481565b61058e6105893660046120f3565b611643565b604051610294929190612743565b61028a6105aa366004612807565b6116ff565b61028a611900565b6102fc6105c5366004612873565b611936565b6103066119e6565b6102d96105e03660046128be565b600160209081526000928352604080842090915290825290205460ff1681565b6102fc61060e3660046128f7565b6119f3565b6102fc61062136600461225a565b611bed565b6011818154811061063657600080fd5b906000526020600020906009020160009150905080600001549080600101549080600201805461066590612972565b80601f016020809104026020016040519081016040528092919081815260200182805461069190612972565b80156106de5780601f106106b3576101008083540402835291602001916106de565b820191906000526020600020905b8154815290600101906020018083116106c157829003601f168201915b505050600384015460048501805494956001600160a01b0390921694919350915061070890612972565b80601f016020809104026020016040519081016040528092919081815260200182805461073490612972565b80156107815780601f1061075657610100808354040283529160200191610781565b820191906000526020600020905b81548152906001019060200180831161076457829003601f168201915b505050506005830154600684015460078501546008909501549394919390925060ff808216916101009004168a565b60006301ffc9a760e01b6001600160e01b0319831614806107e15750636cdb3d1360e11b6001600160e01b03198316145b806107fc57506303a24d0760e21b6001600160e01b03198316145b92915050565b6009546001600160a01b031633146108525760405162461bcd60e51b815260206004820152600e60248201526d139bdb8810591b5a5b8810d85b1b60921b60448201526064015b60405180910390fd5b6012805460018101825560009190915281906002027fbb8a6a4669ba250d26cd7a459eca9d215f8307e33aebe50379bc5a3617ec3444016108938282612abb565b505050565b600380546108a590612972565b80601f01602080910402602001604051908101604052809291908181526020018280546108d190612972565b801561091e5780601f106108f35761010080835404028352916020019161091e565b820191906000526020600020905b81548152906001019060200180831161090157829003601f168201915b505050505081565b60076020526000908152604090208054819061094190612972565b80601f016020809104026020016040519081016040528092919081815260200182805461096d90612972565b80156109ba5780601f1061098f576101008083540402835291602001916109ba565b820191906000526020600020905b81548152906001019060200180831161099d57829003601f168201915b5050506001909301549192505060ff8116906001600160a01b036101009091041683565b60606000600580546109ef90612972565b80601f0160208091040260200160405190810160405280929190818152602001828054610a1b90612972565b8015610a685780601f10610a3d57610100808354040283529160200191610a68565b820191906000526020600020905b815481529060010190602001808311610a4b57829003601f168201915b5050505050905080610a7984611c66565b604051602001610a8a929190612bad565b604051602081830303815290604052915050919050565b600060118381548110610ab657610ab6612bdc565b6000918252602080832033845260139091526040909220600990910290910191508215610af7576005820154610aed906001612c08565b6005830155610b0d565b6006820154610b07906001612c08565b60068301555b80548315156101000261ffff1990911617600117815560405133907fd30ac21a886171cfc6e0046ee7856df867d5007f0e95d20c98914472ec2b940290610b6290879087909182521515602082015260400190565b60405180910390a250505050565b600f80546108a590612972565b848314610bbe5760405162461bcd60e51b815260206004820152600f60248201526e0988a9c8ea890be9a92a69a82a8869608b1b6044820152606401610849565b336001600160a01b0389161480610bf857506001600160a01b038816600090815260016020908152604080832033845290915290205460ff165b610c355760405162461bcd60e51b815260206004820152600e60248201526d1393d517d055551213d49256915160921b6044820152606401610849565b60008060005b87811015610cf057888882818110610c5557610c55612bdc565b905060200201359250868682818110610c7057610c70612bdc565b6001600160a01b038e1660009081526020818152604080832089845282528220805493909102949094013595508593925090610cad908490612c1b565b90915550506001600160a01b038a1660009081526020818152604080832086845290915281208054849290610ce3908490612c08565b9091555050600101610c3b565b50886001600160a01b03168a6001600160a01b0316336001600160a01b03167f4a39dc06d4c0dbc64b70af90fd698a233a518aa5d07e595d983b8c0526c8f7fb8b8b8b8b604051610d449493929190612c60565b60405180910390a46001600160a01b0389163b15610deb5760405163bc197c8160e01b808252906001600160a01b038b169063bc197c8190610d989033908f908e908e908e908e908e908e90600401612cbb565b6020604051808303816000875af1158015610db7573d6000803e3d6000fd5b505050506040513d601f19601f82011682018060405250810190610ddb9190612d1f565b6001600160e01b03191614610df8565b6001600160a01b03891615155b610e145760405162461bcd60e51b815260040161084990612d3c565b50505050505050505050565b6060838214610e635760405162461bcd60e51b815260206004820152600f60248201526e0988a9c8ea890be9a92a69a82a8869608b1b6044820152606401610849565b836001600160401b03811115610e7b57610e7b612765565b604051908082528060200260200182016040528015610ea4578160200160208202803683370190505b50905060005b84811015610f4b57600080878784818110610ec757610ec7612bdc565b9050602002016020810190610edc919061225a565b6001600160a01b03166001600160a01b031681526020019081526020016000206000858584818110610f1057610f10612bdc565b90506020020135815260200190815260200160002054828281518110610f3857610f38612bdc565b6020908102919091010152600101610eaa565b50949350505050565b610f5c611cf8565b60405147906000906001600160a01b0384169083908381818185875af1925050503d8060008114610fa9576040519150601f19603f3d011682016040523d82523d6000602084013e610fae565b606091505b50509050806108935760405162461bcd60e51b815260206004820152600f60248201526e151c985b9cd9995c8819985a5b1959608a1b6044820152606401610849565b6005610893828483612a01565b600a818154811061100e57600080fd5b6000918252602090912001546001600160a01b0316905081565b61103433600d54611d52565b336000908152600c602052604090205461104f906001612c08565b336000908152600c6020526040902055565b60606011805480602002602001604051908101604052809291908181526020016000905b8282101561124a57838290600052602060002090600902016040518061014001604052908160008201548152602001600182015481526020016002820180546110cd90612972565b80601f01602080910402602001604051908101604052809291908181526020018280546110f990612972565b80156111465780601f1061111b57610100808354040283529160200191611146565b820191906000526020600020905b81548152906001019060200180831161112957829003601f168201915b505050918352505060038201546001600160a01b0316602082015260048201805460409092019161117690612972565b80601f01602080910402602001604051908101604052809291908181526020018280546111a290612972565b80156111ef5780601f106111c4576101008083540402835291602001916111ef565b820191906000526020600020905b8154815290600101906020018083116111d257829003601f168201915b50505091835250506005820154602080830191909152600683015460408301526007830154606083015260089092015460ff8082161515608084015261010090910416151560a0909101529082526001929092019101611085565b50505050905090565b60606012805480602002602001604051908101604052809291908181526020016000905b8282101561124a57838290600052602060002090600202016040518060400160405290816000820180546112aa90612972565b80601f01602080910402602001604051908101604052809291908181526020018280546112d690612972565b80156113235780601f106112f857610100808354040283529160200191611323565b820191906000526020600020905b81548152906001019060200180831161130657829003601f168201915b5050505050815260200160018201548152505081526020019060010190611277565b601080546108a590612972565b600580546108a590612972565b611367611cf8565b6113716000611e20565b565b600a546060906000906001600160401b0381111561139357611393612765565b6040519080825280602002602001820160405280156113d857816020015b60408051808201909152600080825260208201528152602001906001900390816113b15790505b50905060005b600a548110156114a2576040518060400160405280600a838154811061140657611406612bdc565b9060005260206000200160009054906101000a90046001600160a01b03166001600160a01b03168152602001600c6000600a858154811061144957611449612bdc565b60009182526020808320909101546001600160a01b031683528201929092526040019020549052825183908390811061148457611484612bdc565b6020026020010181905250808061149a90612d66565b9150506113de565b50919050565b6006610893828483612a01565b600480546108a590612972565b6060600a80548060200260200160405190810160405280929190818152602001828054801561151a57602002820191906000526020600020905b81546001600160a01b031681526001909101906020018083116114fc575b5050505050905090565b3360008181526001602090815260408083206001600160a01b03871680855290835292819020805460ff191686151590811790915590519081529192917f17307eab39ab6107e8899845ad3d59bd9653f200f220920489ca2b5937696c31910160405180910390a35050565b6009546001600160a01b031633146115db5760405162461bcd60e51b815260206004820152600e60248201526d139bdb8810591b5a5b8810d85b1b60921b6044820152606401610849565b6115e733600e54611e72565b600a805460018181019092557fc65a7bb8d6351c1cf70c95a316cc6a92839c986682d98bc35f958f4883f9d2a80180546001600160a01b031916339081179091556000908152600b60205260409020805460ff19169091179055565b6012818154811061165357600080fd5b906000526020600020906002020160009150905080600001805461167690612972565b80601f01602080910402602001604051908101604052809291908181526020018280546116a290612972565b80156116ef5780601f106116c4576101008083540402835291602001916116ef565b820191906000526020600020905b8154815290600101906020018083116116d257829003601f168201915b5050505050908060010154905082565b600061176460405180610140016040528060008152602001600081526020016060815260200160006001600160a01b03168152602001606081526020016000815260200160008152602001600081526020016000151581526020016000151581525090565b601154611772906001612c08565b815233606082015260808101849052602081018581526040820184815260118054600181018255600091909152835160099091027f31ecc21a745e3968a04e9570e4425bc18fa8019c68028196b546d1669c200c68810191825592517f31ecc21a745e3968a04e9570e4425bc18fa8019c68028196b546d1669c200c69840155905183927f31ecc21a745e3968a04e9570e4425bc18fa8019c68028196b546d1669c200c6a01906118239082612d7f565b5060608201516003820180546001600160a01b0319166001600160a01b039092169190911790556080820151600482019061185e9082612d7f565b5060a0820151600582015560c0820151600682015560e0820151600782015561010080830151600890920180546101209094015161ffff1990941692151561ff00191692909217921515029190911790558051602080830151604080519384523392840192909252908201527f3417b456fad6209c73445d5efd446d686e75e4560f0f50c13b5a5cde976447b49060600160405180910390a151949350505050565b6000600e54600f601060405160200161191b93929190612eab565b60405160208183030381529060405280519060200120905090565b61193e611cf8565b60008381526007602052604090206001015460ff16156119aa5760405162461bcd60e51b815260206004820152602160248201527f436f6c6c65637469626c6520746f6b656e20616c7265616479206372656174656044820152601960fa1b6064820152608401610849565b60008381526007602052604090206119c3828483612a01565b50505060009081526007602052604090206001908101805460ff19169091179055565b600680546108a590612972565b336001600160a01b0387161480611a2d57506001600160a01b038616600090815260016020908152604080832033845290915290205460ff165b611a6a5760405162461bcd60e51b815260206004820152600e60248201526d1393d517d055551213d49256915160921b6044820152606401610849565b6001600160a01b03861660009081526020818152604080832087845290915281208054859290611a9b908490612c1b565b90915550506001600160a01b03851660009081526020818152604080832087845290915281208054859290611ad1908490612c08565b909155505060408051858152602081018590526001600160a01b03808816929089169133917fc3d58168c5ae7397731d063d5bbf3d657854427343f4c083240f7aacaa2d0f62910160405180910390a46001600160a01b0385163b15611bbc5760405163f23a6e6160e01b808252906001600160a01b0387169063f23a6e6190611b699033908b908a908a908a908a90600401612ecf565b6020604051808303816000875af1158015611b88573d6000803e3d6000fd5b505050506040513d601f19601f82011682018060405250810190611bac9190612d1f565b6001600160e01b03191614611bc9565b6001600160a01b03851615155b611be55760405162461bcd60e51b815260040161084990612d3c565b505050505050565b611bf5611cf8565b6001600160a01b038116611c5a5760405162461bcd60e51b815260206004820152602660248201527f4f776e61626c653a206e6577206f776e657220697320746865207a65726f206160448201526564647265737360d01b6064820152608401610849565b611c6381611e20565b50565b60606000611c7383611e92565b60010190506000816001600160401b03811115611c9257611c92612765565b6040519080825280601f01601f191660200182016040528015611cbc576020820181803683370190505b5090508181016020015b600019016f181899199a1a9b1b9c1cb0b131b232b360811b600a86061a8153600a8504945084611cc657509392505050565b6002546001600160a01b031633146113715760405162461bcd60e51b815260206004820181905260248201527f4f776e61626c653a2063616c6c6572206973206e6f7420746865206f776e65726044820152606401610849565b8060008111611da35760405162461bcd60e51b815260206004820181905260248201527f436f6c6c65637469626c652063616e6e6f7420626520612073717561642069646044820152606401610849565b60008281526007602052604090206001015460ff16611e045760405162461bcd60e51b815260206004820152601d60248201527f436f6c6c65637469626c6520746f6b656e206e6f7420637265617465640000006044820152606401610849565b6108938383600160405180602001604052806000815250611f6a565b600280546001600160a01b038381166001600160a01b0319831681179093556040519116919082907f8be0079c531659141344cd1fd0a4f28419497f9722a3daafe3b4186f6b6457e090600090a35050565b611e8e8282600160405180602001604052806000815250611f6a565b5050565b60008072184f03e93ff9f4daa797ed6e38ed64bf6a1f0160401b8310611ed15772184f03e93ff9f4daa797ed6e38ed64bf6a1f0160401b830492506040015b6d04ee2d6d415b85acef81000000008310611efd576d04ee2d6d415b85acef8100000000830492506020015b662386f26fc100008310611f1b57662386f26fc10000830492506010015b6305f5e1008310611f33576305f5e100830492506008015b6127108310611f4757612710830492506004015b60648310611f59576064830492506002015b600a83106107fc5760010192915050565b6001600160a01b03841660009081526020818152604080832086845290915281208054849290611f9b908490612c08565b909155505060408051848152602081018490526001600160a01b0386169160009133917fc3d58168c5ae7397731d063d5bbf3d657854427343f4c083240f7aacaa2d0f62910160405180910390a46001600160a01b0384163b156120835760405163f23a6e6160e01b808252906001600160a01b0386169063f23a6e6190612030903390600090899089908990600401612f16565b6020604051808303816000875af115801561204f573d6000803e3d6000fd5b505050506040513d601f19601f820116820180604052508101906120739190612d1f565b6001600160e01b03191614612090565b6001600160a01b03841615155b6120ac5760405162461bcd60e51b815260040161084990612d3c565b50505050565b6001600160a01b0381168114611c6357600080fd5b600080604083850312156120da57600080fd5b82356120e5816120b2565b946020939093013593505050565b60006020828403121561210557600080fd5b5035919050565b60005b8381101561212757818101518382015260200161210f565b50506000910152565b6000815180845261214881602086016020860161210c565b601f01601f19169290920160200192915050565b60006101408c83528b602084015280604084015261217c8184018c612130565b6001600160a01b038b1660608501528381036080850152905061219f818a612130565b60a0840198909852505060c081019490945260e0840192909252151561010083015215156101209091015295945050505050565b6001600160e01b031981168114611c6357600080fd5b6000602082840312156121fb57600080fd5b8135612206816121d3565b9392505050565b60006020828403121561221f57600080fd5b81356001600160401b0381111561223557600080fd5b82016040818503121561220657600080fd5b6020815260006122066020830184612130565b60006020828403121561226c57600080fd5b8135612206816120b2565b60608152600061228a6060830186612130565b9315156020830152506001600160a01b0391909116604090910152919050565b803580151581146122ba57600080fd5b919050565b600080604083850312156122d257600080fd5b823591506122e2602084016122aa565b90509250929050565b60008083601f8401126122fd57600080fd5b5081356001600160401b0381111561231457600080fd5b6020830191508360208260051b850101111561232f57600080fd5b9250929050565b60008083601f84011261234857600080fd5b5081356001600160401b0381111561235f57600080fd5b60208301915083602082850101111561232f57600080fd5b60008060008060008060008060a0898b03121561239357600080fd5b883561239e816120b2565b975060208901356123ae816120b2565b965060408901356001600160401b03808211156123ca57600080fd5b6123d68c838d016122eb565b909850965060608b01359150808211156123ef57600080fd5b6123fb8c838d016122eb565b909650945060808b013591508082111561241457600080fd5b506124218b828c01612336565b999c989b5096995094979396929594505050565b6000806000806040858703121561244b57600080fd5b84356001600160401b038082111561246257600080fd5b61246e888389016122eb565b9096509450602087013591508082111561248757600080fd5b50612494878288016122eb565b95989497509550505050565b6020808252825182820181905260009190848201906040850190845b818110156124d8578351835292840192918401916001016124bc565b50909695505050505050565b600080602083850312156124f757600080fd5b82356001600160401b0381111561250d57600080fd5b61251985828601612336565b90969095509350505050565b60006020808301818452808551808352604092508286019150828160051b87010184880160005b8381101561260857603f19898403018552815161014081518552888201518986015287820151818987015261258382870182612130565b9150506060808301516125a0828801826001600160a01b03169052565b5050608080830151868303828801526125b98382612130565b60a0858101519089015260c0808601519089015260e08086015190890152610100808601511515908901526101209485015115159490970193909352505050938601939086019060010161254c565b509098975050505050505050565b60006020808301818452808551808352604092508286019150828160051b87010184880160005b8381101561260857888303603f190185528151805187855261266188860182612130565b91890151948901949094529487019492509086019060010161263d565b602080825282518282018190526000919060409081850190868401855b828110156126c957815180516001600160a01b0316855286015186850152928401929085019060010161269b565b5091979650505050505050565b6020808252825182820181905260009190848201906040850190845b818110156124d85783516001600160a01b0316835292840192918401916001016126f2565b6000806040838503121561272a57600080fd5b8235612735816120b2565b91506122e2602084016122aa565b6040815260006127566040830185612130565b90508260208301529392505050565b634e487b7160e01b600052604160045260246000fd5b600082601f83011261278c57600080fd5b81356001600160401b03808211156127a6576127a6612765565b604051601f8301601f19908116603f011681019082821181831017156127ce576127ce612765565b816040528381528660208588010111156127e757600080fd5b836020870160208301376000602085830101528094505050505092915050565b60008060006060848603121561281c57600080fd5b8335925060208401356001600160401b038082111561283a57600080fd5b6128468783880161277b565b9350604086013591508082111561285c57600080fd5b506128698682870161277b565b9150509250925092565b60008060006040848603121561288857600080fd5b8335925060208401356001600160401b038111156128a557600080fd5b6128b186828701612336565b9497909650939450505050565b600080604083850312156128d157600080fd5b82356128dc816120b2565b915060208301356128ec816120b2565b809150509250929050565b60008060008060008060a0878903121561291057600080fd5b863561291b816120b2565b9550602087013561292b816120b2565b9450604087013593506060870135925060808701356001600160401b0381111561295457600080fd5b61296089828a01612336565b979a9699509497509295939492505050565b600181811c9082168061298657607f821691505b6020821081036114a257634e487b7160e01b600052602260045260246000fd5b601f82111561089357600081815260208120601f850160051c810160208610156129cd5750805b601f850160051c820191505b81811015611be5578281556001016129d9565b600019600383901b1c191660019190911b1790565b6001600160401b03831115612a1857612a18612765565b612a2c83612a268354612972565b836129a6565b6000601f841160018114612a5a5760008515612a485750838201355b612a5286826129ec565b845550612ab4565b600083815260209020601f19861690835b82811015612a8b5786850135825560209485019460019092019101612a6b565b5086821015612aa85760001960f88860031b161c19848701351681555b505060018560011b0183555b5050505050565b8135601e19833603018112612acf57600080fd5b820180356001600160401b03811115612ae757600080fd5b60208136038184011315612afa57600080fd5b612b0e82612b088654612972565b866129a6565b6000601f831160018114612b3e5760008415612b2c57508482018301355b612b3685826129ec565b875550612b9b565b600086815260209020601f19851690835b82811015612b70578785018601358255938501936001909101908501612b4f565b5085821015612b8f5760001960f88760031b161c198585890101351681555b505060018460011b0186555b50508085013560018501555050505050565b60008351612bbf81846020880161210c565b835190830190612bd381836020880161210c565b01949350505050565b634e487b7160e01b600052603260045260246000fd5b634e487b7160e01b600052601160045260246000fd5b808201808211156107fc576107fc612bf2565b818103818111156107fc576107fc612bf2565b81835260006001600160fb1b03831115612c4757600080fd5b8260051b80836020870137939093016020019392505050565b604081526000612c74604083018688612c2e565b8281036020840152612c87818587612c2e565b979650505050505050565b81835281816020850137506000828201602090810191909152601f909101601f19169091010190565b6001600160a01b0389811682528816602082015260a060408201819052600090612ce8908301888a612c2e565b8281036060840152612cfb818789612c2e565b90508281036080840152612d10818587612c92565b9b9a5050505050505050505050565b600060208284031215612d3157600080fd5b8151612206816121d3565b60208082526010908201526f155394d0519157d49150d2541251539560821b604082015260600190565b600060018201612d7857612d78612bf2565b5060010190565b81516001600160401b03811115612d9857612d98612765565b612dac81612da68454612972565b846129a6565b602080601f831160018114612ddb5760008415612dc95750858301515b612dd385826129ec565b865550611be5565b600085815260208120601f198616915b82811015612e0a57888601518255948401946001909101908401612deb565b5085821015612e285787850151600019600388901b60f8161c191681555b5050505050600190811b01905550565b60008154612e4581612972565b60018281168015612e5d5760018114612e7257612ea1565b60ff1984168752821515830287019450612ea1565b8560005260208060002060005b85811015612e985781548a820152908401908201612e7f565b50505082870194505b5050505092915050565b8381526000612ec6612ec06020840186612e38565b84612e38565b95945050505050565b6001600160a01b03878116825286166020820152604081018590526060810184905260a060808201819052600090612f0a9083018486612c92565b98975050505050505050565b6001600160a01b03868116825285166020820152604081018490526060810183905260a060808201819052600090612c879083018461213056fea26469706673582212201fb2d2d991bdf806d214f3d50fb19307e00a51b88ccd7a38b7cecb1ee7fd2b9d64736f6c63430008110033",
    "linkReferences": {}
  },
  "methodIdentifiers": {
    "assets(uint256)": "cf35bdd0",
    "balanceOf(address,uint256)": "00fdd58e",
    "balanceOfBatch(address[],uint256[])": "4e1273f4",
    "baseURI()": "6c0360eb",
    "collectibleEditions()": "7e79407b",
    "collectibles(uint256)": "0a09859d",
    "collectiblesEarned(address)": "bcd10105",
    "contractURI()": "e8a3d485",
    "createNewCollectible(uint256,bytes)": "e4fd69f2",
    "getAssets()": "67e4ac2c",
    "getCollectiblesEarned()": "8a9d1efa",
    "getMembers()": "9eab5253",
    "getMembersData()": "86141e1b",
    "getProposals()": "62564c48",
    "getSquadInfo()": "d963abb9",
    "isApprovedForAll(address,address)": "e985e9c5",
    "isMember(address)": "a230c524",
    "join()": "b688a363",
    "members(address)": "08ae4b0c",
    "name()": "06fdde03",
    "owner()": "8da5cb5b",
    "proposals(uint256)": "013cf08b",
    "proposeUpdate(uint256,string,string)": "d30ed960",
    "receipts(address)": "4de4797b",
    "redeemCollectible()": "5fb6dbea",
    "renounceOwnership()": "715018a6",
    "safeBatchTransferFrom(address,address,uint256[],uint256[],bytes)": "2eb2c2d6",
    "safeTransferFrom(address,address,uint256,uint256,bytes)": "f242432a",
    "setApprovalForAll(address,bool)": "a22cb465",
    "setBaseURI(string)": "55f804b3",
    "setContractURI(string)": "938e3d7b",
    "squadDescription()": "69ecdd8b",
    "squadId()": "47dcb597",
    "squadMembers(uint256)": "5e78d078",
    "squadName()": "188f937c",
    "supportsInterface(bytes4)": "01ffc9a7",
    "symbol()": "95d89b41",
    "transferOwnership(address)": "f2fde38b",
    "updateAssets((string,uint256))": "021399ab",
    "uri(uint256)": "0e89341c",
    "voteOnProposal(uint256,bool)": "1614665c",
    "withdraw(address)": "51cff8d9"
  },
  "id": 29
}