{
  "abi": [
    {
      "anonymous": false,
      "inputs": [
        {
          "indexed": false,
          "internalType": "address",
          "name": "newAddress",
          "type": "address"
        },
        {
          "indexed": false,
          "internalType": "uint256",
          "name": "squadId",
          "type": "uint256"
        }
      ],
      "name": "SquadCreated",
      "type": "event"
    },
    {
      "inputs": [
        {
          "internalType": "string",
          "name": "_squadName",
          "type": "string"
        },
        {
          "internalType": "string",
          "name": "_squadDescription",
          "type": "string"
        },
        {
          "internalType": "string",
          "name": "_baseURI",
          "type": "string"
        },
        {
          "internalType": "string",
          "name": "_contractURI",
          "type": "string"
        }
      ],
      "name": "createSquad",
      "outputs": [
        {
          "internalType": "address",
          "name": "",
          "type": "address"
        }
      ],
      "stateMutability": "nonpayable",
      "type": "function"
    },
    {
      "inputs": [],
      "name": "getSquads",
      "outputs": [
        {
          "internalType": "contract Squad[]",
          "name": "",
          "type": "address[]"
        }
      ],
      "stateMutability": "view",
      "type": "function"
    },
    {
      "inputs": [
        {
          "internalType": "uint256",
          "name": "",
          "type": "uint256"
        }
      ],
      "name": "squadAddresses",
      "outputs": [
        {
          "internalType": "address",
          "name": "",
          "type": "address"
        }
      ],
      "stateMutability": "view",
      "type": "function"
    },
    {
      "inputs": [
        {
          "internalType": "uint256",
          "name": "",
          "type": "uint256"
        }
      ],
      "name": "squads",
      "outputs": [
        {
          "internalType": "contract Squad",
          "name": "",
          "type": "address"
        }
      ],
      "stateMutability": "view",
      "type": "function"
    }
  ],
  "bytecode": {
    "object": "0x608060405234801561001057600080fd5b50613a26806100206000396000f3fe60806040523480156200001157600080fd5b5060043610620000525760003560e01c8063a2e1b4d01462000057578063c0d944d41462000079578063de1eecc914620000be578063fcfa526714620000d5575b600080fd5b62000061620000ec565b60405162000070919062000286565b60405180910390f35b620000a56200008a366004620002d5565b6000602081905290815260409020546001600160a01b031681565b6040516001600160a01b03909116815260200162000070565b620000a5620000cf366004620002d5565b62000150565b620000a5620000e63660046200039a565b6200017b565b606060018054806020026020016040519081016040528092919081815260200182805480156200014657602002820191906000526020600020905b81546001600160a01b0316815260019091019060200180831162000127575b5050505050905090565b600181815481106200016157600080fd5b6000918252602090912001546001600160a01b0316905081565b60008085858585604051620001909062000278565b6200019f94939291906200049c565b604051809103906000f080158015620001bc573d6000803e3d6000fd5b5060018054919250600091620001d291620004fc565b600180548082019091557fb10e2d527612073b26eecdfd717e6a320cf44b4afac2b0732d9fcbe2b7fa0cf60180546001600160a01b0385166001600160a01b03199182168117909255600083815260208181526040918290208054909316841790925580519283529082018390529192507f67f794a23800c26d9e9ce3c51a9e95dd2c5a724c30030822f589294afc81231b910160405180910390a15095945050505050565b6134cc806200052583390190565b6020808252825182820181905260009190848201906040850190845b81811015620002c95783516001600160a01b031683529284019291840191600101620002a2565b50909695505050505050565b600060208284031215620002e857600080fd5b5035919050565b634e487b7160e01b600052604160045260246000fd5b600082601f8301126200031757600080fd5b813567ffffffffffffffff80821115620003355762000335620002ef565b604051601f8301601f19908116603f01168101908282118183101715620003605762000360620002ef565b816040528381528660208588010111156200037a57600080fd5b836020870160208301376000602085830101528094505050505092915050565b60008060008060808587031215620003b157600080fd5b843567ffffffffffffffff80821115620003ca57600080fd5b620003d88883890162000305565b95506020870135915080821115620003ef57600080fd5b620003fd8883890162000305565b945060408701359150808211156200041457600080fd5b620004228883890162000305565b935060608701359150808211156200043957600080fd5b50620004488782880162000305565b91505092959194509250565b6000815180845260005b818110156200047c576020818501810151868301820152016200045e565b506000602082860101526020601f19601f83011685010191505092915050565b608081526000620004b1608083018762000454565b8281036020840152620004c5818762000454565b90508281036040840152620004db818662000454565b90508281036060840152620004f1818562000454565b979650505050505050565b808201808211156200051e57634e487b7160e01b600052601160045260246000fd5b9291505056fe60806040523480156200001157600080fd5b50604051620034cc380380620034cc8339810160408190526200003491620001f5565b81816200004133620000de565b60056200004f83826200033d565b5060066200005e82826200033d565b5050600080525060076020527f6d5257204ebe7d88fd91ae87941cb2dd9d8062b64ae5a2bd2d28ec40b9fbf6e0805430610100026001600160a81b0319909116176001179055600980546001600160a01b03191633179055600e620000c485826200033d565b50600f620000d384826200033d565b505050505062000409565b600280546001600160a01b038381166001600160a01b0319831681179093556040519116919082907f8be0079c531659141344cd1fd0a4f28419497f9722a3daafe3b4186f6b6457e090600090a35050565b634e487b7160e01b600052604160045260246000fd5b600082601f8301126200015857600080fd5b81516001600160401b038082111562000175576200017562000130565b604051601f8301601f19908116603f01168101908282118183101715620001a057620001a062000130565b81604052838152602092508683858801011115620001bd57600080fd5b600091505b83821015620001e15785820183015181830184015290820190620001c2565b600093810190920192909252949350505050565b600080600080608085870312156200020c57600080fd5b84516001600160401b03808211156200022457600080fd5b620002328883890162000146565b955060208701519150808211156200024957600080fd5b620002578883890162000146565b945060408701519150808211156200026e57600080fd5b6200027c8883890162000146565b935060608701519150808211156200029357600080fd5b50620002a28782880162000146565b91505092959194509250565b600181811c90821680620002c357607f821691505b602082108103620002e457634e487b7160e01b600052602260045260246000fd5b50919050565b601f8211156200033857600081815260208120601f850160051c81016020861015620003135750805b601f850160051c820191505b8181101562000334578281556001016200031f565b5050505b505050565b81516001600160401b0381111562000359576200035962000130565b62000371816200036a8454620002ae565b84620002ea565b602080601f831160018114620003a95760008415620003905750858301515b600019600386901b1c1916600185901b17855562000334565b600085815260208120601f198616915b82811015620003da57888601518255948401946001909101908401620003b9565b5085821015620003f95787850151600019600388901b60f8161c191681555b5050505050600190811b01905550565b6130b380620004196000396000f3fe608060405234801561001057600080fd5b506004361061025d5760003560e01c8063715018a611610146578063a230c524116100c3578063d30ed96011610087578063d30ed960146105c0578063e4fd69f2146105d3578063e8a3d485146105e6578063e985e9c5146105ee578063f242432a1461061c578063f2fde38b1461062f57600080fd5b8063a230c52414610537578063b688a36314610563578063b899928a1461056b578063bcd101051461057e578063cf35bdd01461059e57600080fd5b806395d89b411161010a57806395d89b41146104a657806398041ea3146104ae5780639eab5253146104c1578063a08ad97d146104d6578063a22cb4651461052457600080fd5b8063715018a6146104695780637e79407b146104715780637ec756471461047a5780638da5cb5b14610482578063938e3d7b1461049357600080fd5b8063381e9ff3116101df5780635e78d078116101a35780635e78d078146103fc5780635fb6dbea1461042757806362564c481461042f57806367e4ac2c1461044457806369ecdd8b146104595780636c0360eb1461046157600080fd5b8063381e9ff31461037a5780634e1273f4146103a357806351cff8d9146103c357806354a2e233146103d657806355f804b3146103e957600080fd5b80630a09859d116102265780630a09859d146103205780630e89341c14610342578063188f937c1461035557806320a6bf841461035d5780632eb2c2d61461036557600080fd5b8062fdd58e14610262578063013cf08b1461029d57806301ffc9a7146102c557806306fdde03146102e857806308ae4b0c146102fd575b600080fd5b61028a61027036600461234b565b600060208181529281526040808220909352908152205481565b6040519081526020015b60405180910390f35b6102b06102ab366004612377565b610642565b604051610294999897969594939291906123e0565b6102d86102d3366004612465565b6107c7565b6040519015158152602001610294565b6102f0610819565b6040516102949190612489565b6102d861030b36600461249c565b600b6020526000908152604090205460ff1681565b61033361032e366004612377565b6108a7565b604051610294939291906124b9565b6102f0610350366004612377565b61095f565b6102f0610a22565b6102f0610a2f565b610378610373366004612578565b610ac1565b005b61028a61038836600461249c565b6001600160a01b03166000908152600c602052604090205490565b6103b66103b1366004612636565b610d69565b60405161029491906126a1565b6103786103d136600461249c565b610e9d565b6103786103e43660046126fa565b610f3f565b6103786103f736600461272f565b611222565b61040f61040a366004612377565b61122f565b6040516001600160a01b039091168152602001610294565b610378611259565b610437611292565b6040516102949190612770565b61044c61147a565b604051610294919061289a565b6102f061159f565b6102f06115ac565b6103786115b9565b61028a60085481565b6102f06115cd565b6002546001600160a01b031661040f565b6103786104a136600461272f565b6115dc565b6102f06115e9565b6103786104bc36600461234b565b6115f6565b6104c961169b565b6040516102949190612917565b61050d6104e436600461234b565b601260209081526000928352604080842090915290825290205460ff8082169161010090041682565b604080519215158352901515602083015201610294565b610378610532366004612958565b6116fc565b6102d861054536600461249c565b6001600160a01b03166000908152600b602052604090205460ff1690565b610378611768565b610378610579366004612a2f565b6117f7565b61028a61058c36600461249c565b600c6020526000908152604090205481565b6105b16105ac366004612377565b6118b6565b60405161029493929190612a8b565b61028a6105ce366004612abb565b61197c565b6103786105e1366004612b1d565b611bb5565b6102f0611c65565b6102d86105fc366004612b68565b600160209081526000928352604080842090915290825290205460ff1681565b61037861062a366004612ba1565b611c72565b61037861063d36600461249c565b611e6c565b6010818154811061065257600080fd5b906000526020600020906008020160009150905080600001549080600101549080600201805461068190612c1c565b80601f01602080910402602001604051908101604052809291908181526020018280546106ad90612c1c565b80156106fa5780601f106106cf576101008083540402835291602001916106fa565b820191906000526020600020905b8154815290600101906020018083116106dd57829003601f168201915b505050600384015460048501805494956001600160a01b0390921694919350915061072490612c1c565b80601f016020809104026020016040519081016040528092919081815260200182805461075090612c1c565b801561079d5780601f106107725761010080835404028352916020019161079d565b820191906000526020600020905b81548152906001019060200180831161078057829003601f168201915b50505050600583015460068401546007909401549293909290915060ff8082169161010090041689565b60006301ffc9a760e01b6001600160e01b0319831614806107f85750636cdb3d1360e11b6001600160e01b03198316145b8061081357506303a24d0760e21b6001600160e01b03198316145b92915050565b6003805461082690612c1c565b80601f016020809104026020016040519081016040528092919081815260200182805461085290612c1c565b801561089f5780601f106108745761010080835404028352916020019161089f565b820191906000526020600020905b81548152906001019060200180831161088257829003601f168201915b505050505081565b6007602052600090815260409020805481906108c290612c1c565b80601f01602080910402602001604051908101604052809291908181526020018280546108ee90612c1c565b801561093b5780601f106109105761010080835404028352916020019161093b565b820191906000526020600020905b81548152906001019060200180831161091e57829003601f168201915b5050506001909301549192505060ff8116906001600160a01b036101009091041683565b606060006005805461097090612c1c565b80601f016020809104026020016040519081016040528092919081815260200182805461099c90612c1c565b80156109e95780601f106109be576101008083540402835291602001916109e9565b820191906000526020600020905b8154815290600101906020018083116109cc57829003601f168201915b50505050509050806109fa84611ee5565b604051602001610a0b929190612c56565b604051602081830303815290604052915050919050565b600e805461082690612c1c565b6060600e8054610a3e90612c1c565b80601f0160208091040260200160405190810160405280929190818152602001828054610a6a90612c1c565b8015610ab75780601f10610a8c57610100808354040283529160200191610ab7565b820191906000526020600020905b815481529060010190602001808311610a9a57829003601f168201915b5050505050905090565b848314610b075760405162461bcd60e51b815260206004820152600f60248201526e0988a9c8ea890be9a92a69a82a8869608b1b60448201526064015b60405180910390fd5b336001600160a01b0389161480610b4157506001600160a01b038816600090815260016020908152604080832033845290915290205460ff165b610b7e5760405162461bcd60e51b815260206004820152600e60248201526d1393d517d055551213d49256915160921b6044820152606401610afe565b60008060005b87811015610c3957888882818110610b9e57610b9e612c85565b905060200201359250868682818110610bb957610bb9612c85565b6001600160a01b038e1660009081526020818152604080832089845282528220805493909102949094013595508593925090610bf6908490612cb1565b90915550506001600160a01b038a1660009081526020818152604080832086845290915281208054849290610c2c908490612cc4565b9091555050600101610b84565b50886001600160a01b03168a6001600160a01b0316336001600160a01b03167f4a39dc06d4c0dbc64b70af90fd698a233a518aa5d07e595d983b8c0526c8f7fb8b8b8b8b604051610c8d9493929190612d09565b60405180910390a46001600160a01b0389163b15610d345760405163bc197c8160e01b808252906001600160a01b038b169063bc197c8190610ce19033908f908e908e908e908e908e908e90600401612d64565b6020604051808303816000875af1158015610d00573d6000803e3d6000fd5b505050506040513d601f19601f82011682018060405250810190610d249190612dc8565b6001600160e01b03191614610d41565b6001600160a01b03891615155b610d5d5760405162461bcd60e51b8152600401610afe90612de5565b50505050505050505050565b6060838214610dac5760405162461bcd60e51b815260206004820152600f60248201526e0988a9c8ea890be9a92a69a82a8869608b1b6044820152606401610afe565b836001600160401b03811115610dc457610dc461298d565b604051908082528060200260200182016040528015610ded578160200160208202803683370190505b50905060005b84811015610e9457600080878784818110610e1057610e10612c85565b9050602002016020810190610e25919061249c565b6001600160a01b03166001600160a01b031681526020019081526020016000206000858584818110610e5957610e59612c85565b90506020020135815260200190815260200160002054828281518110610e8157610e81612c85565b6020908102919091010152600101610df3565b50949350505050565b610ea5611f77565b60405147906000906001600160a01b0384169083908381818185875af1925050503d8060008114610ef2576040519150601f19603f3d011682016040523d82523d6000602084013e610ef7565b606091505b5050905080610f3a5760405162461bcd60e51b815260206004820152600f60248201526e151c985b9cd9995c8819985a5b1959608a1b6044820152606401610afe565b505050565b336000908152600b602052604090205460ff16610f8d5760405162461bcd60e51b815260206004820152600c60248201526b13595b58995c8811d85d195960a21b6044820152606401610afe565b60108281548110610fa057610fa0612c85565b600091825260209091206007600890920201015460ff1615610ff95760405162461bcd60e51b8152602060048201526012602482015271141c9bdc1bdcd85b0810d85b98d95b1b195960721b6044820152606401610afe565b6010828154811061100c5761100c612c85565b6000918252602090912060089091020160070154610100900460ff16156110695760405162461bcd60e51b8152602060048201526011602482015270141c9bdc1bdcd85b08115e1958dd5d1959607a1b6044820152606401610afe565b33600090815260126020908152604080832085845290915290205460ff16156110c45760405162461bcd60e51b815260206004820152600d60248201526c105b1c9958591e48159bdd1959609a1b6044820152606401610afe565b336001600160a01b0316601083815481106110e1576110e1612c85565b60009182526020909120600360089092020101546001600160a01b03160361114b5760405162461bcd60e51b815260206004820152601b60248201527f43616e6e6f7420766f7465206f6e206f776e2070726f706f73616c00000000006044820152606401610afe565b60006010838154811061116057611160612c85565b6000918252602080832033845260128252604080852088865290925292206008909102909101915082156111a857600582015461119e906001612cc4565b60058301556111be565b60068201546111b8906001612cc4565b60068301555b80548315156101000261ffff1990911617600117815560405133907fd30ac21a886171cfc6e0046ee7856df867d5007f0e95d20c98914472ec2b94029061121390879087909182521515602082015260400190565b60405180910390a25050505050565b6005610f3a828483612e55565b600a818154811061123f57600080fd5b6000918252602090912001546001600160a01b0316905081565b61126533600d54611fd1565b336000908152600c6020526040902054611280906001612cc4565b336000908152600c6020526040902055565b60606010805480602002602001604051908101604052809291908181526020016000905b8282101561147157838290600052602060002090600802016040518061012001604052908160008201548152602001600182015481526020016002820180546112fe90612c1c565b80601f016020809104026020016040519081016040528092919081815260200182805461132a90612c1c565b80156113775780601f1061134c57610100808354040283529160200191611377565b820191906000526020600020905b81548152906001019060200180831161135a57829003601f168201915b505050918352505060038201546001600160a01b031660208201526004820180546040909201916113a790612c1c565b80601f01602080910402602001604051908101604052809291908181526020018280546113d390612c1c565b80156114205780601f106113f557610100808354040283529160200191611420565b820191906000526020600020905b81548152906001019060200180831161140357829003601f168201915b505050918352505060058201546020808301919091526006830154604083015260079092015460ff8082161515606084015261010090910416151560809091015290825260019290920191016112b6565b50505050905090565b60606011805480602002602001604051908101604052809291908181526020016000905b8282101561147157838290600052602060002090600302016040518060600160405290816000820180546114d190612c1c565b80601f01602080910402602001604051908101604052809291908181526020018280546114fd90612c1c565b801561154a5780601f1061151f5761010080835404028352916020019161154a565b820191906000526020600020905b81548152906001019060200180831161152d57829003601f168201915b505050918352505060018201546020820152600282015460409091019060ff16600481111561157b5761157b612862565b600481111561158c5761158c612862565b815250508152602001906001019061149e565b600f805461082690612c1c565b6005805461082690612c1c565b6115c1611f77565b6115cb600061209f565b565b6060600f8054610a3e90612c1c565b6006610f3a828483612e55565b6004805461082690612c1c565b6009546001600160a01b031633146116205760405162461bcd60e51b8152600401610afe90612f15565b611629826120f1565b600a805460018181019092557fc65a7bb8d6351c1cf70c95a316cc6a92839c986682d98bc35f958f4883f9d2a80180546001600160a01b039094166001600160a01b0319909416841790556000928352600b60209081526040808520805460ff1916909317909255600c905290912055565b6060600a805480602002602001604051908101604052809291908181526020018280548015610ab757602002820191906000526020600020905b81546001600160a01b031681526001909101906020018083116116d5575050505050905090565b3360008181526001602090815260408083206001600160a01b03871680855290835292819020805460ff191686151590811790915590519081529192917f17307eab39ab6107e8899845ad3d59bd9653f200f220920489ca2b5937696c31910160405180910390a35050565b6009546001600160a01b031633146117925760405162461bcd60e51b8152600401610afe90612f15565b61179b336120f1565b600a805460018181019092557fc65a7bb8d6351c1cf70c95a316cc6a92839c986682d98bc35f958f4883f9d2a80180546001600160a01b031916339081179091556000908152600b60205260409020805460ff19169091179055565b6009546001600160a01b031633146118215760405162461bcd60e51b8152600401610afe90612f15565b6011604051806060016040528083815260200185815260200184600481111561184c5761184c612862565b905281546001810183556000928352602090922081519192600302019081906118759082612f3d565b506020820151816001015560408201518160020160006101000a81548160ff021916908360048111156118aa576118aa612862565b02179055505050505050565b601181815481106118c657600080fd5b90600052602060002090600302016000915090508060000180546118e990612c1c565b80601f016020809104026020016040519081016040528092919081815260200182805461191590612c1c565b80156119625780601f1061193757610100808354040283529160200191611962565b820191906000526020600020905b81548152906001019060200180831161194557829003601f168201915b50505050600183015460029093015491929160ff16905083565b336000908152600b602052604081205460ff166119ca5760405162461bcd60e51b815260206004820152600c60248201526b13595b58995c8811d85d195960a21b6044820152606401610afe565b611a2660405180610120016040528060008152602001600081526020016060815260200160006001600160a01b031681526020016060815260200160008152602001600081526020016000151581526020016000151581525090565b601054611a34906001612cc4565b815233606082015260808101849052602081018581526040820184815260108054600181018255600091909152835160089091027f1b6847dc741a1b0cd08d278845f9d819d87b734759afb55fe2de5cb82a9ae672810191825592517f1b6847dc741a1b0cd08d278845f9d819d87b734759afb55fe2de5cb82a9ae673840155905183927f1b6847dc741a1b0cd08d278845f9d819d87b734759afb55fe2de5cb82a9ae6740190611ae59082612f3d565b5060608201516003820180546001600160a01b0319166001600160a01b0390921691909117905560808201516004820190611b209082612f3d565b5060a0820151600582015560c0820151600682015560e0820151600790910180546101009384015161ffff1990911692151561ff001916929092179115159092021790558051602080830151604080519384523392840192909252908201527f3417b456fad6209c73445d5efd446d686e75e4560f0f50c13b5a5cde976447b49060600160405180910390a151949350505050565b611bbd611f77565b60008381526007602052604090206001015460ff1615611c295760405162461bcd60e51b815260206004820152602160248201527f436f6c6c65637469626c6520746f6b656e20616c7265616479206372656174656044820152601960fa1b6064820152608401610afe565b6000838152600760205260409020611c42828483612e55565b50505060009081526007602052604090206001908101805460ff19169091179055565b6006805461082690612c1c565b336001600160a01b0387161480611cac57506001600160a01b038616600090815260016020908152604080832033845290915290205460ff165b611ce95760405162461bcd60e51b815260206004820152600e60248201526d1393d517d055551213d49256915160921b6044820152606401610afe565b6001600160a01b03861660009081526020818152604080832087845290915281208054859290611d1a908490612cb1565b90915550506001600160a01b03851660009081526020818152604080832087845290915281208054859290611d50908490612cc4565b909155505060408051858152602081018590526001600160a01b03808816929089169133917fc3d58168c5ae7397731d063d5bbf3d657854427343f4c083240f7aacaa2d0f62910160405180910390a46001600160a01b0385163b15611e3b5760405163f23a6e6160e01b808252906001600160a01b0387169063f23a6e6190611de89033908b908a908a908a908a90600401612ffc565b6020604051808303816000875af1158015611e07573d6000803e3d6000fd5b505050506040513d601f19601f82011682018060405250810190611e2b9190612dc8565b6001600160e01b03191614611e48565b6001600160a01b03851615155b611e645760405162461bcd60e51b8152600401610afe90612de5565b505050505050565b611e74611f77565b6001600160a01b038116611ed95760405162461bcd60e51b815260206004820152602660248201527f4f776e61626c653a206e6577206f776e657220697320746865207a65726f206160448201526564647265737360d01b6064820152608401610afe565b611ee28161209f565b50565b60606000611ef283612116565b60010190506000816001600160401b03811115611f1157611f1161298d565b6040519080825280601f01601f191660200182016040528015611f3b576020820181803683370190505b5090508181016020015b600019016f181899199a1a9b1b9c1cb0b131b232b360811b600a86061a8153600a8504945084611f4557509392505050565b6002546001600160a01b031633146115cb5760405162461bcd60e51b815260206004820181905260248201527f4f776e61626c653a2063616c6c6572206973206e6f7420746865206f776e65726044820152606401610afe565b80600081116120225760405162461bcd60e51b815260206004820181905260248201527f436f6c6c65637469626c652063616e6e6f7420626520612073717561642069646044820152606401610afe565b60008281526007602052604090206001015460ff166120835760405162461bcd60e51b815260206004820152601d60248201527f436f6c6c65637469626c6520746f6b656e206e6f7420637265617465640000006044820152606401610afe565b610f3a83836001604051806020016040528060008152506121ee565b600280546001600160a01b038381166001600160a01b0319831681179093556040519116919082907f8be0079c531659141344cd1fd0a4f28419497f9722a3daafe3b4186f6b6457e090600090a35050565b611ee281336001600160a01b03166001604051806020016040528060008152506121ee565b60008072184f03e93ff9f4daa797ed6e38ed64bf6a1f0160401b83106121555772184f03e93ff9f4daa797ed6e38ed64bf6a1f0160401b830492506040015b6d04ee2d6d415b85acef81000000008310612181576d04ee2d6d415b85acef8100000000830492506020015b662386f26fc10000831061219f57662386f26fc10000830492506010015b6305f5e10083106121b7576305f5e100830492506008015b61271083106121cb57612710830492506004015b606483106121dd576064830492506002015b600a83106108135760010192915050565b6001600160a01b0384166000908152602081815260408083208684529091528120805484929061221f908490612cc4565b909155505060408051848152602081018490526001600160a01b0386169160009133917fc3d58168c5ae7397731d063d5bbf3d657854427343f4c083240f7aacaa2d0f62910160405180910390a46001600160a01b0384163b156123075760405163f23a6e6160e01b808252906001600160a01b0386169063f23a6e61906122b4903390600090899089908990600401613043565b6020604051808303816000875af11580156122d3573d6000803e3d6000fd5b505050506040513d601f19601f820116820180604052508101906122f79190612dc8565b6001600160e01b03191614612314565b6001600160a01b03841615155b6123305760405162461bcd60e51b8152600401610afe90612de5565b50505050565b6001600160a01b0381168114611ee257600080fd5b6000806040838503121561235e57600080fd5b823561236981612336565b946020939093013593505050565b60006020828403121561238957600080fd5b5035919050565b60005b838110156123ab578181015183820152602001612393565b50506000910152565b600081518084526123cc816020860160208601612390565b601f01601f19169290920160200192915050565b60006101208b83528a60208401528060408401526124008184018b6123b4565b6001600160a01b038a1660608501528381036080850152905061242381896123b4565b60a0840197909752505060c081019390935290151560e083015215156101009091015295945050505050565b6001600160e01b031981168114611ee257600080fd5b60006020828403121561247757600080fd5b81356124828161244f565b9392505050565b60208152600061248260208301846123b4565b6000602082840312156124ae57600080fd5b813561248281612336565b6060815260006124cc60608301866123b4565b9315156020830152506001600160a01b0391909116604090910152919050565b60008083601f8401126124fe57600080fd5b5081356001600160401b0381111561251557600080fd5b6020830191508360208260051b850101111561253057600080fd5b9250929050565b60008083601f84011261254957600080fd5b5081356001600160401b0381111561256057600080fd5b60208301915083602082850101111561253057600080fd5b60008060008060008060008060a0898b03121561259457600080fd5b883561259f81612336565b975060208901356125af81612336565b965060408901356001600160401b03808211156125cb57600080fd5b6125d78c838d016124ec565b909850965060608b01359150808211156125f057600080fd5b6125fc8c838d016124ec565b909650945060808b013591508082111561261557600080fd5b506126228b828c01612537565b999c989b5096995094979396929594505050565b6000806000806040858703121561264c57600080fd5b84356001600160401b038082111561266357600080fd5b61266f888389016124ec565b9096509450602087013591508082111561268857600080fd5b50612695878288016124ec565b95989497509550505050565b6020808252825182820181905260009190848201906040850190845b818110156126d9578351835292840192918401916001016126bd565b50909695505050505050565b803580151581146126f557600080fd5b919050565b60008060006060848603121561270f57600080fd5b8335925060208401359150612726604085016126e5565b90509250925092565b6000806020838503121561274257600080fd5b82356001600160401b0381111561275857600080fd5b61276485828601612537565b90969095509350505050565b60006020808301818452808551808352604092508286019150828160051b87010184880160005b8381101561285457603f1989840301855281516101208151855288820151898601528782015181898701526127ce828701826123b4565b9150506060808301516127eb828801826001600160a01b03169052565b50506080808301518683038288015261280483826123b4565b9250505060a080830151818701525060c080830151818701525060e0808301516128318288018215159052565b505061010091820151151594909101939093529386019390860190600101612797565b509098975050505050505050565b634e487b7160e01b600052602160045260246000fd5b6005811061289657634e487b7160e01b600052602160045260246000fd5b9052565b60006020808301818452808551808352604092508286019150828160051b87010184880160005b8381101561285457603f198984030185528151606081518186526128e7828701826123b4565b915050888201518986015287820151915061290488860183612878565b95880195935050908601906001016128c1565b6020808252825182820181905260009190848201906040850190845b818110156126d95783516001600160a01b031683529284019291840191600101612933565b6000806040838503121561296b57600080fd5b823561297681612336565b9150612984602084016126e5565b90509250929050565b634e487b7160e01b600052604160045260246000fd5b600082601f8301126129b457600080fd5b81356001600160401b03808211156129ce576129ce61298d565b604051601f8301601f19908116603f011681019082821181831017156129f6576129f661298d565b81604052838152866020858801011115612a0f57600080fd5b836020870160208301376000602085830101528094505050505092915050565b600080600060608486031215612a4457600080fd5b83359250602084013560058110612a5a57600080fd5b915060408401356001600160401b03811115612a7557600080fd5b612a81868287016129a3565b9150509250925092565b606081526000612a9e60608301866123b4565b9050836020830152612ab36040830184612878565b949350505050565b600080600060608486031215612ad057600080fd5b8335925060208401356001600160401b0380821115612aee57600080fd5b612afa878388016129a3565b93506040860135915080821115612b1057600080fd5b50612a81868287016129a3565b600080600060408486031215612b3257600080fd5b8335925060208401356001600160401b03811115612b4f57600080fd5b612b5b86828701612537565b9497909650939450505050565b60008060408385031215612b7b57600080fd5b8235612b8681612336565b91506020830135612b9681612336565b809150509250929050565b60008060008060008060a08789031215612bba57600080fd5b8635612bc581612336565b95506020870135612bd581612336565b9450604087013593506060870135925060808701356001600160401b03811115612bfe57600080fd5b612c0a89828a01612537565b979a9699509497509295939492505050565b600181811c90821680612c3057607f821691505b602082108103612c5057634e487b7160e01b600052602260045260246000fd5b50919050565b60008351612c68818460208801612390565b835190830190612c7c818360208801612390565b01949350505050565b634e487b7160e01b600052603260045260246000fd5b634e487b7160e01b600052601160045260246000fd5b8181038181111561081357610813612c9b565b8082018082111561081357610813612c9b565b81835260006001600160fb1b03831115612cf057600080fd5b8260051b80836020870137939093016020019392505050565b604081526000612d1d604083018688612cd7565b8281036020840152612d30818587612cd7565b979650505050505050565b81835281816020850137506000828201602090810191909152601f909101601f19169091010190565b6001600160a01b0389811682528816602082015260a060408201819052600090612d91908301888a612cd7565b8281036060840152612da4818789612cd7565b90508281036080840152612db9818587612d3b565b9b9a5050505050505050505050565b600060208284031215612dda57600080fd5b81516124828161244f565b60208082526010908201526f155394d0519157d49150d2541251539560821b604082015260600190565b601f821115610f3a57600081815260208120601f850160051c81016020861015612e365750805b601f850160051c820191505b81811015611e6457828155600101612e42565b6001600160401b03831115612e6c57612e6c61298d565b612e8083612e7a8354612c1c565b83612e0f565b6000601f841160018114612eb45760008515612e9c5750838201355b600019600387901b1c1916600186901b178355612f0e565b600083815260209020601f19861690835b82811015612ee55786850135825560209485019460019092019101612ec5565b5086821015612f025760001960f88860031b161c19848701351681555b505060018560011b0183555b5050505050565b6020808252600e908201526d139bdb8810591b5a5b8810d85b1b60921b604082015260600190565b81516001600160401b03811115612f5657612f5661298d565b612f6a81612f648454612c1c565b84612e0f565b602080601f831160018114612f9f5760008415612f875750858301515b600019600386901b1c1916600185901b178555611e64565b600085815260208120601f198616915b82811015612fce57888601518255948401946001909101908401612faf565b5085821015612fec5787850151600019600388901b60f8161c191681555b5050505050600190811b01905550565b6001600160a01b03878116825286166020820152604081018590526060810184905260a0608082018190526000906130379083018486612d3b565b98975050505050505050565b6001600160a01b03868116825285166020820152604081018490526060810183905260a060808201819052600090612d30908301846123b456fea2646970667358221220ac8c76efdfbaecffa9ce264a9cffbe14c7c6d52a191fc6f535ea379ab7a5352964736f6c63430008110033a2646970667358221220754ea812624c9b6725196f81f084969f3d4329fc9776435394d1ac71c988fbce64736f6c63430008110033",
    "linkReferences": {}
  },
  "methodIdentifiers": {
    "createSquad(string,string,string,string)": "fcfa5267",
    "getSquads()": "a2e1b4d0",
    "squadAddresses(uint256)": "c0d944d4",
    "squads(uint256)": "de1eecc9"
  },
  "id": 33
}