{
  "abi": [
    {
      "inputs": [
        {
          "internalType": "string",
          "name": "_baseURI",
          "type": "string"
        },
        {
          "internalType": "string",
          "name": "_contractURI",
          "type": "string"
        }
      ],
      "stateMutability": "nonpayable",
      "type": "constructor"
    },
    {
      "anonymous": false,
      "inputs": [
        {
          "indexed": true,
          "internalType": "address",
          "name": "owner",
          "type": "address"
        },
        {
          "indexed": true,
          "internalType": "address",
          "name": "operator",
          "type": "address"
        },
        {
          "indexed": false,
          "internalType": "bool",
          "name": "approved",
          "type": "bool"
        }
      ],
      "name": "ApprovalForAll",
      "type": "event"
    },
    {
      "anonymous": false,
      "inputs": [
        {
          "indexed": true,
          "internalType": "address",
          "name": "previousOwner",
          "type": "address"
        },
        {
          "indexed": true,
          "internalType": "address",
          "name": "newOwner",
          "type": "address"
        }
      ],
      "name": "OwnershipTransferred",
      "type": "event"
    },
    {
      "anonymous": false,
      "inputs": [
        {
          "indexed": true,
          "internalType": "address",
          "name": "operator",
          "type": "address"
        },
        {
          "indexed": true,
          "internalType": "address",
          "name": "from",
          "type": "address"
        },
        {
          "indexed": true,
          "internalType": "address",
          "name": "to",
          "type": "address"
        },
        {
          "indexed": false,
          "internalType": "uint256[]",
          "name": "ids",
          "type": "uint256[]"
        },
        {
          "indexed": false,
          "internalType": "uint256[]",
          "name": "amounts",
          "type": "uint256[]"
        }
      ],
      "name": "TransferBatch",
      "type": "event"
    },
    {
      "anonymous": false,
      "inputs": [
        {
          "indexed": true,
          "internalType": "address",
          "name": "operator",
          "type": "address"
        },
        {
          "indexed": true,
          "internalType": "address",
          "name": "from",
          "type": "address"
        },
        {
          "indexed": true,
          "internalType": "address",
          "name": "to",
          "type": "address"
        },
        {
          "indexed": false,
          "internalType": "uint256",
          "name": "id",
          "type": "uint256"
        },
        {
          "indexed": false,
          "internalType": "uint256",
          "name": "amount",
          "type": "uint256"
        }
      ],
      "name": "TransferSingle",
      "type": "event"
    },
    {
      "anonymous": false,
      "inputs": [
        {
          "indexed": false,
          "internalType": "string",
          "name": "value",
          "type": "string"
        },
        {
          "indexed": true,
          "internalType": "uint256",
          "name": "id",
          "type": "uint256"
        }
      ],
      "name": "URI",
      "type": "event"
    },
    {
      "inputs": [
        {
          "internalType": "address",
          "name": "",
          "type": "address"
        },
        {
          "internalType": "uint256",
          "name": "",
          "type": "uint256"
        }
      ],
      "name": "balanceOf",
      "outputs": [
        {
          "internalType": "uint256",
          "name": "",
          "type": "uint256"
        }
      ],
      "stateMutability": "view",
      "type": "function"
    },
    {
      "inputs": [
        {
          "internalType": "address[]",
          "name": "owners",
          "type": "address[]"
        },
        {
          "internalType": "uint256[]",
          "name": "ids",
          "type": "uint256[]"
        }
      ],
      "name": "balanceOfBatch",
      "outputs": [
        {
          "internalType": "uint256[]",
          "name": "balances",
          "type": "uint256[]"
        }
      ],
      "stateMutability": "view",
      "type": "function"
    },
    {
      "inputs": [],
      "name": "baseURI",
      "outputs": [
        {
          "internalType": "string",
          "name": "",
          "type": "string"
        }
      ],
      "stateMutability": "view",
      "type": "function"
    },
    {
      "inputs": [],
      "name": "collectibleEditions",
      "outputs": [
        {
          "internalType": "uint256",
          "name": "",
          "type": "uint256"
        }
      ],
      "stateMutability": "view",
      "type": "function"
    },
    {
      "inputs": [
        {
          "internalType": "uint256",
          "name": "",
          "type": "uint256"
        }
      ],
      "name": "collectibles",
      "outputs": [
        {
          "internalType": "bytes",
          "name": "metadata",
          "type": "bytes"
        },
        {
          "internalType": "bool",
          "name": "created",
          "type": "bool"
        },
        {
          "internalType": "address",
          "name": "minter",
          "type": "address"
        }
      ],
      "stateMutability": "view",
      "type": "function"
    },
    {
      "inputs": [],
      "name": "contractURI",
      "outputs": [
        {
          "internalType": "string",
          "name": "",
          "type": "string"
        }
      ],
      "stateMutability": "view",
      "type": "function"
    },
    {
      "inputs": [
        {
          "internalType": "uint256",
          "name": "tokenId",
          "type": "uint256"
        },
        {
          "internalType": "bytes",
          "name": "metadataLink",
          "type": "bytes"
        }
      ],
      "name": "createNewCollectible",
      "outputs": [],
      "stateMutability": "nonpayable",
      "type": "function"
    },
    {
      "inputs": [
        {
          "internalType": "address",
          "name": "",
          "type": "address"
        },
        {
          "internalType": "address",
          "name": "",
          "type": "address"
        }
      ],
      "name": "isApprovedForAll",
      "outputs": [
        {
          "internalType": "bool",
          "name": "",
          "type": "bool"
        }
      ],
      "stateMutability": "view",
      "type": "function"
    },
    {
      "inputs": [],
      "name": "name",
      "outputs": [
        {
          "internalType": "string",
          "name": "",
          "type": "string"
        }
      ],
      "stateMutability": "view",
      "type": "function"
    },
    {
      "inputs": [],
      "name": "owner",
      "outputs": [
        {
          "internalType": "address",
          "name": "",
          "type": "address"
        }
      ],
      "stateMutability": "view",
      "type": "function"
    },
    {
      "inputs": [],
      "name": "renounceOwnership",
      "outputs": [],
      "stateMutability": "nonpayable",
      "type": "function"
    },
    {
      "inputs": [
        {
          "internalType": "address",
          "name": "from",
          "type": "address"
        },
        {
          "internalType": "address",
          "name": "to",
          "type": "address"
        },
        {
          "internalType": "uint256[]",
          "name": "ids",
          "type": "uint256[]"
        },
        {
          "internalType": "uint256[]",
          "name": "amounts",
          "type": "uint256[]"
        },
        {
          "internalType": "bytes",
          "name": "data",
          "type": "bytes"
        }
      ],
      "name": "safeBatchTransferFrom",
      "outputs": [],
      "stateMutability": "nonpayable",
      "type": "function"
    },
    {
      "inputs": [
        {
          "internalType": "address",
          "name": "from",
          "type": "address"
        },
        {
          "internalType": "address",
          "name": "to",
          "type": "address"
        },
        {
          "internalType": "uint256",
          "name": "id",
          "type": "uint256"
        },
        {
          "internalType": "uint256",
          "name": "amount",
          "type": "uint256"
        },
        {
          "internalType": "bytes",
          "name": "data",
          "type": "bytes"
        }
      ],
      "name": "safeTransferFrom",
      "outputs": [],
      "stateMutability": "nonpayable",
      "type": "function"
    },
    {
      "inputs": [
        {
          "internalType": "address",
          "name": "operator",
          "type": "address"
        },
        {
          "internalType": "bool",
          "name": "approved",
          "type": "bool"
        }
      ],
      "name": "setApprovalForAll",
      "outputs": [],
      "stateMutability": "nonpayable",
      "type": "function"
    },
    {
      "inputs": [
        {
          "internalType": "string",
          "name": "_baseURI",
          "type": "string"
        }
      ],
      "name": "setBaseURI",
      "outputs": [],
      "stateMutability": "nonpayable",
      "type": "function"
    },
    {
      "inputs": [
        {
          "internalType": "string",
          "name": "_contractURI",
          "type": "string"
        }
      ],
      "name": "setContractURI",
      "outputs": [],
      "stateMutability": "nonpayable",
      "type": "function"
    },
    {
      "inputs": [
        {
          "internalType": "bytes4",
          "name": "interfaceId",
          "type": "bytes4"
        }
      ],
      "name": "supportsInterface",
      "outputs": [
        {
          "internalType": "bool",
          "name": "",
          "type": "bool"
        }
      ],
      "stateMutability": "view",
      "type": "function"
    },
    {
      "inputs": [],
      "name": "symbol",
      "outputs": [
        {
          "internalType": "string",
          "name": "",
          "type": "string"
        }
      ],
      "stateMutability": "view",
      "type": "function"
    },
    {
      "inputs": [
        {
          "internalType": "address",
          "name": "newOwner",
          "type": "address"
        }
      ],
      "name": "transferOwnership",
      "outputs": [],
      "stateMutability": "nonpayable",
      "type": "function"
    },
    {
      "inputs": [
        {
          "internalType": "uint256",
          "name": "id",
          "type": "uint256"
        }
      ],
      "name": "uri",
      "outputs": [
        {
          "internalType": "string",
          "name": "",
          "type": "string"
        }
      ],
      "stateMutability": "view",
      "type": "function"
    },
    {
      "inputs": [
        {
          "internalType": "address payable",
          "name": "to",
          "type": "address"
        }
      ],
      "name": "withdraw",
      "outputs": [],
      "stateMutability": "nonpayable",
      "type": "function"
    }
  ],
  "bytecode": {
    "object": "0x60806040523480156200001157600080fd5b5060405162001bdb38038062001bdb8339810160408190526200003491620001bf565b6200003f33620000a8565b60056200004d8382620002b8565b5060066200005c8282620002b8565b5050600080525060076020527f6d5257204ebe7d88fd91ae87941cb2dd9d8062b64ae5a2bd2d28ec40b9fbf6e0805430610100026001600160a81b031990911617600117905562000384565b600280546001600160a01b038381166001600160a01b0319831681179093556040519116919082907f8be0079c531659141344cd1fd0a4f28419497f9722a3daafe3b4186f6b6457e090600090a35050565b634e487b7160e01b600052604160045260246000fd5b600082601f8301126200012257600080fd5b81516001600160401b03808211156200013f576200013f620000fa565b604051601f8301601f19908116603f011681019082821181831017156200016a576200016a620000fa565b816040528381526020925086838588010111156200018757600080fd5b600091505b83821015620001ab57858201830151818301840152908201906200018c565b600093810190920192909252949350505050565b60008060408385031215620001d357600080fd5b82516001600160401b0380821115620001eb57600080fd5b620001f98683870162000110565b935060208501519150808211156200021057600080fd5b506200021f8582860162000110565b9150509250929050565b600181811c908216806200023e57607f821691505b6020821081036200025f57634e487b7160e01b600052602260045260246000fd5b50919050565b601f821115620002b357600081815260208120601f850160051c810160208610156200028e5750805b601f850160051c820191505b81811015620002af578281556001016200029a565b5050505b505050565b81516001600160401b03811115620002d457620002d4620000fa565b620002ec81620002e5845462000229565b8462000265565b602080601f8311600181146200032457600084156200030b5750858301515b600019600386901b1c1916600185901b178555620002af565b600085815260208120601f198616915b82811015620003555788860151825594840194600190910190840162000334565b5085821015620003745787850151600019600388901b60f8161c191681555b5050505050600190811b01905550565b61184780620003946000396000f3fe608060405234801561001057600080fd5b50600436106101365760003560e01c8063715018a6116100b8578063a22cb4651161007c578063a22cb4651461028d578063e4fd69f2146102a0578063e8a3d485146102b3578063e985e9c5146102bb578063f242432a146102e9578063f2fde38b146102fc57600080fd5b8063715018a6146102465780637e79407b1461024e5780638da5cb5b14610257578063938e3d7b1461027257806395d89b411461028557600080fd5b80632eb2c2d6116100ff5780632eb2c2d6146101e35780634e1273f4146101f857806351cff8d91461021857806355f804b31461022b5780636c0360eb1461023e57600080fd5b8062fdd58e1461013b57806301ffc9a71461017657806306fdde03146101995780630a09859d146101ae5780630e89341c146101d0575b600080fd5b61016361014936600461103f565b600060208181529281526040808220909352908152205481565b6040519081526020015b60405180910390f35b610189610184366004611081565b61030f565b604051901515815260200161016d565b6101a1610361565b60405161016d91906110f5565b6101c16101bc366004611108565b6103ef565b60405161016d93929190611121565b6101a16101de366004611108565b6104a7565b6101f66101f13660046111e2565b61056a565b005b61020b6102063660046112a1565b610835565b60405161016d919061130d565b6101f6610226366004611351565b61096a565b6101f661023936600461136e565b610a0c565b6101a1610a19565b6101f6610a26565b61016360085481565b6002546040516001600160a01b03909116815260200161016d565b6101f661028036600461136e565b610a3a565b6101a1610a47565b6101f661029b3660046113b0565b610a54565b6101f66102ae3660046113ee565b610ac0565b6101a1610b70565b6101896102c936600461143a565b600160209081526000928352604080842090915290825290205460ff1681565b6101f66102f7366004611468565b610b7d565b6101f661030a366004611351565b610d9a565b60006301ffc9a760e01b6001600160e01b0319831614806103405750636cdb3d1360e11b6001600160e01b03198316145b8061035b57506303a24d0760e21b6001600160e01b03198316145b92915050565b6003805461036e906114e4565b80601f016020809104026020016040519081016040528092919081815260200182805461039a906114e4565b80156103e75780601f106103bc576101008083540402835291602001916103e7565b820191906000526020600020905b8154815290600101906020018083116103ca57829003601f168201915b505050505081565b60076020526000908152604090208054819061040a906114e4565b80601f0160208091040260200160405190810160405280929190818152602001828054610436906114e4565b80156104835780601f1061045857610100808354040283529160200191610483565b820191906000526020600020905b81548152906001019060200180831161046657829003601f168201915b5050506001909301549192505060ff8116906001600160a01b036101009091041683565b60606000600580546104b8906114e4565b80601f01602080910402602001604051908101604052809291908181526020018280546104e4906114e4565b80156105315780601f1061050657610100808354040283529160200191610531565b820191906000526020600020905b81548152906001019060200180831161051457829003601f168201915b505050505090508061054284610e13565b60405160200161055392919061151e565b604051602081830303815290604052915050919050565b8483146105b05760405162461bcd60e51b815260206004820152600f60248201526e0988a9c8ea890be9a92a69a82a8869608b1b60448201526064015b60405180910390fd5b336001600160a01b03891614806105ea57506001600160a01b038816600090815260016020908152604080832033845290915290205460ff165b6106275760405162461bcd60e51b815260206004820152600e60248201526d1393d517d055551213d49256915160921b60448201526064016105a7565b60008060005b878110156106e2578888828181106106475761064761154d565b9050602002013592508686828181106106625761066261154d565b6001600160a01b038e166000908152602081815260408083208984528252822080549390910294909401359550859392509061069f908490611579565b90915550506001600160a01b038a16600090815260208181526040808320868452909152812080548492906106d590849061158c565b909155505060010161062d565b50886001600160a01b03168a6001600160a01b0316336001600160a01b03167f4a39dc06d4c0dbc64b70af90fd698a233a518aa5d07e595d983b8c0526c8f7fb8b8b8b8b60405161073694939291906115d1565b60405180910390a46001600160a01b0389163b156107dd5760405163bc197c8160e01b808252906001600160a01b038b169063bc197c819061078a9033908f908e908e908e908e908e908e9060040161162c565b6020604051808303816000875af11580156107a9573d6000803e3d6000fd5b505050506040513d601f19601f820116820180604052508101906107cd9190611690565b6001600160e01b031916146107ea565b6001600160a01b03891615155b6108295760405162461bcd60e51b815260206004820152601060248201526f155394d0519157d49150d2541251539560821b60448201526064016105a7565b50505050505050505050565b60608382146108785760405162461bcd60e51b815260206004820152600f60248201526e0988a9c8ea890be9a92a69a82a8869608b1b60448201526064016105a7565b8367ffffffffffffffff811115610891576108916116ad565b6040519080825280602002602001820160405280156108ba578160200160208202803683370190505b50905060005b84811015610961576000808787848181106108dd576108dd61154d565b90506020020160208101906108f29190611351565b6001600160a01b03166001600160a01b0316815260200190815260200160002060008585848181106109265761092661154d565b9050602002013581526020019081526020016000205482828151811061094e5761094e61154d565b60209081029190910101526001016108c0565b50949350505050565b610972610ea6565b60405147906000906001600160a01b0384169083908381818185875af1925050503d80600081146109bf576040519150601f19603f3d011682016040523d82523d6000602084013e6109c4565b606091505b5050905080610a075760405162461bcd60e51b815260206004820152600f60248201526e151c985b9cd9995c8819985a5b1959608a1b60448201526064016105a7565b505050565b6005610a07828483611709565b6005805461036e906114e4565b610a2e610ea6565b610a386000610f00565b565b6006610a07828483611709565b6004805461036e906114e4565b3360008181526001602090815260408083206001600160a01b03871680855290835292819020805460ff191686151590811790915590519081529192917f17307eab39ab6107e8899845ad3d59bd9653f200f220920489ca2b5937696c31910160405180910390a35050565b610ac8610ea6565b60008381526007602052604090206001015460ff1615610b345760405162461bcd60e51b815260206004820152602160248201527f436f6c6c65637469626c6520746f6b656e20616c7265616479206372656174656044820152601960fa1b60648201526084016105a7565b6000838152600760205260409020610b4d828483611709565b50505060009081526007602052604090206001908101805460ff19169091179055565b6006805461036e906114e4565b336001600160a01b0387161480610bb757506001600160a01b038616600090815260016020908152604080832033845290915290205460ff165b610bf45760405162461bcd60e51b815260206004820152600e60248201526d1393d517d055551213d49256915160921b60448201526064016105a7565b6001600160a01b03861660009081526020818152604080832087845290915281208054859290610c25908490611579565b90915550506001600160a01b03851660009081526020818152604080832087845290915281208054859290610c5b90849061158c565b909155505060408051858152602081018590526001600160a01b03808816929089169133917fc3d58168c5ae7397731d063d5bbf3d657854427343f4c083240f7aacaa2d0f62910160405180910390a46001600160a01b0385163b15610d465760405163f23a6e6160e01b808252906001600160a01b0387169063f23a6e6190610cf39033908b908a908a908a908a906004016117ca565b6020604051808303816000875af1158015610d12573d6000803e3d6000fd5b505050506040513d601f19601f82011682018060405250810190610d369190611690565b6001600160e01b03191614610d53565b6001600160a01b03851615155b610d925760405162461bcd60e51b815260206004820152601060248201526f155394d0519157d49150d2541251539560821b60448201526064016105a7565b505050505050565b610da2610ea6565b6001600160a01b038116610e075760405162461bcd60e51b815260206004820152602660248201527f4f776e61626c653a206e6577206f776e657220697320746865207a65726f206160448201526564647265737360d01b60648201526084016105a7565b610e1081610f00565b50565b60606000610e2083610f52565b600101905060008167ffffffffffffffff811115610e4057610e406116ad565b6040519080825280601f01601f191660200182016040528015610e6a576020820181803683370190505b5090508181016020015b600019016f181899199a1a9b1b9c1cb0b131b232b360811b600a86061a8153600a8504945084610e7457509392505050565b6002546001600160a01b03163314610a385760405162461bcd60e51b815260206004820181905260248201527f4f776e61626c653a2063616c6c6572206973206e6f7420746865206f776e657260448201526064016105a7565b600280546001600160a01b038381166001600160a01b0319831681179093556040519116919082907f8be0079c531659141344cd1fd0a4f28419497f9722a3daafe3b4186f6b6457e090600090a35050565b60008072184f03e93ff9f4daa797ed6e38ed64bf6a1f0160401b8310610f915772184f03e93ff9f4daa797ed6e38ed64bf6a1f0160401b830492506040015b6d04ee2d6d415b85acef81000000008310610fbd576d04ee2d6d415b85acef8100000000830492506020015b662386f26fc100008310610fdb57662386f26fc10000830492506010015b6305f5e1008310610ff3576305f5e100830492506008015b612710831061100757612710830492506004015b60648310611019576064830492506002015b600a831061035b5760010192915050565b6001600160a01b0381168114610e1057600080fd5b6000806040838503121561105257600080fd5b823561105d8161102a565b946020939093013593505050565b6001600160e01b031981168114610e1057600080fd5b60006020828403121561109357600080fd5b813561109e8161106b565b9392505050565b60005b838110156110c05781810151838201526020016110a8565b50506000910152565b600081518084526110e18160208601602086016110a5565b601f01601f19169290920160200192915050565b60208152600061109e60208301846110c9565b60006020828403121561111a57600080fd5b5035919050565b60608152600061113460608301866110c9565b9315156020830152506001600160a01b0391909116604090910152919050565b60008083601f84011261116657600080fd5b50813567ffffffffffffffff81111561117e57600080fd5b6020830191508360208260051b850101111561119957600080fd5b9250929050565b60008083601f8401126111b257600080fd5b50813567ffffffffffffffff8111156111ca57600080fd5b60208301915083602082850101111561119957600080fd5b60008060008060008060008060a0898b0312156111fe57600080fd5b88356112098161102a565b975060208901356112198161102a565b9650604089013567ffffffffffffffff8082111561123657600080fd5b6112428c838d01611154565b909850965060608b013591508082111561125b57600080fd5b6112678c838d01611154565b909650945060808b013591508082111561128057600080fd5b5061128d8b828c016111a0565b999c989b5096995094979396929594505050565b600080600080604085870312156112b757600080fd5b843567ffffffffffffffff808211156112cf57600080fd5b6112db88838901611154565b909650945060208701359150808211156112f457600080fd5b5061130187828801611154565b95989497509550505050565b6020808252825182820181905260009190848201906040850190845b8181101561134557835183529284019291840191600101611329565b50909695505050505050565b60006020828403121561136357600080fd5b813561109e8161102a565b6000806020838503121561138157600080fd5b823567ffffffffffffffff81111561139857600080fd5b6113a4858286016111a0565b90969095509350505050565b600080604083850312156113c357600080fd5b82356113ce8161102a565b9150602083013580151581146113e357600080fd5b809150509250929050565b60008060006040848603121561140357600080fd5b83359250602084013567ffffffffffffffff81111561142157600080fd5b61142d868287016111a0565b9497909650939450505050565b6000806040838503121561144d57600080fd5b82356114588161102a565b915060208301356113e38161102a565b60008060008060008060a0878903121561148157600080fd5b863561148c8161102a565b9550602087013561149c8161102a565b94506040870135935060608701359250608087013567ffffffffffffffff8111156114c657600080fd5b6114d289828a016111a0565b979a9699509497509295939492505050565b600181811c908216806114f857607f821691505b60208210810361151857634e487b7160e01b600052602260045260246000fd5b50919050565b600083516115308184602088016110a5565b8351908301906115448183602088016110a5565b01949350505050565b634e487b7160e01b600052603260045260246000fd5b634e487b7160e01b600052601160045260246000fd5b8181038181111561035b5761035b611563565b8082018082111561035b5761035b611563565b81835260006001600160fb1b038311156115b857600080fd5b8260051b80836020870137939093016020019392505050565b6040815260006115e560408301868861159f565b82810360208401526115f881858761159f565b979650505050505050565b81835281816020850137506000828201602090810191909152601f909101601f19169091010190565b6001600160a01b0389811682528816602082015260a060408201819052600090611659908301888a61159f565b828103606084015261166c81878961159f565b90508281036080840152611681818587611603565b9b9a5050505050505050505050565b6000602082840312156116a257600080fd5b815161109e8161106b565b634e487b7160e01b600052604160045260246000fd5b601f821115610a0757600081815260208120601f850160051c810160208610156116ea5750805b601f850160051c820191505b81811015610d92578281556001016116f6565b67ffffffffffffffff831115611721576117216116ad565b6117358361172f83546114e4565b836116c3565b6000601f84116001811461176957600085156117515750838201355b600019600387901b1c1916600186901b1783556117c3565b600083815260209020601f19861690835b8281101561179a578685013582556020948501946001909201910161177a565b50868210156117b75760001960f88860031b161c19848701351681555b505060018560011b0183555b5050505050565b6001600160a01b03878116825286166020820152604081018590526060810184905260a0608082018190526000906118059083018486611603565b9897505050505050505056fea264697066735822122083c857960aacb60792e687ab2c1e567d729a17368200debd512d946a80e15bc764736f6c63430008110033",
    "linkReferences": {}
  },
  "methodIdentifiers": {
    "balanceOf(address,uint256)": "00fdd58e",
    "balanceOfBatch(address[],uint256[])": "4e1273f4",
    "baseURI()": "6c0360eb",
    "collectibleEditions()": "7e79407b",
    "collectibles(uint256)": "0a09859d",
    "contractURI()": "e8a3d485",
    "createNewCollectible(uint256,bytes)": "e4fd69f2",
    "isApprovedForAll(address,address)": "e985e9c5",
    "name()": "06fdde03",
    "owner()": "8da5cb5b",
    "renounceOwnership()": "715018a6",
    "safeBatchTransferFrom(address,address,uint256[],uint256[],bytes)": "2eb2c2d6",
    "safeTransferFrom(address,address,uint256,uint256,bytes)": "f242432a",
    "setApprovalForAll(address,bool)": "a22cb465",
    "setBaseURI(string)": "55f804b3",
    "setContractURI(string)": "938e3d7b",
    "supportsInterface(bytes4)": "01ffc9a7",
    "symbol()": "95d89b41",
    "transferOwnership(address)": "f2fde38b",
    "uri(uint256)": "0e89341c",
    "withdraw(address)": "51cff8d9"
  },
  "id": 30
}